{
  "_format": "hh-sol-artifact-1",
  "contractName": "BEP1155NFT",
  "sourceName": "contracts/BEP1155NFT.sol",
  "abi": [
    {
      "inputs": [
        {
          "internalType": "string",
          "name": "_uri",
          "type": "string"
        }
      ],
      "stateMutability": "nonpayable",
      "type": "constructor"
    },
    {
      "anonymous": false,
      "inputs": [
        {
          "indexed": true,
          "internalType": "address",
          "name": "account",
          "type": "address"
        },
        {
          "indexed": true,
          "internalType": "address",
          "name": "operator",
          "type": "address"
        },
        {
          "indexed": false,
          "internalType": "bool",
          "name": "approved",
          "type": "bool"
        }
      ],
      "name": "ApprovalForAll",
      "type": "event"
    },
    {
      "anonymous": false,
      "inputs": [
        {
          "indexed": true,
          "internalType": "address",
          "name": "beneficiary",
          "type": "address"
        },
        {
          "indexed": false,
          "internalType": "uint256",
          "name": "amount",
          "type": "uint256"
        }
      ],
      "name": "BalanceWithdrawn",
      "type": "event"
    },
    {
      "anonymous": false,
      "inputs": [
        {
          "indexed": true,
          "internalType": "address",
          "name": "previousOwner",
          "type": "address"
        },
        {
          "indexed": true,
          "internalType": "address",
          "name": "newOwner",
          "type": "address"
        }
      ],
      "name": "OwnershipTransferred",
      "type": "event"
    },
    {
      "anonymous": false,
      "inputs": [
        {
          "indexed": false,
          "internalType": "uint256",
          "name": "id",
          "type": "uint256"
        }
      ],
      "name": "TokenMinted",
      "type": "event"
    },
    {
      "anonymous": false,
      "inputs": [
        {
          "indexed": true,
          "internalType": "address",
          "name": "operator",
          "type": "address"
        },
        {
          "indexed": true,
          "internalType": "address",
          "name": "from",
          "type": "address"
        },
        {
          "indexed": true,
          "internalType": "address",
          "name": "to",
          "type": "address"
        },
        {
          "indexed": false,
          "internalType": "uint256[]",
          "name": "ids",
          "type": "uint256[]"
        },
        {
          "indexed": false,
          "internalType": "uint256[]",
          "name": "values",
          "type": "uint256[]"
        }
      ],
      "name": "TransferBatch",
      "type": "event"
    },
    {
      "anonymous": false,
      "inputs": [
        {
          "indexed": true,
          "internalType": "address",
          "name": "operator",
          "type": "address"
        },
        {
          "indexed": true,
          "internalType": "address",
          "name": "from",
          "type": "address"
        },
        {
          "indexed": true,
          "internalType": "address",
          "name": "to",
          "type": "address"
        },
        {
          "indexed": false,
          "internalType": "uint256",
          "name": "id",
          "type": "uint256"
        },
        {
          "indexed": false,
          "internalType": "uint256",
          "name": "value",
          "type": "uint256"
        }
      ],
      "name": "TransferSingle",
      "type": "event"
    },
    {
      "anonymous": false,
      "inputs": [
        {
          "indexed": false,
          "internalType": "string",
          "name": "value",
          "type": "string"
        },
        {
          "indexed": true,
          "internalType": "uint256",
          "name": "id",
          "type": "uint256"
        }
      ],
      "name": "URI",
      "type": "event"
    },
    {
      "inputs": [],
      "name": "_tokenId",
      "outputs": [
        {
          "internalType": "uint256",
          "name": "",
          "type": "uint256"
        }
      ],
      "stateMutability": "view",
      "type": "function"
    },
    {
      "inputs": [
        {
          "internalType": "address",
          "name": "account",
          "type": "address"
        },
        {
          "internalType": "uint256",
          "name": "id",
          "type": "uint256"
        }
      ],
      "name": "balanceOf",
      "outputs": [
        {
          "internalType": "uint256",
          "name": "",
          "type": "uint256"
        }
      ],
      "stateMutability": "view",
      "type": "function"
    },
    {
      "inputs": [
        {
          "internalType": "address[]",
          "name": "accounts",
          "type": "address[]"
        },
        {
          "internalType": "uint256[]",
          "name": "ids",
          "type": "uint256[]"
        }
      ],
      "name": "balanceOfBatch",
      "outputs": [
        {
          "internalType": "uint256[]",
          "name": "",
          "type": "uint256[]"
        }
      ],
      "stateMutability": "view",
      "type": "function"
    },
    {
      "inputs": [
        {
          "internalType": "address",
          "name": "_account",
          "type": "address"
        },
        {
          "internalType": "uint256",
          "name": "_id",
          "type": "uint256"
        },
        {
          "internalType": "uint256",
          "name": "_amount",
          "type": "uint256"
        }
      ],
      "name": "burnNFT",
      "outputs": [],
      "stateMutability": "nonpayable",
      "type": "function"
    },
    {
      "inputs": [],
      "name": "fetchMyNFTs",
      "outputs": [
        {
          "components": [
            {
              "internalType": "uint256",
              "name": "tokens",
              "type": "uint256"
            },
            {
              "internalType": "address",
              "name": "owner",
              "type": "address"
            },
            {
              "internalType": "uint256",
              "name": "tokenId",
              "type": "uint256"
            }
          ],
          "internalType": "struct BEP1155NFT.Token[]",
          "name": "",
          "type": "tuple[]"
        }
      ],
      "stateMutability": "view",
      "type": "function"
    },
    {
      "inputs": [
        {
          "internalType": "uint256",
          "name": "",
          "type": "uint256"
        }
      ],
      "name": "idToTokenItem",
      "outputs": [
        {
          "internalType": "uint256",
          "name": "tokens",
          "type": "uint256"
        },
        {
          "internalType": "address",
          "name": "owner",
          "type": "address"
        },
        {
          "internalType": "uint256",
          "name": "tokenId",
          "type": "uint256"
        }
      ],
      "stateMutability": "view",
      "type": "function"
    },
    {
      "inputs": [
        {
          "internalType": "address",
          "name": "account",
          "type": "address"
        },
        {
          "internalType": "address",
          "name": "operator",
          "type": "address"
        }
      ],
      "name": "isApprovedForAll",
      "outputs": [
        {
          "internalType": "bool",
          "name": "",
          "type": "bool"
        }
      ],
      "stateMutability": "view",
      "type": "function"
    },
    {
      "inputs": [
        {
          "internalType": "address",
          "name": "account",
          "type": "address"
        },
        {
          "internalType": "uint256",
          "name": "amount",
          "type": "uint256"
        },
        {
          "internalType": "bytes",
          "name": "data",
          "type": "bytes"
        }
      ],
      "name": "mintNFT",
      "outputs": [],
      "stateMutability": "nonpayable",
      "type": "function"
    },
    {
      "inputs": [],
      "name": "owner",
      "outputs": [
        {
          "internalType": "address",
          "name": "",
          "type": "address"
        }
      ],
      "stateMutability": "view",
      "type": "function"
    },
    {
      "inputs": [],
      "name": "renounceOwnership",
      "outputs": [],
      "stateMutability": "nonpayable",
      "type": "function"
    },
    {
      "inputs": [
        {
          "internalType": "address",
          "name": "from",
          "type": "address"
        },
        {
          "internalType": "address",
          "name": "to",
          "type": "address"
        },
        {
          "internalType": "uint256[]",
          "name": "ids",
          "type": "uint256[]"
        },
        {
          "internalType": "uint256[]",
          "name": "amounts",
          "type": "uint256[]"
        },
        {
          "internalType": "bytes",
          "name": "data",
          "type": "bytes"
        }
      ],
      "name": "safeBatchTransferFrom",
      "outputs": [],
      "stateMutability": "nonpayable",
      "type": "function"
    },
    {
      "inputs": [
        {
          "internalType": "address",
          "name": "from",
          "type": "address"
        },
        {
          "internalType": "address",
          "name": "to",
          "type": "address"
        },
        {
          "internalType": "uint256",
          "name": "id",
          "type": "uint256"
        },
        {
          "internalType": "uint256",
          "name": "amount",
          "type": "uint256"
        },
        {
          "internalType": "bytes",
          "name": "data",
          "type": "bytes"
        }
      ],
      "name": "safeTransferFrom",
      "outputs": [],
      "stateMutability": "nonpayable",
      "type": "function"
    },
    {
      "inputs": [
        {
          "internalType": "address",
          "name": "operator",
          "type": "address"
        },
        {
          "internalType": "bool",
          "name": "approved",
          "type": "bool"
        }
      ],
      "name": "setApprovalForAll",
      "outputs": [],
      "stateMutability": "nonpayable",
      "type": "function"
    },
    {
      "inputs": [
        {
          "internalType": "string",
          "name": "_newURI",
          "type": "string"
        }
      ],
      "name": "setURI",
      "outputs": [],
      "stateMutability": "nonpayable",
      "type": "function"
    },
    {
      "inputs": [
        {
          "internalType": "bytes4",
          "name": "interfaceId",
          "type": "bytes4"
        }
      ],
      "name": "supportsInterface",
      "outputs": [
        {
          "internalType": "bool",
          "name": "",
          "type": "bool"
        }
      ],
      "stateMutability": "view",
      "type": "function"
    },
    {
      "inputs": [
        {
          "internalType": "uint256",
          "name": "tokenId",
          "type": "uint256"
        },
        {
          "internalType": "address",
          "name": "_to",
          "type": "address"
        },
        {
          "internalType": "uint256",
          "name": "_amount",
          "type": "uint256"
        }
      ],
      "name": "transferNFT",
      "outputs": [],
      "stateMutability": "nonpayable",
      "type": "function"
    },
    {
      "inputs": [
        {
          "internalType": "address",
          "name": "newOwner",
          "type": "address"
        }
      ],
      "name": "transferOwnership",
      "outputs": [],
      "stateMutability": "nonpayable",
      "type": "function"
    },
    {
      "inputs": [
        {
          "internalType": "uint256",
          "name": "tokenId",
          "type": "uint256"
        }
      ],
      "name": "uri",
      "outputs": [
        {
          "internalType": "string",
          "name": "tokeId",
          "type": "string"
        }
      ],
      "stateMutability": "view",
      "type": "function"
    },
    {
      "inputs": [],
      "name": "withdraw",
      "outputs": [],
      "stateMutability": "nonpayable",
      "type": "function"
    }
  ],
  "bytecode": "0x60806040523480156200001157600080fd5b50604051620043c1380380620043c18339818101604052810190620000379190620003a8565b8062000049816200007160201b60201c565b506200006a6200005e6200008d60201b60201c565b6200009560201b60201c565b506200045e565b8060029080519060200190620000899291906200015b565b5050565b600033905090565b6000600360009054906101000a900473ffffffffffffffffffffffffffffffffffffffff16905081600360006101000a81548173ffffffffffffffffffffffffffffffffffffffff021916908373ffffffffffffffffffffffffffffffffffffffff1602179055508173ffffffffffffffffffffffffffffffffffffffff168173ffffffffffffffffffffffffffffffffffffffff167f8be0079c531659141344cd1fd0a4f28419497f9722a3daafe3b4186f6b6457e060405160405180910390a35050565b828054620001699062000428565b90600052602060002090601f0160209004810192826200018d5760008555620001d9565b82601f10620001a857805160ff1916838001178555620001d9565b82800160010185558215620001d9579182015b82811115620001d8578251825591602001919060010190620001bb565b5b509050620001e89190620001ec565b5090565b5b8082111562000207576000816000905550600101620001ed565b5090565b6000604051905090565b600080fd5b600080fd5b600080fd5b600080fd5b6000601f19601f8301169050919050565b7f4e487b7100000000000000000000000000000000000000000000000000000000600052604160045260246000fd5b620002748262000229565b810181811067ffffffffffffffff821117156200029657620002956200023a565b5b80604052505050565b6000620002ab6200020b565b9050620002b9828262000269565b919050565b600067ffffffffffffffff821115620002dc57620002db6200023a565b5b620002e78262000229565b9050602081019050919050565b60005b8381101562000314578082015181840152602081019050620002f7565b8381111562000324576000848401525b50505050565b6000620003416200033b84620002be565b6200029f565b90508281526020810184848401111562000360576200035f62000224565b5b6200036d848285620002f4565b509392505050565b600082601f8301126200038d576200038c6200021f565b5b81516200039f8482602086016200032a565b91505092915050565b600060208284031215620003c157620003c062000215565b5b600082015167ffffffffffffffff811115620003e257620003e16200021a565b5b620003f08482850162000375565b91505092915050565b7f4e487b7100000000000000000000000000000000000000000000000000000000600052602260045260246000fd5b600060028204905060018216806200044157607f821691505b60208210811415620004585762000457620003f9565b5b50919050565b613f53806200046e6000396000f3fe608060405234801561001057600080fd5b50600436106101205760003560e01c80633ccfd60b116100ad5780638da5cb5b116100715780638da5cb5b146102f3578063a22cb46514610311578063e985e9c51461032d578063f242432a1461035d578063f2fde38b1461037957610120565b80633ccfd60b146102775780634e1273f4146102815780635bbc1a04146102b1578063715018a6146102cd57806389d6ad04146102d757610120565b80631cc509fd116100f45780631cc509fd146101d1578063202e3740146101ed578063248225141461020b5780632eb2c2d614610229578063386750a21461024557610120565b8062fdd58e1461012557806301ffc9a71461015557806302fe5305146101855780630e89341c146101a1575b600080fd5b61013f600480360381019061013a919061250b565b610395565b60405161014c919061255a565b60405180910390f35b61016f600480360381019061016a91906125cd565b61045e565b60405161017c9190612615565b60405180910390f35b61019f600480360381019061019a9190612776565b610540565b005b6101bb60048036038101906101b691906127bf565b6105c8565b6040516101c89190612874565b60405180910390f35b6101eb60048036038101906101e69190612896565b610603565b005b6101f561064b565b60405161020291906129f8565b60405180910390f35b610213610805565b604051610220919061255a565b60405180910390f35b610243600480360381019061023e9190612b83565b61080b565b005b61025f600480360381019061025a91906127bf565b6108ac565b60405161026e93929190612c61565b60405180910390f35b61027f6108f6565b005b61029b60048036038101906102969190612d5b565b610a52565b6040516102a89190612e82565b60405180910390f35b6102cb60048036038101906102c69190612ea4565b610b6b565b005b6102d5610c2e565b005b6102f160048036038101906102ec9190612ef7565b610cb6565b005b6102fb610eca565b6040516103089190612f66565b60405180910390f35b61032b60048036038101906103269190612fad565b610ef4565b005b61034760048036038101906103429190612fed565b610f0a565b6040516103549190612615565b60405180910390f35b6103776004803603810190610372919061302d565b610f9e565b005b610393600480360381019061038e91906130c4565b61103f565b005b60008073ffffffffffffffffffffffffffffffffffffffff168373ffffffffffffffffffffffffffffffffffffffff161415610406576040517f08c379a00000000000000000000000000000000000000000000000000000000081526004016103fd90613163565b60405180910390fd5b60008083815260200190815260200160002060008473ffffffffffffffffffffffffffffffffffffffff1673ffffffffffffffffffffffffffffffffffffffff16815260200190815260200160002054905092915050565b60007fd9b67a26000000000000000000000000000000000000000000000000000000007bffffffffffffffffffffffffffffffffffffffffffffffffffffffff1916827bffffffffffffffffffffffffffffffffffffffffffffffffffffffff1916148061052957507f0e89341c000000000000000000000000000000000000000000000000000000007bffffffffffffffffffffffffffffffffffffffffffffffffffffffff1916827bffffffffffffffffffffffffffffffffffffffffffffffffffffffff1916145b80610539575061053882611137565b5b9050919050565b6105486111a1565b73ffffffffffffffffffffffffffffffffffffffff16610566610eca565b73ffffffffffffffffffffffffffffffffffffffff16146105bc576040517f08c379a00000000000000000000000000000000000000000000000000000000081526004016105b3906131cf565b60405180910390fd5b6105c5816111a9565b50565b60606105d3826111c3565b6105dc83611257565b6040516020016105ed929190613277565b6040516020818303038152906040529050919050565b8273ffffffffffffffffffffffffffffffffffffffff163373ffffffffffffffffffffffffffffffffffffffff161461063b57600080fd5b6106468383836113b8565b505050565b60606000600454905060008167ffffffffffffffff8111156106705761066f61264b565b5b6040519080825280602002602001820160405280156106a957816020015b610696612389565b81526020019060019003908161068e5790505b50905060005b8281116107fc573373ffffffffffffffffffffffffffffffffffffffff166005600083815260200190815260200160002060010160009054906101000a900473ffffffffffffffffffffffffffffffffffffffff1673ffffffffffffffffffffffffffffffffffffffff1614156107e957600060056000838152602001908152602001600020600201549050600060056000838152602001908152602001600020905080604051806060016040529081600082015481526020016001820160009054906101000a900473ffffffffffffffffffffffffffffffffffffffff1673ffffffffffffffffffffffffffffffffffffffff1673ffffffffffffffffffffffffffffffffffffffff1681526020016002820154815250508483815181106107db576107da6132a6565b5b602002602001018190525050505b80806107f490613304565b9150506106af565b50809250505090565b60045481565b6108136111a1565b73ffffffffffffffffffffffffffffffffffffffff168573ffffffffffffffffffffffffffffffffffffffff1614806108595750610858856108536111a1565b610f0a565b5b610898576040517f08c379a000000000000000000000000000000000000000000000000000000000815260040161088f906133bf565b60405180910390fd5b6108a585858585856115d5565b5050505050565b60056020528060005260406000206000915090508060000154908060010160009054906101000a900473ffffffffffffffffffffffffffffffffffffffff16908060020154905083565b6108fe6111a1565b73ffffffffffffffffffffffffffffffffffffffff1661091c610eca565b73ffffffffffffffffffffffffffffffffffffffff1614610972576040517f08c379a0000000000000000000000000000000000000000000000000000000008152600401610969906131cf565b60405180910390fd5b6000479050600081116109ba576040517f08c379a00000000000000000000000000000000000000000000000000000000081526004016109b19061342b565b60405180910390fd5b3373ffffffffffffffffffffffffffffffffffffffff166108fc829081150290604051600060405180830381858888f19350505050158015610a00573d6000803e3d6000fd5b503373ffffffffffffffffffffffffffffffffffffffff167fddc398b321237a8d40ac914388309c2f52a08c134e4dc4ce61e32f57cb7d80f182604051610a47919061255a565b60405180910390a250565b60608151835114610a98576040517f08c379a0000000000000000000000000000000000000000000000000000000008152600401610a8f906134bd565b60405180910390fd5b6000835167ffffffffffffffff811115610ab557610ab461264b565b5b604051908082528060200260200182016040528015610ae35781602001602082028036833780820191505090505b50905060005b8451811015610b6057610b30858281518110610b0857610b076132a6565b5b6020026020010151858381518110610b2357610b226132a6565b5b6020026020010151610395565b828281518110610b4357610b426132a6565b5b60200260200101818152505080610b5990613304565b9050610ae9565b508091505092915050565b610b736111a1565b73ffffffffffffffffffffffffffffffffffffffff16610b91610eca565b73ffffffffffffffffffffffffffffffffffffffff1614610be7576040517f08c379a0000000000000000000000000000000000000000000000000000000008152600401610bde906131cf565b60405180910390fd5b610c29338385846040518060400160405280600381526020017f30783000000000000000000000000000000000000000000000000000000000008152506118e9565b505050565b610c366111a1565b73ffffffffffffffffffffffffffffffffffffffff16610c54610eca565b73ffffffffffffffffffffffffffffffffffffffff1614610caa576040517f08c379a0000000000000000000000000000000000000000000000000000000008152600401610ca1906131cf565b60405180910390fd5b610cb46000611b6b565b565b610cbe6111a1565b73ffffffffffffffffffffffffffffffffffffffff16610cdc610eca565b73ffffffffffffffffffffffffffffffffffffffff1614610d32576040517f08c379a0000000000000000000000000000000000000000000000000000000008152600401610d29906131cf565b60405180910390fd5b60046000815480929190610d4590613304565b9190505550600073ffffffffffffffffffffffffffffffffffffffff1660056000600454815260200190815260200160002060010160009054906101000a900473ffffffffffffffffffffffffffffffffffffffff1673ffffffffffffffffffffffffffffffffffffffff1614610dea57816005600060045481526020019081526020016000206000016000828254610dde91906134dd565b92505081905550610e7e565b81600560006004548152602001908152602001600020600001819055503360056000600454815260200190815260200160002060010160006101000a81548173ffffffffffffffffffffffffffffffffffffffff021916908373ffffffffffffffffffffffffffffffffffffffff160217905550600454600560006004548152602001908152602001600020600201819055505b610e8c836004548484611c31565b7ff00d28232b285f24f2e38415deb2ceb31069e70d4505838b3911b4f02058502e600454604051610ebd919061255a565b60405180910390a1505050565b6000600360009054906101000a900473ffffffffffffffffffffffffffffffffffffffff16905090565b610f06610eff6111a1565b8383611dc7565b5050565b6000600160008473ffffffffffffffffffffffffffffffffffffffff1673ffffffffffffffffffffffffffffffffffffffff16815260200190815260200160002060008373ffffffffffffffffffffffffffffffffffffffff1673ffffffffffffffffffffffffffffffffffffffff16815260200190815260200160002060009054906101000a900460ff16905092915050565b610fa66111a1565b73ffffffffffffffffffffffffffffffffffffffff168573ffffffffffffffffffffffffffffffffffffffff161480610fec5750610feb85610fe66111a1565b610f0a565b5b61102b576040517f08c379a0000000000000000000000000000000000000000000000000000000008152600401611022906135a5565b60405180910390fd5b61103885858585856118e9565b5050505050565b6110476111a1565b73ffffffffffffffffffffffffffffffffffffffff16611065610eca565b73ffffffffffffffffffffffffffffffffffffffff16146110bb576040517f08c379a00000000000000000000000000000000000000000000000000000000081526004016110b2906131cf565b60405180910390fd5b600073ffffffffffffffffffffffffffffffffffffffff168173ffffffffffffffffffffffffffffffffffffffff16141561112b576040517f08c379a000000000000000000000000000000000000000000000000000000000815260040161112290613637565b60405180910390fd5b61113481611b6b565b50565b60007f01ffc9a7000000000000000000000000000000000000000000000000000000007bffffffffffffffffffffffffffffffffffffffffffffffffffffffff1916827bffffffffffffffffffffffffffffffffffffffffffffffffffffffff1916149050919050565b600033905090565b80600290805190602001906111bf9291906123c0565b5050565b6060600280546111d290613686565b80601f01602080910402602001604051908101604052809291908181526020018280546111fe90613686565b801561124b5780601f106112205761010080835404028352916020019161124b565b820191906000526020600020905b81548152906001019060200180831161122e57829003601f168201915b50505050509050919050565b6060600082141561129f576040518060400160405280600181526020017f300000000000000000000000000000000000000000000000000000000000000081525090506113b3565b600082905060005b600082146112d15780806112ba90613304565b915050600a826112ca91906136e7565b91506112a7565b60008167ffffffffffffffff8111156112ed576112ec61264b565b5b6040519080825280601f01601f19166020018201604052801561131f5781602001600182028036833780820191505090505b5090505b600085146113ac576001826113389190613718565b9150600a85611347919061374c565b603061135391906134dd565b60f81b818381518110611369576113686132a6565b5b60200101907effffffffffffffffffffffffffffffffffffffffffffffffffffffffffffff1916908160001a905350600a856113a591906136e7565b9450611323565b8093505050505b919050565b600073ffffffffffffffffffffffffffffffffffffffff168373ffffffffffffffffffffffffffffffffffffffff161415611428576040517f08c379a000000000000000000000000000000000000000000000000000000000815260040161141f906137ef565b60405180910390fd5b60006114326111a1565b90506114628185600061144487611f34565b61144d87611f34565b60405180602001604052806000815250611fae565b600080600085815260200190815260200160002060008673ffffffffffffffffffffffffffffffffffffffff1673ffffffffffffffffffffffffffffffffffffffff168152602001908152602001600020549050828110156114f9576040517f08c379a00000000000000000000000000000000000000000000000000000000081526004016114f090613881565b60405180910390fd5b82810360008086815260200190815260200160002060008773ffffffffffffffffffffffffffffffffffffffff1673ffffffffffffffffffffffffffffffffffffffff16815260200190815260200160002081905550600073ffffffffffffffffffffffffffffffffffffffff168573ffffffffffffffffffffffffffffffffffffffff168373ffffffffffffffffffffffffffffffffffffffff167fc3d58168c5ae7397731d063d5bbf3d657854427343f4c083240f7aacaa2d0f6287876040516115c69291906138a1565b60405180910390a45050505050565b8151835114611619576040517f08c379a00000000000000000000000000000000000000000000000000000000081526004016116109061393c565b60405180910390fd5b600073ffffffffffffffffffffffffffffffffffffffff168473ffffffffffffffffffffffffffffffffffffffff161415611689576040517f08c379a0000000000000000000000000000000000000000000000000000000008152600401611680906139ce565b60405180910390fd5b60006116936111a1565b90506116a3818787878787611fae565b60005b84518110156118545760008582815181106116c4576116c36132a6565b5b6020026020010151905060008583815181106116e3576116e26132a6565b5b60200260200101519050600080600084815260200190815260200160002060008b73ffffffffffffffffffffffffffffffffffffffff1673ffffffffffffffffffffffffffffffffffffffff16815260200190815260200160002054905081811015611784576040517f08c379a000000000000000000000000000000000000000000000000000000000815260040161177b90613a60565b60405180910390fd5b81810360008085815260200190815260200160002060008c73ffffffffffffffffffffffffffffffffffffffff1673ffffffffffffffffffffffffffffffffffffffff168152602001908152602001600020819055508160008085815260200190815260200160002060008b73ffffffffffffffffffffffffffffffffffffffff1673ffffffffffffffffffffffffffffffffffffffff168152602001908152602001600020600082825461183991906134dd565b925050819055505050508061184d90613304565b90506116a6565b508473ffffffffffffffffffffffffffffffffffffffff168673ffffffffffffffffffffffffffffffffffffffff168273ffffffffffffffffffffffffffffffffffffffff167f4a39dc06d4c0dbc64b70af90fd698a233a518aa5d07e595d983b8c0526c8f7fb87876040516118cb929190613a80565b60405180910390a46118e1818787878787611fb6565b505050505050565b600073ffffffffffffffffffffffffffffffffffffffff168473ffffffffffffffffffffffffffffffffffffffff161415611959576040517f08c379a0000000000000000000000000000000000000000000000000000000008152600401611950906139ce565b60405180910390fd5b60006119636111a1565b905061198381878761197488611f34565b61197d88611f34565b87611fae565b600080600086815260200190815260200160002060008873ffffffffffffffffffffffffffffffffffffffff1673ffffffffffffffffffffffffffffffffffffffff16815260200190815260200160002054905083811015611a1a576040517f08c379a0000000000000000000000000000000000000000000000000000000008152600401611a1190613a60565b60405180910390fd5b83810360008087815260200190815260200160002060008973ffffffffffffffffffffffffffffffffffffffff1673ffffffffffffffffffffffffffffffffffffffff168152602001908152602001600020819055508360008087815260200190815260200160002060008873ffffffffffffffffffffffffffffffffffffffff1673ffffffffffffffffffffffffffffffffffffffff1681526020019081526020016000206000828254611acf91906134dd565b925050819055508573ffffffffffffffffffffffffffffffffffffffff168773ffffffffffffffffffffffffffffffffffffffff168373ffffffffffffffffffffffffffffffffffffffff167fc3d58168c5ae7397731d063d5bbf3d657854427343f4c083240f7aacaa2d0f628888604051611b4c9291906138a1565b60405180910390a4611b6282888888888861218e565b50505050505050565b6000600360009054906101000a900473ffffffffffffffffffffffffffffffffffffffff16905081600360006101000a81548173ffffffffffffffffffffffffffffffffffffffff021916908373ffffffffffffffffffffffffffffffffffffffff1602179055508173ffffffffffffffffffffffffffffffffffffffff168173ffffffffffffffffffffffffffffffffffffffff167f8be0079c531659141344cd1fd0a4f28419497f9722a3daafe3b4186f6b6457e060405160405180910390a35050565b600073ffffffffffffffffffffffffffffffffffffffff168473ffffffffffffffffffffffffffffffffffffffff161415611ca1576040517f08c379a0000000000000000000000000000000000000000000000000000000008152600401611c9890613b29565b60405180910390fd5b6000611cab6111a1565b9050611ccc81600087611cbd88611f34565b611cc688611f34565b87611fae565b8260008086815260200190815260200160002060008773ffffffffffffffffffffffffffffffffffffffff1673ffffffffffffffffffffffffffffffffffffffff1681526020019081526020016000206000828254611d2b91906134dd565b925050819055508473ffffffffffffffffffffffffffffffffffffffff16600073ffffffffffffffffffffffffffffffffffffffff168273ffffffffffffffffffffffffffffffffffffffff167fc3d58168c5ae7397731d063d5bbf3d657854427343f4c083240f7aacaa2d0f628787604051611da99291906138a1565b60405180910390a4611dc08160008787878761218e565b5050505050565b8173ffffffffffffffffffffffffffffffffffffffff168373ffffffffffffffffffffffffffffffffffffffff161415611e36576040517f08c379a0000000000000000000000000000000000000000000000000000000008152600401611e2d90613bbb565b60405180910390fd5b80600160008573ffffffffffffffffffffffffffffffffffffffff1673ffffffffffffffffffffffffffffffffffffffff16815260200190815260200160002060008473ffffffffffffffffffffffffffffffffffffffff1673ffffffffffffffffffffffffffffffffffffffff16815260200190815260200160002060006101000a81548160ff0219169083151502179055508173ffffffffffffffffffffffffffffffffffffffff168373ffffffffffffffffffffffffffffffffffffffff167f17307eab39ab6107e8899845ad3d59bd9653f200f220920489ca2b5937696c3183604051611f279190612615565b60405180910390a3505050565b60606000600167ffffffffffffffff811115611f5357611f5261264b565b5b604051908082528060200260200182016040528015611f815781602001602082028036833780820191505090505b5090508281600081518110611f9957611f986132a6565b5b60200260200101818152505080915050919050565b505050505050565b611fd58473ffffffffffffffffffffffffffffffffffffffff16612366565b15612186578373ffffffffffffffffffffffffffffffffffffffff1663bc197c8187878686866040518663ffffffff1660e01b815260040161201b959493929190613c30565b6020604051808303816000875af192505050801561205757506040513d601f19601f820116820180604052508101906120549190613cad565b60015b6120fd57612063613ce7565b806308c379a014156120c05750612078613d09565b8061208357506120c2565b806040517f08c379a00000000000000000000000000000000000000000000000000000000081526004016120b79190612874565b60405180910390fd5b505b6040517f08c379a00000000000000000000000000000000000000000000000000000000081526004016120f490613e11565b60405180910390fd5b63bc197c8160e01b7bffffffffffffffffffffffffffffffffffffffffffffffffffffffff1916817bffffffffffffffffffffffffffffffffffffffffffffffffffffffff191614612184576040517f08c379a000000000000000000000000000000000000000000000000000000000815260040161217b90613ea3565b60405180910390fd5b505b505050505050565b6121ad8473ffffffffffffffffffffffffffffffffffffffff16612366565b1561235e578373ffffffffffffffffffffffffffffffffffffffff1663f23a6e6187878686866040518663ffffffff1660e01b81526004016121f3959493929190613ec3565b6020604051808303816000875af192505050801561222f57506040513d601f19601f8201168201806040525081019061222c9190613cad565b60015b6122d55761223b613ce7565b806308c379a014156122985750612250613d09565b8061225b575061229a565b806040517f08c379a000000000000000000000000000000000000000000000000000000000815260040161228f9190612874565b60405180910390fd5b505b6040517f08c379a00000000000000000000000000000000000000000000000000000000081526004016122cc90613e11565b60405180910390fd5b63f23a6e6160e01b7bffffffffffffffffffffffffffffffffffffffffffffffffffffffff1916817bffffffffffffffffffffffffffffffffffffffffffffffffffffffff19161461235c576040517f08c379a000000000000000000000000000000000000000000000000000000000815260040161235390613ea3565b60405180910390fd5b505b505050505050565b6000808273ffffffffffffffffffffffffffffffffffffffff163b119050919050565b604051806060016040528060008152602001600073ffffffffffffffffffffffffffffffffffffffff168152602001600081525090565b8280546123cc90613686565b90600052602060002090601f0160209004810192826123ee5760008555612435565b82601f1061240757805160ff1916838001178555612435565b82800160010185558215612435579182015b82811115612434578251825591602001919060010190612419565b5b5090506124429190612446565b5090565b5b8082111561245f576000816000905550600101612447565b5090565b6000604051905090565b600080fd5b600080fd5b600073ffffffffffffffffffffffffffffffffffffffff82169050919050565b60006124a282612477565b9050919050565b6124b281612497565b81146124bd57600080fd5b50565b6000813590506124cf816124a9565b92915050565b6000819050919050565b6124e8816124d5565b81146124f357600080fd5b50565b600081359050612505816124df565b92915050565b600080604083850312156125225761252161246d565b5b6000612530858286016124c0565b9250506020612541858286016124f6565b9150509250929050565b612554816124d5565b82525050565b600060208201905061256f600083018461254b565b92915050565b60007fffffffff0000000000000000000000000000000000000000000000000000000082169050919050565b6125aa81612575565b81146125b557600080fd5b50565b6000813590506125c7816125a1565b92915050565b6000602082840312156125e3576125e261246d565b5b60006125f1848285016125b8565b91505092915050565b60008115159050919050565b61260f816125fa565b82525050565b600060208201905061262a6000830184612606565b92915050565b600080fd5b600080fd5b6000601f19601f8301169050919050565b7f4e487b7100000000000000000000000000000000000000000000000000000000600052604160045260246000fd5b6126838261263a565b810181811067ffffffffffffffff821117156126a2576126a161264b565b5b80604052505050565b60006126b5612463565b90506126c1828261267a565b919050565b600067ffffffffffffffff8211156126e1576126e061264b565b5b6126ea8261263a565b9050602081019050919050565b82818337600083830152505050565b6000612719612714846126c6565b6126ab565b90508281526020810184848401111561273557612734612635565b5b6127408482856126f7565b509392505050565b600082601f83011261275d5761275c612630565b5b813561276d848260208601612706565b91505092915050565b60006020828403121561278c5761278b61246d565b5b600082013567ffffffffffffffff8111156127aa576127a9612472565b5b6127b684828501612748565b91505092915050565b6000602082840312156127d5576127d461246d565b5b60006127e3848285016124f6565b91505092915050565b600081519050919050565b600082825260208201905092915050565b60005b8381101561282657808201518184015260208101905061280b565b83811115612835576000848401525b50505050565b6000612846826127ec565b61285081856127f7565b9350612860818560208601612808565b6128698161263a565b840191505092915050565b6000602082019050818103600083015261288e818461283b565b905092915050565b6000806000606084860312156128af576128ae61246d565b5b60006128bd868287016124c0565b93505060206128ce868287016124f6565b92505060406128df868287016124f6565b9150509250925092565b600081519050919050565b600082825260208201905092915050565b6000819050602082019050919050565b61291e816124d5565b82525050565b61292d81612497565b82525050565b6060820160008201516129496000850182612915565b50602082015161295c6020850182612924565b50604082015161296f6040850182612915565b50505050565b60006129818383612933565b60608301905092915050565b6000602082019050919050565b60006129a5826128e9565b6129af81856128f4565b93506129ba83612905565b8060005b838110156129eb5781516129d28882612975565b97506129dd8361298d565b9250506001810190506129be565b5085935050505092915050565b60006020820190508181036000830152612a12818461299a565b905092915050565b600067ffffffffffffffff821115612a3557612a3461264b565b5b602082029050602081019050919050565b600080fd5b6000612a5e612a5984612a1a565b6126ab565b90508083825260208201905060208402830185811115612a8157612a80612a46565b5b835b81811015612aaa5780612a9688826124f6565b845260208401935050602081019050612a83565b5050509392505050565b600082601f830112612ac957612ac8612630565b5b8135612ad9848260208601612a4b565b91505092915050565b600067ffffffffffffffff821115612afd57612afc61264b565b5b612b068261263a565b9050602081019050919050565b6000612b26612b2184612ae2565b6126ab565b905082815260208101848484011115612b4257612b41612635565b5b612b4d8482856126f7565b509392505050565b600082601f830112612b6a57612b69612630565b5b8135612b7a848260208601612b13565b91505092915050565b600080600080600060a08688031215612b9f57612b9e61246d565b5b6000612bad888289016124c0565b9550506020612bbe888289016124c0565b945050604086013567ffffffffffffffff811115612bdf57612bde612472565b5b612beb88828901612ab4565b935050606086013567ffffffffffffffff811115612c0c57612c0b612472565b5b612c1888828901612ab4565b925050608086013567ffffffffffffffff811115612c3957612c38612472565b5b612c4588828901612b55565b9150509295509295909350565b612c5b81612497565b82525050565b6000606082019050612c76600083018661254b565b612c836020830185612c52565b612c90604083018461254b565b949350505050565b600067ffffffffffffffff821115612cb357612cb261264b565b5b602082029050602081019050919050565b6000612cd7612cd284612c98565b6126ab565b90508083825260208201905060208402830185811115612cfa57612cf9612a46565b5b835b81811015612d235780612d0f88826124c0565b845260208401935050602081019050612cfc565b5050509392505050565b600082601f830112612d4257612d41612630565b5b8135612d52848260208601612cc4565b91505092915050565b60008060408385031215612d7257612d7161246d565b5b600083013567ffffffffffffffff811115612d9057612d8f612472565b5b612d9c85828601612d2d565b925050602083013567ffffffffffffffff811115612dbd57612dbc612472565b5b612dc985828601612ab4565b9150509250929050565b600081519050919050565b600082825260208201905092915050565b6000819050602082019050919050565b6000612e0b8383612915565b60208301905092915050565b6000602082019050919050565b6000612e2f82612dd3565b612e398185612dde565b9350612e4483612def565b8060005b83811015612e75578151612e5c8882612dff565b9750612e6783612e17565b925050600181019050612e48565b5085935050505092915050565b60006020820190508181036000830152612e9c8184612e24565b905092915050565b600080600060608486031215612ebd57612ebc61246d565b5b6000612ecb868287016124f6565b9350506020612edc868287016124c0565b9250506040612eed868287016124f6565b9150509250925092565b600080600060608486031215612f1057612f0f61246d565b5b6000612f1e868287016124c0565b9350506020612f2f868287016124f6565b925050604084013567ffffffffffffffff811115612f5057612f4f612472565b5b612f5c86828701612b55565b9150509250925092565b6000602082019050612f7b6000830184612c52565b92915050565b612f8a816125fa565b8114612f9557600080fd5b50565b600081359050612fa781612f81565b92915050565b60008060408385031215612fc457612fc361246d565b5b6000612fd2858286016124c0565b9250506020612fe385828601612f98565b9150509250929050565b600080604083850312156130045761300361246d565b5b6000613012858286016124c0565b9250506020613023858286016124c0565b9150509250929050565b600080600080600060a086880312156130495761304861246d565b5b6000613057888289016124c0565b9550506020613068888289016124c0565b9450506040613079888289016124f6565b935050606061308a888289016124f6565b925050608086013567ffffffffffffffff8111156130ab576130aa612472565b5b6130b788828901612b55565b9150509295509295909350565b6000602082840312156130da576130d961246d565b5b60006130e8848285016124c0565b91505092915050565b7f455243313135353a2062616c616e636520717565727920666f7220746865207a60008201527f65726f2061646472657373000000000000000000000000000000000000000000602082015250565b600061314d602b836127f7565b9150613158826130f1565b604082019050919050565b6000602082019050818103600083015261317c81613140565b9050919050565b7f4f776e61626c653a2063616c6c6572206973206e6f7420746865206f776e6572600082015250565b60006131b96020836127f7565b91506131c482613183565b602082019050919050565b600060208201905081810360008301526131e8816131ac565b9050919050565b600081905092915050565b6000613205826127ec565b61320f81856131ef565b935061321f818560208601612808565b80840191505092915050565b7f2e6a736f6e000000000000000000000000000000000000000000000000000000600082015250565b60006132616005836131ef565b915061326c8261322b565b600582019050919050565b600061328382856131fa565b915061328f82846131fa565b915061329a82613254565b91508190509392505050565b7f4e487b7100000000000000000000000000000000000000000000000000000000600052603260045260246000fd5b7f4e487b7100000000000000000000000000000000000000000000000000000000600052601160045260246000fd5b600061330f826124d5565b91507fffffffffffffffffffffffffffffffffffffffffffffffffffffffffffffffff821415613342576133416132d5565b5b600182019050919050565b7f455243313135353a207472616e736665722063616c6c6572206973206e6f742060008201527f6f776e6572206e6f7220617070726f7665640000000000000000000000000000602082015250565b60006133a96032836127f7565b91506133b48261334d565b604082019050919050565b600060208201905081810360008301526133d88161339c565b9050919050565b7f4e6f7420656e6f7567682066756e647320746f20776974686472617700000000600082015250565b6000613415601c836127f7565b9150613420826133df565b602082019050919050565b6000602082019050818103600083015261344481613408565b9050919050565b7f455243313135353a206163636f756e747320616e6420696473206c656e67746860008201527f206d69736d617463680000000000000000000000000000000000000000000000602082015250565b60006134a76029836127f7565b91506134b28261344b565b604082019050919050565b600060208201905081810360008301526134d68161349a565b9050919050565b60006134e8826124d5565b91506134f3836124d5565b9250827fffffffffffffffffffffffffffffffffffffffffffffffffffffffffffffffff03821115613528576135276132d5565b5b828201905092915050565b7f455243313135353a2063616c6c6572206973206e6f74206f776e6572206e6f7260008201527f20617070726f7665640000000000000000000000000000000000000000000000602082015250565b600061358f6029836127f7565b915061359a82613533565b604082019050919050565b600060208201905081810360008301526135be81613582565b9050919050565b7f4f776e61626c653a206e6577206f776e657220697320746865207a65726f206160008201527f6464726573730000000000000000000000000000000000000000000000000000602082015250565b60006136216026836127f7565b915061362c826135c5565b604082019050919050565b6000602082019050818103600083015261365081613614565b9050919050565b7f4e487b7100000000000000000000000000000000000000000000000000000000600052602260045260246000fd5b6000600282049050600182168061369e57607f821691505b602082108114156136b2576136b1613657565b5b50919050565b7f4e487b7100000000000000000000000000000000000000000000000000000000600052601260045260246000fd5b60006136f2826124d5565b91506136fd836124d5565b92508261370d5761370c6136b8565b5b828204905092915050565b6000613723826124d5565b915061372e836124d5565b925082821015613741576137406132d5565b5b828203905092915050565b6000613757826124d5565b9150613762836124d5565b925082613772576137716136b8565b5b828206905092915050565b7f455243313135353a206275726e2066726f6d20746865207a65726f206164647260008201527f6573730000000000000000000000000000000000000000000000000000000000602082015250565b60006137d96023836127f7565b91506137e48261377d565b604082019050919050565b60006020820190508181036000830152613808816137cc565b9050919050565b7f455243313135353a206275726e20616d6f756e7420657863656564732062616c60008201527f616e636500000000000000000000000000000000000000000000000000000000602082015250565b600061386b6024836127f7565b91506138768261380f565b604082019050919050565b6000602082019050818103600083015261389a8161385e565b9050919050565b60006040820190506138b6600083018561254b565b6138c3602083018461254b565b9392505050565b7f455243313135353a2069647320616e6420616d6f756e7473206c656e6774682060008201527f6d69736d61746368000000000000000000000000000000000000000000000000602082015250565b60006139266028836127f7565b9150613931826138ca565b604082019050919050565b6000602082019050818103600083015261395581613919565b9050919050565b7f455243313135353a207472616e7366657220746f20746865207a65726f20616460008201527f6472657373000000000000000000000000000000000000000000000000000000602082015250565b60006139b86025836127f7565b91506139c38261395c565b604082019050919050565b600060208201905081810360008301526139e7816139ab565b9050919050565b7f455243313135353a20696e73756666696369656e742062616c616e636520666f60008201527f72207472616e7366657200000000000000000000000000000000000000000000602082015250565b6000613a4a602a836127f7565b9150613a55826139ee565b604082019050919050565b60006020820190508181036000830152613a7981613a3d565b9050919050565b60006040820190508181036000830152613a9a8185612e24565b90508181036020830152613aae8184612e24565b90509392505050565b7f455243313135353a206d696e7420746f20746865207a65726f2061646472657360008201527f7300000000000000000000000000000000000000000000000000000000000000602082015250565b6000613b136021836127f7565b9150613b1e82613ab7565b604082019050919050565b60006020820190508181036000830152613b4281613b06565b9050919050565b7f455243313135353a2073657474696e6720617070726f76616c2073746174757360008201527f20666f722073656c660000000000000000000000000000000000000000000000602082015250565b6000613ba56029836127f7565b9150613bb082613b49565b604082019050919050565b60006020820190508181036000830152613bd481613b98565b9050919050565b600081519050919050565b600082825260208201905092915050565b6000613c0282613bdb565b613c0c8185613be6565b9350613c1c818560208601612808565b613c258161263a565b840191505092915050565b600060a082019050613c456000830188612c52565b613c526020830187612c52565b8181036040830152613c648186612e24565b90508181036060830152613c788185612e24565b90508181036080830152613c8c8184613bf7565b90509695505050505050565b600081519050613ca7816125a1565b92915050565b600060208284031215613cc357613cc261246d565b5b6000613cd184828501613c98565b91505092915050565b60008160e01c9050919050565b600060033d1115613d065760046000803e613d03600051613cda565b90505b90565b600060443d1015613d1957613d9c565b613d21612463565b60043d036004823e80513d602482011167ffffffffffffffff82111715613d49575050613d9c565b808201805167ffffffffffffffff811115613d675750505050613d9c565b80602083010160043d038501811115613d84575050505050613d9c565b613d938260200185018661267a565b82955050505050505b90565b7f455243313135353a207472616e7366657220746f206e6f6e204552433131353560008201527f526563656976657220696d706c656d656e746572000000000000000000000000602082015250565b6000613dfb6034836127f7565b9150613e0682613d9f565b604082019050919050565b60006020820190508181036000830152613e2a81613dee565b9050919050565b7f455243313135353a204552433131353552656365697665722072656a6563746560008201527f6420746f6b656e73000000000000000000000000000000000000000000000000602082015250565b6000613e8d6028836127f7565b9150613e9882613e31565b604082019050919050565b60006020820190508181036000830152613ebc81613e80565b9050919050565b600060a082019050613ed86000830188612c52565b613ee56020830187612c52565b613ef2604083018661254b565b613eff606083018561254b565b8181036080830152613f118184613bf7565b9050969550505050505056fea2646970667358221220671548ca13e723ba8e54b41bb21f7661ba3e6e03248abc175bd7180e7dac70a264736f6c634300080b0033",
  "linkReferences": {},
  "deployedLinkReferences": {}
}