{
  "_format": "hh-sol-artifact-1",
  "contractName": "ERC1155NFT",
  "sourceName": "contracts/ERC1155NFT.sol",
  "abi": [
    {
      "inputs": [
        {
          "internalType": "string",
          "name": "_uri",
          "type": "string"
        }
      ],
      "stateMutability": "nonpayable",
      "type": "constructor"
    },
    {
      "anonymous": false,
      "inputs": [
        {
          "indexed": true,
          "internalType": "address",
          "name": "account",
          "type": "address"
        },
        {
          "indexed": true,
          "internalType": "address",
          "name": "operator",
          "type": "address"
        },
        {
          "indexed": false,
          "internalType": "bool",
          "name": "approved",
          "type": "bool"
        }
      ],
      "name": "ApprovalForAll",
      "type": "event"
    },
    {
      "anonymous": false,
      "inputs": [
        {
          "indexed": true,
          "internalType": "address",
          "name": "beneficiary",
          "type": "address"
        },
        {
          "indexed": false,
          "internalType": "uint256",
          "name": "amount",
          "type": "uint256"
        }
      ],
      "name": "BalanceWithdrawn",
      "type": "event"
    },
    {
      "anonymous": false,
      "inputs": [
        {
          "indexed": true,
          "internalType": "address",
          "name": "previousOwner",
          "type": "address"
        },
        {
          "indexed": true,
          "internalType": "address",
          "name": "newOwner",
          "type": "address"
        }
      ],
      "name": "OwnershipTransferred",
      "type": "event"
    },
    {
      "anonymous": false,
      "inputs": [
        {
          "indexed": false,
          "internalType": "uint256",
          "name": "id",
          "type": "uint256"
        }
      ],
      "name": "TokenMinted",
      "type": "event"
    },
    {
      "anonymous": false,
      "inputs": [
        {
          "indexed": true,
          "internalType": "address",
          "name": "operator",
          "type": "address"
        },
        {
          "indexed": true,
          "internalType": "address",
          "name": "from",
          "type": "address"
        },
        {
          "indexed": true,
          "internalType": "address",
          "name": "to",
          "type": "address"
        },
        {
          "indexed": false,
          "internalType": "uint256[]",
          "name": "ids",
          "type": "uint256[]"
        },
        {
          "indexed": false,
          "internalType": "uint256[]",
          "name": "values",
          "type": "uint256[]"
        }
      ],
      "name": "TransferBatch",
      "type": "event"
    },
    {
      "anonymous": false,
      "inputs": [
        {
          "indexed": true,
          "internalType": "address",
          "name": "operator",
          "type": "address"
        },
        {
          "indexed": true,
          "internalType": "address",
          "name": "from",
          "type": "address"
        },
        {
          "indexed": true,
          "internalType": "address",
          "name": "to",
          "type": "address"
        },
        {
          "indexed": false,
          "internalType": "uint256",
          "name": "id",
          "type": "uint256"
        },
        {
          "indexed": false,
          "internalType": "uint256",
          "name": "value",
          "type": "uint256"
        }
      ],
      "name": "TransferSingle",
      "type": "event"
    },
    {
      "anonymous": false,
      "inputs": [
        {
          "indexed": false,
          "internalType": "string",
          "name": "value",
          "type": "string"
        },
        {
          "indexed": true,
          "internalType": "uint256",
          "name": "id",
          "type": "uint256"
        }
      ],
      "name": "URI",
      "type": "event"
    },
    {
      "inputs": [],
      "name": "_tokenId",
      "outputs": [
        {
          "internalType": "uint256",
          "name": "",
          "type": "uint256"
        }
      ],
      "stateMutability": "view",
      "type": "function"
    },
    {
      "inputs": [
        {
          "internalType": "address",
          "name": "account",
          "type": "address"
        },
        {
          "internalType": "uint256",
          "name": "id",
          "type": "uint256"
        }
      ],
      "name": "balanceOf",
      "outputs": [
        {
          "internalType": "uint256",
          "name": "",
          "type": "uint256"
        }
      ],
      "stateMutability": "view",
      "type": "function"
    },
    {
      "inputs": [
        {
          "internalType": "address[]",
          "name": "accounts",
          "type": "address[]"
        },
        {
          "internalType": "uint256[]",
          "name": "ids",
          "type": "uint256[]"
        }
      ],
      "name": "balanceOfBatch",
      "outputs": [
        {
          "internalType": "uint256[]",
          "name": "",
          "type": "uint256[]"
        }
      ],
      "stateMutability": "view",
      "type": "function"
    },
    {
      "inputs": [
        {
          "internalType": "address",
          "name": "_account",
          "type": "address"
        },
        {
          "internalType": "uint256",
          "name": "_id",
          "type": "uint256"
        },
        {
          "internalType": "uint256",
          "name": "_amount",
          "type": "uint256"
        }
      ],
      "name": "burnNFT",
      "outputs": [],
      "stateMutability": "nonpayable",
      "type": "function"
    },
    {
      "inputs": [],
      "name": "fetchMyNFTs",
      "outputs": [
        {
          "components": [
            {
              "internalType": "uint256",
              "name": "tokens",
              "type": "uint256"
            },
            {
              "internalType": "address",
              "name": "owner",
              "type": "address"
            },
            {
              "internalType": "uint256",
              "name": "tokenId",
              "type": "uint256"
            },
            {
              "internalType": "uint256",
              "name": "createdAt",
              "type": "uint256"
            }
          ],
          "internalType": "struct ERC1155NFT.Token[]",
          "name": "",
          "type": "tuple[]"
        }
      ],
      "stateMutability": "view",
      "type": "function"
    },
    {
      "inputs": [
        {
          "internalType": "uint256",
          "name": "",
          "type": "uint256"
        }
      ],
      "name": "idToTokenItem",
      "outputs": [
        {
          "internalType": "uint256",
          "name": "tokens",
          "type": "uint256"
        },
        {
          "internalType": "address",
          "name": "owner",
          "type": "address"
        },
        {
          "internalType": "uint256",
          "name": "tokenId",
          "type": "uint256"
        },
        {
          "internalType": "uint256",
          "name": "createdAt",
          "type": "uint256"
        }
      ],
      "stateMutability": "view",
      "type": "function"
    },
    {
      "inputs": [
        {
          "internalType": "address",
          "name": "account",
          "type": "address"
        },
        {
          "internalType": "address",
          "name": "operator",
          "type": "address"
        }
      ],
      "name": "isApprovedForAll",
      "outputs": [
        {
          "internalType": "bool",
          "name": "",
          "type": "bool"
        }
      ],
      "stateMutability": "view",
      "type": "function"
    },
    {
      "inputs": [
        {
          "internalType": "address",
          "name": "account",
          "type": "address"
        },
        {
          "internalType": "uint256",
          "name": "amount",
          "type": "uint256"
        },
        {
          "internalType": "uint256",
          "name": "createdAt",
          "type": "uint256"
        },
        {
          "internalType": "bytes",
          "name": "data",
          "type": "bytes"
        }
      ],
      "name": "mintNFT",
      "outputs": [],
      "stateMutability": "nonpayable",
      "type": "function"
    },
    {
      "inputs": [],
      "name": "owner",
      "outputs": [
        {
          "internalType": "address",
          "name": "",
          "type": "address"
        }
      ],
      "stateMutability": "view",
      "type": "function"
    },
    {
      "inputs": [],
      "name": "renounceOwnership",
      "outputs": [],
      "stateMutability": "nonpayable",
      "type": "function"
    },
    {
      "inputs": [
        {
          "internalType": "address",
          "name": "from",
          "type": "address"
        },
        {
          "internalType": "address",
          "name": "to",
          "type": "address"
        },
        {
          "internalType": "uint256[]",
          "name": "ids",
          "type": "uint256[]"
        },
        {
          "internalType": "uint256[]",
          "name": "amounts",
          "type": "uint256[]"
        },
        {
          "internalType": "bytes",
          "name": "data",
          "type": "bytes"
        }
      ],
      "name": "safeBatchTransferFrom",
      "outputs": [],
      "stateMutability": "nonpayable",
      "type": "function"
    },
    {
      "inputs": [
        {
          "internalType": "address",
          "name": "from",
          "type": "address"
        },
        {
          "internalType": "address",
          "name": "to",
          "type": "address"
        },
        {
          "internalType": "uint256",
          "name": "id",
          "type": "uint256"
        },
        {
          "internalType": "uint256",
          "name": "amount",
          "type": "uint256"
        },
        {
          "internalType": "bytes",
          "name": "data",
          "type": "bytes"
        }
      ],
      "name": "safeTransferFrom",
      "outputs": [],
      "stateMutability": "nonpayable",
      "type": "function"
    },
    {
      "inputs": [
        {
          "internalType": "address",
          "name": "operator",
          "type": "address"
        },
        {
          "internalType": "bool",
          "name": "approved",
          "type": "bool"
        }
      ],
      "name": "setApprovalForAll",
      "outputs": [],
      "stateMutability": "nonpayable",
      "type": "function"
    },
    {
      "inputs": [
        {
          "internalType": "bytes4",
          "name": "interfaceId",
          "type": "bytes4"
        }
      ],
      "name": "supportsInterface",
      "outputs": [
        {
          "internalType": "bool",
          "name": "",
          "type": "bool"
        }
      ],
      "stateMutability": "view",
      "type": "function"
    },
    {
      "inputs": [
        {
          "internalType": "uint256",
          "name": "tokenId",
          "type": "uint256"
        },
        {
          "internalType": "address",
          "name": "_to",
          "type": "address"
        },
        {
          "internalType": "uint256",
          "name": "_amount",
          "type": "uint256"
        }
      ],
      "name": "transferNFT",
      "outputs": [],
      "stateMutability": "nonpayable",
      "type": "function"
    },
    {
      "inputs": [
        {
          "internalType": "address",
          "name": "_newOwner",
          "type": "address"
        }
      ],
      "name": "transferOwnership",
      "outputs": [],
      "stateMutability": "nonpayable",
      "type": "function"
    },
    {
      "inputs": [
        {
          "internalType": "uint256",
          "name": "i",
          "type": "uint256"
        }
      ],
      "name": "uint2hexstr",
      "outputs": [
        {
          "internalType": "string",
          "name": "",
          "type": "string"
        }
      ],
      "stateMutability": "pure",
      "type": "function"
    },
    {
      "inputs": [
        {
          "internalType": "uint256",
          "name": "_tokenID",
          "type": "uint256"
        }
      ],
      "name": "uri",
      "outputs": [
        {
          "internalType": "string",
          "name": "",
          "type": "string"
        }
      ],
      "stateMutability": "pure",
      "type": "function"
    },
    {
      "inputs": [],
      "name": "withdraw",
      "outputs": [],
      "stateMutability": "nonpayable",
      "type": "function"
    }
  ],
  "bytecode": "0x60806040523480156200001157600080fd5b50604051620041a1380380620041a18339818101604052810190620000379190620003b0565b8062000049816200007960201b60201c565b506200006a6200005e6200009560201b60201c565b6200009d60201b60201c565b60016004819055505062000466565b80600290805190602001906200009192919062000163565b5050565b600033905090565b6000600360009054906101000a900473ffffffffffffffffffffffffffffffffffffffff16905081600360006101000a81548173ffffffffffffffffffffffffffffffffffffffff021916908373ffffffffffffffffffffffffffffffffffffffff1602179055508173ffffffffffffffffffffffffffffffffffffffff168173ffffffffffffffffffffffffffffffffffffffff167f8be0079c531659141344cd1fd0a4f28419497f9722a3daafe3b4186f6b6457e060405160405180910390a35050565b828054620001719062000430565b90600052602060002090601f016020900481019282620001955760008555620001e1565b82601f10620001b057805160ff1916838001178555620001e1565b82800160010185558215620001e1579182015b82811115620001e0578251825591602001919060010190620001c3565b5b509050620001f09190620001f4565b5090565b5b808211156200020f576000816000905550600101620001f5565b5090565b6000604051905090565b600080fd5b600080fd5b600080fd5b600080fd5b6000601f19601f8301169050919050565b7f4e487b7100000000000000000000000000000000000000000000000000000000600052604160045260246000fd5b6200027c8262000231565b810181811067ffffffffffffffff821117156200029e576200029d62000242565b5b80604052505050565b6000620002b362000213565b9050620002c1828262000271565b919050565b600067ffffffffffffffff821115620002e457620002e362000242565b5b620002ef8262000231565b9050602081019050919050565b60005b838110156200031c578082015181840152602081019050620002ff565b838111156200032c576000848401525b50505050565b6000620003496200034384620002c6565b620002a7565b9050828152602081018484840111156200036857620003676200022c565b5b62000375848285620002fc565b509392505050565b600082601f83011262000395576200039462000227565b5b8151620003a784826020860162000332565b91505092915050565b600060208284031215620003c957620003c86200021d565b5b600082015167ffffffffffffffff811115620003ea57620003e962000222565b5b620003f8848285016200037d565b91505092915050565b7f4e487b7100000000000000000000000000000000000000000000000000000000600052602260045260246000fd5b600060028204905060018216806200044957607f821691505b6020821081141562000460576200045f62000401565b5b50919050565b613d2b80620004766000396000f3fe608060405234801561001057600080fd5b50600436106101205760003560e01c80633ccfd60b116100ad5780638da5cb5b116100715780638da5cb5b14610308578063a22cb46514610326578063e985e9c514610342578063f242432a14610372578063f2fde38b1461038e57610120565b80633ccfd60b1461028c5780634b641181146102965780634e1273f4146102b25780635bbc1a04146102e2578063715018a6146102fe57610120565b8063202e3740116100f4578063202e3740146101d157806324822514146101ef5780632eb2c2d61461020d578063386750a2146102295780633c93d8be1461025c57610120565b8062fdd58e1461012557806301ffc9a7146101555780630e89341c146101855780631cc509fd146101b5575b600080fd5b61013f600480360381019061013a91906124c7565b6103aa565b60405161014c9190612516565b60405180910390f35b61016f600480360381019061016a9190612589565b610473565b60405161017c91906125d1565b60405180910390f35b61019f600480360381019061019a91906125ec565b610555565b6040516101ac91906126b2565b60405180910390f35b6101cf60048036038101906101ca91906126d4565b61058c565b005b6101d96105d4565b6040516101e69190612849565b60405180910390f35b6101f7610798565b6040516102049190612516565b60405180910390f35b61022760048036038101906102229190612a68565b61079e565b005b610243600480360381019061023e91906125ec565b61083f565b6040516102539493929190612b46565b60405180910390f35b610276600480360381019061027191906125ec565b61088f565b60405161028391906126b2565b60405180910390f35b610294610a04565b005b6102b060048036038101906102ab9190612b8b565b610bb6565b005b6102cc60048036038101906102c79190612cd1565b610de8565b6040516102d99190612df8565b60405180910390f35b6102fc60048036038101906102f79190612e1a565b610f01565b005b610306610fc4565b005b61031061104c565b60405161031d9190612e6d565b60405180910390f35b610340600480360381019061033b9190612eb4565b611076565b005b61035c60048036038101906103579190612ef4565b61108c565b60405161036991906125d1565b60405180910390f35b61038c60048036038101906103879190612f34565b611120565b005b6103a860048036038101906103a39190612fcb565b6111c1565b005b60008073ffffffffffffffffffffffffffffffffffffffff168373ffffffffffffffffffffffffffffffffffffffff16141561041b576040517f08c379a00000000000000000000000000000000000000000000000000000000081526004016104129061306a565b60405180910390fd5b60008083815260200190815260200160002060008473ffffffffffffffffffffffffffffffffffffffff1673ffffffffffffffffffffffffffffffffffffffff16815260200190815260200160002054905092915050565b60007fd9b67a26000000000000000000000000000000000000000000000000000000007bffffffffffffffffffffffffffffffffffffffffffffffffffffffff1916827bffffffffffffffffffffffffffffffffffffffffffffffffffffffff1916148061053e57507f0e89341c000000000000000000000000000000000000000000000000000000007bffffffffffffffffffffffffffffffffffffffffffffffffffffffff1916827bffffffffffffffffffffffffffffffffffffffffffffffffffffffff1916145b8061054e575061054d8261139e565b5b9050919050565b606060006105628361088f565b9050806040516020016105759190613112565b604051602081830303815290604052915050919050565b8273ffffffffffffffffffffffffffffffffffffffff163373ffffffffffffffffffffffffffffffffffffffff16146105c457600080fd5b6105cf838383611408565b505050565b60606000600554905060008167ffffffffffffffff8111156105f9576105f8612870565b5b60405190808252806020026020018201604052801561063257816020015b61061f6123e1565b8152602001906001900390816106175790505b50905060005b82811161078f573373ffffffffffffffffffffffffffffffffffffffff166006600083815260200190815260200160002060010160009054906101000a900473ffffffffffffffffffffffffffffffffffffffff1673ffffffffffffffffffffffffffffffffffffffff16141561077c57600060066000838152602001908152602001600020600201549050600060066000838152602001908152602001600020905080604051806080016040529081600082015481526020016001820160009054906101000a900473ffffffffffffffffffffffffffffffffffffffff1673ffffffffffffffffffffffffffffffffffffffff1673ffffffffffffffffffffffffffffffffffffffff1681526020016002820154815260200160038201548152505084838151811061076e5761076d613134565b5b602002602001018190525050505b808061078790613192565b915050610638565b50809250505090565b60055481565b6107a6611625565b73ffffffffffffffffffffffffffffffffffffffff168573ffffffffffffffffffffffffffffffffffffffff1614806107ec57506107eb856107e6611625565b61108c565b5b61082b576040517f08c379a00000000000000000000000000000000000000000000000000000000081526004016108229061324d565b60405180910390fd5b610838858585858561162d565b5050505050565b60066020528060005260406000206000915090508060000154908060010160009054906101000a900473ffffffffffffffffffffffffffffffffffffffff16908060020154908060030154905084565b606060008214156108d7576040518060400160405280600181526020017f300000000000000000000000000000000000000000000000000000000000000081525090506109ff565b600082905060005b600082146109015780806108f290613192565b915050600482901c91506108df565b6000600f905060008267ffffffffffffffff81111561092357610922612870565b5b6040519080825280601f01601f1916602001820160405280156109555781602001600182028036833780820191505090505b50905060008390505b600087146109f657600083881690506009811161098a57806030610982919061326d565b60f81b61099b565b806037610997919061326d565b60f81b5b83836109a6906132c3565b935083815181106109ba576109b9613134565b5b60200101907effffffffffffffffffffffffffffffffffffffffffffffffffffffffffffff1916908160001a905350600488901c97505061095e565b81955050505050505b919050565b610a0c611625565b73ffffffffffffffffffffffffffffffffffffffff16610a2a61104c565b73ffffffffffffffffffffffffffffffffffffffff1614610a80576040517f08c379a0000000000000000000000000000000000000000000000000000000008152600401610a7790613339565b60405180910390fd5b60026004541415610ac6576040517f08c379a0000000000000000000000000000000000000000000000000000000008152600401610abd906133a5565b60405180910390fd5b6002600481905550600047905060008111610b16576040517f08c379a0000000000000000000000000000000000000000000000000000000008152600401610b0d90613411565b60405180910390fd5b3373ffffffffffffffffffffffffffffffffffffffff166108fc829081150290604051600060405180830381858888f19350505050158015610b5c573d6000803e3d6000fd5b503373ffffffffffffffffffffffffffffffffffffffff167fddc398b321237a8d40ac914388309c2f52a08c134e4dc4ce61e32f57cb7d80f182604051610ba39190612516565b60405180910390a2506001600481905550565b610bbe611625565b73ffffffffffffffffffffffffffffffffffffffff16610bdc61104c565b73ffffffffffffffffffffffffffffffffffffffff1614610c32576040517f08c379a0000000000000000000000000000000000000000000000000000000008152600401610c2990613339565b60405180910390fd5b60056000815480929190610c4590613192565b9190505550600073ffffffffffffffffffffffffffffffffffffffff1660066000600554815260200190815260200160002060010160009054906101000a900473ffffffffffffffffffffffffffffffffffffffff1673ffffffffffffffffffffffffffffffffffffffff1614610cea57826006600060055481526020019081526020016000206000016000828254610cde919061326d565b92505081905550610d9b565b82600660006005548152602001908152602001600020600001819055503360066000600554815260200190815260200160002060010160006101000a81548173ffffffffffffffffffffffffffffffffffffffff021916908373ffffffffffffffffffffffffffffffffffffffff1602179055506005546006600060055481526020019081526020016000206002018190555081600660006005548152602001908152602001600020600301819055505b610da9846005548584611941565b7ff00d28232b285f24f2e38415deb2ceb31069e70d4505838b3911b4f02058502e600554604051610dda9190612516565b60405180910390a150505050565b60608151835114610e2e576040517f08c379a0000000000000000000000000000000000000000000000000000000008152600401610e25906134a3565b60405180910390fd5b6000835167ffffffffffffffff811115610e4b57610e4a612870565b5b604051908082528060200260200182016040528015610e795781602001602082028036833780820191505090505b50905060005b8451811015610ef657610ec6858281518110610e9e57610e9d613134565b5b6020026020010151858381518110610eb957610eb8613134565b5b60200260200101516103aa565b828281518110610ed957610ed8613134565b5b60200260200101818152505080610eef90613192565b9050610e7f565b508091505092915050565b610f09611625565b73ffffffffffffffffffffffffffffffffffffffff16610f2761104c565b73ffffffffffffffffffffffffffffffffffffffff1614610f7d576040517f08c379a0000000000000000000000000000000000000000000000000000000008152600401610f7490613339565b60405180910390fd5b610fbf338385846040518060400160405280600381526020017f3078300000000000000000000000000000000000000000000000000000000000815250611ad7565b505050565b610fcc611625565b73ffffffffffffffffffffffffffffffffffffffff16610fea61104c565b73ffffffffffffffffffffffffffffffffffffffff1614611040576040517f08c379a000000000000000000000000000000000000000000000000000000000815260040161103790613339565b60405180910390fd5b61104a6000611d59565b565b6000600360009054906101000a900473ffffffffffffffffffffffffffffffffffffffff16905090565b611088611081611625565b8383611e1f565b5050565b6000600160008473ffffffffffffffffffffffffffffffffffffffff1673ffffffffffffffffffffffffffffffffffffffff16815260200190815260200160002060008373ffffffffffffffffffffffffffffffffffffffff1673ffffffffffffffffffffffffffffffffffffffff16815260200190815260200160002060009054906101000a900460ff16905092915050565b611128611625565b73ffffffffffffffffffffffffffffffffffffffff168573ffffffffffffffffffffffffffffffffffffffff16148061116e575061116d85611168611625565b61108c565b5b6111ad576040517f08c379a00000000000000000000000000000000000000000000000000000000081526004016111a490613535565b60405180910390fd5b6111ba8585858585611ad7565b5050505050565b6111c9611625565b73ffffffffffffffffffffffffffffffffffffffff166111e761104c565b73ffffffffffffffffffffffffffffffffffffffff161461123d576040517f08c379a000000000000000000000000000000000000000000000000000000000815260040161123490613339565b60405180910390fd5b6000600554905060005b81811015611399573373ffffffffffffffffffffffffffffffffffffffff1660066000600184611277919061326d565b815260200190815260200160002060010160009054906101000a900473ffffffffffffffffffffffffffffffffffffffff1673ffffffffffffffffffffffffffffffffffffffff161415611386576000600660006001846112d8919061326d565b8152602001908152602001600020600201549050836006600083815260200190815260200160002060010160006101000a81548173ffffffffffffffffffffffffffffffffffffffff021916908373ffffffffffffffffffffffffffffffffffffffff16021790555061138433858360016040518060400160405280600381526020017f3078300000000000000000000000000000000000000000000000000000000000815250611ad7565b505b808061139190613192565b915050611247565b505050565b60007f01ffc9a7000000000000000000000000000000000000000000000000000000007bffffffffffffffffffffffffffffffffffffffffffffffffffffffff1916827bffffffffffffffffffffffffffffffffffffffffffffffffffffffff1916149050919050565b600073ffffffffffffffffffffffffffffffffffffffff168373ffffffffffffffffffffffffffffffffffffffff161415611478576040517f08c379a000000000000000000000000000000000000000000000000000000000815260040161146f906135c7565b60405180910390fd5b6000611482611625565b90506114b28185600061149487611f8c565b61149d87611f8c565b60405180602001604052806000815250612006565b600080600085815260200190815260200160002060008673ffffffffffffffffffffffffffffffffffffffff1673ffffffffffffffffffffffffffffffffffffffff16815260200190815260200160002054905082811015611549576040517f08c379a000000000000000000000000000000000000000000000000000000000815260040161154090613659565b60405180910390fd5b82810360008086815260200190815260200160002060008773ffffffffffffffffffffffffffffffffffffffff1673ffffffffffffffffffffffffffffffffffffffff16815260200190815260200160002081905550600073ffffffffffffffffffffffffffffffffffffffff168573ffffffffffffffffffffffffffffffffffffffff168373ffffffffffffffffffffffffffffffffffffffff167fc3d58168c5ae7397731d063d5bbf3d657854427343f4c083240f7aacaa2d0f628787604051611616929190613679565b60405180910390a45050505050565b600033905090565b8151835114611671576040517f08c379a000000000000000000000000000000000000000000000000000000000815260040161166890613714565b60405180910390fd5b600073ffffffffffffffffffffffffffffffffffffffff168473ffffffffffffffffffffffffffffffffffffffff1614156116e1576040517f08c379a00000000000000000000000000000000000000000000000000000000081526004016116d8906137a6565b60405180910390fd5b60006116eb611625565b90506116fb818787878787612006565b60005b84518110156118ac57600085828151811061171c5761171b613134565b5b60200260200101519050600085838151811061173b5761173a613134565b5b60200260200101519050600080600084815260200190815260200160002060008b73ffffffffffffffffffffffffffffffffffffffff1673ffffffffffffffffffffffffffffffffffffffff168152602001908152602001600020549050818110156117dc576040517f08c379a00000000000000000000000000000000000000000000000000000000081526004016117d390613838565b60405180910390fd5b81810360008085815260200190815260200160002060008c73ffffffffffffffffffffffffffffffffffffffff1673ffffffffffffffffffffffffffffffffffffffff168152602001908152602001600020819055508160008085815260200190815260200160002060008b73ffffffffffffffffffffffffffffffffffffffff1673ffffffffffffffffffffffffffffffffffffffff1681526020019081526020016000206000828254611891919061326d565b92505081905550505050806118a590613192565b90506116fe565b508473ffffffffffffffffffffffffffffffffffffffff168673ffffffffffffffffffffffffffffffffffffffff168273ffffffffffffffffffffffffffffffffffffffff167f4a39dc06d4c0dbc64b70af90fd698a233a518aa5d07e595d983b8c0526c8f7fb8787604051611923929190613858565b60405180910390a461193981878787878761200e565b505050505050565b600073ffffffffffffffffffffffffffffffffffffffff168473ffffffffffffffffffffffffffffffffffffffff1614156119b1576040517f08c379a00000000000000000000000000000000000000000000000000000000081526004016119a890613901565b60405180910390fd5b60006119bb611625565b90506119dc816000876119cd88611f8c565b6119d688611f8c565b87612006565b8260008086815260200190815260200160002060008773ffffffffffffffffffffffffffffffffffffffff1673ffffffffffffffffffffffffffffffffffffffff1681526020019081526020016000206000828254611a3b919061326d565b925050819055508473ffffffffffffffffffffffffffffffffffffffff16600073ffffffffffffffffffffffffffffffffffffffff168273ffffffffffffffffffffffffffffffffffffffff167fc3d58168c5ae7397731d063d5bbf3d657854427343f4c083240f7aacaa2d0f628787604051611ab9929190613679565b60405180910390a4611ad0816000878787876121e6565b5050505050565b600073ffffffffffffffffffffffffffffffffffffffff168473ffffffffffffffffffffffffffffffffffffffff161415611b47576040517f08c379a0000000000000000000000000000000000000000000000000000000008152600401611b3e906137a6565b60405180910390fd5b6000611b51611625565b9050611b71818787611b6288611f8c565b611b6b88611f8c565b87612006565b600080600086815260200190815260200160002060008873ffffffffffffffffffffffffffffffffffffffff1673ffffffffffffffffffffffffffffffffffffffff16815260200190815260200160002054905083811015611c08576040517f08c379a0000000000000000000000000000000000000000000000000000000008152600401611bff90613838565b60405180910390fd5b83810360008087815260200190815260200160002060008973ffffffffffffffffffffffffffffffffffffffff1673ffffffffffffffffffffffffffffffffffffffff168152602001908152602001600020819055508360008087815260200190815260200160002060008873ffffffffffffffffffffffffffffffffffffffff1673ffffffffffffffffffffffffffffffffffffffff1681526020019081526020016000206000828254611cbd919061326d565b925050819055508573ffffffffffffffffffffffffffffffffffffffff168773ffffffffffffffffffffffffffffffffffffffff168373ffffffffffffffffffffffffffffffffffffffff167fc3d58168c5ae7397731d063d5bbf3d657854427343f4c083240f7aacaa2d0f628888604051611d3a929190613679565b60405180910390a4611d508288888888886121e6565b50505050505050565b6000600360009054906101000a900473ffffffffffffffffffffffffffffffffffffffff16905081600360006101000a81548173ffffffffffffffffffffffffffffffffffffffff021916908373ffffffffffffffffffffffffffffffffffffffff1602179055508173ffffffffffffffffffffffffffffffffffffffff168173ffffffffffffffffffffffffffffffffffffffff167f8be0079c531659141344cd1fd0a4f28419497f9722a3daafe3b4186f6b6457e060405160405180910390a35050565b8173ffffffffffffffffffffffffffffffffffffffff168373ffffffffffffffffffffffffffffffffffffffff161415611e8e576040517f08c379a0000000000000000000000000000000000000000000000000000000008152600401611e8590613993565b60405180910390fd5b80600160008573ffffffffffffffffffffffffffffffffffffffff1673ffffffffffffffffffffffffffffffffffffffff16815260200190815260200160002060008473ffffffffffffffffffffffffffffffffffffffff1673ffffffffffffffffffffffffffffffffffffffff16815260200190815260200160002060006101000a81548160ff0219169083151502179055508173ffffffffffffffffffffffffffffffffffffffff168373ffffffffffffffffffffffffffffffffffffffff167f17307eab39ab6107e8899845ad3d59bd9653f200f220920489ca2b5937696c3183604051611f7f91906125d1565b60405180910390a3505050565b60606000600167ffffffffffffffff811115611fab57611faa612870565b5b604051908082528060200260200182016040528015611fd95781602001602082028036833780820191505090505b5090508281600081518110611ff157611ff0613134565b5b60200260200101818152505080915050919050565b505050505050565b61202d8473ffffffffffffffffffffffffffffffffffffffff166123be565b156121de578373ffffffffffffffffffffffffffffffffffffffff1663bc197c8187878686866040518663ffffffff1660e01b8152600401612073959493929190613a08565b6020604051808303816000875af19250505080156120af57506040513d601f19601f820116820180604052508101906120ac9190613a85565b60015b612155576120bb613abf565b806308c379a0141561211857506120d0613ae1565b806120db575061211a565b806040517f08c379a000000000000000000000000000000000000000000000000000000000815260040161210f91906126b2565b60405180910390fd5b505b6040517f08c379a000000000000000000000000000000000000000000000000000000000815260040161214c90613be9565b60405180910390fd5b63bc197c8160e01b7bffffffffffffffffffffffffffffffffffffffffffffffffffffffff1916817bffffffffffffffffffffffffffffffffffffffffffffffffffffffff1916146121dc576040517f08c379a00000000000000000000000000000000000000000000000000000000081526004016121d390613c7b565b60405180910390fd5b505b505050505050565b6122058473ffffffffffffffffffffffffffffffffffffffff166123be565b156123b6578373ffffffffffffffffffffffffffffffffffffffff1663f23a6e6187878686866040518663ffffffff1660e01b815260040161224b959493929190613c9b565b6020604051808303816000875af192505050801561228757506040513d601f19601f820116820180604052508101906122849190613a85565b60015b61232d57612293613abf565b806308c379a014156122f057506122a8613ae1565b806122b357506122f2565b806040517f08c379a00000000000000000000000000000000000000000000000000000000081526004016122e791906126b2565b60405180910390fd5b505b6040517f08c379a000000000000000000000000000000000000000000000000000000000815260040161232490613be9565b60405180910390fd5b63f23a6e6160e01b7bffffffffffffffffffffffffffffffffffffffffffffffffffffffff1916817bffffffffffffffffffffffffffffffffffffffffffffffffffffffff1916146123b4576040517f08c379a00000000000000000000000000000000000000000000000000000000081526004016123ab90613c7b565b60405180910390fd5b505b505050505050565b6000808273ffffffffffffffffffffffffffffffffffffffff163b119050919050565b604051806080016040528060008152602001600073ffffffffffffffffffffffffffffffffffffffff16815260200160008152602001600081525090565b6000604051905090565b600080fd5b600080fd5b600073ffffffffffffffffffffffffffffffffffffffff82169050919050565b600061245e82612433565b9050919050565b61246e81612453565b811461247957600080fd5b50565b60008135905061248b81612465565b92915050565b6000819050919050565b6124a481612491565b81146124af57600080fd5b50565b6000813590506124c18161249b565b92915050565b600080604083850312156124de576124dd612429565b5b60006124ec8582860161247c565b92505060206124fd858286016124b2565b9150509250929050565b61251081612491565b82525050565b600060208201905061252b6000830184612507565b92915050565b60007fffffffff0000000000000000000000000000000000000000000000000000000082169050919050565b61256681612531565b811461257157600080fd5b50565b6000813590506125838161255d565b92915050565b60006020828403121561259f5761259e612429565b5b60006125ad84828501612574565b91505092915050565b60008115159050919050565b6125cb816125b6565b82525050565b60006020820190506125e660008301846125c2565b92915050565b60006020828403121561260257612601612429565b5b6000612610848285016124b2565b91505092915050565b600081519050919050565b600082825260208201905092915050565b60005b83811015612653578082015181840152602081019050612638565b83811115612662576000848401525b50505050565b6000601f19601f8301169050919050565b600061268482612619565b61268e8185612624565b935061269e818560208601612635565b6126a781612668565b840191505092915050565b600060208201905081810360008301526126cc8184612679565b905092915050565b6000806000606084860312156126ed576126ec612429565b5b60006126fb8682870161247c565b935050602061270c868287016124b2565b925050604061271d868287016124b2565b9150509250925092565b600081519050919050565b600082825260208201905092915050565b6000819050602082019050919050565b61275c81612491565b82525050565b61276b81612453565b82525050565b6080820160008201516127876000850182612753565b50602082015161279a6020850182612762565b5060408201516127ad6040850182612753565b5060608201516127c06060850182612753565b50505050565b60006127d28383612771565b60808301905092915050565b6000602082019050919050565b60006127f682612727565b6128008185612732565b935061280b83612743565b8060005b8381101561283c57815161282388826127c6565b975061282e836127de565b92505060018101905061280f565b5085935050505092915050565b6000602082019050818103600083015261286381846127eb565b905092915050565b600080fd5b7f4e487b7100000000000000000000000000000000000000000000000000000000600052604160045260246000fd5b6128a882612668565b810181811067ffffffffffffffff821117156128c7576128c6612870565b5b80604052505050565b60006128da61241f565b90506128e6828261289f565b919050565b600067ffffffffffffffff82111561290657612905612870565b5b602082029050602081019050919050565b600080fd5b600061292f61292a846128eb565b6128d0565b9050808382526020820190506020840283018581111561295257612951612917565b5b835b8181101561297b578061296788826124b2565b845260208401935050602081019050612954565b5050509392505050565b600082601f83011261299a5761299961286b565b5b81356129aa84826020860161291c565b91505092915050565b600080fd5b600067ffffffffffffffff8211156129d3576129d2612870565b5b6129dc82612668565b9050602081019050919050565b82818337600083830152505050565b6000612a0b612a06846129b8565b6128d0565b905082815260208101848484011115612a2757612a266129b3565b5b612a328482856129e9565b509392505050565b600082601f830112612a4f57612a4e61286b565b5b8135612a5f8482602086016129f8565b91505092915050565b600080600080600060a08688031215612a8457612a83612429565b5b6000612a928882890161247c565b9550506020612aa38882890161247c565b945050604086013567ffffffffffffffff811115612ac457612ac361242e565b5b612ad088828901612985565b935050606086013567ffffffffffffffff811115612af157612af061242e565b5b612afd88828901612985565b925050608086013567ffffffffffffffff811115612b1e57612b1d61242e565b5b612b2a88828901612a3a565b9150509295509295909350565b612b4081612453565b82525050565b6000608082019050612b5b6000830187612507565b612b686020830186612b37565b612b756040830185612507565b612b826060830184612507565b95945050505050565b60008060008060808587031215612ba557612ba4612429565b5b6000612bb38782880161247c565b9450506020612bc4878288016124b2565b9350506040612bd5878288016124b2565b925050606085013567ffffffffffffffff811115612bf657612bf561242e565b5b612c0287828801612a3a565b91505092959194509250565b600067ffffffffffffffff821115612c2957612c28612870565b5b602082029050602081019050919050565b6000612c4d612c4884612c0e565b6128d0565b90508083825260208201905060208402830185811115612c7057612c6f612917565b5b835b81811015612c995780612c85888261247c565b845260208401935050602081019050612c72565b5050509392505050565b600082601f830112612cb857612cb761286b565b5b8135612cc8848260208601612c3a565b91505092915050565b60008060408385031215612ce857612ce7612429565b5b600083013567ffffffffffffffff811115612d0657612d0561242e565b5b612d1285828601612ca3565b925050602083013567ffffffffffffffff811115612d3357612d3261242e565b5b612d3f85828601612985565b9150509250929050565b600081519050919050565b600082825260208201905092915050565b6000819050602082019050919050565b6000612d818383612753565b60208301905092915050565b6000602082019050919050565b6000612da582612d49565b612daf8185612d54565b9350612dba83612d65565b8060005b83811015612deb578151612dd28882612d75565b9750612ddd83612d8d565b925050600181019050612dbe565b5085935050505092915050565b60006020820190508181036000830152612e128184612d9a565b905092915050565b600080600060608486031215612e3357612e32612429565b5b6000612e41868287016124b2565b9350506020612e528682870161247c565b9250506040612e63868287016124b2565b9150509250925092565b6000602082019050612e826000830184612b37565b92915050565b612e91816125b6565b8114612e9c57600080fd5b50565b600081359050612eae81612e88565b92915050565b60008060408385031215612ecb57612eca612429565b5b6000612ed98582860161247c565b9250506020612eea85828601612e9f565b9150509250929050565b60008060408385031215612f0b57612f0a612429565b5b6000612f198582860161247c565b9250506020612f2a8582860161247c565b9150509250929050565b600080600080600060a08688031215612f5057612f4f612429565b5b6000612f5e8882890161247c565b9550506020612f6f8882890161247c565b9450506040612f80888289016124b2565b9350506060612f91888289016124b2565b925050608086013567ffffffffffffffff811115612fb257612fb161242e565b5b612fbe88828901612a3a565b9150509295509295909350565b600060208284031215612fe157612fe0612429565b5b6000612fef8482850161247c565b91505092915050565b7f455243313135353a2062616c616e636520717565727920666f7220746865207a60008201527f65726f2061646472657373000000000000000000000000000000000000000000602082015250565b6000613054602b83612624565b915061305f82612ff8565b604082019050919050565b6000602082019050818103600083015261308381613047565b9050919050565b600081905092915050565b7f697066733a2f2f66300000000000000000000000000000000000000000000000600082015250565b60006130cb60098361308a565b91506130d682613095565b600982019050919050565b60006130ec82612619565b6130f6818561308a565b9350613106818560208601612635565b80840191505092915050565b600061311d826130be565b915061312982846130e1565b915081905092915050565b7f4e487b7100000000000000000000000000000000000000000000000000000000600052603260045260246000fd5b7f4e487b7100000000000000000000000000000000000000000000000000000000600052601160045260246000fd5b600061319d82612491565b91507fffffffffffffffffffffffffffffffffffffffffffffffffffffffffffffffff8214156131d0576131cf613163565b5b600182019050919050565b7f455243313135353a207472616e736665722063616c6c6572206973206e6f742060008201527f6f776e6572206e6f7220617070726f7665640000000000000000000000000000602082015250565b6000613237603283612624565b9150613242826131db565b604082019050919050565b600060208201905081810360008301526132668161322a565b9050919050565b600061327882612491565b915061328383612491565b9250827fffffffffffffffffffffffffffffffffffffffffffffffffffffffffffffffff038211156132b8576132b7613163565b5b828201905092915050565b60006132ce82612491565b915060008214156132e2576132e1613163565b5b600182039050919050565b7f4f776e61626c653a2063616c6c6572206973206e6f7420746865206f776e6572600082015250565b6000613323602083612624565b915061332e826132ed565b602082019050919050565b6000602082019050818103600083015261335281613316565b9050919050565b7f5265656e7472616e637947756172643a207265656e7472616e742063616c6c00600082015250565b600061338f601f83612624565b915061339a82613359565b602082019050919050565b600060208201905081810360008301526133be81613382565b9050919050565b7f4e6f7420656e6f7567682066756e647320746f20776974686472617700000000600082015250565b60006133fb601c83612624565b9150613406826133c5565b602082019050919050565b6000602082019050818103600083015261342a816133ee565b9050919050565b7f455243313135353a206163636f756e747320616e6420696473206c656e67746860008201527f206d69736d617463680000000000000000000000000000000000000000000000602082015250565b600061348d602983612624565b915061349882613431565b604082019050919050565b600060208201905081810360008301526134bc81613480565b9050919050565b7f455243313135353a2063616c6c6572206973206e6f74206f776e6572206e6f7260008201527f20617070726f7665640000000000000000000000000000000000000000000000602082015250565b600061351f602983612624565b915061352a826134c3565b604082019050919050565b6000602082019050818103600083015261354e81613512565b9050919050565b7f455243313135353a206275726e2066726f6d20746865207a65726f206164647260008201527f6573730000000000000000000000000000000000000000000000000000000000602082015250565b60006135b1602383612624565b91506135bc82613555565b604082019050919050565b600060208201905081810360008301526135e0816135a4565b9050919050565b7f455243313135353a206275726e20616d6f756e7420657863656564732062616c60008201527f616e636500000000000000000000000000000000000000000000000000000000602082015250565b6000613643602483612624565b915061364e826135e7565b604082019050919050565b6000602082019050818103600083015261367281613636565b9050919050565b600060408201905061368e6000830185612507565b61369b6020830184612507565b9392505050565b7f455243313135353a2069647320616e6420616d6f756e7473206c656e6774682060008201527f6d69736d61746368000000000000000000000000000000000000000000000000602082015250565b60006136fe602883612624565b9150613709826136a2565b604082019050919050565b6000602082019050818103600083015261372d816136f1565b9050919050565b7f455243313135353a207472616e7366657220746f20746865207a65726f20616460008201527f6472657373000000000000000000000000000000000000000000000000000000602082015250565b6000613790602583612624565b915061379b82613734565b604082019050919050565b600060208201905081810360008301526137bf81613783565b9050919050565b7f455243313135353a20696e73756666696369656e742062616c616e636520666f60008201527f72207472616e7366657200000000000000000000000000000000000000000000602082015250565b6000613822602a83612624565b915061382d826137c6565b604082019050919050565b6000602082019050818103600083015261385181613815565b9050919050565b600060408201905081810360008301526138728185612d9a565b905081810360208301526138868184612d9a565b90509392505050565b7f455243313135353a206d696e7420746f20746865207a65726f2061646472657360008201527f7300000000000000000000000000000000000000000000000000000000000000602082015250565b60006138eb602183612624565b91506138f68261388f565b604082019050919050565b6000602082019050818103600083015261391a816138de565b9050919050565b7f455243313135353a2073657474696e6720617070726f76616c2073746174757360008201527f20666f722073656c660000000000000000000000000000000000000000000000602082015250565b600061397d602983612624565b915061398882613921565b604082019050919050565b600060208201905081810360008301526139ac81613970565b9050919050565b600081519050919050565b600082825260208201905092915050565b60006139da826139b3565b6139e481856139be565b93506139f4818560208601612635565b6139fd81612668565b840191505092915050565b600060a082019050613a1d6000830188612b37565b613a2a6020830187612b37565b8181036040830152613a3c8186612d9a565b90508181036060830152613a508185612d9a565b90508181036080830152613a6481846139cf565b90509695505050505050565b600081519050613a7f8161255d565b92915050565b600060208284031215613a9b57613a9a612429565b5b6000613aa984828501613a70565b91505092915050565b60008160e01c9050919050565b600060033d1115613ade5760046000803e613adb600051613ab2565b90505b90565b600060443d1015613af157613b74565b613af961241f565b60043d036004823e80513d602482011167ffffffffffffffff82111715613b21575050613b74565b808201805167ffffffffffffffff811115613b3f5750505050613b74565b80602083010160043d038501811115613b5c575050505050613b74565b613b6b8260200185018661289f565b82955050505050505b90565b7f455243313135353a207472616e7366657220746f206e6f6e204552433131353560008201527f526563656976657220696d706c656d656e746572000000000000000000000000602082015250565b6000613bd3603483612624565b9150613bde82613b77565b604082019050919050565b60006020820190508181036000830152613c0281613bc6565b9050919050565b7f455243313135353a204552433131353552656365697665722072656a6563746560008201527f6420746f6b656e73000000000000000000000000000000000000000000000000602082015250565b6000613c65602883612624565b9150613c7082613c09565b604082019050919050565b60006020820190508181036000830152613c9481613c58565b9050919050565b600060a082019050613cb06000830188612b37565b613cbd6020830187612b37565b613cca6040830186612507565b613cd76060830185612507565b8181036080830152613ce981846139cf565b9050969550505050505056fea2646970667358221220ccc1e46421f64aac7b837a1f3085f01003afe41ec389cf2aef64220a5de8107264736f6c634300080b0033",
  "linkReferences": {},
  "deployedLinkReferences": {}
}