{
  "_format": "hh-sol-artifact-1",
  "contractName": "ERC1155NFT",
  "sourceName": "contracts/ERC1155NFT.sol",
  "abi": [
    {
      "inputs": [
        {
          "internalType": "string",
          "name": "_uri",
          "type": "string"
        }
      ],
      "stateMutability": "nonpayable",
      "type": "constructor"
    },
    {
      "anonymous": false,
      "inputs": [
        {
          "indexed": true,
          "internalType": "address",
          "name": "account",
          "type": "address"
        },
        {
          "indexed": true,
          "internalType": "address",
          "name": "operator",
          "type": "address"
        },
        {
          "indexed": false,
          "internalType": "bool",
          "name": "approved",
          "type": "bool"
        }
      ],
      "name": "ApprovalForAll",
      "type": "event"
    },
    {
      "anonymous": false,
      "inputs": [
        {
          "indexed": true,
          "internalType": "address",
          "name": "beneficiary",
          "type": "address"
        },
        {
          "indexed": false,
          "internalType": "uint256",
          "name": "amount",
          "type": "uint256"
        }
      ],
      "name": "BalanceWithdrawn",
      "type": "event"
    },
    {
      "anonymous": false,
      "inputs": [
        {
          "indexed": true,
          "internalType": "address",
          "name": "previousOwner",
          "type": "address"
        },
        {
          "indexed": true,
          "internalType": "address",
          "name": "newOwner",
          "type": "address"
        }
      ],
      "name": "OwnershipTransferred",
      "type": "event"
    },
    {
      "anonymous": false,
      "inputs": [
        {
          "indexed": false,
          "internalType": "uint256",
          "name": "id",
          "type": "uint256"
        }
      ],
      "name": "TokenMinted",
      "type": "event"
    },
    {
      "anonymous": false,
      "inputs": [
        {
          "indexed": true,
          "internalType": "address",
          "name": "operator",
          "type": "address"
        },
        {
          "indexed": true,
          "internalType": "address",
          "name": "from",
          "type": "address"
        },
        {
          "indexed": true,
          "internalType": "address",
          "name": "to",
          "type": "address"
        },
        {
          "indexed": false,
          "internalType": "uint256[]",
          "name": "ids",
          "type": "uint256[]"
        },
        {
          "indexed": false,
          "internalType": "uint256[]",
          "name": "values",
          "type": "uint256[]"
        }
      ],
      "name": "TransferBatch",
      "type": "event"
    },
    {
      "anonymous": false,
      "inputs": [
        {
          "indexed": true,
          "internalType": "address",
          "name": "operator",
          "type": "address"
        },
        {
          "indexed": true,
          "internalType": "address",
          "name": "from",
          "type": "address"
        },
        {
          "indexed": true,
          "internalType": "address",
          "name": "to",
          "type": "address"
        },
        {
          "indexed": false,
          "internalType": "uint256",
          "name": "id",
          "type": "uint256"
        },
        {
          "indexed": false,
          "internalType": "uint256",
          "name": "value",
          "type": "uint256"
        }
      ],
      "name": "TransferSingle",
      "type": "event"
    },
    {
      "anonymous": false,
      "inputs": [
        {
          "indexed": false,
          "internalType": "string",
          "name": "value",
          "type": "string"
        },
        {
          "indexed": true,
          "internalType": "uint256",
          "name": "id",
          "type": "uint256"
        }
      ],
      "name": "URI",
      "type": "event"
    },
    {
      "inputs": [],
      "name": "_tokenId",
      "outputs": [
        {
          "internalType": "uint256",
          "name": "",
          "type": "uint256"
        }
      ],
      "stateMutability": "view",
      "type": "function"
    },
    {
      "inputs": [
        {
          "internalType": "address",
          "name": "account",
          "type": "address"
        },
        {
          "internalType": "uint256",
          "name": "id",
          "type": "uint256"
        }
      ],
      "name": "balanceOf",
      "outputs": [
        {
          "internalType": "uint256",
          "name": "",
          "type": "uint256"
        }
      ],
      "stateMutability": "view",
      "type": "function"
    },
    {
      "inputs": [
        {
          "internalType": "address[]",
          "name": "accounts",
          "type": "address[]"
        },
        {
          "internalType": "uint256[]",
          "name": "ids",
          "type": "uint256[]"
        }
      ],
      "name": "balanceOfBatch",
      "outputs": [
        {
          "internalType": "uint256[]",
          "name": "",
          "type": "uint256[]"
        }
      ],
      "stateMutability": "view",
      "type": "function"
    },
    {
      "inputs": [
        {
          "internalType": "address",
          "name": "_account",
          "type": "address"
        },
        {
          "internalType": "uint256",
          "name": "_id",
          "type": "uint256"
        },
        {
          "internalType": "uint256",
          "name": "_amount",
          "type": "uint256"
        }
      ],
      "name": "burnNFT",
      "outputs": [],
      "stateMutability": "nonpayable",
      "type": "function"
    },
    {
      "inputs": [],
      "name": "fetchMyNFTs",
      "outputs": [
        {
          "components": [
            {
              "internalType": "uint256",
              "name": "tokens",
              "type": "uint256"
            },
            {
              "internalType": "address",
              "name": "owner",
              "type": "address"
            },
            {
              "internalType": "uint256",
              "name": "tokenId",
              "type": "uint256"
            },
            {
              "internalType": "uint256",
              "name": "createdAt",
              "type": "uint256"
            }
          ],
          "internalType": "struct ERC1155NFT.Token[]",
          "name": "",
          "type": "tuple[]"
        }
      ],
      "stateMutability": "view",
      "type": "function"
    },
    {
      "inputs": [
        {
          "internalType": "uint256",
          "name": "",
          "type": "uint256"
        }
      ],
      "name": "idToTokenItem",
      "outputs": [
        {
          "internalType": "uint256",
          "name": "tokens",
          "type": "uint256"
        },
        {
          "internalType": "address",
          "name": "owner",
          "type": "address"
        },
        {
          "internalType": "uint256",
          "name": "tokenId",
          "type": "uint256"
        },
        {
          "internalType": "uint256",
          "name": "createdAt",
          "type": "uint256"
        }
      ],
      "stateMutability": "view",
      "type": "function"
    },
    {
      "inputs": [
        {
          "internalType": "address",
          "name": "account",
          "type": "address"
        },
        {
          "internalType": "address",
          "name": "operator",
          "type": "address"
        }
      ],
      "name": "isApprovedForAll",
      "outputs": [
        {
          "internalType": "bool",
          "name": "",
          "type": "bool"
        }
      ],
      "stateMutability": "view",
      "type": "function"
    },
    {
      "inputs": [
        {
          "internalType": "address",
          "name": "account",
          "type": "address"
        },
        {
          "internalType": "uint256",
          "name": "amount",
          "type": "uint256"
        },
        {
          "internalType": "uint256",
          "name": "createdAt",
          "type": "uint256"
        },
        {
          "internalType": "bytes",
          "name": "data",
          "type": "bytes"
        }
      ],
      "name": "mintNFT",
      "outputs": [],
      "stateMutability": "nonpayable",
      "type": "function"
    },
    {
      "inputs": [],
      "name": "owner",
      "outputs": [
        {
          "internalType": "address",
          "name": "",
          "type": "address"
        }
      ],
      "stateMutability": "view",
      "type": "function"
    },
    {
      "inputs": [],
      "name": "renounceOwnership",
      "outputs": [],
      "stateMutability": "nonpayable",
      "type": "function"
    },
    {
      "inputs": [
        {
          "internalType": "address",
          "name": "from",
          "type": "address"
        },
        {
          "internalType": "address",
          "name": "to",
          "type": "address"
        },
        {
          "internalType": "uint256[]",
          "name": "ids",
          "type": "uint256[]"
        },
        {
          "internalType": "uint256[]",
          "name": "amounts",
          "type": "uint256[]"
        },
        {
          "internalType": "bytes",
          "name": "data",
          "type": "bytes"
        }
      ],
      "name": "safeBatchTransferFrom",
      "outputs": [],
      "stateMutability": "nonpayable",
      "type": "function"
    },
    {
      "inputs": [
        {
          "internalType": "address",
          "name": "from",
          "type": "address"
        },
        {
          "internalType": "address",
          "name": "to",
          "type": "address"
        },
        {
          "internalType": "uint256",
          "name": "id",
          "type": "uint256"
        },
        {
          "internalType": "uint256",
          "name": "amount",
          "type": "uint256"
        },
        {
          "internalType": "bytes",
          "name": "data",
          "type": "bytes"
        }
      ],
      "name": "safeTransferFrom",
      "outputs": [],
      "stateMutability": "nonpayable",
      "type": "function"
    },
    {
      "inputs": [
        {
          "internalType": "address",
          "name": "operator",
          "type": "address"
        },
        {
          "internalType": "bool",
          "name": "approved",
          "type": "bool"
        }
      ],
      "name": "setApprovalForAll",
      "outputs": [],
      "stateMutability": "nonpayable",
      "type": "function"
    },
    {
      "inputs": [
        {
          "internalType": "bytes4",
          "name": "interfaceId",
          "type": "bytes4"
        }
      ],
      "name": "supportsInterface",
      "outputs": [
        {
          "internalType": "bool",
          "name": "",
          "type": "bool"
        }
      ],
      "stateMutability": "view",
      "type": "function"
    },
    {
      "inputs": [
        {
          "internalType": "uint256",
          "name": "tokenId",
          "type": "uint256"
        },
        {
          "internalType": "address",
          "name": "_to",
          "type": "address"
        },
        {
          "internalType": "uint256",
          "name": "_amount",
          "type": "uint256"
        }
      ],
      "name": "transferNFT",
      "outputs": [],
      "stateMutability": "nonpayable",
      "type": "function"
    },
    {
      "inputs": [
        {
          "internalType": "address",
          "name": "_newOwner",
          "type": "address"
        }
      ],
      "name": "transferOwnership",
      "outputs": [],
      "stateMutability": "nonpayable",
      "type": "function"
    },
    {
      "inputs": [
        {
          "internalType": "uint256",
          "name": "i",
          "type": "uint256"
        }
      ],
      "name": "uint2hexstr",
      "outputs": [
        {
          "internalType": "string",
          "name": "",
          "type": "string"
        }
      ],
      "stateMutability": "pure",
      "type": "function"
    },
    {
      "inputs": [
        {
          "internalType": "uint256",
          "name": "_tokenID",
          "type": "uint256"
        }
      ],
      "name": "uri",
      "outputs": [
        {
          "internalType": "string",
          "name": "",
          "type": "string"
        }
      ],
      "stateMutability": "pure",
      "type": "function"
    },
    {
      "inputs": [],
      "name": "withdraw",
      "outputs": [],
      "stateMutability": "nonpayable",
      "type": "function"
    }
  ],
  "bytecode": "0x60806040523480156200001157600080fd5b50604051620040d6380380620040d68339818101604052810190620000379190620003a8565b8062000049816200007160201b60201c565b506200006a6200005e6200008d60201b60201c565b6200009560201b60201c565b506200045e565b8060029080519060200190620000899291906200015b565b5050565b600033905090565b6000600360009054906101000a900473ffffffffffffffffffffffffffffffffffffffff16905081600360006101000a81548173ffffffffffffffffffffffffffffffffffffffff021916908373ffffffffffffffffffffffffffffffffffffffff1602179055508173ffffffffffffffffffffffffffffffffffffffff168173ffffffffffffffffffffffffffffffffffffffff167f8be0079c531659141344cd1fd0a4f28419497f9722a3daafe3b4186f6b6457e060405160405180910390a35050565b828054620001699062000428565b90600052602060002090601f0160209004810192826200018d5760008555620001d9565b82601f10620001a857805160ff1916838001178555620001d9565b82800160010185558215620001d9579182015b82811115620001d8578251825591602001919060010190620001bb565b5b509050620001e89190620001ec565b5090565b5b8082111562000207576000816000905550600101620001ed565b5090565b6000604051905090565b600080fd5b600080fd5b600080fd5b600080fd5b6000601f19601f8301169050919050565b7f4e487b7100000000000000000000000000000000000000000000000000000000600052604160045260246000fd5b620002748262000229565b810181811067ffffffffffffffff821117156200029657620002956200023a565b5b80604052505050565b6000620002ab6200020b565b9050620002b9828262000269565b919050565b600067ffffffffffffffff821115620002dc57620002db6200023a565b5b620002e78262000229565b9050602081019050919050565b60005b8381101562000314578082015181840152602081019050620002f7565b8381111562000324576000848401525b50505050565b6000620003416200033b84620002be565b6200029f565b90508281526020810184848401111562000360576200035f62000224565b5b6200036d848285620002f4565b509392505050565b600082601f8301126200038d576200038c6200021f565b5b81516200039f8482602086016200032a565b91505092915050565b600060208284031215620003c157620003c062000215565b5b600082015167ffffffffffffffff811115620003e257620003e16200021a565b5b620003f08482850162000375565b91505092915050565b7f4e487b7100000000000000000000000000000000000000000000000000000000600052602260045260246000fd5b600060028204905060018216806200044157607f821691505b60208210811415620004585762000457620003f9565b5b50919050565b613c68806200046e6000396000f3fe608060405234801561001057600080fd5b50600436106101205760003560e01c80633ccfd60b116100ad5780638da5cb5b116100715780638da5cb5b14610308578063a22cb46514610326578063e985e9c514610342578063f242432a14610372578063f2fde38b1461038e57610120565b80633ccfd60b1461028c5780634b641181146102965780634e1273f4146102b25780635bbc1a04146102e2578063715018a6146102fe57610120565b8063202e3740116100f4578063202e3740146101d157806324822514146101ef5780632eb2c2d61461020d578063386750a2146102295780633c93d8be1461025c57610120565b8062fdd58e1461012557806301ffc9a7146101555780630e89341c146101855780631cc509fd146101b5575b600080fd5b61013f600480360381019061013a9190612470565b6103aa565b60405161014c91906124bf565b60405180910390f35b61016f600480360381019061016a9190612532565b610473565b60405161017c919061257a565b60405180910390f35b61019f600480360381019061019a9190612595565b610555565b6040516101ac919061265b565b60405180910390f35b6101cf60048036038101906101ca919061267d565b61058b565b005b6101d96105d3565b6040516101e691906127f2565b60405180910390f35b6101f7610797565b60405161020491906124bf565b60405180910390f35b61022760048036038101906102229190612a11565b61079d565b005b610243600480360381019061023e9190612595565b61083e565b6040516102539493929190612aef565b60405180910390f35b61027660048036038101906102719190612595565b61088e565b604051610283919061265b565b60405180910390f35b610294610a03565b005b6102b060048036038101906102ab9190612b34565b610b5f565b005b6102cc60048036038101906102c79190612c7a565b610d91565b6040516102d99190612da1565b60405180910390f35b6102fc60048036038101906102f79190612dc3565b610eaa565b005b610306610f6d565b005b610310610ff5565b60405161031d9190612e16565b60405180910390f35b610340600480360381019061033b9190612e5d565b61101f565b005b61035c60048036038101906103579190612e9d565b611035565b604051610369919061257a565b60405180910390f35b61038c60048036038101906103879190612edd565b6110c9565b005b6103a860048036038101906103a39190612f74565b61116a565b005b60008073ffffffffffffffffffffffffffffffffffffffff168373ffffffffffffffffffffffffffffffffffffffff16141561041b576040517f08c379a000000000000000000000000000000000000000000000000000000000815260040161041290613013565b60405180910390fd5b60008083815260200190815260200160002060008473ffffffffffffffffffffffffffffffffffffffff1673ffffffffffffffffffffffffffffffffffffffff16815260200190815260200160002054905092915050565b60007fd9b67a26000000000000000000000000000000000000000000000000000000007bffffffffffffffffffffffffffffffffffffffffffffffffffffffff1916827bffffffffffffffffffffffffffffffffffffffffffffffffffffffff1916148061053e57507f0e89341c000000000000000000000000000000000000000000000000000000007bffffffffffffffffffffffffffffffffffffffffffffffffffffffff1916827bffffffffffffffffffffffffffffffffffffffffffffffffffffffff1916145b8061054e575061054d82611347565b5b9050919050565b6060806105618361088e565b90508060405160200161057491906130bb565b604051602081830303815290604052915050919050565b8273ffffffffffffffffffffffffffffffffffffffff163373ffffffffffffffffffffffffffffffffffffffff16146105c357600080fd5b6105ce8383836113b1565b505050565b60606000600454905060008167ffffffffffffffff8111156105f8576105f7612819565b5b60405190808252806020026020018201604052801561063157816020015b61061e61238a565b8152602001906001900390816106165790505b50905060005b82811161078e573373ffffffffffffffffffffffffffffffffffffffff166005600083815260200190815260200160002060010160009054906101000a900473ffffffffffffffffffffffffffffffffffffffff1673ffffffffffffffffffffffffffffffffffffffff16141561077b57600060056000838152602001908152602001600020600201549050600060056000838152602001908152602001600020905080604051806080016040529081600082015481526020016001820160009054906101000a900473ffffffffffffffffffffffffffffffffffffffff1673ffffffffffffffffffffffffffffffffffffffff1673ffffffffffffffffffffffffffffffffffffffff1681526020016002820154815260200160038201548152505084838151811061076d5761076c6130dd565b5b602002602001018190525050505b80806107869061313b565b915050610637565b50809250505090565b60045481565b6107a56115ce565b73ffffffffffffffffffffffffffffffffffffffff168573ffffffffffffffffffffffffffffffffffffffff1614806107eb57506107ea856107e56115ce565b611035565b5b61082a576040517f08c379a0000000000000000000000000000000000000000000000000000000008152600401610821906131f6565b60405180910390fd5b61083785858585856115d6565b5050505050565b60056020528060005260406000206000915090508060000154908060010160009054906101000a900473ffffffffffffffffffffffffffffffffffffffff16908060020154908060030154905084565b606060008214156108d6576040518060400160405280600181526020017f300000000000000000000000000000000000000000000000000000000000000081525090506109fe565b600082905060005b600082146109005780806108f19061313b565b915050600482901c91506108de565b6000600f905060008267ffffffffffffffff81111561092257610921612819565b5b6040519080825280601f01601f1916602001820160405280156109545781602001600182028036833780820191505090505b50905060008390505b600087146109f5576000838816905060098111610989578060306109819190613216565b60f81b61099a565b8060376109969190613216565b60f81b5b83836109a59061326c565b935083815181106109b9576109b86130dd565b5b60200101907effffffffffffffffffffffffffffffffffffffffffffffffffffffffffffff1916908160001a905350600488901c97505061095d565b81955050505050505b919050565b610a0b6115ce565b73ffffffffffffffffffffffffffffffffffffffff16610a29610ff5565b73ffffffffffffffffffffffffffffffffffffffff1614610a7f576040517f08c379a0000000000000000000000000000000000000000000000000000000008152600401610a76906132e2565b60405180910390fd5b600047905060008111610ac7576040517f08c379a0000000000000000000000000000000000000000000000000000000008152600401610abe9061334e565b60405180910390fd5b3373ffffffffffffffffffffffffffffffffffffffff166108fc829081150290604051600060405180830381858888f19350505050158015610b0d573d6000803e3d6000fd5b503373ffffffffffffffffffffffffffffffffffffffff167fddc398b321237a8d40ac914388309c2f52a08c134e4dc4ce61e32f57cb7d80f182604051610b5491906124bf565b60405180910390a250565b610b676115ce565b73ffffffffffffffffffffffffffffffffffffffff16610b85610ff5565b73ffffffffffffffffffffffffffffffffffffffff1614610bdb576040517f08c379a0000000000000000000000000000000000000000000000000000000008152600401610bd2906132e2565b60405180910390fd5b60046000815480929190610bee9061313b565b9190505550600073ffffffffffffffffffffffffffffffffffffffff1660056000600454815260200190815260200160002060010160009054906101000a900473ffffffffffffffffffffffffffffffffffffffff1673ffffffffffffffffffffffffffffffffffffffff1614610c9357826005600060045481526020019081526020016000206000016000828254610c879190613216565b92505081905550610d44565b82600560006004548152602001908152602001600020600001819055503360056000600454815260200190815260200160002060010160006101000a81548173ffffffffffffffffffffffffffffffffffffffff021916908373ffffffffffffffffffffffffffffffffffffffff1602179055506004546005600060045481526020019081526020016000206002018190555081600560006004548152602001908152602001600020600301819055505b610d528460045485846118ea565b7ff00d28232b285f24f2e38415deb2ceb31069e70d4505838b3911b4f02058502e600454604051610d8391906124bf565b60405180910390a150505050565b60608151835114610dd7576040517f08c379a0000000000000000000000000000000000000000000000000000000008152600401610dce906133e0565b60405180910390fd5b6000835167ffffffffffffffff811115610df457610df3612819565b5b604051908082528060200260200182016040528015610e225781602001602082028036833780820191505090505b50905060005b8451811015610e9f57610e6f858281518110610e4757610e466130dd565b5b6020026020010151858381518110610e6257610e616130dd565b5b60200260200101516103aa565b828281518110610e8257610e816130dd565b5b60200260200101818152505080610e989061313b565b9050610e28565b508091505092915050565b610eb26115ce565b73ffffffffffffffffffffffffffffffffffffffff16610ed0610ff5565b73ffffffffffffffffffffffffffffffffffffffff1614610f26576040517f08c379a0000000000000000000000000000000000000000000000000000000008152600401610f1d906132e2565b60405180910390fd5b610f68338385846040518060400160405280600381526020017f3078300000000000000000000000000000000000000000000000000000000000815250611a80565b505050565b610f756115ce565b73ffffffffffffffffffffffffffffffffffffffff16610f93610ff5565b73ffffffffffffffffffffffffffffffffffffffff1614610fe9576040517f08c379a0000000000000000000000000000000000000000000000000000000008152600401610fe0906132e2565b60405180910390fd5b610ff36000611d02565b565b6000600360009054906101000a900473ffffffffffffffffffffffffffffffffffffffff16905090565b61103161102a6115ce565b8383611dc8565b5050565b6000600160008473ffffffffffffffffffffffffffffffffffffffff1673ffffffffffffffffffffffffffffffffffffffff16815260200190815260200160002060008373ffffffffffffffffffffffffffffffffffffffff1673ffffffffffffffffffffffffffffffffffffffff16815260200190815260200160002060009054906101000a900460ff16905092915050565b6110d16115ce565b73ffffffffffffffffffffffffffffffffffffffff168573ffffffffffffffffffffffffffffffffffffffff1614806111175750611116856111116115ce565b611035565b5b611156576040517f08c379a000000000000000000000000000000000000000000000000000000000815260040161114d90613472565b60405180910390fd5b6111638585858585611a80565b5050505050565b6111726115ce565b73ffffffffffffffffffffffffffffffffffffffff16611190610ff5565b73ffffffffffffffffffffffffffffffffffffffff16146111e6576040517f08c379a00000000000000000000000000000000000000000000000000000000081526004016111dd906132e2565b60405180910390fd5b6000600454905060005b81811015611342573373ffffffffffffffffffffffffffffffffffffffff16600560006001846112209190613216565b815260200190815260200160002060010160009054906101000a900473ffffffffffffffffffffffffffffffffffffffff1673ffffffffffffffffffffffffffffffffffffffff16141561132f576000600560006001846112819190613216565b8152602001908152602001600020600201549050836005600083815260200190815260200160002060010160006101000a81548173ffffffffffffffffffffffffffffffffffffffff021916908373ffffffffffffffffffffffffffffffffffffffff16021790555061132d33858360016040518060400160405280600381526020017f3078300000000000000000000000000000000000000000000000000000000000815250611a80565b505b808061133a9061313b565b9150506111f0565b505050565b60007f01ffc9a7000000000000000000000000000000000000000000000000000000007bffffffffffffffffffffffffffffffffffffffffffffffffffffffff1916827bffffffffffffffffffffffffffffffffffffffffffffffffffffffff1916149050919050565b600073ffffffffffffffffffffffffffffffffffffffff168373ffffffffffffffffffffffffffffffffffffffff161415611421576040517f08c379a000000000000000000000000000000000000000000000000000000000815260040161141890613504565b60405180910390fd5b600061142b6115ce565b905061145b8185600061143d87611f35565b61144687611f35565b60405180602001604052806000815250611faf565b600080600085815260200190815260200160002060008673ffffffffffffffffffffffffffffffffffffffff1673ffffffffffffffffffffffffffffffffffffffff168152602001908152602001600020549050828110156114f2576040517f08c379a00000000000000000000000000000000000000000000000000000000081526004016114e990613596565b60405180910390fd5b82810360008086815260200190815260200160002060008773ffffffffffffffffffffffffffffffffffffffff1673ffffffffffffffffffffffffffffffffffffffff16815260200190815260200160002081905550600073ffffffffffffffffffffffffffffffffffffffff168573ffffffffffffffffffffffffffffffffffffffff168373ffffffffffffffffffffffffffffffffffffffff167fc3d58168c5ae7397731d063d5bbf3d657854427343f4c083240f7aacaa2d0f6287876040516115bf9291906135b6565b60405180910390a45050505050565b600033905090565b815183511461161a576040517f08c379a000000000000000000000000000000000000000000000000000000000815260040161161190613651565b60405180910390fd5b600073ffffffffffffffffffffffffffffffffffffffff168473ffffffffffffffffffffffffffffffffffffffff16141561168a576040517f08c379a0000000000000000000000000000000000000000000000000000000008152600401611681906136e3565b60405180910390fd5b60006116946115ce565b90506116a4818787878787611faf565b60005b84518110156118555760008582815181106116c5576116c46130dd565b5b6020026020010151905060008583815181106116e4576116e36130dd565b5b60200260200101519050600080600084815260200190815260200160002060008b73ffffffffffffffffffffffffffffffffffffffff1673ffffffffffffffffffffffffffffffffffffffff16815260200190815260200160002054905081811015611785576040517f08c379a000000000000000000000000000000000000000000000000000000000815260040161177c90613775565b60405180910390fd5b81810360008085815260200190815260200160002060008c73ffffffffffffffffffffffffffffffffffffffff1673ffffffffffffffffffffffffffffffffffffffff168152602001908152602001600020819055508160008085815260200190815260200160002060008b73ffffffffffffffffffffffffffffffffffffffff1673ffffffffffffffffffffffffffffffffffffffff168152602001908152602001600020600082825461183a9190613216565b925050819055505050508061184e9061313b565b90506116a7565b508473ffffffffffffffffffffffffffffffffffffffff168673ffffffffffffffffffffffffffffffffffffffff168273ffffffffffffffffffffffffffffffffffffffff167f4a39dc06d4c0dbc64b70af90fd698a233a518aa5d07e595d983b8c0526c8f7fb87876040516118cc929190613795565b60405180910390a46118e2818787878787611fb7565b505050505050565b600073ffffffffffffffffffffffffffffffffffffffff168473ffffffffffffffffffffffffffffffffffffffff16141561195a576040517f08c379a00000000000000000000000000000000000000000000000000000000081526004016119519061383e565b60405180910390fd5b60006119646115ce565b90506119858160008761197688611f35565b61197f88611f35565b87611faf565b8260008086815260200190815260200160002060008773ffffffffffffffffffffffffffffffffffffffff1673ffffffffffffffffffffffffffffffffffffffff16815260200190815260200160002060008282546119e49190613216565b925050819055508473ffffffffffffffffffffffffffffffffffffffff16600073ffffffffffffffffffffffffffffffffffffffff168273ffffffffffffffffffffffffffffffffffffffff167fc3d58168c5ae7397731d063d5bbf3d657854427343f4c083240f7aacaa2d0f628787604051611a629291906135b6565b60405180910390a4611a798160008787878761218f565b5050505050565b600073ffffffffffffffffffffffffffffffffffffffff168473ffffffffffffffffffffffffffffffffffffffff161415611af0576040517f08c379a0000000000000000000000000000000000000000000000000000000008152600401611ae7906136e3565b60405180910390fd5b6000611afa6115ce565b9050611b1a818787611b0b88611f35565b611b1488611f35565b87611faf565b600080600086815260200190815260200160002060008873ffffffffffffffffffffffffffffffffffffffff1673ffffffffffffffffffffffffffffffffffffffff16815260200190815260200160002054905083811015611bb1576040517f08c379a0000000000000000000000000000000000000000000000000000000008152600401611ba890613775565b60405180910390fd5b83810360008087815260200190815260200160002060008973ffffffffffffffffffffffffffffffffffffffff1673ffffffffffffffffffffffffffffffffffffffff168152602001908152602001600020819055508360008087815260200190815260200160002060008873ffffffffffffffffffffffffffffffffffffffff1673ffffffffffffffffffffffffffffffffffffffff1681526020019081526020016000206000828254611c669190613216565b925050819055508573ffffffffffffffffffffffffffffffffffffffff168773ffffffffffffffffffffffffffffffffffffffff168373ffffffffffffffffffffffffffffffffffffffff167fc3d58168c5ae7397731d063d5bbf3d657854427343f4c083240f7aacaa2d0f628888604051611ce39291906135b6565b60405180910390a4611cf982888888888861218f565b50505050505050565b6000600360009054906101000a900473ffffffffffffffffffffffffffffffffffffffff16905081600360006101000a81548173ffffffffffffffffffffffffffffffffffffffff021916908373ffffffffffffffffffffffffffffffffffffffff1602179055508173ffffffffffffffffffffffffffffffffffffffff168173ffffffffffffffffffffffffffffffffffffffff167f8be0079c531659141344cd1fd0a4f28419497f9722a3daafe3b4186f6b6457e060405160405180910390a35050565b8173ffffffffffffffffffffffffffffffffffffffff168373ffffffffffffffffffffffffffffffffffffffff161415611e37576040517f08c379a0000000000000000000000000000000000000000000000000000000008152600401611e2e906138d0565b60405180910390fd5b80600160008573ffffffffffffffffffffffffffffffffffffffff1673ffffffffffffffffffffffffffffffffffffffff16815260200190815260200160002060008473ffffffffffffffffffffffffffffffffffffffff1673ffffffffffffffffffffffffffffffffffffffff16815260200190815260200160002060006101000a81548160ff0219169083151502179055508173ffffffffffffffffffffffffffffffffffffffff168373ffffffffffffffffffffffffffffffffffffffff167f17307eab39ab6107e8899845ad3d59bd9653f200f220920489ca2b5937696c3183604051611f28919061257a565b60405180910390a3505050565b60606000600167ffffffffffffffff811115611f5457611f53612819565b5b604051908082528060200260200182016040528015611f825781602001602082028036833780820191505090505b5090508281600081518110611f9a57611f996130dd565b5b60200260200101818152505080915050919050565b505050505050565b611fd68473ffffffffffffffffffffffffffffffffffffffff16612367565b15612187578373ffffffffffffffffffffffffffffffffffffffff1663bc197c8187878686866040518663ffffffff1660e01b815260040161201c959493929190613945565b6020604051808303816000875af192505050801561205857506040513d601f19601f8201168201806040525081019061205591906139c2565b60015b6120fe576120646139fc565b806308c379a014156120c15750612079613a1e565b8061208457506120c3565b806040517f08c379a00000000000000000000000000000000000000000000000000000000081526004016120b8919061265b565b60405180910390fd5b505b6040517f08c379a00000000000000000000000000000000000000000000000000000000081526004016120f590613b26565b60405180910390fd5b63bc197c8160e01b7bffffffffffffffffffffffffffffffffffffffffffffffffffffffff1916817bffffffffffffffffffffffffffffffffffffffffffffffffffffffff191614612185576040517f08c379a000000000000000000000000000000000000000000000000000000000815260040161217c90613bb8565b60405180910390fd5b505b505050505050565b6121ae8473ffffffffffffffffffffffffffffffffffffffff16612367565b1561235f578373ffffffffffffffffffffffffffffffffffffffff1663f23a6e6187878686866040518663ffffffff1660e01b81526004016121f4959493929190613bd8565b6020604051808303816000875af192505050801561223057506040513d601f19601f8201168201806040525081019061222d91906139c2565b60015b6122d65761223c6139fc565b806308c379a014156122995750612251613a1e565b8061225c575061229b565b806040517f08c379a0000000000000000000000000000000000000000000000000000000008152600401612290919061265b565b60405180910390fd5b505b6040517f08c379a00000000000000000000000000000000000000000000000000000000081526004016122cd90613b26565b60405180910390fd5b63f23a6e6160e01b7bffffffffffffffffffffffffffffffffffffffffffffffffffffffff1916817bffffffffffffffffffffffffffffffffffffffffffffffffffffffff19161461235d576040517f08c379a000000000000000000000000000000000000000000000000000000000815260040161235490613bb8565b60405180910390fd5b505b505050505050565b6000808273ffffffffffffffffffffffffffffffffffffffff163b119050919050565b604051806080016040528060008152602001600073ffffffffffffffffffffffffffffffffffffffff16815260200160008152602001600081525090565b6000604051905090565b600080fd5b600080fd5b600073ffffffffffffffffffffffffffffffffffffffff82169050919050565b6000612407826123dc565b9050919050565b612417816123fc565b811461242257600080fd5b50565b6000813590506124348161240e565b92915050565b6000819050919050565b61244d8161243a565b811461245857600080fd5b50565b60008135905061246a81612444565b92915050565b60008060408385031215612487576124866123d2565b5b600061249585828601612425565b92505060206124a68582860161245b565b9150509250929050565b6124b98161243a565b82525050565b60006020820190506124d460008301846124b0565b92915050565b60007fffffffff0000000000000000000000000000000000000000000000000000000082169050919050565b61250f816124da565b811461251a57600080fd5b50565b60008135905061252c81612506565b92915050565b600060208284031215612548576125476123d2565b5b60006125568482850161251d565b91505092915050565b60008115159050919050565b6125748161255f565b82525050565b600060208201905061258f600083018461256b565b92915050565b6000602082840312156125ab576125aa6123d2565b5b60006125b98482850161245b565b91505092915050565b600081519050919050565b600082825260208201905092915050565b60005b838110156125fc5780820151818401526020810190506125e1565b8381111561260b576000848401525b50505050565b6000601f19601f8301169050919050565b600061262d826125c2565b61263781856125cd565b93506126478185602086016125de565b61265081612611565b840191505092915050565b600060208201905081810360008301526126758184612622565b905092915050565b600080600060608486031215612696576126956123d2565b5b60006126a486828701612425565b93505060206126b58682870161245b565b92505060406126c68682870161245b565b9150509250925092565b600081519050919050565b600082825260208201905092915050565b6000819050602082019050919050565b6127058161243a565b82525050565b612714816123fc565b82525050565b60808201600082015161273060008501826126fc565b506020820151612743602085018261270b565b50604082015161275660408501826126fc565b50606082015161276960608501826126fc565b50505050565b600061277b838361271a565b60808301905092915050565b6000602082019050919050565b600061279f826126d0565b6127a981856126db565b93506127b4836126ec565b8060005b838110156127e55781516127cc888261276f565b97506127d783612787565b9250506001810190506127b8565b5085935050505092915050565b6000602082019050818103600083015261280c8184612794565b905092915050565b600080fd5b7f4e487b7100000000000000000000000000000000000000000000000000000000600052604160045260246000fd5b61285182612611565b810181811067ffffffffffffffff821117156128705761286f612819565b5b80604052505050565b60006128836123c8565b905061288f8282612848565b919050565b600067ffffffffffffffff8211156128af576128ae612819565b5b602082029050602081019050919050565b600080fd5b60006128d86128d384612894565b612879565b905080838252602082019050602084028301858111156128fb576128fa6128c0565b5b835b818110156129245780612910888261245b565b8452602084019350506020810190506128fd565b5050509392505050565b600082601f83011261294357612942612814565b5b81356129538482602086016128c5565b91505092915050565b600080fd5b600067ffffffffffffffff82111561297c5761297b612819565b5b61298582612611565b9050602081019050919050565b82818337600083830152505050565b60006129b46129af84612961565b612879565b9050828152602081018484840111156129d0576129cf61295c565b5b6129db848285612992565b509392505050565b600082601f8301126129f8576129f7612814565b5b8135612a088482602086016129a1565b91505092915050565b600080600080600060a08688031215612a2d57612a2c6123d2565b5b6000612a3b88828901612425565b9550506020612a4c88828901612425565b945050604086013567ffffffffffffffff811115612a6d57612a6c6123d7565b5b612a798882890161292e565b935050606086013567ffffffffffffffff811115612a9a57612a996123d7565b5b612aa68882890161292e565b925050608086013567ffffffffffffffff811115612ac757612ac66123d7565b5b612ad3888289016129e3565b9150509295509295909350565b612ae9816123fc565b82525050565b6000608082019050612b0460008301876124b0565b612b116020830186612ae0565b612b1e60408301856124b0565b612b2b60608301846124b0565b95945050505050565b60008060008060808587031215612b4e57612b4d6123d2565b5b6000612b5c87828801612425565b9450506020612b6d8782880161245b565b9350506040612b7e8782880161245b565b925050606085013567ffffffffffffffff811115612b9f57612b9e6123d7565b5b612bab878288016129e3565b91505092959194509250565b600067ffffffffffffffff821115612bd257612bd1612819565b5b602082029050602081019050919050565b6000612bf6612bf184612bb7565b612879565b90508083825260208201905060208402830185811115612c1957612c186128c0565b5b835b81811015612c425780612c2e8882612425565b845260208401935050602081019050612c1b565b5050509392505050565b600082601f830112612c6157612c60612814565b5b8135612c71848260208601612be3565b91505092915050565b60008060408385031215612c9157612c906123d2565b5b600083013567ffffffffffffffff811115612caf57612cae6123d7565b5b612cbb85828601612c4c565b925050602083013567ffffffffffffffff811115612cdc57612cdb6123d7565b5b612ce88582860161292e565b9150509250929050565b600081519050919050565b600082825260208201905092915050565b6000819050602082019050919050565b6000612d2a83836126fc565b60208301905092915050565b6000602082019050919050565b6000612d4e82612cf2565b612d588185612cfd565b9350612d6383612d0e565b8060005b83811015612d94578151612d7b8882612d1e565b9750612d8683612d36565b925050600181019050612d67565b5085935050505092915050565b60006020820190508181036000830152612dbb8184612d43565b905092915050565b600080600060608486031215612ddc57612ddb6123d2565b5b6000612dea8682870161245b565b9350506020612dfb86828701612425565b9250506040612e0c8682870161245b565b9150509250925092565b6000602082019050612e2b6000830184612ae0565b92915050565b612e3a8161255f565b8114612e4557600080fd5b50565b600081359050612e5781612e31565b92915050565b60008060408385031215612e7457612e736123d2565b5b6000612e8285828601612425565b9250506020612e9385828601612e48565b9150509250929050565b60008060408385031215612eb457612eb36123d2565b5b6000612ec285828601612425565b9250506020612ed385828601612425565b9150509250929050565b600080600080600060a08688031215612ef957612ef86123d2565b5b6000612f0788828901612425565b9550506020612f1888828901612425565b9450506040612f298882890161245b565b9350506060612f3a8882890161245b565b925050608086013567ffffffffffffffff811115612f5b57612f5a6123d7565b5b612f67888289016129e3565b9150509295509295909350565b600060208284031215612f8a57612f896123d2565b5b6000612f9884828501612425565b91505092915050565b7f455243313135353a2062616c616e636520717565727920666f7220746865207a60008201527f65726f2061646472657373000000000000000000000000000000000000000000602082015250565b6000612ffd602b836125cd565b915061300882612fa1565b604082019050919050565b6000602082019050818103600083015261302c81612ff0565b9050919050565b600081905092915050565b7f697066733a2f2f66300000000000000000000000000000000000000000000000600082015250565b6000613074600983613033565b915061307f8261303e565b600982019050919050565b6000613095826125c2565b61309f8185613033565b93506130af8185602086016125de565b80840191505092915050565b60006130c682613067565b91506130d2828461308a565b915081905092915050565b7f4e487b7100000000000000000000000000000000000000000000000000000000600052603260045260246000fd5b7f4e487b7100000000000000000000000000000000000000000000000000000000600052601160045260246000fd5b60006131468261243a565b91507fffffffffffffffffffffffffffffffffffffffffffffffffffffffffffffffff8214156131795761317861310c565b5b600182019050919050565b7f455243313135353a207472616e736665722063616c6c6572206973206e6f742060008201527f6f776e6572206e6f7220617070726f7665640000000000000000000000000000602082015250565b60006131e06032836125cd565b91506131eb82613184565b604082019050919050565b6000602082019050818103600083015261320f816131d3565b9050919050565b60006132218261243a565b915061322c8361243a565b9250827fffffffffffffffffffffffffffffffffffffffffffffffffffffffffffffffff038211156132615761326061310c565b5b828201905092915050565b60006132778261243a565b9150600082141561328b5761328a61310c565b5b600182039050919050565b7f4f776e61626c653a2063616c6c6572206973206e6f7420746865206f776e6572600082015250565b60006132cc6020836125cd565b91506132d782613296565b602082019050919050565b600060208201905081810360008301526132fb816132bf565b9050919050565b7f4e6f7420656e6f7567682066756e647320746f20776974686472617700000000600082015250565b6000613338601c836125cd565b915061334382613302565b602082019050919050565b600060208201905081810360008301526133678161332b565b9050919050565b7f455243313135353a206163636f756e747320616e6420696473206c656e67746860008201527f206d69736d617463680000000000000000000000000000000000000000000000602082015250565b60006133ca6029836125cd565b91506133d58261336e565b604082019050919050565b600060208201905081810360008301526133f9816133bd565b9050919050565b7f455243313135353a2063616c6c6572206973206e6f74206f776e6572206e6f7260008201527f20617070726f7665640000000000000000000000000000000000000000000000602082015250565b600061345c6029836125cd565b915061346782613400565b604082019050919050565b6000602082019050818103600083015261348b8161344f565b9050919050565b7f455243313135353a206275726e2066726f6d20746865207a65726f206164647260008201527f6573730000000000000000000000000000000000000000000000000000000000602082015250565b60006134ee6023836125cd565b91506134f982613492565b604082019050919050565b6000602082019050818103600083015261351d816134e1565b9050919050565b7f455243313135353a206275726e20616d6f756e7420657863656564732062616c60008201527f616e636500000000000000000000000000000000000000000000000000000000602082015250565b60006135806024836125cd565b915061358b82613524565b604082019050919050565b600060208201905081810360008301526135af81613573565b9050919050565b60006040820190506135cb60008301856124b0565b6135d860208301846124b0565b9392505050565b7f455243313135353a2069647320616e6420616d6f756e7473206c656e6774682060008201527f6d69736d61746368000000000000000000000000000000000000000000000000602082015250565b600061363b6028836125cd565b9150613646826135df565b604082019050919050565b6000602082019050818103600083015261366a8161362e565b9050919050565b7f455243313135353a207472616e7366657220746f20746865207a65726f20616460008201527f6472657373000000000000000000000000000000000000000000000000000000602082015250565b60006136cd6025836125cd565b91506136d882613671565b604082019050919050565b600060208201905081810360008301526136fc816136c0565b9050919050565b7f455243313135353a20696e73756666696369656e742062616c616e636520666f60008201527f72207472616e7366657200000000000000000000000000000000000000000000602082015250565b600061375f602a836125cd565b915061376a82613703565b604082019050919050565b6000602082019050818103600083015261378e81613752565b9050919050565b600060408201905081810360008301526137af8185612d43565b905081810360208301526137c38184612d43565b90509392505050565b7f455243313135353a206d696e7420746f20746865207a65726f2061646472657360008201527f7300000000000000000000000000000000000000000000000000000000000000602082015250565b60006138286021836125cd565b9150613833826137cc565b604082019050919050565b600060208201905081810360008301526138578161381b565b9050919050565b7f455243313135353a2073657474696e6720617070726f76616c2073746174757360008201527f20666f722073656c660000000000000000000000000000000000000000000000602082015250565b60006138ba6029836125cd565b91506138c58261385e565b604082019050919050565b600060208201905081810360008301526138e9816138ad565b9050919050565b600081519050919050565b600082825260208201905092915050565b6000613917826138f0565b61392181856138fb565b93506139318185602086016125de565b61393a81612611565b840191505092915050565b600060a08201905061395a6000830188612ae0565b6139676020830187612ae0565b81810360408301526139798186612d43565b9050818103606083015261398d8185612d43565b905081810360808301526139a1818461390c565b90509695505050505050565b6000815190506139bc81612506565b92915050565b6000602082840312156139d8576139d76123d2565b5b60006139e6848285016139ad565b91505092915050565b60008160e01c9050919050565b600060033d1115613a1b5760046000803e613a186000516139ef565b90505b90565b600060443d1015613a2e57613ab1565b613a366123c8565b60043d036004823e80513d602482011167ffffffffffffffff82111715613a5e575050613ab1565b808201805167ffffffffffffffff811115613a7c5750505050613ab1565b80602083010160043d038501811115613a99575050505050613ab1565b613aa882602001850186612848565b82955050505050505b90565b7f455243313135353a207472616e7366657220746f206e6f6e204552433131353560008201527f526563656976657220696d706c656d656e746572000000000000000000000000602082015250565b6000613b106034836125cd565b9150613b1b82613ab4565b604082019050919050565b60006020820190508181036000830152613b3f81613b03565b9050919050565b7f455243313135353a204552433131353552656365697665722072656a6563746560008201527f6420746f6b656e73000000000000000000000000000000000000000000000000602082015250565b6000613ba26028836125cd565b9150613bad82613b46565b604082019050919050565b60006020820190508181036000830152613bd181613b95565b9050919050565b600060a082019050613bed6000830188612ae0565b613bfa6020830187612ae0565b613c0760408301866124b0565b613c1460608301856124b0565b8181036080830152613c26818461390c565b9050969550505050505056fea26469706673582212202e933aff5d299c3cad59114d87877de412e9c5a85b42fd075e98be2df54d2e3264736f6c634300080b0033",
  "linkReferences": {},
  "deployedLinkReferences": {}
}