{
  "_format": "hh-sol-artifact-1",
  "contractName": "ERC1155NFT",
  "sourceName": "contracts/ERC1155NFT.sol",
  "abi": [
    {
      "inputs": [
        {
          "internalType": "string",
          "name": "_uri",
          "type": "string"
        }
      ],
      "stateMutability": "nonpayable",
      "type": "constructor"
    },
    {
      "anonymous": false,
      "inputs": [
        {
          "indexed": true,
          "internalType": "address",
          "name": "account",
          "type": "address"
        },
        {
          "indexed": true,
          "internalType": "address",
          "name": "operator",
          "type": "address"
        },
        {
          "indexed": false,
          "internalType": "bool",
          "name": "approved",
          "type": "bool"
        }
      ],
      "name": "ApprovalForAll",
      "type": "event"
    },
    {
      "anonymous": false,
      "inputs": [
        {
          "indexed": true,
          "internalType": "address",
          "name": "beneficiary",
          "type": "address"
        },
        {
          "indexed": false,
          "internalType": "uint256",
          "name": "amount",
          "type": "uint256"
        }
      ],
      "name": "BalanceWithdrawn",
      "type": "event"
    },
    {
      "anonymous": false,
      "inputs": [
        {
          "indexed": true,
          "internalType": "address",
          "name": "previousOwner",
          "type": "address"
        },
        {
          "indexed": true,
          "internalType": "address",
          "name": "newOwner",
          "type": "address"
        }
      ],
      "name": "OwnershipTransferred",
      "type": "event"
    },
    {
      "anonymous": false,
      "inputs": [
        {
          "indexed": false,
          "internalType": "uint256",
          "name": "id",
          "type": "uint256"
        }
      ],
      "name": "TokenMinted",
      "type": "event"
    },
    {
      "anonymous": false,
      "inputs": [
        {
          "indexed": true,
          "internalType": "address",
          "name": "operator",
          "type": "address"
        },
        {
          "indexed": true,
          "internalType": "address",
          "name": "from",
          "type": "address"
        },
        {
          "indexed": true,
          "internalType": "address",
          "name": "to",
          "type": "address"
        },
        {
          "indexed": false,
          "internalType": "uint256[]",
          "name": "ids",
          "type": "uint256[]"
        },
        {
          "indexed": false,
          "internalType": "uint256[]",
          "name": "values",
          "type": "uint256[]"
        }
      ],
      "name": "TransferBatch",
      "type": "event"
    },
    {
      "anonymous": false,
      "inputs": [
        {
          "indexed": true,
          "internalType": "address",
          "name": "operator",
          "type": "address"
        },
        {
          "indexed": true,
          "internalType": "address",
          "name": "from",
          "type": "address"
        },
        {
          "indexed": true,
          "internalType": "address",
          "name": "to",
          "type": "address"
        },
        {
          "indexed": false,
          "internalType": "uint256",
          "name": "id",
          "type": "uint256"
        },
        {
          "indexed": false,
          "internalType": "uint256",
          "name": "value",
          "type": "uint256"
        }
      ],
      "name": "TransferSingle",
      "type": "event"
    },
    {
      "anonymous": false,
      "inputs": [
        {
          "indexed": false,
          "internalType": "string",
          "name": "value",
          "type": "string"
        },
        {
          "indexed": true,
          "internalType": "uint256",
          "name": "id",
          "type": "uint256"
        }
      ],
      "name": "URI",
      "type": "event"
    },
    {
      "inputs": [],
      "name": "_tokenId",
      "outputs": [
        {
          "internalType": "uint256",
          "name": "",
          "type": "uint256"
        }
      ],
      "stateMutability": "view",
      "type": "function"
    },
    {
      "inputs": [
        {
          "internalType": "address",
          "name": "account",
          "type": "address"
        },
        {
          "internalType": "uint256",
          "name": "id",
          "type": "uint256"
        }
      ],
      "name": "balanceOf",
      "outputs": [
        {
          "internalType": "uint256",
          "name": "",
          "type": "uint256"
        }
      ],
      "stateMutability": "view",
      "type": "function"
    },
    {
      "inputs": [
        {
          "internalType": "address[]",
          "name": "accounts",
          "type": "address[]"
        },
        {
          "internalType": "uint256[]",
          "name": "ids",
          "type": "uint256[]"
        }
      ],
      "name": "balanceOfBatch",
      "outputs": [
        {
          "internalType": "uint256[]",
          "name": "",
          "type": "uint256[]"
        }
      ],
      "stateMutability": "view",
      "type": "function"
    },
    {
      "inputs": [
        {
          "internalType": "address",
          "name": "_account",
          "type": "address"
        },
        {
          "internalType": "uint256",
          "name": "_id",
          "type": "uint256"
        },
        {
          "internalType": "uint256",
          "name": "_amount",
          "type": "uint256"
        }
      ],
      "name": "burnNFT",
      "outputs": [],
      "stateMutability": "nonpayable",
      "type": "function"
    },
    {
      "inputs": [],
      "name": "fetchMyNFTs",
      "outputs": [
        {
          "components": [
            {
              "internalType": "uint256",
              "name": "tokens",
              "type": "uint256"
            },
            {
              "internalType": "address",
              "name": "owner",
              "type": "address"
            },
            {
              "internalType": "uint256",
              "name": "tokenId",
              "type": "uint256"
            },
            {
              "internalType": "uint256",
              "name": "createdAt",
              "type": "uint256"
            }
          ],
          "internalType": "struct ERC1155NFT.Token[]",
          "name": "",
          "type": "tuple[]"
        }
      ],
      "stateMutability": "view",
      "type": "function"
    },
    {
      "inputs": [
        {
          "internalType": "uint256",
          "name": "",
          "type": "uint256"
        }
      ],
      "name": "idToTokenItem",
      "outputs": [
        {
          "internalType": "uint256",
          "name": "tokens",
          "type": "uint256"
        },
        {
          "internalType": "address",
          "name": "owner",
          "type": "address"
        },
        {
          "internalType": "uint256",
          "name": "tokenId",
          "type": "uint256"
        },
        {
          "internalType": "uint256",
          "name": "createdAt",
          "type": "uint256"
        }
      ],
      "stateMutability": "view",
      "type": "function"
    },
    {
      "inputs": [
        {
          "internalType": "address",
          "name": "account",
          "type": "address"
        },
        {
          "internalType": "address",
          "name": "operator",
          "type": "address"
        }
      ],
      "name": "isApprovedForAll",
      "outputs": [
        {
          "internalType": "bool",
          "name": "",
          "type": "bool"
        }
      ],
      "stateMutability": "view",
      "type": "function"
    },
    {
      "inputs": [
        {
          "internalType": "address",
          "name": "account",
          "type": "address"
        },
        {
          "internalType": "uint256",
          "name": "amount",
          "type": "uint256"
        },
        {
          "internalType": "uint256",
          "name": "createdAt",
          "type": "uint256"
        },
        {
          "internalType": "bytes",
          "name": "data",
          "type": "bytes"
        }
      ],
      "name": "mintNFT",
      "outputs": [],
      "stateMutability": "nonpayable",
      "type": "function"
    },
    {
      "inputs": [],
      "name": "owner",
      "outputs": [
        {
          "internalType": "address",
          "name": "",
          "type": "address"
        }
      ],
      "stateMutability": "view",
      "type": "function"
    },
    {
      "inputs": [],
      "name": "renounceOwnership",
      "outputs": [],
      "stateMutability": "nonpayable",
      "type": "function"
    },
    {
      "inputs": [
        {
          "internalType": "address",
          "name": "from",
          "type": "address"
        },
        {
          "internalType": "address",
          "name": "to",
          "type": "address"
        },
        {
          "internalType": "uint256[]",
          "name": "ids",
          "type": "uint256[]"
        },
        {
          "internalType": "uint256[]",
          "name": "amounts",
          "type": "uint256[]"
        },
        {
          "internalType": "bytes",
          "name": "data",
          "type": "bytes"
        }
      ],
      "name": "safeBatchTransferFrom",
      "outputs": [],
      "stateMutability": "nonpayable",
      "type": "function"
    },
    {
      "inputs": [
        {
          "internalType": "address",
          "name": "from",
          "type": "address"
        },
        {
          "internalType": "address",
          "name": "to",
          "type": "address"
        },
        {
          "internalType": "uint256",
          "name": "id",
          "type": "uint256"
        },
        {
          "internalType": "uint256",
          "name": "amount",
          "type": "uint256"
        },
        {
          "internalType": "bytes",
          "name": "data",
          "type": "bytes"
        }
      ],
      "name": "safeTransferFrom",
      "outputs": [],
      "stateMutability": "nonpayable",
      "type": "function"
    },
    {
      "inputs": [
        {
          "internalType": "address",
          "name": "operator",
          "type": "address"
        },
        {
          "internalType": "bool",
          "name": "approved",
          "type": "bool"
        }
      ],
      "name": "setApprovalForAll",
      "outputs": [],
      "stateMutability": "nonpayable",
      "type": "function"
    },
    {
      "inputs": [
        {
          "internalType": "string",
          "name": "_newBaseMetadataURI",
          "type": "string"
        }
      ],
      "name": "setBaseMetadataURI",
      "outputs": [],
      "stateMutability": "nonpayable",
      "type": "function"
    },
    {
      "inputs": [
        {
          "internalType": "bytes4",
          "name": "interfaceId",
          "type": "bytes4"
        }
      ],
      "name": "supportsInterface",
      "outputs": [
        {
          "internalType": "bool",
          "name": "",
          "type": "bool"
        }
      ],
      "stateMutability": "view",
      "type": "function"
    },
    {
      "inputs": [
        {
          "internalType": "uint256",
          "name": "tokenId",
          "type": "uint256"
        },
        {
          "internalType": "address",
          "name": "_to",
          "type": "address"
        },
        {
          "internalType": "uint256",
          "name": "_amount",
          "type": "uint256"
        }
      ],
      "name": "transferNFT",
      "outputs": [],
      "stateMutability": "nonpayable",
      "type": "function"
    },
    {
      "inputs": [
        {
          "internalType": "address",
          "name": "_newOwner",
          "type": "address"
        }
      ],
      "name": "transferOwnership",
      "outputs": [],
      "stateMutability": "nonpayable",
      "type": "function"
    },
    {
      "inputs": [
        {
          "internalType": "uint256",
          "name": "_id",
          "type": "uint256"
        }
      ],
      "name": "uri",
      "outputs": [
        {
          "internalType": "string",
          "name": "",
          "type": "string"
        }
      ],
      "stateMutability": "view",
      "type": "function"
    },
    {
      "inputs": [],
      "name": "withdraw",
      "outputs": [],
      "stateMutability": "nonpayable",
      "type": "function"
    }
  ],
  "bytecode": "0x60806040523480156200001157600080fd5b5060405162004a1138038062004a11833981810160405281019062000037919062000496565b8062000049816200008a60201b60201c565b506200006a6200005e620000a660201b60201c565b620000ae60201b60201c565b600160048190555062000083816200017460201b60201c565b50620005cf565b8060029080519060200190620000a292919062000249565b5050565b600033905090565b6000600360009054906101000a900473ffffffffffffffffffffffffffffffffffffffff16905081600360006101000a81548173ffffffffffffffffffffffffffffffffffffffff021916908373ffffffffffffffffffffffffffffffffffffffff1602179055508173ffffffffffffffffffffffffffffffffffffffff168173ffffffffffffffffffffffffffffffffffffffff167f8be0079c531659141344cd1fd0a4f28419497f9722a3daafe3b4186f6b6457e060405160405180910390a35050565b62000184620000a660201b60201c565b73ffffffffffffffffffffffffffffffffffffffff16620001aa6200021f60201b60201c565b73ffffffffffffffffffffffffffffffffffffffff161462000203576040517f08c379a0000000000000000000000000000000000000000000000000000000008152600401620001fa9062000548565b60405180910390fd5b80600690805190602001906200021b92919062000249565b5050565b6000600360009054906101000a900473ffffffffffffffffffffffffffffffffffffffff16905090565b828054620002579062000599565b90600052602060002090601f0160209004810192826200027b5760008555620002c7565b82601f106200029657805160ff1916838001178555620002c7565b82800160010185558215620002c7579182015b82811115620002c6578251825591602001919060010190620002a9565b5b509050620002d69190620002da565b5090565b5b80821115620002f5576000816000905550600101620002db565b5090565b6000604051905090565b600080fd5b600080fd5b600080fd5b600080fd5b6000601f19601f8301169050919050565b7f4e487b7100000000000000000000000000000000000000000000000000000000600052604160045260246000fd5b620003628262000317565b810181811067ffffffffffffffff8211171562000384576200038362000328565b5b80604052505050565b600062000399620002f9565b9050620003a7828262000357565b919050565b600067ffffffffffffffff821115620003ca57620003c962000328565b5b620003d58262000317565b9050602081019050919050565b60005b8381101562000402578082015181840152602081019050620003e5565b8381111562000412576000848401525b50505050565b60006200042f6200042984620003ac565b6200038d565b9050828152602081018484840111156200044e576200044d62000312565b5b6200045b848285620003e2565b509392505050565b600082601f8301126200047b576200047a6200030d565b5b81516200048d84826020860162000418565b91505092915050565b600060208284031215620004af57620004ae62000303565b5b600082015167ffffffffffffffff811115620004d057620004cf62000308565b5b620004de8482850162000463565b91505092915050565b600082825260208201905092915050565b7f4f776e61626c653a2063616c6c6572206973206e6f7420746865206f776e6572600082015250565b600062000530602083620004e7565b91506200053d82620004f8565b602082019050919050565b60006020820190508181036000830152620005638162000521565b9050919050565b7f4e487b7100000000000000000000000000000000000000000000000000000000600052602260045260246000fd5b60006002820490506001821680620005b257607f821691505b60208210811415620005c957620005c86200056a565b5b50919050565b61443280620005df6000396000f3fe608060405234801561001057600080fd5b50600436106101205760003560e01c80634b641181116100ad5780638da5cb5b116100715780638da5cb5b146102f4578063a22cb46514610312578063e985e9c51461032e578063f242432a1461035e578063f2fde38b1461037a57610120565b80634b641181146102665780634e1273f4146102825780635bbc1a04146102b2578063715018a6146102ce5780637e518ec8146102d857610120565b8063202e3740116100f4578063202e3740146101d157806324822514146101ef5780632eb2c2d61461020d578063386750a2146102295780633ccfd60b1461025c57610120565b8062fdd58e1461012557806301ffc9a7146101555780630e89341c146101855780631cc509fd146101b5575b600080fd5b61013f600480360381019061013a9190612a25565b610396565b60405161014c9190612a74565b60405180910390f35b61016f600480360381019061016a9190612ae7565b61045f565b60405161017c9190612b2f565b60405180910390f35b61019f600480360381019061019a9190612b4a565b610541565b6040516101ac9190612c10565b60405180910390f35b6101cf60048036038101906101ca9190612c32565b6105e6565b005b6101d961062e565b6040516101e69190612da7565b60405180910390f35b6101f76107f2565b6040516102049190612a74565b60405180910390f35b61022760048036038101906102229190612fc6565b6107f8565b005b610243600480360381019061023e9190612b4a565b610899565b60405161025394939291906130a4565b60405180910390f35b6102646108e9565b005b610280600480360381019061027b91906130e9565b610a9b565b005b61029c6004803603810190610297919061322f565b610ccd565b6040516102a99190613356565b60405180910390f35b6102cc60048036038101906102c79190613378565b610de6565b005b6102d6610ea9565b005b6102f260048036038101906102ed919061346c565b610f31565b005b6102fc610fc7565b60405161030991906134b5565b60405180910390f35b61032c600480360381019061032791906134fc565b610ff1565b005b6103486004803603810190610343919061353c565b611007565b6040516103559190612b2f565b60405180910390f35b6103786004803603810190610373919061357c565b61109b565b005b610394600480360381019061038f9190613613565b61113c565b005b60008073ffffffffffffffffffffffffffffffffffffffff168373ffffffffffffffffffffffffffffffffffffffff161415610407576040517f08c379a00000000000000000000000000000000000000000000000000000000081526004016103fe906136b2565b60405180910390fd5b60008083815260200190815260200160002060008473ffffffffffffffffffffffffffffffffffffffff1673ffffffffffffffffffffffffffffffffffffffff16815260200190815260200160002054905092915050565b60007fd9b67a26000000000000000000000000000000000000000000000000000000007bffffffffffffffffffffffffffffffffffffffffffffffffffffffff1916827bffffffffffffffffffffffffffffffffffffffffffffffffffffffff1916148061052a57507f0e89341c000000000000000000000000000000000000000000000000000000007bffffffffffffffffffffffffffffffffffffffffffffffffffffffff1916827bffffffffffffffffffffffffffffffffffffffffffffffffffffffff1916145b8061053a575061053982611319565b5b9050919050565b60606105df6006805461055390613701565b80601f016020809104026020016040519081016040528092919081815260200182805461057f90613701565b80156105cc5780601f106105a1576101008083540402835291602001916105cc565b820191906000526020600020905b8154815290600101906020018083116105af57829003601f168201915b50505050506105da84611383565b61150c565b9050919050565b8273ffffffffffffffffffffffffffffffffffffffff163373ffffffffffffffffffffffffffffffffffffffff161461061e57600080fd5b610629838383611550565b505050565b60606000600554905060008167ffffffffffffffff81111561065357610652612dce565b5b60405190808252806020026020018201604052801561068c57816020015b61067961289c565b8152602001906001900390816106715790505b50905060005b8281116107e9573373ffffffffffffffffffffffffffffffffffffffff166007600083815260200190815260200160002060010160009054906101000a900473ffffffffffffffffffffffffffffffffffffffff1673ffffffffffffffffffffffffffffffffffffffff1614156107d657600060076000838152602001908152602001600020600201549050600060076000838152602001908152602001600020905080604051806080016040529081600082015481526020016001820160009054906101000a900473ffffffffffffffffffffffffffffffffffffffff1673ffffffffffffffffffffffffffffffffffffffff1673ffffffffffffffffffffffffffffffffffffffff168152602001600282015481526020016003820154815250508483815181106107c8576107c7613733565b5b602002602001018190525050505b80806107e190613791565b915050610692565b50809250505090565b60055481565b61080061176d565b73ffffffffffffffffffffffffffffffffffffffff168573ffffffffffffffffffffffffffffffffffffffff16148061084657506108458561084061176d565b611007565b5b610885576040517f08c379a000000000000000000000000000000000000000000000000000000000815260040161087c9061384c565b60405180910390fd5b6108928585858585611775565b5050505050565b60076020528060005260406000206000915090508060000154908060010160009054906101000a900473ffffffffffffffffffffffffffffffffffffffff16908060020154908060030154905084565b6108f161176d565b73ffffffffffffffffffffffffffffffffffffffff1661090f610fc7565b73ffffffffffffffffffffffffffffffffffffffff1614610965576040517f08c379a000000000000000000000000000000000000000000000000000000000815260040161095c906138b8565b60405180910390fd5b600260045414156109ab576040517f08c379a00000000000000000000000000000000000000000000000000000000081526004016109a290613924565b60405180910390fd5b60026004819055506000479050600081116109fb576040517f08c379a00000000000000000000000000000000000000000000000000000000081526004016109f290613990565b60405180910390fd5b3373ffffffffffffffffffffffffffffffffffffffff166108fc829081150290604051600060405180830381858888f19350505050158015610a41573d6000803e3d6000fd5b503373ffffffffffffffffffffffffffffffffffffffff167fddc398b321237a8d40ac914388309c2f52a08c134e4dc4ce61e32f57cb7d80f182604051610a889190612a74565b60405180910390a2506001600481905550565b610aa361176d565b73ffffffffffffffffffffffffffffffffffffffff16610ac1610fc7565b73ffffffffffffffffffffffffffffffffffffffff1614610b17576040517f08c379a0000000000000000000000000000000000000000000000000000000008152600401610b0e906138b8565b60405180910390fd5b60056000815480929190610b2a90613791565b9190505550600073ffffffffffffffffffffffffffffffffffffffff1660076000600554815260200190815260200160002060010160009054906101000a900473ffffffffffffffffffffffffffffffffffffffff1673ffffffffffffffffffffffffffffffffffffffff1614610bcf57826007600060055481526020019081526020016000206000016000828254610bc391906139b0565b92505081905550610c80565b82600760006005548152602001908152602001600020600001819055503360076000600554815260200190815260200160002060010160006101000a81548173ffffffffffffffffffffffffffffffffffffffff021916908373ffffffffffffffffffffffffffffffffffffffff1602179055506005546007600060055481526020019081526020016000206002018190555081600760006005548152602001908152602001600020600301819055505b610c8e846005548584611a89565b7ff00d28232b285f24f2e38415deb2ceb31069e70d4505838b3911b4f02058502e600554604051610cbf9190612a74565b60405180910390a150505050565b60608151835114610d13576040517f08c379a0000000000000000000000000000000000000000000000000000000008152600401610d0a90613a78565b60405180910390fd5b6000835167ffffffffffffffff811115610d3057610d2f612dce565b5b604051908082528060200260200182016040528015610d5e5781602001602082028036833780820191505090505b50905060005b8451811015610ddb57610dab858281518110610d8357610d82613733565b5b6020026020010151858381518110610d9e57610d9d613733565b5b6020026020010151610396565b828281518110610dbe57610dbd613733565b5b60200260200101818152505080610dd490613791565b9050610d64565b508091505092915050565b610dee61176d565b73ffffffffffffffffffffffffffffffffffffffff16610e0c610fc7565b73ffffffffffffffffffffffffffffffffffffffff1614610e62576040517f08c379a0000000000000000000000000000000000000000000000000000000008152600401610e59906138b8565b60405180910390fd5b610ea4338385846040518060400160405280600381526020017f3078300000000000000000000000000000000000000000000000000000000000815250611c1f565b505050565b610eb161176d565b73ffffffffffffffffffffffffffffffffffffffff16610ecf610fc7565b73ffffffffffffffffffffffffffffffffffffffff1614610f25576040517f08c379a0000000000000000000000000000000000000000000000000000000008152600401610f1c906138b8565b60405180910390fd5b610f2f6000611ea1565b565b610f3961176d565b73ffffffffffffffffffffffffffffffffffffffff16610f57610fc7565b73ffffffffffffffffffffffffffffffffffffffff1614610fad576040517f08c379a0000000000000000000000000000000000000000000000000000000008152600401610fa4906138b8565b60405180910390fd5b8060069080519060200190610fc39291906128da565b5050565b6000600360009054906101000a900473ffffffffffffffffffffffffffffffffffffffff16905090565b611003610ffc61176d565b8383611f67565b5050565b6000600160008473ffffffffffffffffffffffffffffffffffffffff1673ffffffffffffffffffffffffffffffffffffffff16815260200190815260200160002060008373ffffffffffffffffffffffffffffffffffffffff1673ffffffffffffffffffffffffffffffffffffffff16815260200190815260200160002060009054906101000a900460ff16905092915050565b6110a361176d565b73ffffffffffffffffffffffffffffffffffffffff168573ffffffffffffffffffffffffffffffffffffffff1614806110e957506110e8856110e361176d565b611007565b5b611128576040517f08c379a000000000000000000000000000000000000000000000000000000000815260040161111f90613b0a565b60405180910390fd5b6111358585858585611c1f565b5050505050565b61114461176d565b73ffffffffffffffffffffffffffffffffffffffff16611162610fc7565b73ffffffffffffffffffffffffffffffffffffffff16146111b8576040517f08c379a00000000000000000000000000000000000000000000000000000000081526004016111af906138b8565b60405180910390fd5b6000600554905060005b81811015611314573373ffffffffffffffffffffffffffffffffffffffff16600760006001846111f291906139b0565b815260200190815260200160002060010160009054906101000a900473ffffffffffffffffffffffffffffffffffffffff1673ffffffffffffffffffffffffffffffffffffffff1614156113015760006007600060018461125391906139b0565b8152602001908152602001600020600201549050836007600083815260200190815260200160002060010160006101000a81548173ffffffffffffffffffffffffffffffffffffffff021916908373ffffffffffffffffffffffffffffffffffffffff1602179055506112ff33858360016040518060400160405280600381526020017f3078300000000000000000000000000000000000000000000000000000000000815250611c1f565b505b808061130c90613791565b9150506111c2565b505050565b60007f01ffc9a7000000000000000000000000000000000000000000000000000000007bffffffffffffffffffffffffffffffffffffffffffffffffffffffff1916827bffffffffffffffffffffffffffffffffffffffffffffffffffffffff1916149050919050565b606060008214156113cb576040518060400160405280600181526020017f30000000000000000000000000000000000000000000000000000000000000008152509050611507565b600082905060005b600082146113fd5780806113e690613791565b915050600a826113f69190613b59565b91506113d3565b60008167ffffffffffffffff81111561141957611418612dce565b5b6040519080825280601f01601f19166020018201604052801561144b5781602001600182028036833780820191505090505b50905060008290505b600086146114ff576001816114699190613b8a565b90506000600a808861147b9190613b59565b6114859190613bbe565b876114909190613b8a565b603061149c9190613c25565b905060008160f81b9050808484815181106114ba576114b9613733565b5b60200101907effffffffffffffffffffffffffffffffffffffffffffffffffffffffffffff1916908160001a905350600a886114f69190613b59565b97505050611454565b819450505050505b919050565b606061154883836040518060200160405280600081525060405180602001604052806000815250604051806020016040528060008152506120d4565b905092915050565b600073ffffffffffffffffffffffffffffffffffffffff168373ffffffffffffffffffffffffffffffffffffffff1614156115c0576040517f08c379a00000000000000000000000000000000000000000000000000000000081526004016115b790613cce565b60405180910390fd5b60006115ca61176d565b90506115fa818560006115dc87612447565b6115e587612447565b604051806020016040528060008152506124c1565b600080600085815260200190815260200160002060008673ffffffffffffffffffffffffffffffffffffffff1673ffffffffffffffffffffffffffffffffffffffff16815260200190815260200160002054905082811015611691576040517f08c379a000000000000000000000000000000000000000000000000000000000815260040161168890613d60565b60405180910390fd5b82810360008086815260200190815260200160002060008773ffffffffffffffffffffffffffffffffffffffff1673ffffffffffffffffffffffffffffffffffffffff16815260200190815260200160002081905550600073ffffffffffffffffffffffffffffffffffffffff168573ffffffffffffffffffffffffffffffffffffffff168373ffffffffffffffffffffffffffffffffffffffff167fc3d58168c5ae7397731d063d5bbf3d657854427343f4c083240f7aacaa2d0f62878760405161175e929190613d80565b60405180910390a45050505050565b600033905090565b81518351146117b9576040517f08c379a00000000000000000000000000000000000000000000000000000000081526004016117b090613e1b565b60405180910390fd5b600073ffffffffffffffffffffffffffffffffffffffff168473ffffffffffffffffffffffffffffffffffffffff161415611829576040517f08c379a000000000000000000000000000000000000000000000000000000000815260040161182090613ead565b60405180910390fd5b600061183361176d565b90506118438187878787876124c1565b60005b84518110156119f457600085828151811061186457611863613733565b5b60200260200101519050600085838151811061188357611882613733565b5b60200260200101519050600080600084815260200190815260200160002060008b73ffffffffffffffffffffffffffffffffffffffff1673ffffffffffffffffffffffffffffffffffffffff16815260200190815260200160002054905081811015611924576040517f08c379a000000000000000000000000000000000000000000000000000000000815260040161191b90613f3f565b60405180910390fd5b81810360008085815260200190815260200160002060008c73ffffffffffffffffffffffffffffffffffffffff1673ffffffffffffffffffffffffffffffffffffffff168152602001908152602001600020819055508160008085815260200190815260200160002060008b73ffffffffffffffffffffffffffffffffffffffff1673ffffffffffffffffffffffffffffffffffffffff16815260200190815260200160002060008282546119d991906139b0565b92505081905550505050806119ed90613791565b9050611846565b508473ffffffffffffffffffffffffffffffffffffffff168673ffffffffffffffffffffffffffffffffffffffff168273ffffffffffffffffffffffffffffffffffffffff167f4a39dc06d4c0dbc64b70af90fd698a233a518aa5d07e595d983b8c0526c8f7fb8787604051611a6b929190613f5f565b60405180910390a4611a818187878787876124c9565b505050505050565b600073ffffffffffffffffffffffffffffffffffffffff168473ffffffffffffffffffffffffffffffffffffffff161415611af9576040517f08c379a0000000000000000000000000000000000000000000000000000000008152600401611af090614008565b60405180910390fd5b6000611b0361176d565b9050611b2481600087611b1588612447565b611b1e88612447565b876124c1565b8260008086815260200190815260200160002060008773ffffffffffffffffffffffffffffffffffffffff1673ffffffffffffffffffffffffffffffffffffffff1681526020019081526020016000206000828254611b8391906139b0565b925050819055508473ffffffffffffffffffffffffffffffffffffffff16600073ffffffffffffffffffffffffffffffffffffffff168273ffffffffffffffffffffffffffffffffffffffff167fc3d58168c5ae7397731d063d5bbf3d657854427343f4c083240f7aacaa2d0f628787604051611c01929190613d80565b60405180910390a4611c18816000878787876126a1565b5050505050565b600073ffffffffffffffffffffffffffffffffffffffff168473ffffffffffffffffffffffffffffffffffffffff161415611c8f576040517f08c379a0000000000000000000000000000000000000000000000000000000008152600401611c8690613ead565b60405180910390fd5b6000611c9961176d565b9050611cb9818787611caa88612447565b611cb388612447565b876124c1565b600080600086815260200190815260200160002060008873ffffffffffffffffffffffffffffffffffffffff1673ffffffffffffffffffffffffffffffffffffffff16815260200190815260200160002054905083811015611d50576040517f08c379a0000000000000000000000000000000000000000000000000000000008152600401611d4790613f3f565b60405180910390fd5b83810360008087815260200190815260200160002060008973ffffffffffffffffffffffffffffffffffffffff1673ffffffffffffffffffffffffffffffffffffffff168152602001908152602001600020819055508360008087815260200190815260200160002060008873ffffffffffffffffffffffffffffffffffffffff1673ffffffffffffffffffffffffffffffffffffffff1681526020019081526020016000206000828254611e0591906139b0565b925050819055508573ffffffffffffffffffffffffffffffffffffffff168773ffffffffffffffffffffffffffffffffffffffff168373ffffffffffffffffffffffffffffffffffffffff167fc3d58168c5ae7397731d063d5bbf3d657854427343f4c083240f7aacaa2d0f628888604051611e82929190613d80565b60405180910390a4611e988288888888886126a1565b50505050505050565b6000600360009054906101000a900473ffffffffffffffffffffffffffffffffffffffff16905081600360006101000a81548173ffffffffffffffffffffffffffffffffffffffff021916908373ffffffffffffffffffffffffffffffffffffffff1602179055508173ffffffffffffffffffffffffffffffffffffffff168173ffffffffffffffffffffffffffffffffffffffff167f8be0079c531659141344cd1fd0a4f28419497f9722a3daafe3b4186f6b6457e060405160405180910390a35050565b8173ffffffffffffffffffffffffffffffffffffffff168373ffffffffffffffffffffffffffffffffffffffff161415611fd6576040517f08c379a0000000000000000000000000000000000000000000000000000000008152600401611fcd9061409a565b60405180910390fd5b80600160008573ffffffffffffffffffffffffffffffffffffffff1673ffffffffffffffffffffffffffffffffffffffff16815260200190815260200160002060008473ffffffffffffffffffffffffffffffffffffffff1673ffffffffffffffffffffffffffffffffffffffff16815260200190815260200160002060006101000a81548160ff0219169083151502179055508173ffffffffffffffffffffffffffffffffffffffff168373ffffffffffffffffffffffffffffffffffffffff167f17307eab39ab6107e8899845ad3d59bd9653f200f220920489ca2b5937696c31836040516120c79190612b2f565b60405180910390a3505050565b60606000869050600086905060008690506000869050600086905060008151835185518751895161210591906139b0565b61210f91906139b0565b61211991906139b0565b61212391906139b0565b67ffffffffffffffff81111561213c5761213b612dce565b5b6040519080825280601f01601f19166020018201604052801561216e5781602001600182028036833780820191505090505b50905060008190506000805b88518110156122025788818151811061219657612195613733565b5b602001015160f81c60f81b8383806121ad90613791565b9450815181106121c0576121bf613733565b5b60200101907effffffffffffffffffffffffffffffffffffffffffffffffffffffffffffff1916908160001a90535080806121fa90613791565b91505061217a565b5060005b875181101561228e5787818151811061222257612221613733565b5b602001015160f81c60f81b83838061223990613791565b94508151811061224c5761224b613733565b5b60200101907effffffffffffffffffffffffffffffffffffffffffffffffffffffffffffff1916908160001a905350808061228690613791565b915050612206565b5060005b865181101561231a578681815181106122ae576122ad613733565b5b602001015160f81c60f81b8383806122c590613791565b9450815181106122d8576122d7613733565b5b60200101907effffffffffffffffffffffffffffffffffffffffffffffffffffffffffffff1916908160001a905350808061231290613791565b915050612292565b5060005b85518110156123a65785818151811061233a57612339613733565b5b602001015160f81c60f81b83838061235190613791565b94508151811061236457612363613733565b5b60200101907effffffffffffffffffffffffffffffffffffffffffffffffffffffffffffff1916908160001a905350808061239e90613791565b91505061231e565b5060005b8451811015612432578481815181106123c6576123c5613733565b5b602001015160f81c60f81b8383806123dd90613791565b9450815181106123f0576123ef613733565b5b60200101907effffffffffffffffffffffffffffffffffffffffffffffffffffffffffffff1916908160001a905350808061242a90613791565b9150506123aa565b50819850505050505050505095945050505050565b60606000600167ffffffffffffffff81111561246657612465612dce565b5b6040519080825280602002602001820160405280156124945781602001602082028036833780820191505090505b50905082816000815181106124ac576124ab613733565b5b60200260200101818152505080915050919050565b505050505050565b6124e88473ffffffffffffffffffffffffffffffffffffffff16612879565b15612699578373ffffffffffffffffffffffffffffffffffffffff1663bc197c8187878686866040518663ffffffff1660e01b815260040161252e95949392919061410f565b6020604051808303816000875af192505050801561256a57506040513d601f19601f82011682018060405250810190612567919061418c565b60015b612610576125766141c6565b806308c379a014156125d3575061258b6141e8565b8061259657506125d5565b806040517f08c379a00000000000000000000000000000000000000000000000000000000081526004016125ca9190612c10565b60405180910390fd5b505b6040517f08c379a0000000000000000000000000000000000000000000000000000000008152600401612607906142f0565b60405180910390fd5b63bc197c8160e01b7bffffffffffffffffffffffffffffffffffffffffffffffffffffffff1916817bffffffffffffffffffffffffffffffffffffffffffffffffffffffff191614612697576040517f08c379a000000000000000000000000000000000000000000000000000000000815260040161268e90614382565b60405180910390fd5b505b505050505050565b6126c08473ffffffffffffffffffffffffffffffffffffffff16612879565b15612871578373ffffffffffffffffffffffffffffffffffffffff1663f23a6e6187878686866040518663ffffffff1660e01b81526004016127069594939291906143a2565b6020604051808303816000875af192505050801561274257506040513d601f19601f8201168201806040525081019061273f919061418c565b60015b6127e85761274e6141c6565b806308c379a014156127ab57506127636141e8565b8061276e57506127ad565b806040517f08c379a00000000000000000000000000000000000000000000000000000000081526004016127a29190612c10565b60405180910390fd5b505b6040517f08c379a00000000000000000000000000000000000000000000000000000000081526004016127df906142f0565b60405180910390fd5b63f23a6e6160e01b7bffffffffffffffffffffffffffffffffffffffffffffffffffffffff1916817bffffffffffffffffffffffffffffffffffffffffffffffffffffffff19161461286f576040517f08c379a000000000000000000000000000000000000000000000000000000000815260040161286690614382565b60405180910390fd5b505b505050505050565b6000808273ffffffffffffffffffffffffffffffffffffffff163b119050919050565b604051806080016040528060008152602001600073ffffffffffffffffffffffffffffffffffffffff16815260200160008152602001600081525090565b8280546128e690613701565b90600052602060002090601f016020900481019282612908576000855561294f565b82601f1061292157805160ff191683800117855561294f565b8280016001018555821561294f579182015b8281111561294e578251825591602001919060010190612933565b5b50905061295c9190612960565b5090565b5b80821115612979576000816000905550600101612961565b5090565b6000604051905090565b600080fd5b600080fd5b600073ffffffffffffffffffffffffffffffffffffffff82169050919050565b60006129bc82612991565b9050919050565b6129cc816129b1565b81146129d757600080fd5b50565b6000813590506129e9816129c3565b92915050565b6000819050919050565b612a02816129ef565b8114612a0d57600080fd5b50565b600081359050612a1f816129f9565b92915050565b60008060408385031215612a3c57612a3b612987565b5b6000612a4a858286016129da565b9250506020612a5b85828601612a10565b9150509250929050565b612a6e816129ef565b82525050565b6000602082019050612a896000830184612a65565b92915050565b60007fffffffff0000000000000000000000000000000000000000000000000000000082169050919050565b612ac481612a8f565b8114612acf57600080fd5b50565b600081359050612ae181612abb565b92915050565b600060208284031215612afd57612afc612987565b5b6000612b0b84828501612ad2565b91505092915050565b60008115159050919050565b612b2981612b14565b82525050565b6000602082019050612b446000830184612b20565b92915050565b600060208284031215612b6057612b5f612987565b5b6000612b6e84828501612a10565b91505092915050565b600081519050919050565b600082825260208201905092915050565b60005b83811015612bb1578082015181840152602081019050612b96565b83811115612bc0576000848401525b50505050565b6000601f19601f8301169050919050565b6000612be282612b77565b612bec8185612b82565b9350612bfc818560208601612b93565b612c0581612bc6565b840191505092915050565b60006020820190508181036000830152612c2a8184612bd7565b905092915050565b600080600060608486031215612c4b57612c4a612987565b5b6000612c59868287016129da565b9350506020612c6a86828701612a10565b9250506040612c7b86828701612a10565b9150509250925092565b600081519050919050565b600082825260208201905092915050565b6000819050602082019050919050565b612cba816129ef565b82525050565b612cc9816129b1565b82525050565b608082016000820151612ce56000850182612cb1565b506020820151612cf86020850182612cc0565b506040820151612d0b6040850182612cb1565b506060820151612d1e6060850182612cb1565b50505050565b6000612d308383612ccf565b60808301905092915050565b6000602082019050919050565b6000612d5482612c85565b612d5e8185612c90565b9350612d6983612ca1565b8060005b83811015612d9a578151612d818882612d24565b9750612d8c83612d3c565b925050600181019050612d6d565b5085935050505092915050565b60006020820190508181036000830152612dc18184612d49565b905092915050565b600080fd5b7f4e487b7100000000000000000000000000000000000000000000000000000000600052604160045260246000fd5b612e0682612bc6565b810181811067ffffffffffffffff82111715612e2557612e24612dce565b5b80604052505050565b6000612e3861297d565b9050612e448282612dfd565b919050565b600067ffffffffffffffff821115612e6457612e63612dce565b5b602082029050602081019050919050565b600080fd5b6000612e8d612e8884612e49565b612e2e565b90508083825260208201905060208402830185811115612eb057612eaf612e75565b5b835b81811015612ed95780612ec58882612a10565b845260208401935050602081019050612eb2565b5050509392505050565b600082601f830112612ef857612ef7612dc9565b5b8135612f08848260208601612e7a565b91505092915050565b600080fd5b600067ffffffffffffffff821115612f3157612f30612dce565b5b612f3a82612bc6565b9050602081019050919050565b82818337600083830152505050565b6000612f69612f6484612f16565b612e2e565b905082815260208101848484011115612f8557612f84612f11565b5b612f90848285612f47565b509392505050565b600082601f830112612fad57612fac612dc9565b5b8135612fbd848260208601612f56565b91505092915050565b600080600080600060a08688031215612fe257612fe1612987565b5b6000612ff0888289016129da565b9550506020613001888289016129da565b945050604086013567ffffffffffffffff8111156130225761302161298c565b5b61302e88828901612ee3565b935050606086013567ffffffffffffffff81111561304f5761304e61298c565b5b61305b88828901612ee3565b925050608086013567ffffffffffffffff81111561307c5761307b61298c565b5b61308888828901612f98565b9150509295509295909350565b61309e816129b1565b82525050565b60006080820190506130b96000830187612a65565b6130c66020830186613095565b6130d36040830185612a65565b6130e06060830184612a65565b95945050505050565b6000806000806080858703121561310357613102612987565b5b6000613111878288016129da565b945050602061312287828801612a10565b935050604061313387828801612a10565b925050606085013567ffffffffffffffff8111156131545761315361298c565b5b61316087828801612f98565b91505092959194509250565b600067ffffffffffffffff82111561318757613186612dce565b5b602082029050602081019050919050565b60006131ab6131a68461316c565b612e2e565b905080838252602082019050602084028301858111156131ce576131cd612e75565b5b835b818110156131f757806131e388826129da565b8452602084019350506020810190506131d0565b5050509392505050565b600082601f83011261321657613215612dc9565b5b8135613226848260208601613198565b91505092915050565b6000806040838503121561324657613245612987565b5b600083013567ffffffffffffffff8111156132645761326361298c565b5b61327085828601613201565b925050602083013567ffffffffffffffff8111156132915761329061298c565b5b61329d85828601612ee3565b9150509250929050565b600081519050919050565b600082825260208201905092915050565b6000819050602082019050919050565b60006132df8383612cb1565b60208301905092915050565b6000602082019050919050565b6000613303826132a7565b61330d81856132b2565b9350613318836132c3565b8060005b8381101561334957815161333088826132d3565b975061333b836132eb565b92505060018101905061331c565b5085935050505092915050565b6000602082019050818103600083015261337081846132f8565b905092915050565b60008060006060848603121561339157613390612987565b5b600061339f86828701612a10565b93505060206133b0868287016129da565b92505060406133c186828701612a10565b9150509250925092565b600067ffffffffffffffff8211156133e6576133e5612dce565b5b6133ef82612bc6565b9050602081019050919050565b600061340f61340a846133cb565b612e2e565b90508281526020810184848401111561342b5761342a612f11565b5b613436848285612f47565b509392505050565b600082601f83011261345357613452612dc9565b5b81356134638482602086016133fc565b91505092915050565b60006020828403121561348257613481612987565b5b600082013567ffffffffffffffff8111156134a05761349f61298c565b5b6134ac8482850161343e565b91505092915050565b60006020820190506134ca6000830184613095565b92915050565b6134d981612b14565b81146134e457600080fd5b50565b6000813590506134f6816134d0565b92915050565b6000806040838503121561351357613512612987565b5b6000613521858286016129da565b9250506020613532858286016134e7565b9150509250929050565b6000806040838503121561355357613552612987565b5b6000613561858286016129da565b9250506020613572858286016129da565b9150509250929050565b600080600080600060a0868803121561359857613597612987565b5b60006135a6888289016129da565b95505060206135b7888289016129da565b94505060406135c888828901612a10565b93505060606135d988828901612a10565b925050608086013567ffffffffffffffff8111156135fa576135f961298c565b5b61360688828901612f98565b9150509295509295909350565b60006020828403121561362957613628612987565b5b6000613637848285016129da565b91505092915050565b7f455243313135353a2062616c616e636520717565727920666f7220746865207a60008201527f65726f2061646472657373000000000000000000000000000000000000000000602082015250565b600061369c602b83612b82565b91506136a782613640565b604082019050919050565b600060208201905081810360008301526136cb8161368f565b9050919050565b7f4e487b7100000000000000000000000000000000000000000000000000000000600052602260045260246000fd5b6000600282049050600182168061371957607f821691505b6020821081141561372d5761372c6136d2565b5b50919050565b7f4e487b7100000000000000000000000000000000000000000000000000000000600052603260045260246000fd5b7f4e487b7100000000000000000000000000000000000000000000000000000000600052601160045260246000fd5b600061379c826129ef565b91507fffffffffffffffffffffffffffffffffffffffffffffffffffffffffffffffff8214156137cf576137ce613762565b5b600182019050919050565b7f455243313135353a207472616e736665722063616c6c6572206973206e6f742060008201527f6f776e6572206e6f7220617070726f7665640000000000000000000000000000602082015250565b6000613836603283612b82565b9150613841826137da565b604082019050919050565b6000602082019050818103600083015261386581613829565b9050919050565b7f4f776e61626c653a2063616c6c6572206973206e6f7420746865206f776e6572600082015250565b60006138a2602083612b82565b91506138ad8261386c565b602082019050919050565b600060208201905081810360008301526138d181613895565b9050919050565b7f5265656e7472616e637947756172643a207265656e7472616e742063616c6c00600082015250565b600061390e601f83612b82565b9150613919826138d8565b602082019050919050565b6000602082019050818103600083015261393d81613901565b9050919050565b7f4e6f7420656e6f7567682066756e647320746f20776974686472617700000000600082015250565b600061397a601c83612b82565b915061398582613944565b602082019050919050565b600060208201905081810360008301526139a98161396d565b9050919050565b60006139bb826129ef565b91506139c6836129ef565b9250827fffffffffffffffffffffffffffffffffffffffffffffffffffffffffffffffff038211156139fb576139fa613762565b5b828201905092915050565b7f455243313135353a206163636f756e747320616e6420696473206c656e67746860008201527f206d69736d617463680000000000000000000000000000000000000000000000602082015250565b6000613a62602983612b82565b9150613a6d82613a06565b604082019050919050565b60006020820190508181036000830152613a9181613a55565b9050919050565b7f455243313135353a2063616c6c6572206973206e6f74206f776e6572206e6f7260008201527f20617070726f7665640000000000000000000000000000000000000000000000602082015250565b6000613af4602983612b82565b9150613aff82613a98565b604082019050919050565b60006020820190508181036000830152613b2381613ae7565b9050919050565b7f4e487b7100000000000000000000000000000000000000000000000000000000600052601260045260246000fd5b6000613b64826129ef565b9150613b6f836129ef565b925082613b7f57613b7e613b2a565b5b828204905092915050565b6000613b95826129ef565b9150613ba0836129ef565b925082821015613bb357613bb2613762565b5b828203905092915050565b6000613bc9826129ef565b9150613bd4836129ef565b9250817fffffffffffffffffffffffffffffffffffffffffffffffffffffffffffffffff0483118215151615613c0d57613c0c613762565b5b828202905092915050565b600060ff82169050919050565b6000613c3082613c18565b9150613c3b83613c18565b92508260ff03821115613c5157613c50613762565b5b828201905092915050565b7f455243313135353a206275726e2066726f6d20746865207a65726f206164647260008201527f6573730000000000000000000000000000000000000000000000000000000000602082015250565b6000613cb8602383612b82565b9150613cc382613c5c565b604082019050919050565b60006020820190508181036000830152613ce781613cab565b9050919050565b7f455243313135353a206275726e20616d6f756e7420657863656564732062616c60008201527f616e636500000000000000000000000000000000000000000000000000000000602082015250565b6000613d4a602483612b82565b9150613d5582613cee565b604082019050919050565b60006020820190508181036000830152613d7981613d3d565b9050919050565b6000604082019050613d956000830185612a65565b613da26020830184612a65565b9392505050565b7f455243313135353a2069647320616e6420616d6f756e7473206c656e6774682060008201527f6d69736d61746368000000000000000000000000000000000000000000000000602082015250565b6000613e05602883612b82565b9150613e1082613da9565b604082019050919050565b60006020820190508181036000830152613e3481613df8565b9050919050565b7f455243313135353a207472616e7366657220746f20746865207a65726f20616460008201527f6472657373000000000000000000000000000000000000000000000000000000602082015250565b6000613e97602583612b82565b9150613ea282613e3b565b604082019050919050565b60006020820190508181036000830152613ec681613e8a565b9050919050565b7f455243313135353a20696e73756666696369656e742062616c616e636520666f60008201527f72207472616e7366657200000000000000000000000000000000000000000000602082015250565b6000613f29602a83612b82565b9150613f3482613ecd565b604082019050919050565b60006020820190508181036000830152613f5881613f1c565b9050919050565b60006040820190508181036000830152613f7981856132f8565b90508181036020830152613f8d81846132f8565b90509392505050565b7f455243313135353a206d696e7420746f20746865207a65726f2061646472657360008201527f7300000000000000000000000000000000000000000000000000000000000000602082015250565b6000613ff2602183612b82565b9150613ffd82613f96565b604082019050919050565b6000602082019050818103600083015261402181613fe5565b9050919050565b7f455243313135353a2073657474696e6720617070726f76616c2073746174757360008201527f20666f722073656c660000000000000000000000000000000000000000000000602082015250565b6000614084602983612b82565b915061408f82614028565b604082019050919050565b600060208201905081810360008301526140b381614077565b9050919050565b600081519050919050565b600082825260208201905092915050565b60006140e1826140ba565b6140eb81856140c5565b93506140fb818560208601612b93565b61410481612bc6565b840191505092915050565b600060a0820190506141246000830188613095565b6141316020830187613095565b818103604083015261414381866132f8565b9050818103606083015261415781856132f8565b9050818103608083015261416b81846140d6565b90509695505050505050565b60008151905061418681612abb565b92915050565b6000602082840312156141a2576141a1612987565b5b60006141b084828501614177565b91505092915050565b60008160e01c9050919050565b600060033d11156141e55760046000803e6141e26000516141b9565b90505b90565b600060443d10156141f85761427b565b61420061297d565b60043d036004823e80513d602482011167ffffffffffffffff8211171561422857505061427b565b808201805167ffffffffffffffff811115614246575050505061427b565b80602083010160043d03850181111561426357505050505061427b565b61427282602001850186612dfd565b82955050505050505b90565b7f455243313135353a207472616e7366657220746f206e6f6e204552433131353560008201527f526563656976657220696d706c656d656e746572000000000000000000000000602082015250565b60006142da603483612b82565b91506142e58261427e565b604082019050919050565b60006020820190508181036000830152614309816142cd565b9050919050565b7f455243313135353a204552433131353552656365697665722072656a6563746560008201527f6420746f6b656e73000000000000000000000000000000000000000000000000602082015250565b600061436c602883612b82565b915061437782614310565b604082019050919050565b6000602082019050818103600083015261439b8161435f565b9050919050565b600060a0820190506143b76000830188613095565b6143c46020830187613095565b6143d16040830186612a65565b6143de6060830185612a65565b81810360808301526143f081846140d6565b9050969550505050505056fea264697066735822122074568baa707c064b7c58a0b8b88428748a49310ce8afe49bd7629d569ab6239564736f6c634300080b0033",
  "linkReferences": {},
  "deployedLinkReferences": {}
}