{
  "_format": "hh-sol-artifact-1",
  "contractName": "ERC1155NFT",
  "sourceName": "contracts/ERC1155NFT.sol",
  "abi": [
    {
      "inputs": [
        {
          "internalType": "string",
          "name": "_uri",
          "type": "string"
        }
      ],
      "stateMutability": "nonpayable",
      "type": "constructor"
    },
    {
      "anonymous": false,
      "inputs": [
        {
          "indexed": true,
          "internalType": "address",
          "name": "account",
          "type": "address"
        },
        {
          "indexed": true,
          "internalType": "address",
          "name": "operator",
          "type": "address"
        },
        {
          "indexed": false,
          "internalType": "bool",
          "name": "approved",
          "type": "bool"
        }
      ],
      "name": "ApprovalForAll",
      "type": "event"
    },
    {
      "anonymous": false,
      "inputs": [
        {
          "indexed": true,
          "internalType": "address",
          "name": "beneficiary",
          "type": "address"
        },
        {
          "indexed": false,
          "internalType": "uint256",
          "name": "amount",
          "type": "uint256"
        }
      ],
      "name": "BalanceWithdrawn",
      "type": "event"
    },
    {
      "anonymous": false,
      "inputs": [
        {
          "indexed": false,
          "internalType": "uint256",
          "name": "id",
          "type": "uint256"
        }
      ],
      "name": "TokenMinted",
      "type": "event"
    },
    {
      "anonymous": false,
      "inputs": [
        {
          "indexed": true,
          "internalType": "address",
          "name": "operator",
          "type": "address"
        },
        {
          "indexed": true,
          "internalType": "address",
          "name": "from",
          "type": "address"
        },
        {
          "indexed": true,
          "internalType": "address",
          "name": "to",
          "type": "address"
        },
        {
          "indexed": false,
          "internalType": "uint256[]",
          "name": "ids",
          "type": "uint256[]"
        },
        {
          "indexed": false,
          "internalType": "uint256[]",
          "name": "values",
          "type": "uint256[]"
        }
      ],
      "name": "TransferBatch",
      "type": "event"
    },
    {
      "anonymous": false,
      "inputs": [
        {
          "indexed": true,
          "internalType": "address",
          "name": "operator",
          "type": "address"
        },
        {
          "indexed": true,
          "internalType": "address",
          "name": "from",
          "type": "address"
        },
        {
          "indexed": true,
          "internalType": "address",
          "name": "to",
          "type": "address"
        },
        {
          "indexed": false,
          "internalType": "uint256",
          "name": "id",
          "type": "uint256"
        },
        {
          "indexed": false,
          "internalType": "uint256",
          "name": "value",
          "type": "uint256"
        }
      ],
      "name": "TransferSingle",
      "type": "event"
    },
    {
      "anonymous": false,
      "inputs": [
        {
          "indexed": false,
          "internalType": "string",
          "name": "value",
          "type": "string"
        },
        {
          "indexed": true,
          "internalType": "uint256",
          "name": "id",
          "type": "uint256"
        }
      ],
      "name": "URI",
      "type": "event"
    },
    {
      "inputs": [],
      "name": "_tokenId",
      "outputs": [
        {
          "internalType": "uint256",
          "name": "",
          "type": "uint256"
        }
      ],
      "stateMutability": "view",
      "type": "function"
    },
    {
      "inputs": [
        {
          "internalType": "address",
          "name": "account",
          "type": "address"
        },
        {
          "internalType": "uint256",
          "name": "id",
          "type": "uint256"
        }
      ],
      "name": "balanceOf",
      "outputs": [
        {
          "internalType": "uint256",
          "name": "",
          "type": "uint256"
        }
      ],
      "stateMutability": "view",
      "type": "function"
    },
    {
      "inputs": [
        {
          "internalType": "address[]",
          "name": "accounts",
          "type": "address[]"
        },
        {
          "internalType": "uint256[]",
          "name": "ids",
          "type": "uint256[]"
        }
      ],
      "name": "balanceOfBatch",
      "outputs": [
        {
          "internalType": "uint256[]",
          "name": "",
          "type": "uint256[]"
        }
      ],
      "stateMutability": "view",
      "type": "function"
    },
    {
      "inputs": [
        {
          "internalType": "address",
          "name": "_account",
          "type": "address"
        },
        {
          "internalType": "uint256",
          "name": "_id",
          "type": "uint256"
        },
        {
          "internalType": "uint256",
          "name": "_amount",
          "type": "uint256"
        }
      ],
      "name": "burnNFT",
      "outputs": [],
      "stateMutability": "nonpayable",
      "type": "function"
    },
    {
      "inputs": [],
      "name": "fetchMyNFTs",
      "outputs": [
        {
          "components": [
            {
              "internalType": "uint256",
              "name": "tokens",
              "type": "uint256"
            },
            {
              "internalType": "address",
              "name": "owner",
              "type": "address"
            },
            {
              "internalType": "uint256",
              "name": "tokenId",
              "type": "uint256"
            },
            {
              "internalType": "uint256",
              "name": "createdAt",
              "type": "uint256"
            }
          ],
          "internalType": "struct ERC1155NFT.Token[]",
          "name": "",
          "type": "tuple[]"
        }
      ],
      "stateMutability": "view",
      "type": "function"
    },
    {
      "inputs": [
        {
          "internalType": "uint256",
          "name": "",
          "type": "uint256"
        }
      ],
      "name": "idToTokenItem",
      "outputs": [
        {
          "internalType": "uint256",
          "name": "tokens",
          "type": "uint256"
        },
        {
          "internalType": "address",
          "name": "owner",
          "type": "address"
        },
        {
          "internalType": "uint256",
          "name": "tokenId",
          "type": "uint256"
        },
        {
          "internalType": "uint256",
          "name": "createdAt",
          "type": "uint256"
        }
      ],
      "stateMutability": "view",
      "type": "function"
    },
    {
      "inputs": [
        {
          "internalType": "uint256",
          "name": "",
          "type": "uint256"
        }
      ],
      "name": "idToTokenUri",
      "outputs": [
        {
          "internalType": "string",
          "name": "",
          "type": "string"
        }
      ],
      "stateMutability": "view",
      "type": "function"
    },
    {
      "inputs": [
        {
          "internalType": "address",
          "name": "account",
          "type": "address"
        },
        {
          "internalType": "address",
          "name": "operator",
          "type": "address"
        }
      ],
      "name": "isApprovedForAll",
      "outputs": [
        {
          "internalType": "bool",
          "name": "",
          "type": "bool"
        }
      ],
      "stateMutability": "view",
      "type": "function"
    },
    {
      "inputs": [
        {
          "internalType": "address",
          "name": "account",
          "type": "address"
        },
        {
          "internalType": "uint256",
          "name": "amount",
          "type": "uint256"
        },
        {
          "internalType": "string",
          "name": "tokenUri",
          "type": "string"
        },
        {
          "internalType": "uint256",
          "name": "createdAt",
          "type": "uint256"
        },
        {
          "internalType": "bytes",
          "name": "data",
          "type": "bytes"
        }
      ],
      "name": "mintNFT",
      "outputs": [],
      "stateMutability": "nonpayable",
      "type": "function"
    },
    {
      "inputs": [
        {
          "internalType": "address",
          "name": "from",
          "type": "address"
        },
        {
          "internalType": "address",
          "name": "to",
          "type": "address"
        },
        {
          "internalType": "uint256[]",
          "name": "ids",
          "type": "uint256[]"
        },
        {
          "internalType": "uint256[]",
          "name": "amounts",
          "type": "uint256[]"
        },
        {
          "internalType": "bytes",
          "name": "data",
          "type": "bytes"
        }
      ],
      "name": "safeBatchTransferFrom",
      "outputs": [],
      "stateMutability": "nonpayable",
      "type": "function"
    },
    {
      "inputs": [
        {
          "internalType": "address",
          "name": "from",
          "type": "address"
        },
        {
          "internalType": "address",
          "name": "to",
          "type": "address"
        },
        {
          "internalType": "uint256",
          "name": "id",
          "type": "uint256"
        },
        {
          "internalType": "uint256",
          "name": "amount",
          "type": "uint256"
        },
        {
          "internalType": "bytes",
          "name": "data",
          "type": "bytes"
        }
      ],
      "name": "safeTransferFrom",
      "outputs": [],
      "stateMutability": "nonpayable",
      "type": "function"
    },
    {
      "inputs": [
        {
          "internalType": "address",
          "name": "operator",
          "type": "address"
        },
        {
          "internalType": "bool",
          "name": "approved",
          "type": "bool"
        }
      ],
      "name": "setApprovalForAll",
      "outputs": [],
      "stateMutability": "nonpayable",
      "type": "function"
    },
    {
      "inputs": [
        {
          "internalType": "string",
          "name": "_newBaseMetadataURI",
          "type": "string"
        }
      ],
      "name": "setBaseMetadataURI",
      "outputs": [],
      "stateMutability": "nonpayable",
      "type": "function"
    },
    {
      "inputs": [
        {
          "internalType": "bytes4",
          "name": "interfaceId",
          "type": "bytes4"
        }
      ],
      "name": "supportsInterface",
      "outputs": [
        {
          "internalType": "bool",
          "name": "",
          "type": "bool"
        }
      ],
      "stateMutability": "view",
      "type": "function"
    },
    {
      "inputs": [
        {
          "internalType": "uint256",
          "name": "tokenId",
          "type": "uint256"
        },
        {
          "internalType": "address",
          "name": "_to",
          "type": "address"
        },
        {
          "internalType": "uint256",
          "name": "_amount",
          "type": "uint256"
        }
      ],
      "name": "transferNFT",
      "outputs": [],
      "stateMutability": "nonpayable",
      "type": "function"
    },
    {
      "inputs": [
        {
          "internalType": "address",
          "name": "_newOwner",
          "type": "address"
        }
      ],
      "name": "transferOwnership",
      "outputs": [],
      "stateMutability": "nonpayable",
      "type": "function"
    },
    {
      "inputs": [
        {
          "internalType": "uint256",
          "name": "_id",
          "type": "uint256"
        }
      ],
      "name": "uri",
      "outputs": [
        {
          "internalType": "string",
          "name": "",
          "type": "string"
        }
      ],
      "stateMutability": "view",
      "type": "function"
    },
    {
      "inputs": [],
      "name": "withdraw",
      "outputs": [],
      "stateMutability": "nonpayable",
      "type": "function"
    }
  ],
  "bytecode": "0x60806040523480156200001157600080fd5b506040516200424c3803806200424c8339818101604052810190620000379190620002ef565b8062000049816200006a60201b60201c565b50600160038190555062000063816200008660201b60201c565b50620003a5565b806002908051906020019062000082929190620000a2565b5050565b80600690805190602001906200009e929190620000a2565b5050565b828054620000b0906200036f565b90600052602060002090601f016020900481019282620000d4576000855562000120565b82601f10620000ef57805160ff191683800117855562000120565b8280016001018555821562000120579182015b828111156200011f57825182559160200191906001019062000102565b5b5090506200012f919062000133565b5090565b5b808211156200014e57600081600090555060010162000134565b5090565b6000604051905090565b600080fd5b600080fd5b600080fd5b600080fd5b6000601f19601f8301169050919050565b7f4e487b7100000000000000000000000000000000000000000000000000000000600052604160045260246000fd5b620001bb8262000170565b810181811067ffffffffffffffff82111715620001dd57620001dc62000181565b5b80604052505050565b6000620001f262000152565b9050620002008282620001b0565b919050565b600067ffffffffffffffff82111562000223576200022262000181565b5b6200022e8262000170565b9050602081019050919050565b60005b838110156200025b5780820151818401526020810190506200023e565b838111156200026b576000848401525b50505050565b600062000288620002828462000205565b620001e6565b905082815260208101848484011115620002a757620002a66200016b565b5b620002b48482856200023b565b509392505050565b600082601f830112620002d457620002d362000166565b5b8151620002e684826020860162000271565b91505092915050565b6000602082840312156200030857620003076200015c565b5b600082015167ffffffffffffffff81111562000329576200032862000161565b5b6200033784828501620002bc565b91505092915050565b7f4e487b7100000000000000000000000000000000000000000000000000000000600052602260045260246000fd5b600060028204905060018216806200038857607f821691505b602082108114156200039f576200039e62000340565b5b50919050565b613e9780620003b56000396000f3fe608060405234801561001057600080fd5b50600436106101155760003560e01c80634e1273f4116100a25780638cb38506116100715780638cb38506146102f3578063a22cb4651461030f578063e985e9c51461032b578063f242432a1461035b578063f2fde38b1461037757610115565b80634e1273f41461025b5780634efb891f1461028b5780635bbc1a04146102bb5780637e518ec8146102d757610115565b8063202e3740116100e9578063202e3740146101c657806324822514146101e45780632eb2c2d614610202578063386750a21461021e5780633ccfd60b1461025157610115565b8062fdd58e1461011a57806301ffc9a71461014a5780630e89341c1461017a5780631cc509fd146101aa575b600080fd5b610134600480360381019061012f9190612613565b610393565b6040516101419190612662565b60405180910390f35b610164600480360381019061015f91906126d5565b61045c565b604051610171919061271d565b60405180910390f35b610194600480360381019061018f9190612738565b61053e565b6040516101a191906127fe565b60405180910390f35b6101c460048036038101906101bf9190612820565b610676565b005b6101ce6106be565b6040516101db9190612995565b60405180910390f35b6101ec610882565b6040516101f99190612662565b60405180910390f35b61021c60048036038101906102179190612bb4565b610888565b005b61023860048036038101906102339190612738565b610929565b6040516102489493929190612c92565b60405180910390f35b610259610979565b005b61027560048036038101906102709190612d9a565b610aaf565b6040516102829190612ec1565b60405180910390f35b6102a560048036038101906102a09190612738565b610bc8565b6040516102b291906127fe565b60405180910390f35b6102d560048036038101906102d09190612ee3565b610c68565b005b6102f160048036038101906102ec9190612fd7565b610caf565b005b61030d60048036038101906103089190613020565b610cc9565b005b610329600480360381019061032491906130ff565b610eaa565b005b6103456004803603810190610340919061313f565b610ec0565b604051610352919061271d565b60405180910390f35b6103756004803603810190610370919061317f565b610f54565b005b610391600480360381019061038c9190613216565b610ff5565b005b60008073ffffffffffffffffffffffffffffffffffffffff168373ffffffffffffffffffffffffffffffffffffffff161415610404576040517f08c379a00000000000000000000000000000000000000000000000000000000081526004016103fb906132b5565b60405180910390fd5b60008083815260200190815260200160002060008473ffffffffffffffffffffffffffffffffffffffff1673ffffffffffffffffffffffffffffffffffffffff16815260200190815260200160002054905092915050565b60007fd9b67a26000000000000000000000000000000000000000000000000000000007bffffffffffffffffffffffffffffffffffffffffffffffffffffffff1916827bffffffffffffffffffffffffffffffffffffffffffffffffffffffff1916148061052757507f0e89341c000000000000000000000000000000000000000000000000000000007bffffffffffffffffffffffffffffffffffffffffffffffffffffffff1916827bffffffffffffffffffffffffffffffffffffffffffffffffffffffff1916145b80610537575061053682611156565b5b9050919050565b606061066f6006805461055090613304565b80601f016020809104026020016040519081016040528092919081815260200182805461057c90613304565b80156105c95780601f1061059e576101008083540402835291602001916105c9565b820191906000526020600020905b8154815290600101906020018083116105ac57829003601f168201915b50505050506005600085815260200190815260200160002080546105ec90613304565b80601f016020809104026020016040519081016040528092919081815260200182805461061890613304565b80156106655780601f1061063a57610100808354040283529160200191610665565b820191906000526020600020905b81548152906001019060200180831161064857829003601f168201915b50505050506111c0565b9050919050565b8273ffffffffffffffffffffffffffffffffffffffff163373ffffffffffffffffffffffffffffffffffffffff16146106ae57600080fd5b6106b9838383611204565b505050565b60606000600454905060008167ffffffffffffffff8111156106e3576106e26129bc565b5b60405190808252806020026020018201604052801561071c57816020015b61070961248a565b8152602001906001900390816107015790505b50905060005b828111610879573373ffffffffffffffffffffffffffffffffffffffff166007600083815260200190815260200160002060010160009054906101000a900473ffffffffffffffffffffffffffffffffffffffff1673ffffffffffffffffffffffffffffffffffffffff16141561086657600060076000838152602001908152602001600020600201549050600060076000838152602001908152602001600020905080604051806080016040529081600082015481526020016001820160009054906101000a900473ffffffffffffffffffffffffffffffffffffffff1673ffffffffffffffffffffffffffffffffffffffff1673ffffffffffffffffffffffffffffffffffffffff1681526020016002820154815260200160038201548152505084838151811061085857610857613336565b5b602002602001018190525050505b808061087190613394565b915050610722565b50809250505090565b60045481565b610890611421565b73ffffffffffffffffffffffffffffffffffffffff168573ffffffffffffffffffffffffffffffffffffffff1614806108d657506108d5856108d0611421565b610ec0565b5b610915576040517f08c379a000000000000000000000000000000000000000000000000000000000815260040161090c9061344f565b60405180910390fd5b6109228585858585611429565b5050505050565b60076020528060005260406000206000915090508060000154908060010160009054906101000a900473ffffffffffffffffffffffffffffffffffffffff16908060020154908060030154905084565b600260035414156109bf576040517f08c379a00000000000000000000000000000000000000000000000000000000081526004016109b6906134bb565b60405180910390fd5b6002600381905550600047905060008111610a0f576040517f08c379a0000000000000000000000000000000000000000000000000000000008152600401610a0690613527565b60405180910390fd5b3373ffffffffffffffffffffffffffffffffffffffff166108fc829081150290604051600060405180830381858888f19350505050158015610a55573d6000803e3d6000fd5b503373ffffffffffffffffffffffffffffffffffffffff167fddc398b321237a8d40ac914388309c2f52a08c134e4dc4ce61e32f57cb7d80f182604051610a9c9190612662565b60405180910390a2506001600381905550565b60608151835114610af5576040517f08c379a0000000000000000000000000000000000000000000000000000000008152600401610aec906135b9565b60405180910390fd5b6000835167ffffffffffffffff811115610b1257610b116129bc565b5b604051908082528060200260200182016040528015610b405781602001602082028036833780820191505090505b50905060005b8451811015610bbd57610b8d858281518110610b6557610b64613336565b5b6020026020010151858381518110610b8057610b7f613336565b5b6020026020010151610393565b828281518110610ba057610b9f613336565b5b60200260200101818152505080610bb690613394565b9050610b46565b508091505092915050565b60056020528060005260406000206000915090508054610be790613304565b80601f0160208091040260200160405190810160405280929190818152602001828054610c1390613304565b8015610c605780601f10610c3557610100808354040283529160200191610c60565b820191906000526020600020905b815481529060010190602001808311610c4357829003601f168201915b505050505081565b610caa338385846040518060400160405280600381526020017f307830000000000000000000000000000000000000000000000000000000000081525061173d565b505050565b8060069080519060200190610cc59291906124c8565b5050565b60046000815480929190610cdc90613394565b9190505550600073ffffffffffffffffffffffffffffffffffffffff1660076000600454815260200190815260200160002060010160009054906101000a900473ffffffffffffffffffffffffffffffffffffffff1673ffffffffffffffffffffffffffffffffffffffff1614610d8157836007600060045481526020019081526020016000206000016000828254610d7591906135d9565b92505081905550610e32565b83600760006004548152602001908152602001600020600001819055503360076000600454815260200190815260200160002060010160006101000a81548173ffffffffffffffffffffffffffffffffffffffff021916908373ffffffffffffffffffffffffffffffffffffffff1602179055506004546007600060045481526020019081526020016000206002018190555081600760006004548152602001908152602001600020600301819055505b826005600060045481526020019081526020016000209080519060200190610e5b9291906124c8565b50610e6a8560045486846119bf565b7ff00d28232b285f24f2e38415deb2ceb31069e70d4505838b3911b4f02058502e600454604051610e9b9190612662565b60405180910390a15050505050565b610ebc610eb5611421565b8383611b55565b5050565b6000600160008473ffffffffffffffffffffffffffffffffffffffff1673ffffffffffffffffffffffffffffffffffffffff16815260200190815260200160002060008373ffffffffffffffffffffffffffffffffffffffff1673ffffffffffffffffffffffffffffffffffffffff16815260200190815260200160002060009054906101000a900460ff16905092915050565b610f5c611421565b73ffffffffffffffffffffffffffffffffffffffff168573ffffffffffffffffffffffffffffffffffffffff161480610fa25750610fa185610f9c611421565b610ec0565b5b610fe1576040517f08c379a0000000000000000000000000000000000000000000000000000000008152600401610fd8906136a1565b60405180910390fd5b610fee858585858561173d565b5050505050565b6000600454905060005b81811015611151573373ffffffffffffffffffffffffffffffffffffffff166007600060018461102f91906135d9565b815260200190815260200160002060010160009054906101000a900473ffffffffffffffffffffffffffffffffffffffff1673ffffffffffffffffffffffffffffffffffffffff16141561113e5760006007600060018461109091906135d9565b8152602001908152602001600020600201549050836007600083815260200190815260200160002060010160006101000a81548173ffffffffffffffffffffffffffffffffffffffff021916908373ffffffffffffffffffffffffffffffffffffffff16021790555061113c33858360016040518060400160405280600381526020017f307830000000000000000000000000000000000000000000000000000000000081525061173d565b505b808061114990613394565b915050610fff565b505050565b60007f01ffc9a7000000000000000000000000000000000000000000000000000000007bffffffffffffffffffffffffffffffffffffffffffffffffffffffff1916827bffffffffffffffffffffffffffffffffffffffffffffffffffffffff1916149050919050565b60606111fc8383604051806020016040528060008152506040518060200160405280600081525060405180602001604052806000815250611cc2565b905092915050565b600073ffffffffffffffffffffffffffffffffffffffff168373ffffffffffffffffffffffffffffffffffffffff161415611274576040517f08c379a000000000000000000000000000000000000000000000000000000000815260040161126b90613733565b60405180910390fd5b600061127e611421565b90506112ae8185600061129087612035565b61129987612035565b604051806020016040528060008152506120af565b600080600085815260200190815260200160002060008673ffffffffffffffffffffffffffffffffffffffff1673ffffffffffffffffffffffffffffffffffffffff16815260200190815260200160002054905082811015611345576040517f08c379a000000000000000000000000000000000000000000000000000000000815260040161133c906137c5565b60405180910390fd5b82810360008086815260200190815260200160002060008773ffffffffffffffffffffffffffffffffffffffff1673ffffffffffffffffffffffffffffffffffffffff16815260200190815260200160002081905550600073ffffffffffffffffffffffffffffffffffffffff168573ffffffffffffffffffffffffffffffffffffffff168373ffffffffffffffffffffffffffffffffffffffff167fc3d58168c5ae7397731d063d5bbf3d657854427343f4c083240f7aacaa2d0f6287876040516114129291906137e5565b60405180910390a45050505050565b600033905090565b815183511461146d576040517f08c379a000000000000000000000000000000000000000000000000000000000815260040161146490613880565b60405180910390fd5b600073ffffffffffffffffffffffffffffffffffffffff168473ffffffffffffffffffffffffffffffffffffffff1614156114dd576040517f08c379a00000000000000000000000000000000000000000000000000000000081526004016114d490613912565b60405180910390fd5b60006114e7611421565b90506114f78187878787876120af565b60005b84518110156116a857600085828151811061151857611517613336565b5b60200260200101519050600085838151811061153757611536613336565b5b60200260200101519050600080600084815260200190815260200160002060008b73ffffffffffffffffffffffffffffffffffffffff1673ffffffffffffffffffffffffffffffffffffffff168152602001908152602001600020549050818110156115d8576040517f08c379a00000000000000000000000000000000000000000000000000000000081526004016115cf906139a4565b60405180910390fd5b81810360008085815260200190815260200160002060008c73ffffffffffffffffffffffffffffffffffffffff1673ffffffffffffffffffffffffffffffffffffffff168152602001908152602001600020819055508160008085815260200190815260200160002060008b73ffffffffffffffffffffffffffffffffffffffff1673ffffffffffffffffffffffffffffffffffffffff168152602001908152602001600020600082825461168d91906135d9565b92505081905550505050806116a190613394565b90506114fa565b508473ffffffffffffffffffffffffffffffffffffffff168673ffffffffffffffffffffffffffffffffffffffff168273ffffffffffffffffffffffffffffffffffffffff167f4a39dc06d4c0dbc64b70af90fd698a233a518aa5d07e595d983b8c0526c8f7fb878760405161171f9291906139c4565b60405180910390a46117358187878787876120b7565b505050505050565b600073ffffffffffffffffffffffffffffffffffffffff168473ffffffffffffffffffffffffffffffffffffffff1614156117ad576040517f08c379a00000000000000000000000000000000000000000000000000000000081526004016117a490613912565b60405180910390fd5b60006117b7611421565b90506117d78187876117c888612035565b6117d188612035565b876120af565b600080600086815260200190815260200160002060008873ffffffffffffffffffffffffffffffffffffffff1673ffffffffffffffffffffffffffffffffffffffff1681526020019081526020016000205490508381101561186e576040517f08c379a0000000000000000000000000000000000000000000000000000000008152600401611865906139a4565b60405180910390fd5b83810360008087815260200190815260200160002060008973ffffffffffffffffffffffffffffffffffffffff1673ffffffffffffffffffffffffffffffffffffffff168152602001908152602001600020819055508360008087815260200190815260200160002060008873ffffffffffffffffffffffffffffffffffffffff1673ffffffffffffffffffffffffffffffffffffffff168152602001908152602001600020600082825461192391906135d9565b925050819055508573ffffffffffffffffffffffffffffffffffffffff168773ffffffffffffffffffffffffffffffffffffffff168373ffffffffffffffffffffffffffffffffffffffff167fc3d58168c5ae7397731d063d5bbf3d657854427343f4c083240f7aacaa2d0f6288886040516119a09291906137e5565b60405180910390a46119b682888888888861228f565b50505050505050565b600073ffffffffffffffffffffffffffffffffffffffff168473ffffffffffffffffffffffffffffffffffffffff161415611a2f576040517f08c379a0000000000000000000000000000000000000000000000000000000008152600401611a2690613a6d565b60405180910390fd5b6000611a39611421565b9050611a5a81600087611a4b88612035565b611a5488612035565b876120af565b8260008086815260200190815260200160002060008773ffffffffffffffffffffffffffffffffffffffff1673ffffffffffffffffffffffffffffffffffffffff1681526020019081526020016000206000828254611ab991906135d9565b925050819055508473ffffffffffffffffffffffffffffffffffffffff16600073ffffffffffffffffffffffffffffffffffffffff168273ffffffffffffffffffffffffffffffffffffffff167fc3d58168c5ae7397731d063d5bbf3d657854427343f4c083240f7aacaa2d0f628787604051611b379291906137e5565b60405180910390a4611b4e8160008787878761228f565b5050505050565b8173ffffffffffffffffffffffffffffffffffffffff168373ffffffffffffffffffffffffffffffffffffffff161415611bc4576040517f08c379a0000000000000000000000000000000000000000000000000000000008152600401611bbb90613aff565b60405180910390fd5b80600160008573ffffffffffffffffffffffffffffffffffffffff1673ffffffffffffffffffffffffffffffffffffffff16815260200190815260200160002060008473ffffffffffffffffffffffffffffffffffffffff1673ffffffffffffffffffffffffffffffffffffffff16815260200190815260200160002060006101000a81548160ff0219169083151502179055508173ffffffffffffffffffffffffffffffffffffffff168373ffffffffffffffffffffffffffffffffffffffff167f17307eab39ab6107e8899845ad3d59bd9653f200f220920489ca2b5937696c3183604051611cb5919061271d565b60405180910390a3505050565b606060008690506000869050600086905060008690506000869050600081518351855187518951611cf391906135d9565b611cfd91906135d9565b611d0791906135d9565b611d1191906135d9565b67ffffffffffffffff811115611d2a57611d296129bc565b5b6040519080825280601f01601f191660200182016040528015611d5c5781602001600182028036833780820191505090505b50905060008190506000805b8851811015611df057888181518110611d8457611d83613336565b5b602001015160f81c60f81b838380611d9b90613394565b945081518110611dae57611dad613336565b5b60200101907effffffffffffffffffffffffffffffffffffffffffffffffffffffffffffff1916908160001a9053508080611de890613394565b915050611d68565b5060005b8751811015611e7c57878181518110611e1057611e0f613336565b5b602001015160f81c60f81b838380611e2790613394565b945081518110611e3a57611e39613336565b5b60200101907effffffffffffffffffffffffffffffffffffffffffffffffffffffffffffff1916908160001a9053508080611e7490613394565b915050611df4565b5060005b8651811015611f0857868181518110611e9c57611e9b613336565b5b602001015160f81c60f81b838380611eb390613394565b945081518110611ec657611ec5613336565b5b60200101907effffffffffffffffffffffffffffffffffffffffffffffffffffffffffffff1916908160001a9053508080611f0090613394565b915050611e80565b5060005b8551811015611f9457858181518110611f2857611f27613336565b5b602001015160f81c60f81b838380611f3f90613394565b945081518110611f5257611f51613336565b5b60200101907effffffffffffffffffffffffffffffffffffffffffffffffffffffffffffff1916908160001a9053508080611f8c90613394565b915050611f0c565b5060005b845181101561202057848181518110611fb457611fb3613336565b5b602001015160f81c60f81b838380611fcb90613394565b945081518110611fde57611fdd613336565b5b60200101907effffffffffffffffffffffffffffffffffffffffffffffffffffffffffffff1916908160001a905350808061201890613394565b915050611f98565b50819850505050505050505095945050505050565b60606000600167ffffffffffffffff811115612054576120536129bc565b5b6040519080825280602002602001820160405280156120825781602001602082028036833780820191505090505b509050828160008151811061209a57612099613336565b5b60200260200101818152505080915050919050565b505050505050565b6120d68473ffffffffffffffffffffffffffffffffffffffff16612467565b15612287578373ffffffffffffffffffffffffffffffffffffffff1663bc197c8187878686866040518663ffffffff1660e01b815260040161211c959493929190613b74565b6020604051808303816000875af192505050801561215857506040513d601f19601f820116820180604052508101906121559190613bf1565b60015b6121fe57612164613c2b565b806308c379a014156121c15750612179613c4d565b8061218457506121c3565b806040517f08c379a00000000000000000000000000000000000000000000000000000000081526004016121b891906127fe565b60405180910390fd5b505b6040517f08c379a00000000000000000000000000000000000000000000000000000000081526004016121f590613d55565b60405180910390fd5b63bc197c8160e01b7bffffffffffffffffffffffffffffffffffffffffffffffffffffffff1916817bffffffffffffffffffffffffffffffffffffffffffffffffffffffff191614612285576040517f08c379a000000000000000000000000000000000000000000000000000000000815260040161227c90613de7565b60405180910390fd5b505b505050505050565b6122ae8473ffffffffffffffffffffffffffffffffffffffff16612467565b1561245f578373ffffffffffffffffffffffffffffffffffffffff1663f23a6e6187878686866040518663ffffffff1660e01b81526004016122f4959493929190613e07565b6020604051808303816000875af192505050801561233057506040513d601f19601f8201168201806040525081019061232d9190613bf1565b60015b6123d65761233c613c2b565b806308c379a014156123995750612351613c4d565b8061235c575061239b565b806040517f08c379a000000000000000000000000000000000000000000000000000000000815260040161239091906127fe565b60405180910390fd5b505b6040517f08c379a00000000000000000000000000000000000000000000000000000000081526004016123cd90613d55565b60405180910390fd5b63f23a6e6160e01b7bffffffffffffffffffffffffffffffffffffffffffffffffffffffff1916817bffffffffffffffffffffffffffffffffffffffffffffffffffffffff19161461245d576040517f08c379a000000000000000000000000000000000000000000000000000000000815260040161245490613de7565b60405180910390fd5b505b505050505050565b6000808273ffffffffffffffffffffffffffffffffffffffff163b119050919050565b604051806080016040528060008152602001600073ffffffffffffffffffffffffffffffffffffffff16815260200160008152602001600081525090565b8280546124d490613304565b90600052602060002090601f0160209004810192826124f6576000855561253d565b82601f1061250f57805160ff191683800117855561253d565b8280016001018555821561253d579182015b8281111561253c578251825591602001919060010190612521565b5b50905061254a919061254e565b5090565b5b8082111561256757600081600090555060010161254f565b5090565b6000604051905090565b600080fd5b600080fd5b600073ffffffffffffffffffffffffffffffffffffffff82169050919050565b60006125aa8261257f565b9050919050565b6125ba8161259f565b81146125c557600080fd5b50565b6000813590506125d7816125b1565b92915050565b6000819050919050565b6125f0816125dd565b81146125fb57600080fd5b50565b60008135905061260d816125e7565b92915050565b6000806040838503121561262a57612629612575565b5b6000612638858286016125c8565b9250506020612649858286016125fe565b9150509250929050565b61265c816125dd565b82525050565b60006020820190506126776000830184612653565b92915050565b60007fffffffff0000000000000000000000000000000000000000000000000000000082169050919050565b6126b28161267d565b81146126bd57600080fd5b50565b6000813590506126cf816126a9565b92915050565b6000602082840312156126eb576126ea612575565b5b60006126f9848285016126c0565b91505092915050565b60008115159050919050565b61271781612702565b82525050565b6000602082019050612732600083018461270e565b92915050565b60006020828403121561274e5761274d612575565b5b600061275c848285016125fe565b91505092915050565b600081519050919050565b600082825260208201905092915050565b60005b8381101561279f578082015181840152602081019050612784565b838111156127ae576000848401525b50505050565b6000601f19601f8301169050919050565b60006127d082612765565b6127da8185612770565b93506127ea818560208601612781565b6127f3816127b4565b840191505092915050565b6000602082019050818103600083015261281881846127c5565b905092915050565b60008060006060848603121561283957612838612575565b5b6000612847868287016125c8565b9350506020612858868287016125fe565b9250506040612869868287016125fe565b9150509250925092565b600081519050919050565b600082825260208201905092915050565b6000819050602082019050919050565b6128a8816125dd565b82525050565b6128b78161259f565b82525050565b6080820160008201516128d3600085018261289f565b5060208201516128e660208501826128ae565b5060408201516128f9604085018261289f565b50606082015161290c606085018261289f565b50505050565b600061291e83836128bd565b60808301905092915050565b6000602082019050919050565b600061294282612873565b61294c818561287e565b93506129578361288f565b8060005b8381101561298857815161296f8882612912565b975061297a8361292a565b92505060018101905061295b565b5085935050505092915050565b600060208201905081810360008301526129af8184612937565b905092915050565b600080fd5b7f4e487b7100000000000000000000000000000000000000000000000000000000600052604160045260246000fd5b6129f4826127b4565b810181811067ffffffffffffffff82111715612a1357612a126129bc565b5b80604052505050565b6000612a2661256b565b9050612a3282826129eb565b919050565b600067ffffffffffffffff821115612a5257612a516129bc565b5b602082029050602081019050919050565b600080fd5b6000612a7b612a7684612a37565b612a1c565b90508083825260208201905060208402830185811115612a9e57612a9d612a63565b5b835b81811015612ac75780612ab388826125fe565b845260208401935050602081019050612aa0565b5050509392505050565b600082601f830112612ae657612ae56129b7565b5b8135612af6848260208601612a68565b91505092915050565b600080fd5b600067ffffffffffffffff821115612b1f57612b1e6129bc565b5b612b28826127b4565b9050602081019050919050565b82818337600083830152505050565b6000612b57612b5284612b04565b612a1c565b905082815260208101848484011115612b7357612b72612aff565b5b612b7e848285612b35565b509392505050565b600082601f830112612b9b57612b9a6129b7565b5b8135612bab848260208601612b44565b91505092915050565b600080600080600060a08688031215612bd057612bcf612575565b5b6000612bde888289016125c8565b9550506020612bef888289016125c8565b945050604086013567ffffffffffffffff811115612c1057612c0f61257a565b5b612c1c88828901612ad1565b935050606086013567ffffffffffffffff811115612c3d57612c3c61257a565b5b612c4988828901612ad1565b925050608086013567ffffffffffffffff811115612c6a57612c6961257a565b5b612c7688828901612b86565b9150509295509295909350565b612c8c8161259f565b82525050565b6000608082019050612ca76000830187612653565b612cb46020830186612c83565b612cc16040830185612653565b612cce6060830184612653565b95945050505050565b600067ffffffffffffffff821115612cf257612cf16129bc565b5b602082029050602081019050919050565b6000612d16612d1184612cd7565b612a1c565b90508083825260208201905060208402830185811115612d3957612d38612a63565b5b835b81811015612d625780612d4e88826125c8565b845260208401935050602081019050612d3b565b5050509392505050565b600082601f830112612d8157612d806129b7565b5b8135612d91848260208601612d03565b91505092915050565b60008060408385031215612db157612db0612575565b5b600083013567ffffffffffffffff811115612dcf57612dce61257a565b5b612ddb85828601612d6c565b925050602083013567ffffffffffffffff811115612dfc57612dfb61257a565b5b612e0885828601612ad1565b9150509250929050565b600081519050919050565b600082825260208201905092915050565b6000819050602082019050919050565b6000612e4a838361289f565b60208301905092915050565b6000602082019050919050565b6000612e6e82612e12565b612e788185612e1d565b9350612e8383612e2e565b8060005b83811015612eb4578151612e9b8882612e3e565b9750612ea683612e56565b925050600181019050612e87565b5085935050505092915050565b60006020820190508181036000830152612edb8184612e63565b905092915050565b600080600060608486031215612efc57612efb612575565b5b6000612f0a868287016125fe565b9350506020612f1b868287016125c8565b9250506040612f2c868287016125fe565b9150509250925092565b600067ffffffffffffffff821115612f5157612f506129bc565b5b612f5a826127b4565b9050602081019050919050565b6000612f7a612f7584612f36565b612a1c565b905082815260208101848484011115612f9657612f95612aff565b5b612fa1848285612b35565b509392505050565b600082601f830112612fbe57612fbd6129b7565b5b8135612fce848260208601612f67565b91505092915050565b600060208284031215612fed57612fec612575565b5b600082013567ffffffffffffffff81111561300b5761300a61257a565b5b61301784828501612fa9565b91505092915050565b600080600080600060a0868803121561303c5761303b612575565b5b600061304a888289016125c8565b955050602061305b888289016125fe565b945050604086013567ffffffffffffffff81111561307c5761307b61257a565b5b61308888828901612fa9565b9350506060613099888289016125fe565b925050608086013567ffffffffffffffff8111156130ba576130b961257a565b5b6130c688828901612b86565b9150509295509295909350565b6130dc81612702565b81146130e757600080fd5b50565b6000813590506130f9816130d3565b92915050565b6000806040838503121561311657613115612575565b5b6000613124858286016125c8565b9250506020613135858286016130ea565b9150509250929050565b6000806040838503121561315657613155612575565b5b6000613164858286016125c8565b9250506020613175858286016125c8565b9150509250929050565b600080600080600060a0868803121561319b5761319a612575565b5b60006131a9888289016125c8565b95505060206131ba888289016125c8565b94505060406131cb888289016125fe565b93505060606131dc888289016125fe565b925050608086013567ffffffffffffffff8111156131fd576131fc61257a565b5b61320988828901612b86565b9150509295509295909350565b60006020828403121561322c5761322b612575565b5b600061323a848285016125c8565b91505092915050565b7f455243313135353a2062616c616e636520717565727920666f7220746865207a60008201527f65726f2061646472657373000000000000000000000000000000000000000000602082015250565b600061329f602b83612770565b91506132aa82613243565b604082019050919050565b600060208201905081810360008301526132ce81613292565b9050919050565b7f4e487b7100000000000000000000000000000000000000000000000000000000600052602260045260246000fd5b6000600282049050600182168061331c57607f821691505b602082108114156133305761332f6132d5565b5b50919050565b7f4e487b7100000000000000000000000000000000000000000000000000000000600052603260045260246000fd5b7f4e487b7100000000000000000000000000000000000000000000000000000000600052601160045260246000fd5b600061339f826125dd565b91507fffffffffffffffffffffffffffffffffffffffffffffffffffffffffffffffff8214156133d2576133d1613365565b5b600182019050919050565b7f455243313135353a207472616e736665722063616c6c6572206973206e6f742060008201527f6f776e6572206e6f7220617070726f7665640000000000000000000000000000602082015250565b6000613439603283612770565b9150613444826133dd565b604082019050919050565b600060208201905081810360008301526134688161342c565b9050919050565b7f5265656e7472616e637947756172643a207265656e7472616e742063616c6c00600082015250565b60006134a5601f83612770565b91506134b08261346f565b602082019050919050565b600060208201905081810360008301526134d481613498565b9050919050565b7f4e6f7420656e6f7567682066756e647320746f20776974686472617700000000600082015250565b6000613511601c83612770565b915061351c826134db565b602082019050919050565b6000602082019050818103600083015261354081613504565b9050919050565b7f455243313135353a206163636f756e747320616e6420696473206c656e67746860008201527f206d69736d617463680000000000000000000000000000000000000000000000602082015250565b60006135a3602983612770565b91506135ae82613547565b604082019050919050565b600060208201905081810360008301526135d281613596565b9050919050565b60006135e4826125dd565b91506135ef836125dd565b9250827fffffffffffffffffffffffffffffffffffffffffffffffffffffffffffffffff0382111561362457613623613365565b5b828201905092915050565b7f455243313135353a2063616c6c6572206973206e6f74206f776e6572206e6f7260008201527f20617070726f7665640000000000000000000000000000000000000000000000602082015250565b600061368b602983612770565b91506136968261362f565b604082019050919050565b600060208201905081810360008301526136ba8161367e565b9050919050565b7f455243313135353a206275726e2066726f6d20746865207a65726f206164647260008201527f6573730000000000000000000000000000000000000000000000000000000000602082015250565b600061371d602383612770565b9150613728826136c1565b604082019050919050565b6000602082019050818103600083015261374c81613710565b9050919050565b7f455243313135353a206275726e20616d6f756e7420657863656564732062616c60008201527f616e636500000000000000000000000000000000000000000000000000000000602082015250565b60006137af602483612770565b91506137ba82613753565b604082019050919050565b600060208201905081810360008301526137de816137a2565b9050919050565b60006040820190506137fa6000830185612653565b6138076020830184612653565b9392505050565b7f455243313135353a2069647320616e6420616d6f756e7473206c656e6774682060008201527f6d69736d61746368000000000000000000000000000000000000000000000000602082015250565b600061386a602883612770565b91506138758261380e565b604082019050919050565b600060208201905081810360008301526138998161385d565b9050919050565b7f455243313135353a207472616e7366657220746f20746865207a65726f20616460008201527f6472657373000000000000000000000000000000000000000000000000000000602082015250565b60006138fc602583612770565b9150613907826138a0565b604082019050919050565b6000602082019050818103600083015261392b816138ef565b9050919050565b7f455243313135353a20696e73756666696369656e742062616c616e636520666f60008201527f72207472616e7366657200000000000000000000000000000000000000000000602082015250565b600061398e602a83612770565b915061399982613932565b604082019050919050565b600060208201905081810360008301526139bd81613981565b9050919050565b600060408201905081810360008301526139de8185612e63565b905081810360208301526139f28184612e63565b90509392505050565b7f455243313135353a206d696e7420746f20746865207a65726f2061646472657360008201527f7300000000000000000000000000000000000000000000000000000000000000602082015250565b6000613a57602183612770565b9150613a62826139fb565b604082019050919050565b60006020820190508181036000830152613a8681613a4a565b9050919050565b7f455243313135353a2073657474696e6720617070726f76616c2073746174757360008201527f20666f722073656c660000000000000000000000000000000000000000000000602082015250565b6000613ae9602983612770565b9150613af482613a8d565b604082019050919050565b60006020820190508181036000830152613b1881613adc565b9050919050565b600081519050919050565b600082825260208201905092915050565b6000613b4682613b1f565b613b508185613b2a565b9350613b60818560208601612781565b613b69816127b4565b840191505092915050565b600060a082019050613b896000830188612c83565b613b966020830187612c83565b8181036040830152613ba88186612e63565b90508181036060830152613bbc8185612e63565b90508181036080830152613bd08184613b3b565b90509695505050505050565b600081519050613beb816126a9565b92915050565b600060208284031215613c0757613c06612575565b5b6000613c1584828501613bdc565b91505092915050565b60008160e01c9050919050565b600060033d1115613c4a5760046000803e613c47600051613c1e565b90505b90565b600060443d1015613c5d57613ce0565b613c6561256b565b60043d036004823e80513d602482011167ffffffffffffffff82111715613c8d575050613ce0565b808201805167ffffffffffffffff811115613cab5750505050613ce0565b80602083010160043d038501811115613cc8575050505050613ce0565b613cd7826020018501866129eb565b82955050505050505b90565b7f455243313135353a207472616e7366657220746f206e6f6e204552433131353560008201527f526563656976657220696d706c656d656e746572000000000000000000000000602082015250565b6000613d3f603483612770565b9150613d4a82613ce3565b604082019050919050565b60006020820190508181036000830152613d6e81613d32565b9050919050565b7f455243313135353a204552433131353552656365697665722072656a6563746560008201527f6420746f6b656e73000000000000000000000000000000000000000000000000602082015250565b6000613dd1602883612770565b9150613ddc82613d75565b604082019050919050565b60006020820190508181036000830152613e0081613dc4565b9050919050565b600060a082019050613e1c6000830188612c83565b613e296020830187612c83565b613e366040830186612653565b613e436060830185612653565b8181036080830152613e558184613b3b565b9050969550505050505056fea26469706673582212207609a45d4b48ac159bba1e133b7b22ccb385dd8881aa22fe9202bc482cf35a8e64736f6c634300080b0033",
  "linkReferences": {},
  "deployedLinkReferences": {}
}