{
  "_format": "hh-sol-artifact-1",
  "contractName": "ERC721NFT",
  "sourceName": "contracts/ERC721NFT.sol",
  "abi": [
    {
      "inputs": [],
      "stateMutability": "nonpayable",
      "type": "constructor"
    },
    {
      "anonymous": false,
      "inputs": [
        {
          "indexed": true,
          "internalType": "address",
          "name": "owner",
          "type": "address"
        },
        {
          "indexed": true,
          "internalType": "address",
          "name": "approved",
          "type": "address"
        },
        {
          "indexed": true,
          "internalType": "uint256",
          "name": "tokenId",
          "type": "uint256"
        }
      ],
      "name": "Approval",
      "type": "event"
    },
    {
      "anonymous": false,
      "inputs": [
        {
          "indexed": true,
          "internalType": "address",
          "name": "owner",
          "type": "address"
        },
        {
          "indexed": true,
          "internalType": "address",
          "name": "operator",
          "type": "address"
        },
        {
          "indexed": false,
          "internalType": "bool",
          "name": "approved",
          "type": "bool"
        }
      ],
      "name": "ApprovalForAll",
      "type": "event"
    },
    {
      "anonymous": false,
      "inputs": [
        {
          "indexed": true,
          "internalType": "address",
          "name": "previousOwner",
          "type": "address"
        },
        {
          "indexed": true,
          "internalType": "address",
          "name": "newOwner",
          "type": "address"
        }
      ],
      "name": "OwnershipTransferred",
      "type": "event"
    },
    {
      "anonymous": false,
      "inputs": [
        {
          "indexed": false,
          "internalType": "uint256",
          "name": "id",
          "type": "uint256"
        },
        {
          "indexed": false,
          "internalType": "uint256",
          "name": "timestamp",
          "type": "uint256"
        }
      ],
      "name": "TokenMinted",
      "type": "event"
    },
    {
      "anonymous": false,
      "inputs": [
        {
          "indexed": true,
          "internalType": "address",
          "name": "from",
          "type": "address"
        },
        {
          "indexed": true,
          "internalType": "address",
          "name": "to",
          "type": "address"
        },
        {
          "indexed": true,
          "internalType": "uint256",
          "name": "tokenId",
          "type": "uint256"
        }
      ],
      "name": "Transfer",
      "type": "event"
    },
    {
      "inputs": [],
      "name": "_tokenIds",
      "outputs": [
        {
          "internalType": "uint256",
          "name": "_value",
          "type": "uint256"
        }
      ],
      "stateMutability": "view",
      "type": "function"
    },
    {
      "inputs": [
        {
          "internalType": "address",
          "name": "to",
          "type": "address"
        },
        {
          "internalType": "uint256",
          "name": "tokenId",
          "type": "uint256"
        }
      ],
      "name": "approve",
      "outputs": [],
      "stateMutability": "nonpayable",
      "type": "function"
    },
    {
      "inputs": [
        {
          "internalType": "address",
          "name": "owner",
          "type": "address"
        }
      ],
      "name": "balanceOf",
      "outputs": [
        {
          "internalType": "uint256",
          "name": "",
          "type": "uint256"
        }
      ],
      "stateMutability": "view",
      "type": "function"
    },
    {
      "inputs": [
        {
          "internalType": "uint256",
          "name": "tokenId",
          "type": "uint256"
        }
      ],
      "name": "getApproved",
      "outputs": [
        {
          "internalType": "address",
          "name": "",
          "type": "address"
        }
      ],
      "stateMutability": "view",
      "type": "function"
    },
    {
      "inputs": [
        {
          "internalType": "uint256",
          "name": "",
          "type": "uint256"
        }
      ],
      "name": "idToTokenItem",
      "outputs": [
        {
          "internalType": "uint256",
          "name": "_tokenId",
          "type": "uint256"
        },
        {
          "internalType": "address",
          "name": "_owner",
          "type": "address"
        },
        {
          "internalType": "uint256",
          "name": "_createdAt",
          "type": "uint256"
        }
      ],
      "stateMutability": "view",
      "type": "function"
    },
    {
      "inputs": [
        {
          "internalType": "address",
          "name": "owner",
          "type": "address"
        },
        {
          "internalType": "address",
          "name": "operator",
          "type": "address"
        }
      ],
      "name": "isApprovedForAll",
      "outputs": [
        {
          "internalType": "bool",
          "name": "",
          "type": "bool"
        }
      ],
      "stateMutability": "view",
      "type": "function"
    },
    {
      "inputs": [
        {
          "internalType": "address",
          "name": "to",
          "type": "address"
        },
        {
          "internalType": "string",
          "name": "tokenURI",
          "type": "string"
        },
        {
          "internalType": "uint256",
          "name": "createdAt",
          "type": "uint256"
        }
      ],
      "name": "mint",
      "outputs": [],
      "stateMutability": "nonpayable",
      "type": "function"
    },
    {
      "inputs": [],
      "name": "name",
      "outputs": [
        {
          "internalType": "string",
          "name": "",
          "type": "string"
        }
      ],
      "stateMutability": "view",
      "type": "function"
    },
    {
      "inputs": [],
      "name": "owner",
      "outputs": [
        {
          "internalType": "address",
          "name": "",
          "type": "address"
        }
      ],
      "stateMutability": "view",
      "type": "function"
    },
    {
      "inputs": [
        {
          "internalType": "uint256",
          "name": "tokenId",
          "type": "uint256"
        }
      ],
      "name": "ownerOf",
      "outputs": [
        {
          "internalType": "address",
          "name": "",
          "type": "address"
        }
      ],
      "stateMutability": "view",
      "type": "function"
    },
    {
      "inputs": [],
      "name": "renounceOwnership",
      "outputs": [],
      "stateMutability": "nonpayable",
      "type": "function"
    },
    {
      "inputs": [
        {
          "internalType": "address",
          "name": "from",
          "type": "address"
        },
        {
          "internalType": "address",
          "name": "to",
          "type": "address"
        },
        {
          "internalType": "uint256",
          "name": "tokenId",
          "type": "uint256"
        }
      ],
      "name": "safeTransferFrom",
      "outputs": [],
      "stateMutability": "nonpayable",
      "type": "function"
    },
    {
      "inputs": [
        {
          "internalType": "address",
          "name": "from",
          "type": "address"
        },
        {
          "internalType": "address",
          "name": "to",
          "type": "address"
        },
        {
          "internalType": "uint256",
          "name": "tokenId",
          "type": "uint256"
        },
        {
          "internalType": "bytes",
          "name": "_data",
          "type": "bytes"
        }
      ],
      "name": "safeTransferFrom",
      "outputs": [],
      "stateMutability": "nonpayable",
      "type": "function"
    },
    {
      "inputs": [
        {
          "internalType": "address",
          "name": "operator",
          "type": "address"
        },
        {
          "internalType": "bool",
          "name": "approved",
          "type": "bool"
        }
      ],
      "name": "setApprovalForAll",
      "outputs": [],
      "stateMutability": "nonpayable",
      "type": "function"
    },
    {
      "inputs": [
        {
          "internalType": "bytes4",
          "name": "interfaceId",
          "type": "bytes4"
        }
      ],
      "name": "supportsInterface",
      "outputs": [
        {
          "internalType": "bool",
          "name": "",
          "type": "bool"
        }
      ],
      "stateMutability": "view",
      "type": "function"
    },
    {
      "inputs": [],
      "name": "symbol",
      "outputs": [
        {
          "internalType": "string",
          "name": "",
          "type": "string"
        }
      ],
      "stateMutability": "view",
      "type": "function"
    },
    {
      "inputs": [
        {
          "internalType": "uint256",
          "name": "tokenId",
          "type": "uint256"
        }
      ],
      "name": "tokenURI",
      "outputs": [
        {
          "internalType": "string",
          "name": "",
          "type": "string"
        }
      ],
      "stateMutability": "view",
      "type": "function"
    },
    {
      "inputs": [
        {
          "internalType": "address",
          "name": "from",
          "type": "address"
        },
        {
          "internalType": "address",
          "name": "to",
          "type": "address"
        },
        {
          "internalType": "uint256",
          "name": "tokenId",
          "type": "uint256"
        }
      ],
      "name": "transferFrom",
      "outputs": [],
      "stateMutability": "nonpayable",
      "type": "function"
    },
    {
      "inputs": [
        {
          "internalType": "address",
          "name": "to",
          "type": "address"
        },
        {
          "internalType": "uint256",
          "name": "tokenId",
          "type": "uint256"
        }
      ],
      "name": "transferNFT",
      "outputs": [],
      "stateMutability": "nonpayable",
      "type": "function"
    },
    {
      "inputs": [
        {
          "internalType": "address",
          "name": "_newOwner",
          "type": "address"
        }
      ],
      "name": "transferOwnership",
      "outputs": [],
      "stateMutability": "nonpayable",
      "type": "function"
    }
  ],
  "bytecode": "0x60806040523480156200001157600080fd5b506040518060400160405280600681526020017f4d79204e465400000000000000000000000000000000000000000000000000008152506040518060400160405280600481526020017f4d4e465400000000000000000000000000000000000000000000000000000000815250816000908051906020019062000096929190620001a6565b508060019080519060200190620000af929190620001a6565b505050620000d2620000c6620000d860201b60201c565b620000e060201b60201c565b620002bb565b600033905090565b6000600760009054906101000a900473ffffffffffffffffffffffffffffffffffffffff16905081600760006101000a81548173ffffffffffffffffffffffffffffffffffffffff021916908373ffffffffffffffffffffffffffffffffffffffff1602179055508173ffffffffffffffffffffffffffffffffffffffff168173ffffffffffffffffffffffffffffffffffffffff167f8be0079c531659141344cd1fd0a4f28419497f9722a3daafe3b4186f6b6457e060405160405180910390a35050565b828054620001b49062000285565b90600052602060002090601f016020900481019282620001d8576000855562000224565b82601f10620001f357805160ff191683800117855562000224565b8280016001018555821562000224579182015b828111156200022357825182559160200191906001019062000206565b5b50905062000233919062000237565b5090565b5b808211156200025257600081600090555060010162000238565b5090565b7f4e487b7100000000000000000000000000000000000000000000000000000000600052602260045260246000fd5b600060028204905060018216806200029e57607f821691505b60208210811415620002b557620002b462000256565b5b50919050565b61343d80620002cb6000396000f3fe608060405234801561001057600080fd5b506004361061012c5760003560e01c80638da5cb5b116100ad578063b88d4fde11610071578063b88d4fde14610331578063ba7aef431461034d578063c87b56dd14610369578063e985e9c514610399578063f2fde38b146103c95761012c565b80638da5cb5b1461029f57806394ab67fe146102bd57806395d89b41146102d9578063a22cb465146102f7578063aa46a400146103135761012c565b8063386750a2116100f4578063386750a2146101e757806342842e0e146102195780636352211e1461023557806370a0823114610265578063715018a6146102955761012c565b806301ffc9a71461013157806306fdde0314610161578063081812fc1461017f578063095ea7b3146101af57806323b872dd146101cb575b600080fd5b61014b6004803603810190610146919061202e565b6103e5565b6040516101589190612076565b60405180910390f35b6101696104c7565b604051610176919061212a565b60405180910390f35b61019960048036038101906101949190612182565b610559565b6040516101a691906121f0565b60405180910390f35b6101c960048036038101906101c49190612237565b6105de565b005b6101e560048036038101906101e09190612277565b6106f6565b005b61020160048036038101906101fc9190612182565b610756565b604051610210939291906122d9565b60405180910390f35b610233600480360381019061022e9190612277565b6107a0565b005b61024f600480360381019061024a9190612182565b6107c0565b60405161025c91906121f0565b60405180910390f35b61027f600480360381019061027a9190612310565b610872565b60405161028c919061233d565b60405180910390f35b61029d61092a565b005b6102a76109b2565b6040516102b491906121f0565b60405180910390f35b6102d760048036038101906102d29190612237565b6109dc565b005b6102e1610a8f565b6040516102ee919061212a565b60405180910390f35b610311600480360381019061030c9190612384565b610b21565b005b61031b610b37565b604051610328919061233d565b60405180910390f35b61034b600480360381019061034691906124f9565b610b43565b005b6103676004803603810190610362919061261d565b610ba5565b005b610383600480360381019061037e9190612182565b610d2d565b604051610390919061212a565b60405180910390f35b6103b360048036038101906103ae919061268c565b610e7f565b6040516103c09190612076565b60405180910390f35b6103e360048036038101906103de9190612310565b610f13565b005b60007f80ac58cd000000000000000000000000000000000000000000000000000000007bffffffffffffffffffffffffffffffffffffffffffffffffffffffff1916827bffffffffffffffffffffffffffffffffffffffffffffffffffffffff191614806104b057507f5b5e139f000000000000000000000000000000000000000000000000000000007bffffffffffffffffffffffffffffffffffffffffffffffffffffffff1916827bffffffffffffffffffffffffffffffffffffffffffffffffffffffff1916145b806104c057506104bf826110bf565b5b9050919050565b6060600080546104d6906126fb565b80601f0160208091040260200160405190810160405280929190818152602001828054610502906126fb565b801561054f5780601f106105245761010080835404028352916020019161054f565b820191906000526020600020905b81548152906001019060200180831161053257829003601f168201915b5050505050905090565b600061056482611129565b6105a3576040517f08c379a000000000000000000000000000000000000000000000000000000000815260040161059a9061279f565b60405180910390fd5b6004600083815260200190815260200160002060009054906101000a900473ffffffffffffffffffffffffffffffffffffffff169050919050565b60006105e9826107c0565b90508073ffffffffffffffffffffffffffffffffffffffff168373ffffffffffffffffffffffffffffffffffffffff16141561065a576040517f08c379a000000000000000000000000000000000000000000000000000000000815260040161065190612831565b60405180910390fd5b8073ffffffffffffffffffffffffffffffffffffffff16610679611195565b73ffffffffffffffffffffffffffffffffffffffff1614806106a857506106a7816106a2611195565b610e7f565b5b6106e7576040517f08c379a00000000000000000000000000000000000000000000000000000000081526004016106de906128c3565b60405180910390fd5b6106f1838361119d565b505050565b610707610701611195565b82611256565b610746576040517f08c379a000000000000000000000000000000000000000000000000000000000815260040161073d90612955565b60405180910390fd5b610751838383611334565b505050565b60096020528060005260406000206000915090508060000154908060010160009054906101000a900473ffffffffffffffffffffffffffffffffffffffff16908060020154905083565b6107bb83838360405180602001604052806000815250610b43565b505050565b6000806002600084815260200190815260200160002060009054906101000a900473ffffffffffffffffffffffffffffffffffffffff169050600073ffffffffffffffffffffffffffffffffffffffff168173ffffffffffffffffffffffffffffffffffffffff161415610869576040517f08c379a0000000000000000000000000000000000000000000000000000000008152600401610860906129e7565b60405180910390fd5b80915050919050565b60008073ffffffffffffffffffffffffffffffffffffffff168273ffffffffffffffffffffffffffffffffffffffff1614156108e3576040517f08c379a00000000000000000000000000000000000000000000000000000000081526004016108da90612a79565b60405180910390fd5b600360008373ffffffffffffffffffffffffffffffffffffffff1673ffffffffffffffffffffffffffffffffffffffff168152602001908152602001600020549050919050565b610932611195565b73ffffffffffffffffffffffffffffffffffffffff166109506109b2565b73ffffffffffffffffffffffffffffffffffffffff16146109a6576040517f08c379a000000000000000000000000000000000000000000000000000000000815260040161099d90612ae5565b60405180910390fd5b6109b0600061159b565b565b6000600760009054906101000a900473ffffffffffffffffffffffffffffffffffffffff16905090565b3373ffffffffffffffffffffffffffffffffffffffff166009600083815260200190815260200160002060010160009054906101000a900473ffffffffffffffffffffffffffffffffffffffff1673ffffffffffffffffffffffffffffffffffffffff1614610a80576040517f08c379a0000000000000000000000000000000000000000000000000000000008152600401610a7790612b77565b60405180910390fd5b610a8b338383611334565b5050565b606060018054610a9e906126fb565b80601f0160208091040260200160405190810160405280929190818152602001828054610aca906126fb565b8015610b175780601f10610aec57610100808354040283529160200191610b17565b820191906000526020600020905b815481529060010190602001808311610afa57829003601f168201915b5050505050905090565b610b33610b2c611195565b8383611661565b5050565b60088060000154905081565b610b54610b4e611195565b83611256565b610b93576040517f08c379a0000000000000000000000000000000000000000000000000000000008152600401610b8a90612955565b60405180910390fd5b610b9f848484846117ce565b50505050565b610bad611195565b73ffffffffffffffffffffffffffffffffffffffff16610bcb6109b2565b73ffffffffffffffffffffffffffffffffffffffff1614610c21576040517f08c379a0000000000000000000000000000000000000000000000000000000008152600401610c1890612ae5565b60405180910390fd5b610c2b600861182a565b6000610c376008611840565b9050806009600083815260200190815260200160002060000181905550836009600083815260200190815260200160002060010160006101000a81548173ffffffffffffffffffffffffffffffffffffffff021916908373ffffffffffffffffffffffffffffffffffffffff160217905550816009600083815260200190815260200160002060020181905550610cce848261184e565b610cd8818461186c565b7f5f7666687319b40936f33c188908d86aea154abd3f4127b4fa0a3f04f303c7da816009600084815260200190815260200160002060020154604051610d1f929190612b97565b60405180910390a150505050565b6060610d3882611129565b610d77576040517f08c379a0000000000000000000000000000000000000000000000000000000008152600401610d6e90612c32565b60405180910390fd5b6000600660008481526020019081526020016000208054610d97906126fb565b80601f0160208091040260200160405190810160405280929190818152602001828054610dc3906126fb565b8015610e105780601f10610de557610100808354040283529160200191610e10565b820191906000526020600020905b815481529060010190602001808311610df357829003601f168201915b505050505090506000610e216118e0565b9050600081511415610e37578192505050610e7a565b600082511115610e6c578082604051602001610e54929190612c8e565b60405160208183030381529060405292505050610e7a565b610e758461191d565b925050505b919050565b6000600560008473ffffffffffffffffffffffffffffffffffffffff1673ffffffffffffffffffffffffffffffffffffffff16815260200190815260200160002060008373ffffffffffffffffffffffffffffffffffffffff1673ffffffffffffffffffffffffffffffffffffffff16815260200190815260200160002060009054906101000a900460ff16905092915050565b610f1b611195565b73ffffffffffffffffffffffffffffffffffffffff16610f396109b2565b73ffffffffffffffffffffffffffffffffffffffff1614610f8f576040517f08c379a0000000000000000000000000000000000000000000000000000000008152600401610f8690612ae5565b60405180910390fd5b6000610f9b6008611840565b905060005b818110156110ba573373ffffffffffffffffffffffffffffffffffffffff1660096000600184610fd09190612ce1565b815260200190815260200160002060010160009054906101000a900473ffffffffffffffffffffffffffffffffffffffff1673ffffffffffffffffffffffffffffffffffffffff1614156110a7576000600960006001846110319190612ce1565b8152602001908152602001600020600001549050836009600083815260200190815260200160002060010160006101000a81548173ffffffffffffffffffffffffffffffffffffffff021916908373ffffffffffffffffffffffffffffffffffffffff1602179055506110a5338583611334565b505b80806110b290612d37565b915050610fa0565b505050565b60007f01ffc9a7000000000000000000000000000000000000000000000000000000007bffffffffffffffffffffffffffffffffffffffffffffffffffffffff1916827bffffffffffffffffffffffffffffffffffffffffffffffffffffffff1916149050919050565b60008073ffffffffffffffffffffffffffffffffffffffff166002600084815260200190815260200160002060009054906101000a900473ffffffffffffffffffffffffffffffffffffffff1673ffffffffffffffffffffffffffffffffffffffff1614159050919050565b600033905090565b816004600083815260200190815260200160002060006101000a81548173ffffffffffffffffffffffffffffffffffffffff021916908373ffffffffffffffffffffffffffffffffffffffff160217905550808273ffffffffffffffffffffffffffffffffffffffff16611210836107c0565b73ffffffffffffffffffffffffffffffffffffffff167f8c5be1e5ebec7d5bd14f71427d1e84f3dd0314c0f7b2291e5b200ac8c7c3b92560405160405180910390a45050565b600061126182611129565b6112a0576040517f08c379a000000000000000000000000000000000000000000000000000000000815260040161129790612df2565b60405180910390fd5b60006112ab836107c0565b90508073ffffffffffffffffffffffffffffffffffffffff168473ffffffffffffffffffffffffffffffffffffffff16148061131a57508373ffffffffffffffffffffffffffffffffffffffff1661130284610559565b73ffffffffffffffffffffffffffffffffffffffff16145b8061132b575061132a8185610e7f565b5b91505092915050565b8273ffffffffffffffffffffffffffffffffffffffff16611354826107c0565b73ffffffffffffffffffffffffffffffffffffffff16146113aa576040517f08c379a00000000000000000000000000000000000000000000000000000000081526004016113a190612e84565b60405180910390fd5b600073ffffffffffffffffffffffffffffffffffffffff168273ffffffffffffffffffffffffffffffffffffffff16141561141a576040517f08c379a000000000000000000000000000000000000000000000000000000000815260040161141190612f16565b60405180910390fd5b6114258383836119c4565b61143060008261119d565b6001600360008573ffffffffffffffffffffffffffffffffffffffff1673ffffffffffffffffffffffffffffffffffffffff16815260200190815260200160002060008282546114809190612f36565b925050819055506001600360008473ffffffffffffffffffffffffffffffffffffffff1673ffffffffffffffffffffffffffffffffffffffff16815260200190815260200160002060008282546114d79190612ce1565b92505081905550816002600083815260200190815260200160002060006101000a81548173ffffffffffffffffffffffffffffffffffffffff021916908373ffffffffffffffffffffffffffffffffffffffff160217905550808273ffffffffffffffffffffffffffffffffffffffff168473ffffffffffffffffffffffffffffffffffffffff167fddf252ad1be2c89b69c2b068fc378daa952ba7f163c4a11628f55a4df523b3ef60405160405180910390a46115968383836119d4565b505050565b6000600760009054906101000a900473ffffffffffffffffffffffffffffffffffffffff16905081600760006101000a81548173ffffffffffffffffffffffffffffffffffffffff021916908373ffffffffffffffffffffffffffffffffffffffff1602179055508173ffffffffffffffffffffffffffffffffffffffff168173ffffffffffffffffffffffffffffffffffffffff167f8be0079c531659141344cd1fd0a4f28419497f9722a3daafe3b4186f6b6457e060405160405180910390a35050565b8173ffffffffffffffffffffffffffffffffffffffff168373ffffffffffffffffffffffffffffffffffffffff1614156116d0576040517f08c379a00000000000000000000000000000000000000000000000000000000081526004016116c790612fb6565b60405180910390fd5b80600560008573ffffffffffffffffffffffffffffffffffffffff1673ffffffffffffffffffffffffffffffffffffffff16815260200190815260200160002060008473ffffffffffffffffffffffffffffffffffffffff1673ffffffffffffffffffffffffffffffffffffffff16815260200190815260200160002060006101000a81548160ff0219169083151502179055508173ffffffffffffffffffffffffffffffffffffffff168373ffffffffffffffffffffffffffffffffffffffff167f17307eab39ab6107e8899845ad3d59bd9653f200f220920489ca2b5937696c31836040516117c19190612076565b60405180910390a3505050565b6117d9848484611334565b6117e5848484846119d9565b611824576040517f08c379a000000000000000000000000000000000000000000000000000000000815260040161181b90613048565b60405180910390fd5b50505050565b6001816000016000828254019250508190555050565b600081600001549050919050565b611868828260405180602001604052806000815250611b61565b5050565b61187582611129565b6118b4576040517f08c379a00000000000000000000000000000000000000000000000000000000081526004016118ab906130da565b60405180910390fd5b806006600084815260200190815260200160002090805190602001906118db929190611f1f565b505050565b60606040518060400160405280601b81526020017f68747470733a2f2f697066732e696e667572612e696f2f697066730000000000815250905090565b606061192882611129565b611967576040517f08c379a000000000000000000000000000000000000000000000000000000000815260040161195e9061316c565b60405180910390fd5b60006119716118e0565b9050600081511161199157604051806020016040528060008152506119bc565b8061199b84611bbc565b6040516020016119ac929190612c8e565b6040516020818303038152906040525b915050919050565b6119cf838383611d1d565b505050565b505050565b60006119fa8473ffffffffffffffffffffffffffffffffffffffff16611d22565b15611b54578373ffffffffffffffffffffffffffffffffffffffff1663150b7a02611a23611195565b8786866040518563ffffffff1660e01b8152600401611a4594939291906131e1565b6020604051808303816000875af1925050508015611a8157506040513d601f19601f82011682018060405250810190611a7e9190613242565b60015b611b04573d8060008114611ab1576040519150601f19603f3d011682016040523d82523d6000602084013e611ab6565b606091505b50600081511415611afc576040517f08c379a0000000000000000000000000000000000000000000000000000000008152600401611af390613048565b60405180910390fd5b805181602001fd5b63150b7a0260e01b7bffffffffffffffffffffffffffffffffffffffffffffffffffffffff1916817bffffffffffffffffffffffffffffffffffffffffffffffffffffffff191614915050611b59565b600190505b949350505050565b611b6b8383611d45565b611b7860008484846119d9565b611bb7576040517f08c379a0000000000000000000000000000000000000000000000000000000008152600401611bae90613048565b60405180910390fd5b505050565b60606000821415611c04576040518060400160405280600181526020017f30000000000000000000000000000000000000000000000000000000000000008152509050611d18565b600082905060005b60008214611c36578080611c1f90612d37565b915050600a82611c2f919061329e565b9150611c0c565b60008167ffffffffffffffff811115611c5257611c516123ce565b5b6040519080825280601f01601f191660200182016040528015611c845781602001600182028036833780820191505090505b5090505b60008514611d1157600182611c9d9190612f36565b9150600a85611cac91906132cf565b6030611cb89190612ce1565b60f81b818381518110611cce57611ccd613300565b5b60200101907effffffffffffffffffffffffffffffffffffffffffffffffffffffffffffff1916908160001a905350600a85611d0a919061329e565b9450611c88565b8093505050505b919050565b505050565b6000808273ffffffffffffffffffffffffffffffffffffffff163b119050919050565b600073ffffffffffffffffffffffffffffffffffffffff168273ffffffffffffffffffffffffffffffffffffffff161415611db5576040517f08c379a0000000000000000000000000000000000000000000000000000000008152600401611dac9061337b565b60405180910390fd5b611dbe81611129565b15611dfe576040517f08c379a0000000000000000000000000000000000000000000000000000000008152600401611df5906133e7565b60405180910390fd5b611e0a600083836119c4565b6001600360008473ffffffffffffffffffffffffffffffffffffffff1673ffffffffffffffffffffffffffffffffffffffff1681526020019081526020016000206000828254611e5a9190612ce1565b92505081905550816002600083815260200190815260200160002060006101000a81548173ffffffffffffffffffffffffffffffffffffffff021916908373ffffffffffffffffffffffffffffffffffffffff160217905550808273ffffffffffffffffffffffffffffffffffffffff16600073ffffffffffffffffffffffffffffffffffffffff167fddf252ad1be2c89b69c2b068fc378daa952ba7f163c4a11628f55a4df523b3ef60405160405180910390a4611f1b600083836119d4565b5050565b828054611f2b906126fb565b90600052602060002090601f016020900481019282611f4d5760008555611f94565b82601f10611f6657805160ff1916838001178555611f94565b82800160010185558215611f94579182015b82811115611f93578251825591602001919060010190611f78565b5b509050611fa19190611fa5565b5090565b5b80821115611fbe576000816000905550600101611fa6565b5090565b6000604051905090565b600080fd5b600080fd5b60007fffffffff0000000000000000000000000000000000000000000000000000000082169050919050565b61200b81611fd6565b811461201657600080fd5b50565b60008135905061202881612002565b92915050565b60006020828403121561204457612043611fcc565b5b600061205284828501612019565b91505092915050565b60008115159050919050565b6120708161205b565b82525050565b600060208201905061208b6000830184612067565b92915050565b600081519050919050565b600082825260208201905092915050565b60005b838110156120cb5780820151818401526020810190506120b0565b838111156120da576000848401525b50505050565b6000601f19601f8301169050919050565b60006120fc82612091565b612106818561209c565b93506121168185602086016120ad565b61211f816120e0565b840191505092915050565b6000602082019050818103600083015261214481846120f1565b905092915050565b6000819050919050565b61215f8161214c565b811461216a57600080fd5b50565b60008135905061217c81612156565b92915050565b60006020828403121561219857612197611fcc565b5b60006121a68482850161216d565b91505092915050565b600073ffffffffffffffffffffffffffffffffffffffff82169050919050565b60006121da826121af565b9050919050565b6121ea816121cf565b82525050565b600060208201905061220560008301846121e1565b92915050565b612214816121cf565b811461221f57600080fd5b50565b6000813590506122318161220b565b92915050565b6000806040838503121561224e5761224d611fcc565b5b600061225c85828601612222565b925050602061226d8582860161216d565b9150509250929050565b6000806000606084860312156122905761228f611fcc565b5b600061229e86828701612222565b93505060206122af86828701612222565b92505060406122c08682870161216d565b9150509250925092565b6122d38161214c565b82525050565b60006060820190506122ee60008301866122ca565b6122fb60208301856121e1565b61230860408301846122ca565b949350505050565b60006020828403121561232657612325611fcc565b5b600061233484828501612222565b91505092915050565b600060208201905061235260008301846122ca565b92915050565b6123618161205b565b811461236c57600080fd5b50565b60008135905061237e81612358565b92915050565b6000806040838503121561239b5761239a611fcc565b5b60006123a985828601612222565b92505060206123ba8582860161236f565b9150509250929050565b600080fd5b600080fd5b7f4e487b7100000000000000000000000000000000000000000000000000000000600052604160045260246000fd5b612406826120e0565b810181811067ffffffffffffffff82111715612425576124246123ce565b5b80604052505050565b6000612438611fc2565b905061244482826123fd565b919050565b600067ffffffffffffffff821115612464576124636123ce565b5b61246d826120e0565b9050602081019050919050565b82818337600083830152505050565b600061249c61249784612449565b61242e565b9050828152602081018484840111156124b8576124b76123c9565b5b6124c384828561247a565b509392505050565b600082601f8301126124e0576124df6123c4565b5b81356124f0848260208601612489565b91505092915050565b6000806000806080858703121561251357612512611fcc565b5b600061252187828801612222565b945050602061253287828801612222565b93505060406125438782880161216d565b925050606085013567ffffffffffffffff81111561256457612563611fd1565b5b612570878288016124cb565b91505092959194509250565b600067ffffffffffffffff821115612597576125966123ce565b5b6125a0826120e0565b9050602081019050919050565b60006125c06125bb8461257c565b61242e565b9050828152602081018484840111156125dc576125db6123c9565b5b6125e784828561247a565b509392505050565b600082601f830112612604576126036123c4565b5b81356126148482602086016125ad565b91505092915050565b60008060006060848603121561263657612635611fcc565b5b600061264486828701612222565b935050602084013567ffffffffffffffff81111561266557612664611fd1565b5b612671868287016125ef565b92505060406126828682870161216d565b9150509250925092565b600080604083850312156126a3576126a2611fcc565b5b60006126b185828601612222565b92505060206126c285828601612222565b9150509250929050565b7f4e487b7100000000000000000000000000000000000000000000000000000000600052602260045260246000fd5b6000600282049050600182168061271357607f821691505b60208210811415612727576127266126cc565b5b50919050565b7f4552433732313a20617070726f76656420717565727920666f72206e6f6e657860008201527f697374656e7420746f6b656e0000000000000000000000000000000000000000602082015250565b6000612789602c8361209c565b91506127948261272d565b604082019050919050565b600060208201905081810360008301526127b88161277c565b9050919050565b7f4552433732313a20617070726f76616c20746f2063757272656e74206f776e6560008201527f7200000000000000000000000000000000000000000000000000000000000000602082015250565b600061281b60218361209c565b9150612826826127bf565b604082019050919050565b6000602082019050818103600083015261284a8161280e565b9050919050565b7f4552433732313a20617070726f76652063616c6c6572206973206e6f74206f7760008201527f6e6572206e6f7220617070726f76656420666f7220616c6c0000000000000000602082015250565b60006128ad60388361209c565b91506128b882612851565b604082019050919050565b600060208201905081810360008301526128dc816128a0565b9050919050565b7f4552433732313a207472616e736665722063616c6c6572206973206e6f74206f60008201527f776e6572206e6f7220617070726f766564000000000000000000000000000000602082015250565b600061293f60318361209c565b915061294a826128e3565b604082019050919050565b6000602082019050818103600083015261296e81612932565b9050919050565b7f4552433732313a206f776e657220717565727920666f72206e6f6e657869737460008201527f656e7420746f6b656e0000000000000000000000000000000000000000000000602082015250565b60006129d160298361209c565b91506129dc82612975565b604082019050919050565b60006020820190508181036000830152612a00816129c4565b9050919050565b7f4552433732313a2062616c616e636520717565727920666f7220746865207a6560008201527f726f206164647265737300000000000000000000000000000000000000000000602082015250565b6000612a63602a8361209c565b9150612a6e82612a07565b604082019050919050565b60006020820190508181036000830152612a9281612a56565b9050919050565b7f4f776e61626c653a2063616c6c6572206973206e6f7420746865206f776e6572600082015250565b6000612acf60208361209c565b9150612ada82612a99565b602082019050919050565b60006020820190508181036000830152612afe81612ac2565b9050919050565b7f596f75206861766520746f206f776e2074686520746f6b656e20746f2074726160008201527f6e73666572206974000000000000000000000000000000000000000000000000602082015250565b6000612b6160288361209c565b9150612b6c82612b05565b604082019050919050565b60006020820190508181036000830152612b9081612b54565b9050919050565b6000604082019050612bac60008301856122ca565b612bb960208301846122ca565b9392505050565b7f45524337323155524953746f726167653a2055524920717565727920666f722060008201527f6e6f6e6578697374656e7420746f6b656e000000000000000000000000000000602082015250565b6000612c1c60318361209c565b9150612c2782612bc0565b604082019050919050565b60006020820190508181036000830152612c4b81612c0f565b9050919050565b600081905092915050565b6000612c6882612091565b612c728185612c52565b9350612c828185602086016120ad565b80840191505092915050565b6000612c9a8285612c5d565b9150612ca68284612c5d565b91508190509392505050565b7f4e487b7100000000000000000000000000000000000000000000000000000000600052601160045260246000fd5b6000612cec8261214c565b9150612cf78361214c565b9250827fffffffffffffffffffffffffffffffffffffffffffffffffffffffffffffffff03821115612d2c57612d2b612cb2565b5b828201905092915050565b6000612d428261214c565b91507fffffffffffffffffffffffffffffffffffffffffffffffffffffffffffffffff821415612d7557612d74612cb2565b5b600182019050919050565b7f4552433732313a206f70657261746f7220717565727920666f72206e6f6e657860008201527f697374656e7420746f6b656e0000000000000000000000000000000000000000602082015250565b6000612ddc602c8361209c565b9150612de782612d80565b604082019050919050565b60006020820190508181036000830152612e0b81612dcf565b9050919050565b7f4552433732313a207472616e736665722066726f6d20696e636f72726563742060008201527f6f776e6572000000000000000000000000000000000000000000000000000000602082015250565b6000612e6e60258361209c565b9150612e7982612e12565b604082019050919050565b60006020820190508181036000830152612e9d81612e61565b9050919050565b7f4552433732313a207472616e7366657220746f20746865207a65726f2061646460008201527f7265737300000000000000000000000000000000000000000000000000000000602082015250565b6000612f0060248361209c565b9150612f0b82612ea4565b604082019050919050565b60006020820190508181036000830152612f2f81612ef3565b9050919050565b6000612f418261214c565b9150612f4c8361214c565b925082821015612f5f57612f5e612cb2565b5b828203905092915050565b7f4552433732313a20617070726f766520746f2063616c6c657200000000000000600082015250565b6000612fa060198361209c565b9150612fab82612f6a565b602082019050919050565b60006020820190508181036000830152612fcf81612f93565b9050919050565b7f4552433732313a207472616e7366657220746f206e6f6e20455243373231526560008201527f63656976657220696d706c656d656e7465720000000000000000000000000000602082015250565b600061303260328361209c565b915061303d82612fd6565b604082019050919050565b6000602082019050818103600083015261306181613025565b9050919050565b7f45524337323155524953746f726167653a2055524920736574206f66206e6f6e60008201527f6578697374656e7420746f6b656e000000000000000000000000000000000000602082015250565b60006130c4602e8361209c565b91506130cf82613068565b604082019050919050565b600060208201905081810360008301526130f3816130b7565b9050919050565b7f4552433732314d657461646174613a2055524920717565727920666f72206e6f60008201527f6e6578697374656e7420746f6b656e0000000000000000000000000000000000602082015250565b6000613156602f8361209c565b9150613161826130fa565b604082019050919050565b6000602082019050818103600083015261318581613149565b9050919050565b600081519050919050565b600082825260208201905092915050565b60006131b38261318c565b6131bd8185613197565b93506131cd8185602086016120ad565b6131d6816120e0565b840191505092915050565b60006080820190506131f660008301876121e1565b61320360208301866121e1565b61321060408301856122ca565b818103606083015261322281846131a8565b905095945050505050565b60008151905061323c81612002565b92915050565b60006020828403121561325857613257611fcc565b5b60006132668482850161322d565b91505092915050565b7f4e487b7100000000000000000000000000000000000000000000000000000000600052601260045260246000fd5b60006132a98261214c565b91506132b48361214c565b9250826132c4576132c361326f565b5b828204905092915050565b60006132da8261214c565b91506132e58361214c565b9250826132f5576132f461326f565b5b828206905092915050565b7f4e487b7100000000000000000000000000000000000000000000000000000000600052603260045260246000fd5b7f4552433732313a206d696e7420746f20746865207a65726f2061646472657373600082015250565b600061336560208361209c565b91506133708261332f565b602082019050919050565b6000602082019050818103600083015261339481613358565b9050919050565b7f4552433732313a20746f6b656e20616c7265616479206d696e74656400000000600082015250565b60006133d1601c8361209c565b91506133dc8261339b565b602082019050919050565b60006020820190508181036000830152613400816133c4565b905091905056fea2646970667358221220bc51ea75f49d0ab5f985e73eeed266122bc4095fb9bbac740d08b7891d8319e364736f6c634300080b0033",
  "linkReferences": {},
  "deployedLinkReferences": {}
}