{
  "_format": "hh-sol-artifact-1",
  "contractName": "ERC721NFT",
  "sourceName": "contracts/ERC721NFT.sol",
  "abi": [
    {
      "inputs": [
        {
          "internalType": "string",
          "name": "_tokenName",
          "type": "string"
        },
        {
          "internalType": "string",
          "name": "_tokenSymbol",
          "type": "string"
        },
        {
          "internalType": "uint256",
          "name": "_cost",
          "type": "uint256"
        },
        {
          "internalType": "uint256",
          "name": "_maxSupply",
          "type": "uint256"
        }
      ],
      "stateMutability": "nonpayable",
      "type": "constructor"
    },
    {
      "anonymous": false,
      "inputs": [
        {
          "indexed": true,
          "internalType": "address",
          "name": "owner",
          "type": "address"
        },
        {
          "indexed": true,
          "internalType": "address",
          "name": "approved",
          "type": "address"
        },
        {
          "indexed": true,
          "internalType": "uint256",
          "name": "tokenId",
          "type": "uint256"
        }
      ],
      "name": "Approval",
      "type": "event"
    },
    {
      "anonymous": false,
      "inputs": [
        {
          "indexed": true,
          "internalType": "address",
          "name": "owner",
          "type": "address"
        },
        {
          "indexed": true,
          "internalType": "address",
          "name": "operator",
          "type": "address"
        },
        {
          "indexed": false,
          "internalType": "bool",
          "name": "approved",
          "type": "bool"
        }
      ],
      "name": "ApprovalForAll",
      "type": "event"
    },
    {
      "anonymous": false,
      "inputs": [
        {
          "indexed": true,
          "internalType": "address",
          "name": "previousOwner",
          "type": "address"
        },
        {
          "indexed": true,
          "internalType": "address",
          "name": "newOwner",
          "type": "address"
        }
      ],
      "name": "OwnershipTransferred",
      "type": "event"
    },
    {
      "anonymous": false,
      "inputs": [
        {
          "indexed": false,
          "internalType": "uint256",
          "name": "id",
          "type": "uint256"
        },
        {
          "indexed": false,
          "internalType": "uint256",
          "name": "timestamp",
          "type": "uint256"
        }
      ],
      "name": "TokenMinted",
      "type": "event"
    },
    {
      "anonymous": false,
      "inputs": [
        {
          "indexed": true,
          "internalType": "address",
          "name": "from",
          "type": "address"
        },
        {
          "indexed": true,
          "internalType": "address",
          "name": "to",
          "type": "address"
        },
        {
          "indexed": true,
          "internalType": "uint256",
          "name": "tokenId",
          "type": "uint256"
        }
      ],
      "name": "Transfer",
      "type": "event"
    },
    {
      "inputs": [],
      "name": "_tokenIds",
      "outputs": [
        {
          "internalType": "uint256",
          "name": "_value",
          "type": "uint256"
        }
      ],
      "stateMutability": "view",
      "type": "function"
    },
    {
      "inputs": [
        {
          "internalType": "address",
          "name": "to",
          "type": "address"
        },
        {
          "internalType": "uint256",
          "name": "tokenId",
          "type": "uint256"
        }
      ],
      "name": "approve",
      "outputs": [],
      "stateMutability": "nonpayable",
      "type": "function"
    },
    {
      "inputs": [
        {
          "internalType": "address",
          "name": "owner",
          "type": "address"
        }
      ],
      "name": "balanceOf",
      "outputs": [
        {
          "internalType": "uint256",
          "name": "",
          "type": "uint256"
        }
      ],
      "stateMutability": "view",
      "type": "function"
    },
    {
      "inputs": [],
      "name": "cost",
      "outputs": [
        {
          "internalType": "uint256",
          "name": "",
          "type": "uint256"
        }
      ],
      "stateMutability": "view",
      "type": "function"
    },
    {
      "inputs": [
        {
          "internalType": "uint256",
          "name": "tokenId",
          "type": "uint256"
        }
      ],
      "name": "getApproved",
      "outputs": [
        {
          "internalType": "address",
          "name": "",
          "type": "address"
        }
      ],
      "stateMutability": "view",
      "type": "function"
    },
    {
      "inputs": [
        {
          "internalType": "uint256",
          "name": "",
          "type": "uint256"
        }
      ],
      "name": "idToTokenItem",
      "outputs": [
        {
          "internalType": "uint256",
          "name": "_tokenId",
          "type": "uint256"
        },
        {
          "internalType": "address",
          "name": "_owner",
          "type": "address"
        },
        {
          "internalType": "uint256",
          "name": "_createdAt",
          "type": "uint256"
        }
      ],
      "stateMutability": "view",
      "type": "function"
    },
    {
      "inputs": [
        {
          "internalType": "address",
          "name": "owner",
          "type": "address"
        },
        {
          "internalType": "address",
          "name": "operator",
          "type": "address"
        }
      ],
      "name": "isApprovedForAll",
      "outputs": [
        {
          "internalType": "bool",
          "name": "",
          "type": "bool"
        }
      ],
      "stateMutability": "view",
      "type": "function"
    },
    {
      "inputs": [],
      "name": "maxSupply",
      "outputs": [
        {
          "internalType": "uint256",
          "name": "",
          "type": "uint256"
        }
      ],
      "stateMutability": "view",
      "type": "function"
    },
    {
      "inputs": [
        {
          "internalType": "address",
          "name": "to",
          "type": "address"
        },
        {
          "internalType": "string",
          "name": "_tokenURI",
          "type": "string"
        },
        {
          "internalType": "uint256",
          "name": "createdAt",
          "type": "uint256"
        }
      ],
      "name": "mint",
      "outputs": [],
      "stateMutability": "nonpayable",
      "type": "function"
    },
    {
      "inputs": [],
      "name": "name",
      "outputs": [
        {
          "internalType": "string",
          "name": "",
          "type": "string"
        }
      ],
      "stateMutability": "view",
      "type": "function"
    },
    {
      "inputs": [],
      "name": "owner",
      "outputs": [
        {
          "internalType": "address",
          "name": "",
          "type": "address"
        }
      ],
      "stateMutability": "view",
      "type": "function"
    },
    {
      "inputs": [
        {
          "internalType": "uint256",
          "name": "tokenId",
          "type": "uint256"
        }
      ],
      "name": "ownerOf",
      "outputs": [
        {
          "internalType": "address",
          "name": "",
          "type": "address"
        }
      ],
      "stateMutability": "view",
      "type": "function"
    },
    {
      "inputs": [],
      "name": "renounceOwnership",
      "outputs": [],
      "stateMutability": "nonpayable",
      "type": "function"
    },
    {
      "inputs": [],
      "name": "revealed",
      "outputs": [
        {
          "internalType": "bool",
          "name": "",
          "type": "bool"
        }
      ],
      "stateMutability": "view",
      "type": "function"
    },
    {
      "inputs": [
        {
          "internalType": "address",
          "name": "from",
          "type": "address"
        },
        {
          "internalType": "address",
          "name": "to",
          "type": "address"
        },
        {
          "internalType": "uint256",
          "name": "tokenId",
          "type": "uint256"
        }
      ],
      "name": "safeTransferFrom",
      "outputs": [],
      "stateMutability": "nonpayable",
      "type": "function"
    },
    {
      "inputs": [
        {
          "internalType": "address",
          "name": "from",
          "type": "address"
        },
        {
          "internalType": "address",
          "name": "to",
          "type": "address"
        },
        {
          "internalType": "uint256",
          "name": "tokenId",
          "type": "uint256"
        },
        {
          "internalType": "bytes",
          "name": "_data",
          "type": "bytes"
        }
      ],
      "name": "safeTransferFrom",
      "outputs": [],
      "stateMutability": "nonpayable",
      "type": "function"
    },
    {
      "inputs": [
        {
          "internalType": "address",
          "name": "operator",
          "type": "address"
        },
        {
          "internalType": "bool",
          "name": "approved",
          "type": "bool"
        }
      ],
      "name": "setApprovalForAll",
      "outputs": [],
      "stateMutability": "nonpayable",
      "type": "function"
    },
    {
      "inputs": [
        {
          "internalType": "uint256",
          "name": "_cost",
          "type": "uint256"
        }
      ],
      "name": "setCost",
      "outputs": [],
      "stateMutability": "nonpayable",
      "type": "function"
    },
    {
      "inputs": [
        {
          "internalType": "bytes4",
          "name": "interfaceId",
          "type": "bytes4"
        }
      ],
      "name": "supportsInterface",
      "outputs": [
        {
          "internalType": "bool",
          "name": "",
          "type": "bool"
        }
      ],
      "stateMutability": "view",
      "type": "function"
    },
    {
      "inputs": [],
      "name": "symbol",
      "outputs": [
        {
          "internalType": "string",
          "name": "",
          "type": "string"
        }
      ],
      "stateMutability": "view",
      "type": "function"
    },
    {
      "inputs": [
        {
          "internalType": "uint256",
          "name": "_tokenId",
          "type": "uint256"
        }
      ],
      "name": "tokenURI",
      "outputs": [
        {
          "internalType": "string",
          "name": "",
          "type": "string"
        }
      ],
      "stateMutability": "view",
      "type": "function"
    },
    {
      "inputs": [
        {
          "internalType": "address",
          "name": "from",
          "type": "address"
        },
        {
          "internalType": "address",
          "name": "to",
          "type": "address"
        },
        {
          "internalType": "uint256",
          "name": "tokenId",
          "type": "uint256"
        }
      ],
      "name": "transferFrom",
      "outputs": [],
      "stateMutability": "nonpayable",
      "type": "function"
    },
    {
      "inputs": [
        {
          "internalType": "address",
          "name": "to",
          "type": "address"
        },
        {
          "internalType": "uint256",
          "name": "tokenId",
          "type": "uint256"
        }
      ],
      "name": "transferNFT",
      "outputs": [],
      "stateMutability": "nonpayable",
      "type": "function"
    },
    {
      "inputs": [
        {
          "internalType": "address",
          "name": "_newOwner",
          "type": "address"
        }
      ],
      "name": "transferOwnership",
      "outputs": [],
      "stateMutability": "nonpayable",
      "type": "function"
    },
    {
      "inputs": [],
      "name": "withdraw",
      "outputs": [],
      "stateMutability": "nonpayable",
      "type": "function"
    }
  ],
  "bytecode": "0x60806040526000600c60006101000a81548160ff0219169083151502179055503480156200002c57600080fd5b5060405162003c5c38038062003c5c8339818101604052810190620000529190620004eb565b838381600090805190602001906200006c92919062000263565b5080600190805190602001906200008592919062000263565b505050620000a86200009c620000d260201b60201c565b620000da60201b60201c565b6001600881905550620000c182620001a060201b60201c565b80600b819055505050505062000683565b600033905090565b6000600760009054906101000a900473ffffffffffffffffffffffffffffffffffffffff16905081600760006101000a81548173ffffffffffffffffffffffffffffffffffffffff021916908373ffffffffffffffffffffffffffffffffffffffff1602179055508173ffffffffffffffffffffffffffffffffffffffff168173ffffffffffffffffffffffffffffffffffffffff167f8be0079c531659141344cd1fd0a4f28419497f9722a3daafe3b4186f6b6457e060405160405180910390a35050565b620001b0620000d260201b60201c565b73ffffffffffffffffffffffffffffffffffffffff16620001d66200023960201b60201c565b73ffffffffffffffffffffffffffffffffffffffff16146200022f576040517f08c379a00000000000000000000000000000000000000000000000000000000081526004016200022690620005fc565b60405180910390fd5b80600a8190555050565b6000600760009054906101000a900473ffffffffffffffffffffffffffffffffffffffff16905090565b82805462000271906200064d565b90600052602060002090601f016020900481019282620002955760008555620002e1565b82601f10620002b057805160ff1916838001178555620002e1565b82800160010185558215620002e1579182015b82811115620002e0578251825591602001919060010190620002c3565b5b509050620002f09190620002f4565b5090565b5b808211156200030f576000816000905550600101620002f5565b5090565b6000604051905090565b600080fd5b600080fd5b600080fd5b600080fd5b6000601f19601f8301169050919050565b7f4e487b7100000000000000000000000000000000000000000000000000000000600052604160045260246000fd5b6200037c8262000331565b810181811067ffffffffffffffff821117156200039e576200039d62000342565b5b80604052505050565b6000620003b362000313565b9050620003c1828262000371565b919050565b600067ffffffffffffffff821115620003e457620003e362000342565b5b620003ef8262000331565b9050602081019050919050565b60005b838110156200041c578082015181840152602081019050620003ff565b838111156200042c576000848401525b50505050565b6000620004496200044384620003c6565b620003a7565b9050828152602081018484840111156200046857620004676200032c565b5b62000475848285620003fc565b509392505050565b600082601f83011262000495576200049462000327565b5b8151620004a784826020860162000432565b91505092915050565b6000819050919050565b620004c581620004b0565b8114620004d157600080fd5b50565b600081519050620004e581620004ba565b92915050565b600080600080608085870312156200050857620005076200031d565b5b600085015167ffffffffffffffff81111562000529576200052862000322565b5b62000537878288016200047d565b945050602085015167ffffffffffffffff8111156200055b576200055a62000322565b5b62000569878288016200047d565b93505060406200057c87828801620004d4565b92505060606200058f87828801620004d4565b91505092959194509250565b600082825260208201905092915050565b7f4f776e61626c653a2063616c6c6572206973206e6f7420746865206f776e6572600082015250565b6000620005e46020836200059b565b9150620005f182620005ac565b602082019050919050565b600060208201905081810360008301526200061781620005d5565b9050919050565b7f4e487b7100000000000000000000000000000000000000000000000000000000600052602260045260246000fd5b600060028204905060018216806200066657607f821691505b602082108114156200067d576200067c6200061e565b5b50919050565b6135c980620006936000396000f3fe608060405234801561001057600080fd5b50600436106101735760003560e01c806370a08231116100de578063aa46a40011610097578063c87b56dd11610071578063c87b56dd14610412578063d5abeb0114610442578063e985e9c514610460578063f2fde38b1461049057610173565b8063aa46a400146103bc578063b88d4fde146103da578063ba7aef43146103f657610173565b806370a082311461030e578063715018a61461033e5780638da5cb5b1461034857806394ab67fe1461036657806395d89b4114610382578063a22cb465146103a057610173565b8063386750a211610130578063386750a21461024c5780633ccfd60b1461027e57806342842e0e1461028857806344a0d68a146102a457806351830227146102c05780636352211e146102de57610173565b806301ffc9a71461017857806306fdde03146101a8578063081812fc146101c6578063095ea7b3146101f657806313faede61461021257806323b872dd14610230575b600080fd5b610192600480360381019061018d919061219a565b6104ac565b60405161019f91906121e2565b60405180910390f35b6101b061058e565b6040516101bd9190612296565b60405180910390f35b6101e060048036038101906101db91906122ee565b610620565b6040516101ed919061235c565b60405180910390f35b610210600480360381019061020b91906123a3565b6106a5565b005b61021a6107bd565b60405161022791906123f2565b60405180910390f35b61024a6004803603810190610245919061240d565b6107c3565b005b610266600480360381019061026191906122ee565b610823565b60405161027593929190612460565b60405180910390f35b61028661086d565b005b6102a2600480360381019061029d919061240d565b6109bf565b005b6102be60048036038101906102b991906122ee565b6109df565b005b6102c8610a65565b6040516102d591906121e2565b60405180910390f35b6102f860048036038101906102f391906122ee565b610a78565b604051610305919061235c565b60405180910390f35b61032860048036038101906103239190612497565b610b2a565b60405161033591906123f2565b60405180910390f35b610346610be2565b005b610350610c6a565b60405161035d919061235c565b60405180910390f35b610380600480360381019061037b91906123a3565b610c94565b005b61038a610d47565b6040516103979190612296565b60405180910390f35b6103ba60048036038101906103b591906124f0565b610dd9565b005b6103c4610def565b6040516103d191906123f2565b60405180910390f35b6103f460048036038101906103ef9190612665565b610dfb565b005b610410600480360381019061040b9190612789565b610e5d565b005b61042c600480360381019061042791906122ee565b610fe5565b6040516104399190612296565b60405180910390f35b61044a61108c565b60405161045791906123f2565b60405180910390f35b61047a600480360381019061047591906127f8565b611092565b60405161048791906121e2565b60405180910390f35b6104aa60048036038101906104a59190612497565b611126565b005b60007f80ac58cd000000000000000000000000000000000000000000000000000000007bffffffffffffffffffffffffffffffffffffffffffffffffffffffff1916827bffffffffffffffffffffffffffffffffffffffffffffffffffffffff1916148061057757507f5b5e139f000000000000000000000000000000000000000000000000000000007bffffffffffffffffffffffffffffffffffffffffffffffffffffffff1916827bffffffffffffffffffffffffffffffffffffffffffffffffffffffff1916145b806105875750610586826112d2565b5b9050919050565b60606000805461059d90612867565b80601f01602080910402602001604051908101604052809291908181526020018280546105c990612867565b80156106165780601f106105eb57610100808354040283529160200191610616565b820191906000526020600020905b8154815290600101906020018083116105f957829003601f168201915b5050505050905090565b600061062b8261133c565b61066a576040517f08c379a00000000000000000000000000000000000000000000000000000000081526004016106619061290b565b60405180910390fd5b6004600083815260200190815260200160002060009054906101000a900473ffffffffffffffffffffffffffffffffffffffff169050919050565b60006106b082610a78565b90508073ffffffffffffffffffffffffffffffffffffffff168373ffffffffffffffffffffffffffffffffffffffff161415610721576040517f08c379a00000000000000000000000000000000000000000000000000000000081526004016107189061299d565b60405180910390fd5b8073ffffffffffffffffffffffffffffffffffffffff166107406113a8565b73ffffffffffffffffffffffffffffffffffffffff16148061076f575061076e816107696113a8565b611092565b5b6107ae576040517f08c379a00000000000000000000000000000000000000000000000000000000081526004016107a590612a2f565b60405180910390fd5b6107b883836113b0565b505050565b600a5481565b6107d46107ce6113a8565b82611469565b610813576040517f08c379a000000000000000000000000000000000000000000000000000000000815260040161080a90612ac1565b60405180910390fd5b61081e838383611547565b505050565b600d6020528060005260406000206000915090508060000154908060010160009054906101000a900473ffffffffffffffffffffffffffffffffffffffff16908060020154905083565b6108756113a8565b73ffffffffffffffffffffffffffffffffffffffff16610893610c6a565b73ffffffffffffffffffffffffffffffffffffffff16146108e9576040517f08c379a00000000000000000000000000000000000000000000000000000000081526004016108e090612b2d565b60405180910390fd5b6002600854141561092f576040517f08c379a000000000000000000000000000000000000000000000000000000000815260040161092690612b99565b60405180910390fd5b60026008819055506000610941610c6a565b73ffffffffffffffffffffffffffffffffffffffff164760405161096490612bea565b60006040518083038185875af1925050503d80600081146109a1576040519150601f19603f3d011682016040523d82523d6000602084013e6109a6565b606091505b50509050806109b457600080fd5b506001600881905550565b6109da83838360405180602001604052806000815250610dfb565b505050565b6109e76113a8565b73ffffffffffffffffffffffffffffffffffffffff16610a05610c6a565b73ffffffffffffffffffffffffffffffffffffffff1614610a5b576040517f08c379a0000000000000000000000000000000000000000000000000000000008152600401610a5290612b2d565b60405180910390fd5b80600a8190555050565b600c60009054906101000a900460ff1681565b6000806002600084815260200190815260200160002060009054906101000a900473ffffffffffffffffffffffffffffffffffffffff169050600073ffffffffffffffffffffffffffffffffffffffff168173ffffffffffffffffffffffffffffffffffffffff161415610b21576040517f08c379a0000000000000000000000000000000000000000000000000000000008152600401610b1890612c71565b60405180910390fd5b80915050919050565b60008073ffffffffffffffffffffffffffffffffffffffff168273ffffffffffffffffffffffffffffffffffffffff161415610b9b576040517f08c379a0000000000000000000000000000000000000000000000000000000008152600401610b9290612d03565b60405180910390fd5b600360008373ffffffffffffffffffffffffffffffffffffffff1673ffffffffffffffffffffffffffffffffffffffff168152602001908152602001600020549050919050565b610bea6113a8565b73ffffffffffffffffffffffffffffffffffffffff16610c08610c6a565b73ffffffffffffffffffffffffffffffffffffffff1614610c5e576040517f08c379a0000000000000000000000000000000000000000000000000000000008152600401610c5590612b2d565b60405180910390fd5b610c6860006117ae565b565b6000600760009054906101000a900473ffffffffffffffffffffffffffffffffffffffff16905090565b3373ffffffffffffffffffffffffffffffffffffffff16600d600083815260200190815260200160002060010160009054906101000a900473ffffffffffffffffffffffffffffffffffffffff1673ffffffffffffffffffffffffffffffffffffffff1614610d38576040517f08c379a0000000000000000000000000000000000000000000000000000000008152600401610d2f90612d95565b60405180910390fd5b610d43338383611547565b5050565b606060018054610d5690612867565b80601f0160208091040260200160405190810160405280929190818152602001828054610d8290612867565b8015610dcf5780601f10610da457610100808354040283529160200191610dcf565b820191906000526020600020905b815481529060010190602001808311610db257829003601f168201915b5050505050905090565b610deb610de46113a8565b8383611874565b5050565b60098060000154905081565b610e0c610e066113a8565b83611469565b610e4b576040517f08c379a0000000000000000000000000000000000000000000000000000000008152600401610e4290612ac1565b60405180910390fd5b610e57848484846119e1565b50505050565b610e656113a8565b73ffffffffffffffffffffffffffffffffffffffff16610e83610c6a565b73ffffffffffffffffffffffffffffffffffffffff1614610ed9576040517f08c379a0000000000000000000000000000000000000000000000000000000008152600401610ed090612b2d565b60405180910390fd5b610ee36009611a3d565b6000610eef6009611a53565b905080600d60008381526020019081526020016000206000018190555083600d600083815260200190815260200160002060010160006101000a81548173ffffffffffffffffffffffffffffffffffffffff021916908373ffffffffffffffffffffffffffffffffffffffff16021790555081600d600083815260200190815260200160002060020181905550610f868482611a61565b610f908184611a7f565b7f5f7666687319b40936f33c188908d86aea154abd3f4127b4fa0a3f04f303c7da81600d600084815260200190815260200160002060020154604051610fd7929190612db5565b60405180910390a150505050565b6060610ff08261133c565b61102f576040517f08c379a000000000000000000000000000000000000000000000000000000000815260040161102690612e50565b60405180910390fd5b6000611039611af3565b905060008151116110595760405180602001604052806000815250611084565b8061106384611b30565b604051602001611074929190612eac565b6040516020818303038152906040525b915050919050565b600b5481565b6000600560008473ffffffffffffffffffffffffffffffffffffffff1673ffffffffffffffffffffffffffffffffffffffff16815260200190815260200160002060008373ffffffffffffffffffffffffffffffffffffffff1673ffffffffffffffffffffffffffffffffffffffff16815260200190815260200160002060009054906101000a900460ff16905092915050565b61112e6113a8565b73ffffffffffffffffffffffffffffffffffffffff1661114c610c6a565b73ffffffffffffffffffffffffffffffffffffffff16146111a2576040517f08c379a000000000000000000000000000000000000000000000000000000000815260040161119990612b2d565b60405180910390fd5b60006111ae6009611a53565b905060005b818110156112cd573373ffffffffffffffffffffffffffffffffffffffff16600d60006001846111e39190612eff565b815260200190815260200160002060010160009054906101000a900473ffffffffffffffffffffffffffffffffffffffff1673ffffffffffffffffffffffffffffffffffffffff1614156112ba576000600d60006001846112449190612eff565b815260200190815260200160002060000154905083600d600083815260200190815260200160002060010160006101000a81548173ffffffffffffffffffffffffffffffffffffffff021916908373ffffffffffffffffffffffffffffffffffffffff1602179055506112b8338583611547565b505b80806112c590612f55565b9150506111b3565b505050565b60007f01ffc9a7000000000000000000000000000000000000000000000000000000007bffffffffffffffffffffffffffffffffffffffffffffffffffffffff1916827bffffffffffffffffffffffffffffffffffffffffffffffffffffffff1916149050919050565b60008073ffffffffffffffffffffffffffffffffffffffff166002600084815260200190815260200160002060009054906101000a900473ffffffffffffffffffffffffffffffffffffffff1673ffffffffffffffffffffffffffffffffffffffff1614159050919050565b600033905090565b816004600083815260200190815260200160002060006101000a81548173ffffffffffffffffffffffffffffffffffffffff021916908373ffffffffffffffffffffffffffffffffffffffff160217905550808273ffffffffffffffffffffffffffffffffffffffff1661142383610a78565b73ffffffffffffffffffffffffffffffffffffffff167f8c5be1e5ebec7d5bd14f71427d1e84f3dd0314c0f7b2291e5b200ac8c7c3b92560405160405180910390a45050565b60006114748261133c565b6114b3576040517f08c379a00000000000000000000000000000000000000000000000000000000081526004016114aa90613010565b60405180910390fd5b60006114be83610a78565b90508073ffffffffffffffffffffffffffffffffffffffff168473ffffffffffffffffffffffffffffffffffffffff16148061152d57508373ffffffffffffffffffffffffffffffffffffffff1661151584610620565b73ffffffffffffffffffffffffffffffffffffffff16145b8061153e575061153d8185611092565b5b91505092915050565b8273ffffffffffffffffffffffffffffffffffffffff1661156782610a78565b73ffffffffffffffffffffffffffffffffffffffff16146115bd576040517f08c379a00000000000000000000000000000000000000000000000000000000081526004016115b4906130a2565b60405180910390fd5b600073ffffffffffffffffffffffffffffffffffffffff168273ffffffffffffffffffffffffffffffffffffffff16141561162d576040517f08c379a000000000000000000000000000000000000000000000000000000000815260040161162490613134565b60405180910390fd5b611638838383611c91565b6116436000826113b0565b6001600360008573ffffffffffffffffffffffffffffffffffffffff1673ffffffffffffffffffffffffffffffffffffffff16815260200190815260200160002060008282546116939190613154565b925050819055506001600360008473ffffffffffffffffffffffffffffffffffffffff1673ffffffffffffffffffffffffffffffffffffffff16815260200190815260200160002060008282546116ea9190612eff565b92505081905550816002600083815260200190815260200160002060006101000a81548173ffffffffffffffffffffffffffffffffffffffff021916908373ffffffffffffffffffffffffffffffffffffffff160217905550808273ffffffffffffffffffffffffffffffffffffffff168473ffffffffffffffffffffffffffffffffffffffff167fddf252ad1be2c89b69c2b068fc378daa952ba7f163c4a11628f55a4df523b3ef60405160405180910390a46117a9838383611ca1565b505050565b6000600760009054906101000a900473ffffffffffffffffffffffffffffffffffffffff16905081600760006101000a81548173ffffffffffffffffffffffffffffffffffffffff021916908373ffffffffffffffffffffffffffffffffffffffff1602179055508173ffffffffffffffffffffffffffffffffffffffff168173ffffffffffffffffffffffffffffffffffffffff167f8be0079c531659141344cd1fd0a4f28419497f9722a3daafe3b4186f6b6457e060405160405180910390a35050565b8173ffffffffffffffffffffffffffffffffffffffff168373ffffffffffffffffffffffffffffffffffffffff1614156118e3576040517f08c379a00000000000000000000000000000000000000000000000000000000081526004016118da906131d4565b60405180910390fd5b80600560008573ffffffffffffffffffffffffffffffffffffffff1673ffffffffffffffffffffffffffffffffffffffff16815260200190815260200160002060008473ffffffffffffffffffffffffffffffffffffffff1673ffffffffffffffffffffffffffffffffffffffff16815260200190815260200160002060006101000a81548160ff0219169083151502179055508173ffffffffffffffffffffffffffffffffffffffff168373ffffffffffffffffffffffffffffffffffffffff167f17307eab39ab6107e8899845ad3d59bd9653f200f220920489ca2b5937696c31836040516119d491906121e2565b60405180910390a3505050565b6119ec848484611547565b6119f884848484611ca6565b611a37576040517f08c379a0000000000000000000000000000000000000000000000000000000008152600401611a2e90613266565b60405180910390fd5b50505050565b6001816000016000828254019250508190555050565b600081600001549050919050565b611a7b828260405180602001604052806000815250611e2e565b5050565b611a888261133c565b611ac7576040517f08c379a0000000000000000000000000000000000000000000000000000000008152600401611abe906132f8565b60405180910390fd5b80600660008481526020019081526020016000209080519060200190611aee92919061208b565b505050565b60606040518060400160405280601b81526020017f68747470733a2f2f697066732e696e667572612e696f2f697066730000000000815250905090565b60606000821415611b78576040518060400160405280600181526020017f30000000000000000000000000000000000000000000000000000000000000008152509050611c8c565b600082905060005b60008214611baa578080611b9390612f55565b915050600a82611ba39190613347565b9150611b80565b60008167ffffffffffffffff811115611bc657611bc561253a565b5b6040519080825280601f01601f191660200182016040528015611bf85781602001600182028036833780820191505090505b5090505b60008514611c8557600182611c119190613154565b9150600a85611c209190613378565b6030611c2c9190612eff565b60f81b818381518110611c4257611c416133a9565b5b60200101907effffffffffffffffffffffffffffffffffffffffffffffffffffffffffffff1916908160001a905350600a85611c7e9190613347565b9450611bfc565b8093505050505b919050565b611c9c838383611e89565b505050565b505050565b6000611cc78473ffffffffffffffffffffffffffffffffffffffff16611e8e565b15611e21578373ffffffffffffffffffffffffffffffffffffffff1663150b7a02611cf06113a8565b8786866040518563ffffffff1660e01b8152600401611d12949392919061342d565b6020604051808303816000875af1925050508015611d4e57506040513d601f19601f82011682018060405250810190611d4b919061348e565b60015b611dd1573d8060008114611d7e576040519150601f19603f3d011682016040523d82523d6000602084013e611d83565b606091505b50600081511415611dc9576040517f08c379a0000000000000000000000000000000000000000000000000000000008152600401611dc090613266565b60405180910390fd5b805181602001fd5b63150b7a0260e01b7bffffffffffffffffffffffffffffffffffffffffffffffffffffffff1916817bffffffffffffffffffffffffffffffffffffffffffffffffffffffff191614915050611e26565b600190505b949350505050565b611e388383611eb1565b611e456000848484611ca6565b611e84576040517f08c379a0000000000000000000000000000000000000000000000000000000008152600401611e7b90613266565b60405180910390fd5b505050565b505050565b6000808273ffffffffffffffffffffffffffffffffffffffff163b119050919050565b600073ffffffffffffffffffffffffffffffffffffffff168273ffffffffffffffffffffffffffffffffffffffff161415611f21576040517f08c379a0000000000000000000000000000000000000000000000000000000008152600401611f1890613507565b60405180910390fd5b611f2a8161133c565b15611f6a576040517f08c379a0000000000000000000000000000000000000000000000000000000008152600401611f6190613573565b60405180910390fd5b611f7660008383611c91565b6001600360008473ffffffffffffffffffffffffffffffffffffffff1673ffffffffffffffffffffffffffffffffffffffff1681526020019081526020016000206000828254611fc69190612eff565b92505081905550816002600083815260200190815260200160002060006101000a81548173ffffffffffffffffffffffffffffffffffffffff021916908373ffffffffffffffffffffffffffffffffffffffff160217905550808273ffffffffffffffffffffffffffffffffffffffff16600073ffffffffffffffffffffffffffffffffffffffff167fddf252ad1be2c89b69c2b068fc378daa952ba7f163c4a11628f55a4df523b3ef60405160405180910390a461208760008383611ca1565b5050565b82805461209790612867565b90600052602060002090601f0160209004810192826120b95760008555612100565b82601f106120d257805160ff1916838001178555612100565b82800160010185558215612100579182015b828111156120ff5782518255916020019190600101906120e4565b5b50905061210d9190612111565b5090565b5b8082111561212a576000816000905550600101612112565b5090565b6000604051905090565b600080fd5b600080fd5b60007fffffffff0000000000000000000000000000000000000000000000000000000082169050919050565b61217781612142565b811461218257600080fd5b50565b6000813590506121948161216e565b92915050565b6000602082840312156121b0576121af612138565b5b60006121be84828501612185565b91505092915050565b60008115159050919050565b6121dc816121c7565b82525050565b60006020820190506121f760008301846121d3565b92915050565b600081519050919050565b600082825260208201905092915050565b60005b8381101561223757808201518184015260208101905061221c565b83811115612246576000848401525b50505050565b6000601f19601f8301169050919050565b6000612268826121fd565b6122728185612208565b9350612282818560208601612219565b61228b8161224c565b840191505092915050565b600060208201905081810360008301526122b0818461225d565b905092915050565b6000819050919050565b6122cb816122b8565b81146122d657600080fd5b50565b6000813590506122e8816122c2565b92915050565b60006020828403121561230457612303612138565b5b6000612312848285016122d9565b91505092915050565b600073ffffffffffffffffffffffffffffffffffffffff82169050919050565b60006123468261231b565b9050919050565b6123568161233b565b82525050565b6000602082019050612371600083018461234d565b92915050565b6123808161233b565b811461238b57600080fd5b50565b60008135905061239d81612377565b92915050565b600080604083850312156123ba576123b9612138565b5b60006123c88582860161238e565b92505060206123d9858286016122d9565b9150509250929050565b6123ec816122b8565b82525050565b600060208201905061240760008301846123e3565b92915050565b60008060006060848603121561242657612425612138565b5b60006124348682870161238e565b93505060206124458682870161238e565b9250506040612456868287016122d9565b9150509250925092565b600060608201905061247560008301866123e3565b612482602083018561234d565b61248f60408301846123e3565b949350505050565b6000602082840312156124ad576124ac612138565b5b60006124bb8482850161238e565b91505092915050565b6124cd816121c7565b81146124d857600080fd5b50565b6000813590506124ea816124c4565b92915050565b6000806040838503121561250757612506612138565b5b60006125158582860161238e565b9250506020612526858286016124db565b9150509250929050565b600080fd5b600080fd5b7f4e487b7100000000000000000000000000000000000000000000000000000000600052604160045260246000fd5b6125728261224c565b810181811067ffffffffffffffff821117156125915761259061253a565b5b80604052505050565b60006125a461212e565b90506125b08282612569565b919050565b600067ffffffffffffffff8211156125d0576125cf61253a565b5b6125d98261224c565b9050602081019050919050565b82818337600083830152505050565b6000612608612603846125b5565b61259a565b90508281526020810184848401111561262457612623612535565b5b61262f8482856125e6565b509392505050565b600082601f83011261264c5761264b612530565b5b813561265c8482602086016125f5565b91505092915050565b6000806000806080858703121561267f5761267e612138565b5b600061268d8782880161238e565b945050602061269e8782880161238e565b93505060406126af878288016122d9565b925050606085013567ffffffffffffffff8111156126d0576126cf61213d565b5b6126dc87828801612637565b91505092959194509250565b600067ffffffffffffffff8211156127035761270261253a565b5b61270c8261224c565b9050602081019050919050565b600061272c612727846126e8565b61259a565b90508281526020810184848401111561274857612747612535565b5b6127538482856125e6565b509392505050565b600082601f8301126127705761276f612530565b5b8135612780848260208601612719565b91505092915050565b6000806000606084860312156127a2576127a1612138565b5b60006127b08682870161238e565b935050602084013567ffffffffffffffff8111156127d1576127d061213d565b5b6127dd8682870161275b565b92505060406127ee868287016122d9565b9150509250925092565b6000806040838503121561280f5761280e612138565b5b600061281d8582860161238e565b925050602061282e8582860161238e565b9150509250929050565b7f4e487b7100000000000000000000000000000000000000000000000000000000600052602260045260246000fd5b6000600282049050600182168061287f57607f821691505b6020821081141561289357612892612838565b5b50919050565b7f4552433732313a20617070726f76656420717565727920666f72206e6f6e657860008201527f697374656e7420746f6b656e0000000000000000000000000000000000000000602082015250565b60006128f5602c83612208565b915061290082612899565b604082019050919050565b60006020820190508181036000830152612924816128e8565b9050919050565b7f4552433732313a20617070726f76616c20746f2063757272656e74206f776e6560008201527f7200000000000000000000000000000000000000000000000000000000000000602082015250565b6000612987602183612208565b91506129928261292b565b604082019050919050565b600060208201905081810360008301526129b68161297a565b9050919050565b7f4552433732313a20617070726f76652063616c6c6572206973206e6f74206f7760008201527f6e6572206e6f7220617070726f76656420666f7220616c6c0000000000000000602082015250565b6000612a19603883612208565b9150612a24826129bd565b604082019050919050565b60006020820190508181036000830152612a4881612a0c565b9050919050565b7f4552433732313a207472616e736665722063616c6c6572206973206e6f74206f60008201527f776e6572206e6f7220617070726f766564000000000000000000000000000000602082015250565b6000612aab603183612208565b9150612ab682612a4f565b604082019050919050565b60006020820190508181036000830152612ada81612a9e565b9050919050565b7f4f776e61626c653a2063616c6c6572206973206e6f7420746865206f776e6572600082015250565b6000612b17602083612208565b9150612b2282612ae1565b602082019050919050565b60006020820190508181036000830152612b4681612b0a565b9050919050565b7f5265656e7472616e637947756172643a207265656e7472616e742063616c6c00600082015250565b6000612b83601f83612208565b9150612b8e82612b4d565b602082019050919050565b60006020820190508181036000830152612bb281612b76565b9050919050565b600081905092915050565b50565b6000612bd4600083612bb9565b9150612bdf82612bc4565b600082019050919050565b6000612bf582612bc7565b9150819050919050565b7f4552433732313a206f776e657220717565727920666f72206e6f6e657869737460008201527f656e7420746f6b656e0000000000000000000000000000000000000000000000602082015250565b6000612c5b602983612208565b9150612c6682612bff565b604082019050919050565b60006020820190508181036000830152612c8a81612c4e565b9050919050565b7f4552433732313a2062616c616e636520717565727920666f7220746865207a6560008201527f726f206164647265737300000000000000000000000000000000000000000000602082015250565b6000612ced602a83612208565b9150612cf882612c91565b604082019050919050565b60006020820190508181036000830152612d1c81612ce0565b9050919050565b7f596f75206861766520746f206f776e2074686520746f6b656e20746f2074726160008201527f6e73666572206974000000000000000000000000000000000000000000000000602082015250565b6000612d7f602883612208565b9150612d8a82612d23565b604082019050919050565b60006020820190508181036000830152612dae81612d72565b9050919050565b6000604082019050612dca60008301856123e3565b612dd760208301846123e3565b9392505050565b7f4552433732314d657461646174613a2055524920717565727920666f72206e6f60008201527f6e6578697374656e7420746f6b656e0000000000000000000000000000000000602082015250565b6000612e3a602f83612208565b9150612e4582612dde565b604082019050919050565b60006020820190508181036000830152612e6981612e2d565b9050919050565b600081905092915050565b6000612e86826121fd565b612e908185612e70565b9350612ea0818560208601612219565b80840191505092915050565b6000612eb88285612e7b565b9150612ec48284612e7b565b91508190509392505050565b7f4e487b7100000000000000000000000000000000000000000000000000000000600052601160045260246000fd5b6000612f0a826122b8565b9150612f15836122b8565b9250827fffffffffffffffffffffffffffffffffffffffffffffffffffffffffffffffff03821115612f4a57612f49612ed0565b5b828201905092915050565b6000612f60826122b8565b91507fffffffffffffffffffffffffffffffffffffffffffffffffffffffffffffffff821415612f9357612f92612ed0565b5b600182019050919050565b7f4552433732313a206f70657261746f7220717565727920666f72206e6f6e657860008201527f697374656e7420746f6b656e0000000000000000000000000000000000000000602082015250565b6000612ffa602c83612208565b915061300582612f9e565b604082019050919050565b6000602082019050818103600083015261302981612fed565b9050919050565b7f4552433732313a207472616e736665722066726f6d20696e636f72726563742060008201527f6f776e6572000000000000000000000000000000000000000000000000000000602082015250565b600061308c602583612208565b915061309782613030565b604082019050919050565b600060208201905081810360008301526130bb8161307f565b9050919050565b7f4552433732313a207472616e7366657220746f20746865207a65726f2061646460008201527f7265737300000000000000000000000000000000000000000000000000000000602082015250565b600061311e602483612208565b9150613129826130c2565b604082019050919050565b6000602082019050818103600083015261314d81613111565b9050919050565b600061315f826122b8565b915061316a836122b8565b92508282101561317d5761317c612ed0565b5b828203905092915050565b7f4552433732313a20617070726f766520746f2063616c6c657200000000000000600082015250565b60006131be601983612208565b91506131c982613188565b602082019050919050565b600060208201905081810360008301526131ed816131b1565b9050919050565b7f4552433732313a207472616e7366657220746f206e6f6e20455243373231526560008201527f63656976657220696d706c656d656e7465720000000000000000000000000000602082015250565b6000613250603283612208565b915061325b826131f4565b604082019050919050565b6000602082019050818103600083015261327f81613243565b9050919050565b7f45524337323155524953746f726167653a2055524920736574206f66206e6f6e60008201527f6578697374656e7420746f6b656e000000000000000000000000000000000000602082015250565b60006132e2602e83612208565b91506132ed82613286565b604082019050919050565b60006020820190508181036000830152613311816132d5565b9050919050565b7f4e487b7100000000000000000000000000000000000000000000000000000000600052601260045260246000fd5b6000613352826122b8565b915061335d836122b8565b92508261336d5761336c613318565b5b828204905092915050565b6000613383826122b8565b915061338e836122b8565b92508261339e5761339d613318565b5b828206905092915050565b7f4e487b7100000000000000000000000000000000000000000000000000000000600052603260045260246000fd5b600081519050919050565b600082825260208201905092915050565b60006133ff826133d8565b61340981856133e3565b9350613419818560208601612219565b6134228161224c565b840191505092915050565b6000608082019050613442600083018761234d565b61344f602083018661234d565b61345c60408301856123e3565b818103606083015261346e81846133f4565b905095945050505050565b6000815190506134888161216e565b92915050565b6000602082840312156134a4576134a3612138565b5b60006134b284828501613479565b91505092915050565b7f4552433732313a206d696e7420746f20746865207a65726f2061646472657373600082015250565b60006134f1602083612208565b91506134fc826134bb565b602082019050919050565b60006020820190508181036000830152613520816134e4565b9050919050565b7f4552433732313a20746f6b656e20616c7265616479206d696e74656400000000600082015250565b600061355d601c83612208565b915061356882613527565b602082019050919050565b6000602082019050818103600083015261358c81613550565b905091905056fea2646970667358221220b36d680a7116fdc26dd699a223122f649a10470f6808b5179de9a25a66fb749764736f6c634300080b0033",
  "linkReferences": {},
  "deployedLinkReferences": {}
}