{
  "_format": "hh-sol-artifact-1",
  "contractName": "ERC721NFT",
  "sourceName": "contracts/ERC721NFT.sol",
  "abi": [
    {
      "inputs": [
        {
          "internalType": "string",
          "name": "_tokenName",
          "type": "string"
        },
        {
          "internalType": "string",
          "name": "_tokenSymbol",
          "type": "string"
        },
        {
          "internalType": "uint256",
          "name": "_cost",
          "type": "uint256"
        },
        {
          "internalType": "uint256",
          "name": "_maxSupply",
          "type": "uint256"
        }
      ],
      "stateMutability": "nonpayable",
      "type": "constructor"
    },
    {
      "anonymous": false,
      "inputs": [
        {
          "indexed": true,
          "internalType": "address",
          "name": "owner",
          "type": "address"
        },
        {
          "indexed": true,
          "internalType": "address",
          "name": "approved",
          "type": "address"
        },
        {
          "indexed": true,
          "internalType": "uint256",
          "name": "tokenId",
          "type": "uint256"
        }
      ],
      "name": "Approval",
      "type": "event"
    },
    {
      "anonymous": false,
      "inputs": [
        {
          "indexed": true,
          "internalType": "address",
          "name": "owner",
          "type": "address"
        },
        {
          "indexed": true,
          "internalType": "address",
          "name": "operator",
          "type": "address"
        },
        {
          "indexed": false,
          "internalType": "bool",
          "name": "approved",
          "type": "bool"
        }
      ],
      "name": "ApprovalForAll",
      "type": "event"
    },
    {
      "anonymous": false,
      "inputs": [
        {
          "indexed": true,
          "internalType": "address",
          "name": "previousOwner",
          "type": "address"
        },
        {
          "indexed": true,
          "internalType": "address",
          "name": "newOwner",
          "type": "address"
        }
      ],
      "name": "OwnershipTransferred",
      "type": "event"
    },
    {
      "anonymous": false,
      "inputs": [
        {
          "indexed": false,
          "internalType": "uint256",
          "name": "id",
          "type": "uint256"
        },
        {
          "indexed": false,
          "internalType": "uint256",
          "name": "timestamp",
          "type": "uint256"
        }
      ],
      "name": "TokenMinted",
      "type": "event"
    },
    {
      "anonymous": false,
      "inputs": [
        {
          "indexed": true,
          "internalType": "address",
          "name": "from",
          "type": "address"
        },
        {
          "indexed": true,
          "internalType": "address",
          "name": "to",
          "type": "address"
        },
        {
          "indexed": true,
          "internalType": "uint256",
          "name": "tokenId",
          "type": "uint256"
        }
      ],
      "name": "Transfer",
      "type": "event"
    },
    {
      "inputs": [],
      "name": "_tokenIds",
      "outputs": [
        {
          "internalType": "uint256",
          "name": "_value",
          "type": "uint256"
        }
      ],
      "stateMutability": "view",
      "type": "function"
    },
    {
      "inputs": [
        {
          "internalType": "address",
          "name": "to",
          "type": "address"
        },
        {
          "internalType": "uint256",
          "name": "tokenId",
          "type": "uint256"
        }
      ],
      "name": "approve",
      "outputs": [],
      "stateMutability": "nonpayable",
      "type": "function"
    },
    {
      "inputs": [
        {
          "internalType": "address",
          "name": "owner",
          "type": "address"
        }
      ],
      "name": "balanceOf",
      "outputs": [
        {
          "internalType": "uint256",
          "name": "",
          "type": "uint256"
        }
      ],
      "stateMutability": "view",
      "type": "function"
    },
    {
      "inputs": [],
      "name": "cost",
      "outputs": [
        {
          "internalType": "uint256",
          "name": "",
          "type": "uint256"
        }
      ],
      "stateMutability": "view",
      "type": "function"
    },
    {
      "inputs": [
        {
          "internalType": "uint256",
          "name": "tokenId",
          "type": "uint256"
        }
      ],
      "name": "getApproved",
      "outputs": [
        {
          "internalType": "address",
          "name": "",
          "type": "address"
        }
      ],
      "stateMutability": "view",
      "type": "function"
    },
    {
      "inputs": [
        {
          "internalType": "uint256",
          "name": "",
          "type": "uint256"
        }
      ],
      "name": "idToTokenItem",
      "outputs": [
        {
          "internalType": "uint256",
          "name": "_tokenId",
          "type": "uint256"
        },
        {
          "internalType": "address",
          "name": "_owner",
          "type": "address"
        },
        {
          "internalType": "uint256",
          "name": "_createdAt",
          "type": "uint256"
        }
      ],
      "stateMutability": "view",
      "type": "function"
    },
    {
      "inputs": [
        {
          "internalType": "address",
          "name": "owner",
          "type": "address"
        },
        {
          "internalType": "address",
          "name": "operator",
          "type": "address"
        }
      ],
      "name": "isApprovedForAll",
      "outputs": [
        {
          "internalType": "bool",
          "name": "",
          "type": "bool"
        }
      ],
      "stateMutability": "view",
      "type": "function"
    },
    {
      "inputs": [],
      "name": "maxSupply",
      "outputs": [
        {
          "internalType": "uint256",
          "name": "",
          "type": "uint256"
        }
      ],
      "stateMutability": "view",
      "type": "function"
    },
    {
      "inputs": [
        {
          "internalType": "address",
          "name": "to",
          "type": "address"
        },
        {
          "internalType": "string",
          "name": "_tokenURI",
          "type": "string"
        },
        {
          "internalType": "uint256",
          "name": "createdAt",
          "type": "uint256"
        }
      ],
      "name": "mint",
      "outputs": [],
      "stateMutability": "nonpayable",
      "type": "function"
    },
    {
      "inputs": [],
      "name": "name",
      "outputs": [
        {
          "internalType": "string",
          "name": "",
          "type": "string"
        }
      ],
      "stateMutability": "view",
      "type": "function"
    },
    {
      "inputs": [],
      "name": "owner",
      "outputs": [
        {
          "internalType": "address",
          "name": "",
          "type": "address"
        }
      ],
      "stateMutability": "view",
      "type": "function"
    },
    {
      "inputs": [
        {
          "internalType": "uint256",
          "name": "tokenId",
          "type": "uint256"
        }
      ],
      "name": "ownerOf",
      "outputs": [
        {
          "internalType": "address",
          "name": "",
          "type": "address"
        }
      ],
      "stateMutability": "view",
      "type": "function"
    },
    {
      "inputs": [],
      "name": "renounceOwnership",
      "outputs": [],
      "stateMutability": "nonpayable",
      "type": "function"
    },
    {
      "inputs": [],
      "name": "revealed",
      "outputs": [
        {
          "internalType": "bool",
          "name": "",
          "type": "bool"
        }
      ],
      "stateMutability": "view",
      "type": "function"
    },
    {
      "inputs": [
        {
          "internalType": "address",
          "name": "from",
          "type": "address"
        },
        {
          "internalType": "address",
          "name": "to",
          "type": "address"
        },
        {
          "internalType": "uint256",
          "name": "tokenId",
          "type": "uint256"
        }
      ],
      "name": "safeTransferFrom",
      "outputs": [],
      "stateMutability": "nonpayable",
      "type": "function"
    },
    {
      "inputs": [
        {
          "internalType": "address",
          "name": "from",
          "type": "address"
        },
        {
          "internalType": "address",
          "name": "to",
          "type": "address"
        },
        {
          "internalType": "uint256",
          "name": "tokenId",
          "type": "uint256"
        },
        {
          "internalType": "bytes",
          "name": "_data",
          "type": "bytes"
        }
      ],
      "name": "safeTransferFrom",
      "outputs": [],
      "stateMutability": "nonpayable",
      "type": "function"
    },
    {
      "inputs": [
        {
          "internalType": "address",
          "name": "operator",
          "type": "address"
        },
        {
          "internalType": "bool",
          "name": "approved",
          "type": "bool"
        }
      ],
      "name": "setApprovalForAll",
      "outputs": [],
      "stateMutability": "nonpayable",
      "type": "function"
    },
    {
      "inputs": [
        {
          "internalType": "uint256",
          "name": "_cost",
          "type": "uint256"
        }
      ],
      "name": "setCost",
      "outputs": [],
      "stateMutability": "nonpayable",
      "type": "function"
    },
    {
      "inputs": [
        {
          "internalType": "bytes4",
          "name": "interfaceId",
          "type": "bytes4"
        }
      ],
      "name": "supportsInterface",
      "outputs": [
        {
          "internalType": "bool",
          "name": "",
          "type": "bool"
        }
      ],
      "stateMutability": "view",
      "type": "function"
    },
    {
      "inputs": [],
      "name": "symbol",
      "outputs": [
        {
          "internalType": "string",
          "name": "",
          "type": "string"
        }
      ],
      "stateMutability": "view",
      "type": "function"
    },
    {
      "inputs": [
        {
          "internalType": "uint256",
          "name": "tokenId",
          "type": "uint256"
        }
      ],
      "name": "tokenURI",
      "outputs": [
        {
          "internalType": "string",
          "name": "",
          "type": "string"
        }
      ],
      "stateMutability": "view",
      "type": "function"
    },
    {
      "inputs": [
        {
          "internalType": "address",
          "name": "from",
          "type": "address"
        },
        {
          "internalType": "address",
          "name": "to",
          "type": "address"
        },
        {
          "internalType": "uint256",
          "name": "tokenId",
          "type": "uint256"
        }
      ],
      "name": "transferFrom",
      "outputs": [],
      "stateMutability": "nonpayable",
      "type": "function"
    },
    {
      "inputs": [
        {
          "internalType": "address",
          "name": "to",
          "type": "address"
        },
        {
          "internalType": "uint256",
          "name": "tokenId",
          "type": "uint256"
        }
      ],
      "name": "transferNFT",
      "outputs": [],
      "stateMutability": "nonpayable",
      "type": "function"
    },
    {
      "inputs": [
        {
          "internalType": "address",
          "name": "_newOwner",
          "type": "address"
        }
      ],
      "name": "transferOwnership",
      "outputs": [],
      "stateMutability": "nonpayable",
      "type": "function"
    },
    {
      "inputs": [],
      "name": "withdraw",
      "outputs": [],
      "stateMutability": "nonpayable",
      "type": "function"
    }
  ],
  "bytecode": "0x60806040526000600c60006101000a81548160ff0219169083151502179055503480156200002c57600080fd5b5060405162003e4038038062003e408339818101604052810190620000529190620004eb565b838381600090805190602001906200006c92919062000263565b5080600190805190602001906200008592919062000263565b505050620000a86200009c620000d260201b60201c565b620000da60201b60201c565b6001600881905550620000c182620001a060201b60201c565b80600b819055505050505062000683565b600033905090565b6000600760009054906101000a900473ffffffffffffffffffffffffffffffffffffffff16905081600760006101000a81548173ffffffffffffffffffffffffffffffffffffffff021916908373ffffffffffffffffffffffffffffffffffffffff1602179055508173ffffffffffffffffffffffffffffffffffffffff168173ffffffffffffffffffffffffffffffffffffffff167f8be0079c531659141344cd1fd0a4f28419497f9722a3daafe3b4186f6b6457e060405160405180910390a35050565b620001b0620000d260201b60201c565b73ffffffffffffffffffffffffffffffffffffffff16620001d66200023960201b60201c565b73ffffffffffffffffffffffffffffffffffffffff16146200022f576040517f08c379a00000000000000000000000000000000000000000000000000000000081526004016200022690620005fc565b60405180910390fd5b80600a8190555050565b6000600760009054906101000a900473ffffffffffffffffffffffffffffffffffffffff16905090565b82805462000271906200064d565b90600052602060002090601f016020900481019282620002955760008555620002e1565b82601f10620002b057805160ff1916838001178555620002e1565b82800160010185558215620002e1579182015b82811115620002e0578251825591602001919060010190620002c3565b5b509050620002f09190620002f4565b5090565b5b808211156200030f576000816000905550600101620002f5565b5090565b6000604051905090565b600080fd5b600080fd5b600080fd5b600080fd5b6000601f19601f8301169050919050565b7f4e487b7100000000000000000000000000000000000000000000000000000000600052604160045260246000fd5b6200037c8262000331565b810181811067ffffffffffffffff821117156200039e576200039d62000342565b5b80604052505050565b6000620003b362000313565b9050620003c1828262000371565b919050565b600067ffffffffffffffff821115620003e457620003e362000342565b5b620003ef8262000331565b9050602081019050919050565b60005b838110156200041c578082015181840152602081019050620003ff565b838111156200042c576000848401525b50505050565b6000620004496200044384620003c6565b620003a7565b9050828152602081018484840111156200046857620004676200032c565b5b62000475848285620003fc565b509392505050565b600082601f83011262000495576200049462000327565b5b8151620004a784826020860162000432565b91505092915050565b6000819050919050565b620004c581620004b0565b8114620004d157600080fd5b50565b600081519050620004e581620004ba565b92915050565b600080600080608085870312156200050857620005076200031d565b5b600085015167ffffffffffffffff81111562000529576200052862000322565b5b62000537878288016200047d565b945050602085015167ffffffffffffffff8111156200055b576200055a62000322565b5b62000569878288016200047d565b93505060406200057c87828801620004d4565b92505060606200058f87828801620004d4565b91505092959194509250565b600082825260208201905092915050565b7f4f776e61626c653a2063616c6c6572206973206e6f7420746865206f776e6572600082015250565b6000620005e46020836200059b565b9150620005f182620005ac565b602082019050919050565b600060208201905081810360008301526200061781620005d5565b9050919050565b7f4e487b7100000000000000000000000000000000000000000000000000000000600052602260045260246000fd5b600060028204905060018216806200066657607f821691505b602082108114156200067d576200067c6200061e565b5b50919050565b6137ad80620006936000396000f3fe608060405234801561001057600080fd5b50600436106101735760003560e01c806370a08231116100de578063aa46a40011610097578063c87b56dd11610071578063c87b56dd14610412578063d5abeb0114610442578063e985e9c514610460578063f2fde38b1461049057610173565b8063aa46a400146103bc578063b88d4fde146103da578063ba7aef43146103f657610173565b806370a082311461030e578063715018a61461033e5780638da5cb5b1461034857806394ab67fe1461036657806395d89b4114610382578063a22cb465146103a057610173565b8063386750a211610130578063386750a21461024c5780633ccfd60b1461027e57806342842e0e1461028857806344a0d68a146102a457806351830227146102c05780636352211e146102de57610173565b806301ffc9a71461017857806306fdde03146101a8578063081812fc146101c6578063095ea7b3146101f657806313faede61461021257806323b872dd14610230575b600080fd5b610192600480360381019061018d91906122ec565b6104ac565b60405161019f9190612334565b60405180910390f35b6101b061058e565b6040516101bd91906123e8565b60405180910390f35b6101e060048036038101906101db9190612440565b610620565b6040516101ed91906124ae565b60405180910390f35b610210600480360381019061020b91906124f5565b6106a5565b005b61021a6107bd565b6040516102279190612544565b60405180910390f35b61024a6004803603810190610245919061255f565b6107c3565b005b61026660048036038101906102619190612440565b610823565b604051610275939291906125b2565b60405180910390f35b61028661086d565b005b6102a2600480360381019061029d919061255f565b6109bf565b005b6102be60048036038101906102b99190612440565b6109df565b005b6102c8610a65565b6040516102d59190612334565b60405180910390f35b6102f860048036038101906102f39190612440565b610a78565b60405161030591906124ae565b60405180910390f35b610328600480360381019061032391906125e9565b610b2a565b6040516103359190612544565b60405180910390f35b610346610be2565b005b610350610c6a565b60405161035d91906124ae565b60405180910390f35b610380600480360381019061037b91906124f5565b610c94565b005b61038a610d47565b60405161039791906123e8565b60405180910390f35b6103ba60048036038101906103b59190612642565b610dd9565b005b6103c4610def565b6040516103d19190612544565b60405180910390f35b6103f460048036038101906103ef91906127b7565b610dfb565b005b610410600480360381019061040b91906128db565b610e5d565b005b61042c60048036038101906104279190612440565b610fe5565b60405161043991906123e8565b60405180910390f35b61044a611137565b6040516104579190612544565b60405180910390f35b61047a6004803603810190610475919061294a565b61113d565b6040516104879190612334565b60405180910390f35b6104aa60048036038101906104a591906125e9565b6111d1565b005b60007f80ac58cd000000000000000000000000000000000000000000000000000000007bffffffffffffffffffffffffffffffffffffffffffffffffffffffff1916827bffffffffffffffffffffffffffffffffffffffffffffffffffffffff1916148061057757507f5b5e139f000000000000000000000000000000000000000000000000000000007bffffffffffffffffffffffffffffffffffffffffffffffffffffffff1916827bffffffffffffffffffffffffffffffffffffffffffffffffffffffff1916145b8061058757506105868261137d565b5b9050919050565b60606000805461059d906129b9565b80601f01602080910402602001604051908101604052809291908181526020018280546105c9906129b9565b80156106165780601f106105eb57610100808354040283529160200191610616565b820191906000526020600020905b8154815290600101906020018083116105f957829003601f168201915b5050505050905090565b600061062b826113e7565b61066a576040517f08c379a000000000000000000000000000000000000000000000000000000000815260040161066190612a5d565b60405180910390fd5b6004600083815260200190815260200160002060009054906101000a900473ffffffffffffffffffffffffffffffffffffffff169050919050565b60006106b082610a78565b90508073ffffffffffffffffffffffffffffffffffffffff168373ffffffffffffffffffffffffffffffffffffffff161415610721576040517f08c379a000000000000000000000000000000000000000000000000000000000815260040161071890612aef565b60405180910390fd5b8073ffffffffffffffffffffffffffffffffffffffff16610740611453565b73ffffffffffffffffffffffffffffffffffffffff16148061076f575061076e81610769611453565b61113d565b5b6107ae576040517f08c379a00000000000000000000000000000000000000000000000000000000081526004016107a590612b81565b60405180910390fd5b6107b8838361145b565b505050565b600a5481565b6107d46107ce611453565b82611514565b610813576040517f08c379a000000000000000000000000000000000000000000000000000000000815260040161080a90612c13565b60405180910390fd5b61081e8383836115f2565b505050565b600d6020528060005260406000206000915090508060000154908060010160009054906101000a900473ffffffffffffffffffffffffffffffffffffffff16908060020154905083565b610875611453565b73ffffffffffffffffffffffffffffffffffffffff16610893610c6a565b73ffffffffffffffffffffffffffffffffffffffff16146108e9576040517f08c379a00000000000000000000000000000000000000000000000000000000081526004016108e090612c7f565b60405180910390fd5b6002600854141561092f576040517f08c379a000000000000000000000000000000000000000000000000000000000815260040161092690612ceb565b60405180910390fd5b60026008819055506000610941610c6a565b73ffffffffffffffffffffffffffffffffffffffff164760405161096490612d3c565b60006040518083038185875af1925050503d80600081146109a1576040519150601f19603f3d011682016040523d82523d6000602084013e6109a6565b606091505b50509050806109b457600080fd5b506001600881905550565b6109da83838360405180602001604052806000815250610dfb565b505050565b6109e7611453565b73ffffffffffffffffffffffffffffffffffffffff16610a05610c6a565b73ffffffffffffffffffffffffffffffffffffffff1614610a5b576040517f08c379a0000000000000000000000000000000000000000000000000000000008152600401610a5290612c7f565b60405180910390fd5b80600a8190555050565b600c60009054906101000a900460ff1681565b6000806002600084815260200190815260200160002060009054906101000a900473ffffffffffffffffffffffffffffffffffffffff169050600073ffffffffffffffffffffffffffffffffffffffff168173ffffffffffffffffffffffffffffffffffffffff161415610b21576040517f08c379a0000000000000000000000000000000000000000000000000000000008152600401610b1890612dc3565b60405180910390fd5b80915050919050565b60008073ffffffffffffffffffffffffffffffffffffffff168273ffffffffffffffffffffffffffffffffffffffff161415610b9b576040517f08c379a0000000000000000000000000000000000000000000000000000000008152600401610b9290612e55565b60405180910390fd5b600360008373ffffffffffffffffffffffffffffffffffffffff1673ffffffffffffffffffffffffffffffffffffffff168152602001908152602001600020549050919050565b610bea611453565b73ffffffffffffffffffffffffffffffffffffffff16610c08610c6a565b73ffffffffffffffffffffffffffffffffffffffff1614610c5e576040517f08c379a0000000000000000000000000000000000000000000000000000000008152600401610c5590612c7f565b60405180910390fd5b610c686000611859565b565b6000600760009054906101000a900473ffffffffffffffffffffffffffffffffffffffff16905090565b3373ffffffffffffffffffffffffffffffffffffffff16600d600083815260200190815260200160002060010160009054906101000a900473ffffffffffffffffffffffffffffffffffffffff1673ffffffffffffffffffffffffffffffffffffffff1614610d38576040517f08c379a0000000000000000000000000000000000000000000000000000000008152600401610d2f90612ee7565b60405180910390fd5b610d433383836115f2565b5050565b606060018054610d56906129b9565b80601f0160208091040260200160405190810160405280929190818152602001828054610d82906129b9565b8015610dcf5780601f10610da457610100808354040283529160200191610dcf565b820191906000526020600020905b815481529060010190602001808311610db257829003601f168201915b5050505050905090565b610deb610de4611453565b838361191f565b5050565b60098060000154905081565b610e0c610e06611453565b83611514565b610e4b576040517f08c379a0000000000000000000000000000000000000000000000000000000008152600401610e4290612c13565b60405180910390fd5b610e5784848484611a8c565b50505050565b610e65611453565b73ffffffffffffffffffffffffffffffffffffffff16610e83610c6a565b73ffffffffffffffffffffffffffffffffffffffff1614610ed9576040517f08c379a0000000000000000000000000000000000000000000000000000000008152600401610ed090612c7f565b60405180910390fd5b610ee36009611ae8565b6000610eef6009611afe565b905080600d60008381526020019081526020016000206000018190555083600d600083815260200190815260200160002060010160006101000a81548173ffffffffffffffffffffffffffffffffffffffff021916908373ffffffffffffffffffffffffffffffffffffffff16021790555081600d600083815260200190815260200160002060020181905550610f868482611b0c565b610f908184611b2a565b7f5f7666687319b40936f33c188908d86aea154abd3f4127b4fa0a3f04f303c7da81600d600084815260200190815260200160002060020154604051610fd7929190612f07565b60405180910390a150505050565b6060610ff0826113e7565b61102f576040517f08c379a000000000000000000000000000000000000000000000000000000000815260040161102690612fa2565b60405180910390fd5b600060066000848152602001908152602001600020805461104f906129b9565b80601f016020809104026020016040519081016040528092919081815260200182805461107b906129b9565b80156110c85780601f1061109d576101008083540402835291602001916110c8565b820191906000526020600020905b8154815290600101906020018083116110ab57829003601f168201915b5050505050905060006110d9611b9e565b90506000815114156110ef578192505050611132565b60008251111561112457808260405160200161110c929190612ffe565b60405160208183030381529060405292505050611132565b61112d84611bdb565b925050505b919050565b600b5481565b6000600560008473ffffffffffffffffffffffffffffffffffffffff1673ffffffffffffffffffffffffffffffffffffffff16815260200190815260200160002060008373ffffffffffffffffffffffffffffffffffffffff1673ffffffffffffffffffffffffffffffffffffffff16815260200190815260200160002060009054906101000a900460ff16905092915050565b6111d9611453565b73ffffffffffffffffffffffffffffffffffffffff166111f7610c6a565b73ffffffffffffffffffffffffffffffffffffffff161461124d576040517f08c379a000000000000000000000000000000000000000000000000000000000815260040161124490612c7f565b60405180910390fd5b60006112596009611afe565b905060005b81811015611378573373ffffffffffffffffffffffffffffffffffffffff16600d600060018461128e9190613051565b815260200190815260200160002060010160009054906101000a900473ffffffffffffffffffffffffffffffffffffffff1673ffffffffffffffffffffffffffffffffffffffff161415611365576000600d60006001846112ef9190613051565b815260200190815260200160002060000154905083600d600083815260200190815260200160002060010160006101000a81548173ffffffffffffffffffffffffffffffffffffffff021916908373ffffffffffffffffffffffffffffffffffffffff1602179055506113633385836115f2565b505b8080611370906130a7565b91505061125e565b505050565b60007f01ffc9a7000000000000000000000000000000000000000000000000000000007bffffffffffffffffffffffffffffffffffffffffffffffffffffffff1916827bffffffffffffffffffffffffffffffffffffffffffffffffffffffff1916149050919050565b60008073ffffffffffffffffffffffffffffffffffffffff166002600084815260200190815260200160002060009054906101000a900473ffffffffffffffffffffffffffffffffffffffff1673ffffffffffffffffffffffffffffffffffffffff1614159050919050565b600033905090565b816004600083815260200190815260200160002060006101000a81548173ffffffffffffffffffffffffffffffffffffffff021916908373ffffffffffffffffffffffffffffffffffffffff160217905550808273ffffffffffffffffffffffffffffffffffffffff166114ce83610a78565b73ffffffffffffffffffffffffffffffffffffffff167f8c5be1e5ebec7d5bd14f71427d1e84f3dd0314c0f7b2291e5b200ac8c7c3b92560405160405180910390a45050565b600061151f826113e7565b61155e576040517f08c379a000000000000000000000000000000000000000000000000000000000815260040161155590613162565b60405180910390fd5b600061156983610a78565b90508073ffffffffffffffffffffffffffffffffffffffff168473ffffffffffffffffffffffffffffffffffffffff1614806115d857508373ffffffffffffffffffffffffffffffffffffffff166115c084610620565b73ffffffffffffffffffffffffffffffffffffffff16145b806115e957506115e8818561113d565b5b91505092915050565b8273ffffffffffffffffffffffffffffffffffffffff1661161282610a78565b73ffffffffffffffffffffffffffffffffffffffff1614611668576040517f08c379a000000000000000000000000000000000000000000000000000000000815260040161165f906131f4565b60405180910390fd5b600073ffffffffffffffffffffffffffffffffffffffff168273ffffffffffffffffffffffffffffffffffffffff1614156116d8576040517f08c379a00000000000000000000000000000000000000000000000000000000081526004016116cf90613286565b60405180910390fd5b6116e3838383611c82565b6116ee60008261145b565b6001600360008573ffffffffffffffffffffffffffffffffffffffff1673ffffffffffffffffffffffffffffffffffffffff168152602001908152602001600020600082825461173e91906132a6565b925050819055506001600360008473ffffffffffffffffffffffffffffffffffffffff1673ffffffffffffffffffffffffffffffffffffffff16815260200190815260200160002060008282546117959190613051565b92505081905550816002600083815260200190815260200160002060006101000a81548173ffffffffffffffffffffffffffffffffffffffff021916908373ffffffffffffffffffffffffffffffffffffffff160217905550808273ffffffffffffffffffffffffffffffffffffffff168473ffffffffffffffffffffffffffffffffffffffff167fddf252ad1be2c89b69c2b068fc378daa952ba7f163c4a11628f55a4df523b3ef60405160405180910390a4611854838383611c92565b505050565b6000600760009054906101000a900473ffffffffffffffffffffffffffffffffffffffff16905081600760006101000a81548173ffffffffffffffffffffffffffffffffffffffff021916908373ffffffffffffffffffffffffffffffffffffffff1602179055508173ffffffffffffffffffffffffffffffffffffffff168173ffffffffffffffffffffffffffffffffffffffff167f8be0079c531659141344cd1fd0a4f28419497f9722a3daafe3b4186f6b6457e060405160405180910390a35050565b8173ffffffffffffffffffffffffffffffffffffffff168373ffffffffffffffffffffffffffffffffffffffff16141561198e576040517f08c379a000000000000000000000000000000000000000000000000000000000815260040161198590613326565b60405180910390fd5b80600560008573ffffffffffffffffffffffffffffffffffffffff1673ffffffffffffffffffffffffffffffffffffffff16815260200190815260200160002060008473ffffffffffffffffffffffffffffffffffffffff1673ffffffffffffffffffffffffffffffffffffffff16815260200190815260200160002060006101000a81548160ff0219169083151502179055508173ffffffffffffffffffffffffffffffffffffffff168373ffffffffffffffffffffffffffffffffffffffff167f17307eab39ab6107e8899845ad3d59bd9653f200f220920489ca2b5937696c3183604051611a7f9190612334565b60405180910390a3505050565b611a978484846115f2565b611aa384848484611c97565b611ae2576040517f08c379a0000000000000000000000000000000000000000000000000000000008152600401611ad9906133b8565b60405180910390fd5b50505050565b6001816000016000828254019250508190555050565b600081600001549050919050565b611b26828260405180602001604052806000815250611e1f565b5050565b611b33826113e7565b611b72576040517f08c379a0000000000000000000000000000000000000000000000000000000008152600401611b699061344a565b60405180910390fd5b80600660008481526020019081526020016000209080519060200190611b999291906121dd565b505050565b60606040518060400160405280601c81526020017f68747470733a2f2f697066732e696e667572612e696f2f697066732f00000000815250905090565b6060611be6826113e7565b611c25576040517f08c379a0000000000000000000000000000000000000000000000000000000008152600401611c1c906134dc565b60405180910390fd5b6000611c2f611b9e565b90506000815111611c4f5760405180602001604052806000815250611c7a565b80611c5984611e7a565b604051602001611c6a929190612ffe565b6040516020818303038152906040525b915050919050565b611c8d838383611fdb565b505050565b505050565b6000611cb88473ffffffffffffffffffffffffffffffffffffffff16611fe0565b15611e12578373ffffffffffffffffffffffffffffffffffffffff1663150b7a02611ce1611453565b8786866040518563ffffffff1660e01b8152600401611d039493929190613551565b6020604051808303816000875af1925050508015611d3f57506040513d601f19601f82011682018060405250810190611d3c91906135b2565b60015b611dc2573d8060008114611d6f576040519150601f19603f3d011682016040523d82523d6000602084013e611d74565b606091505b50600081511415611dba576040517f08c379a0000000000000000000000000000000000000000000000000000000008152600401611db1906133b8565b60405180910390fd5b805181602001fd5b63150b7a0260e01b7bffffffffffffffffffffffffffffffffffffffffffffffffffffffff1916817bffffffffffffffffffffffffffffffffffffffffffffffffffffffff191614915050611e17565b600190505b949350505050565b611e298383612003565b611e366000848484611c97565b611e75576040517f08c379a0000000000000000000000000000000000000000000000000000000008152600401611e6c906133b8565b60405180910390fd5b505050565b60606000821415611ec2576040518060400160405280600181526020017f30000000000000000000000000000000000000000000000000000000000000008152509050611fd6565b600082905060005b60008214611ef4578080611edd906130a7565b915050600a82611eed919061360e565b9150611eca565b60008167ffffffffffffffff811115611f1057611f0f61268c565b5b6040519080825280601f01601f191660200182016040528015611f425781602001600182028036833780820191505090505b5090505b60008514611fcf57600182611f5b91906132a6565b9150600a85611f6a919061363f565b6030611f769190613051565b60f81b818381518110611f8c57611f8b613670565b5b60200101907effffffffffffffffffffffffffffffffffffffffffffffffffffffffffffff1916908160001a905350600a85611fc8919061360e565b9450611f46565b8093505050505b919050565b505050565b6000808273ffffffffffffffffffffffffffffffffffffffff163b119050919050565b600073ffffffffffffffffffffffffffffffffffffffff168273ffffffffffffffffffffffffffffffffffffffff161415612073576040517f08c379a000000000000000000000000000000000000000000000000000000000815260040161206a906136eb565b60405180910390fd5b61207c816113e7565b156120bc576040517f08c379a00000000000000000000000000000000000000000000000000000000081526004016120b390613757565b60405180910390fd5b6120c860008383611c82565b6001600360008473ffffffffffffffffffffffffffffffffffffffff1673ffffffffffffffffffffffffffffffffffffffff16815260200190815260200160002060008282546121189190613051565b92505081905550816002600083815260200190815260200160002060006101000a81548173ffffffffffffffffffffffffffffffffffffffff021916908373ffffffffffffffffffffffffffffffffffffffff160217905550808273ffffffffffffffffffffffffffffffffffffffff16600073ffffffffffffffffffffffffffffffffffffffff167fddf252ad1be2c89b69c2b068fc378daa952ba7f163c4a11628f55a4df523b3ef60405160405180910390a46121d960008383611c92565b5050565b8280546121e9906129b9565b90600052602060002090601f01602090048101928261220b5760008555612252565b82601f1061222457805160ff1916838001178555612252565b82800160010185558215612252579182015b82811115612251578251825591602001919060010190612236565b5b50905061225f9190612263565b5090565b5b8082111561227c576000816000905550600101612264565b5090565b6000604051905090565b600080fd5b600080fd5b60007fffffffff0000000000000000000000000000000000000000000000000000000082169050919050565b6122c981612294565b81146122d457600080fd5b50565b6000813590506122e6816122c0565b92915050565b6000602082840312156123025761230161228a565b5b6000612310848285016122d7565b91505092915050565b60008115159050919050565b61232e81612319565b82525050565b60006020820190506123496000830184612325565b92915050565b600081519050919050565b600082825260208201905092915050565b60005b8381101561238957808201518184015260208101905061236e565b83811115612398576000848401525b50505050565b6000601f19601f8301169050919050565b60006123ba8261234f565b6123c4818561235a565b93506123d481856020860161236b565b6123dd8161239e565b840191505092915050565b6000602082019050818103600083015261240281846123af565b905092915050565b6000819050919050565b61241d8161240a565b811461242857600080fd5b50565b60008135905061243a81612414565b92915050565b6000602082840312156124565761245561228a565b5b60006124648482850161242b565b91505092915050565b600073ffffffffffffffffffffffffffffffffffffffff82169050919050565b60006124988261246d565b9050919050565b6124a88161248d565b82525050565b60006020820190506124c3600083018461249f565b92915050565b6124d28161248d565b81146124dd57600080fd5b50565b6000813590506124ef816124c9565b92915050565b6000806040838503121561250c5761250b61228a565b5b600061251a858286016124e0565b925050602061252b8582860161242b565b9150509250929050565b61253e8161240a565b82525050565b60006020820190506125596000830184612535565b92915050565b6000806000606084860312156125785761257761228a565b5b6000612586868287016124e0565b9350506020612597868287016124e0565b92505060406125a88682870161242b565b9150509250925092565b60006060820190506125c76000830186612535565b6125d4602083018561249f565b6125e16040830184612535565b949350505050565b6000602082840312156125ff576125fe61228a565b5b600061260d848285016124e0565b91505092915050565b61261f81612319565b811461262a57600080fd5b50565b60008135905061263c81612616565b92915050565b600080604083850312156126595761265861228a565b5b6000612667858286016124e0565b92505060206126788582860161262d565b9150509250929050565b600080fd5b600080fd5b7f4e487b7100000000000000000000000000000000000000000000000000000000600052604160045260246000fd5b6126c48261239e565b810181811067ffffffffffffffff821117156126e3576126e261268c565b5b80604052505050565b60006126f6612280565b905061270282826126bb565b919050565b600067ffffffffffffffff8211156127225761272161268c565b5b61272b8261239e565b9050602081019050919050565b82818337600083830152505050565b600061275a61275584612707565b6126ec565b90508281526020810184848401111561277657612775612687565b5b612781848285612738565b509392505050565b600082601f83011261279e5761279d612682565b5b81356127ae848260208601612747565b91505092915050565b600080600080608085870312156127d1576127d061228a565b5b60006127df878288016124e0565b94505060206127f0878288016124e0565b93505060406128018782880161242b565b925050606085013567ffffffffffffffff8111156128225761282161228f565b5b61282e87828801612789565b91505092959194509250565b600067ffffffffffffffff8211156128555761285461268c565b5b61285e8261239e565b9050602081019050919050565b600061287e6128798461283a565b6126ec565b90508281526020810184848401111561289a57612899612687565b5b6128a5848285612738565b509392505050565b600082601f8301126128c2576128c1612682565b5b81356128d284826020860161286b565b91505092915050565b6000806000606084860312156128f4576128f361228a565b5b6000612902868287016124e0565b935050602084013567ffffffffffffffff8111156129235761292261228f565b5b61292f868287016128ad565b92505060406129408682870161242b565b9150509250925092565b600080604083850312156129615761296061228a565b5b600061296f858286016124e0565b9250506020612980858286016124e0565b9150509250929050565b7f4e487b7100000000000000000000000000000000000000000000000000000000600052602260045260246000fd5b600060028204905060018216806129d157607f821691505b602082108114156129e5576129e461298a565b5b50919050565b7f4552433732313a20617070726f76656420717565727920666f72206e6f6e657860008201527f697374656e7420746f6b656e0000000000000000000000000000000000000000602082015250565b6000612a47602c8361235a565b9150612a52826129eb565b604082019050919050565b60006020820190508181036000830152612a7681612a3a565b9050919050565b7f4552433732313a20617070726f76616c20746f2063757272656e74206f776e6560008201527f7200000000000000000000000000000000000000000000000000000000000000602082015250565b6000612ad960218361235a565b9150612ae482612a7d565b604082019050919050565b60006020820190508181036000830152612b0881612acc565b9050919050565b7f4552433732313a20617070726f76652063616c6c6572206973206e6f74206f7760008201527f6e6572206e6f7220617070726f76656420666f7220616c6c0000000000000000602082015250565b6000612b6b60388361235a565b9150612b7682612b0f565b604082019050919050565b60006020820190508181036000830152612b9a81612b5e565b9050919050565b7f4552433732313a207472616e736665722063616c6c6572206973206e6f74206f60008201527f776e6572206e6f7220617070726f766564000000000000000000000000000000602082015250565b6000612bfd60318361235a565b9150612c0882612ba1565b604082019050919050565b60006020820190508181036000830152612c2c81612bf0565b9050919050565b7f4f776e61626c653a2063616c6c6572206973206e6f7420746865206f776e6572600082015250565b6000612c6960208361235a565b9150612c7482612c33565b602082019050919050565b60006020820190508181036000830152612c9881612c5c565b9050919050565b7f5265656e7472616e637947756172643a207265656e7472616e742063616c6c00600082015250565b6000612cd5601f8361235a565b9150612ce082612c9f565b602082019050919050565b60006020820190508181036000830152612d0481612cc8565b9050919050565b600081905092915050565b50565b6000612d26600083612d0b565b9150612d3182612d16565b600082019050919050565b6000612d4782612d19565b9150819050919050565b7f4552433732313a206f776e657220717565727920666f72206e6f6e657869737460008201527f656e7420746f6b656e0000000000000000000000000000000000000000000000602082015250565b6000612dad60298361235a565b9150612db882612d51565b604082019050919050565b60006020820190508181036000830152612ddc81612da0565b9050919050565b7f4552433732313a2062616c616e636520717565727920666f7220746865207a6560008201527f726f206164647265737300000000000000000000000000000000000000000000602082015250565b6000612e3f602a8361235a565b9150612e4a82612de3565b604082019050919050565b60006020820190508181036000830152612e6e81612e32565b9050919050565b7f596f75206861766520746f206f776e2074686520746f6b656e20746f2074726160008201527f6e73666572206974000000000000000000000000000000000000000000000000602082015250565b6000612ed160288361235a565b9150612edc82612e75565b604082019050919050565b60006020820190508181036000830152612f0081612ec4565b9050919050565b6000604082019050612f1c6000830185612535565b612f296020830184612535565b9392505050565b7f45524337323155524953746f726167653a2055524920717565727920666f722060008201527f6e6f6e6578697374656e7420746f6b656e000000000000000000000000000000602082015250565b6000612f8c60318361235a565b9150612f9782612f30565b604082019050919050565b60006020820190508181036000830152612fbb81612f7f565b9050919050565b600081905092915050565b6000612fd88261234f565b612fe28185612fc2565b9350612ff281856020860161236b565b80840191505092915050565b600061300a8285612fcd565b91506130168284612fcd565b91508190509392505050565b7f4e487b7100000000000000000000000000000000000000000000000000000000600052601160045260246000fd5b600061305c8261240a565b91506130678361240a565b9250827fffffffffffffffffffffffffffffffffffffffffffffffffffffffffffffffff0382111561309c5761309b613022565b5b828201905092915050565b60006130b28261240a565b91507fffffffffffffffffffffffffffffffffffffffffffffffffffffffffffffffff8214156130e5576130e4613022565b5b600182019050919050565b7f4552433732313a206f70657261746f7220717565727920666f72206e6f6e657860008201527f697374656e7420746f6b656e0000000000000000000000000000000000000000602082015250565b600061314c602c8361235a565b9150613157826130f0565b604082019050919050565b6000602082019050818103600083015261317b8161313f565b9050919050565b7f4552433732313a207472616e736665722066726f6d20696e636f72726563742060008201527f6f776e6572000000000000000000000000000000000000000000000000000000602082015250565b60006131de60258361235a565b91506131e982613182565b604082019050919050565b6000602082019050818103600083015261320d816131d1565b9050919050565b7f4552433732313a207472616e7366657220746f20746865207a65726f2061646460008201527f7265737300000000000000000000000000000000000000000000000000000000602082015250565b600061327060248361235a565b915061327b82613214565b604082019050919050565b6000602082019050818103600083015261329f81613263565b9050919050565b60006132b18261240a565b91506132bc8361240a565b9250828210156132cf576132ce613022565b5b828203905092915050565b7f4552433732313a20617070726f766520746f2063616c6c657200000000000000600082015250565b600061331060198361235a565b915061331b826132da565b602082019050919050565b6000602082019050818103600083015261333f81613303565b9050919050565b7f4552433732313a207472616e7366657220746f206e6f6e20455243373231526560008201527f63656976657220696d706c656d656e7465720000000000000000000000000000602082015250565b60006133a260328361235a565b91506133ad82613346565b604082019050919050565b600060208201905081810360008301526133d181613395565b9050919050565b7f45524337323155524953746f726167653a2055524920736574206f66206e6f6e60008201527f6578697374656e7420746f6b656e000000000000000000000000000000000000602082015250565b6000613434602e8361235a565b915061343f826133d8565b604082019050919050565b6000602082019050818103600083015261346381613427565b9050919050565b7f4552433732314d657461646174613a2055524920717565727920666f72206e6f60008201527f6e6578697374656e7420746f6b656e0000000000000000000000000000000000602082015250565b60006134c6602f8361235a565b91506134d18261346a565b604082019050919050565b600060208201905081810360008301526134f5816134b9565b9050919050565b600081519050919050565b600082825260208201905092915050565b6000613523826134fc565b61352d8185613507565b935061353d81856020860161236b565b6135468161239e565b840191505092915050565b6000608082019050613566600083018761249f565b613573602083018661249f565b6135806040830185612535565b81810360608301526135928184613518565b905095945050505050565b6000815190506135ac816122c0565b92915050565b6000602082840312156135c8576135c761228a565b5b60006135d68482850161359d565b91505092915050565b7f4e487b7100000000000000000000000000000000000000000000000000000000600052601260045260246000fd5b60006136198261240a565b91506136248361240a565b925082613634576136336135df565b5b828204905092915050565b600061364a8261240a565b91506136558361240a565b925082613665576136646135df565b5b828206905092915050565b7f4e487b7100000000000000000000000000000000000000000000000000000000600052603260045260246000fd5b7f4552433732313a206d696e7420746f20746865207a65726f2061646472657373600082015250565b60006136d560208361235a565b91506136e08261369f565b602082019050919050565b60006020820190508181036000830152613704816136c8565b9050919050565b7f4552433732313a20746f6b656e20616c7265616479206d696e74656400000000600082015250565b6000613741601c8361235a565b915061374c8261370b565b602082019050919050565b6000602082019050818103600083015261377081613734565b905091905056fea2646970667358221220dfd42f81a0926786cb94bb8627faec511e2ba042f4639d58b00e0dbbe4a45c0a64736f6c634300080b0033",
  "linkReferences": {},
  "deployedLinkReferences": {}
}