{
  "_format": "hh-sol-artifact-1",
  "contractName": "ERC721NFT",
  "sourceName": "contracts/ERC721NFT.sol",
  "abi": [
    {
      "inputs": [
        {
          "internalType": "string",
          "name": "_tokenName",
          "type": "string"
        },
        {
          "internalType": "string",
          "name": "_tokenSymbol",
          "type": "string"
        }
      ],
      "stateMutability": "nonpayable",
      "type": "constructor"
    },
    {
      "anonymous": false,
      "inputs": [
        {
          "indexed": true,
          "internalType": "address",
          "name": "owner",
          "type": "address"
        },
        {
          "indexed": true,
          "internalType": "address",
          "name": "approved",
          "type": "address"
        },
        {
          "indexed": true,
          "internalType": "uint256",
          "name": "tokenId",
          "type": "uint256"
        }
      ],
      "name": "Approval",
      "type": "event"
    },
    {
      "anonymous": false,
      "inputs": [
        {
          "indexed": true,
          "internalType": "address",
          "name": "owner",
          "type": "address"
        },
        {
          "indexed": true,
          "internalType": "address",
          "name": "operator",
          "type": "address"
        },
        {
          "indexed": false,
          "internalType": "bool",
          "name": "approved",
          "type": "bool"
        }
      ],
      "name": "ApprovalForAll",
      "type": "event"
    },
    {
      "anonymous": false,
      "inputs": [
        {
          "indexed": false,
          "internalType": "uint256",
          "name": "id",
          "type": "uint256"
        },
        {
          "indexed": false,
          "internalType": "uint256",
          "name": "timestamp",
          "type": "uint256"
        }
      ],
      "name": "TokenMinted",
      "type": "event"
    },
    {
      "anonymous": false,
      "inputs": [
        {
          "indexed": true,
          "internalType": "address",
          "name": "from",
          "type": "address"
        },
        {
          "indexed": true,
          "internalType": "address",
          "name": "to",
          "type": "address"
        },
        {
          "indexed": true,
          "internalType": "uint256",
          "name": "tokenId",
          "type": "uint256"
        }
      ],
      "name": "Transfer",
      "type": "event"
    },
    {
      "inputs": [],
      "name": "_tokenIds",
      "outputs": [
        {
          "internalType": "uint256",
          "name": "_value",
          "type": "uint256"
        }
      ],
      "stateMutability": "view",
      "type": "function"
    },
    {
      "inputs": [
        {
          "internalType": "address",
          "name": "to",
          "type": "address"
        },
        {
          "internalType": "uint256",
          "name": "tokenId",
          "type": "uint256"
        }
      ],
      "name": "approve",
      "outputs": [],
      "stateMutability": "nonpayable",
      "type": "function"
    },
    {
      "inputs": [
        {
          "internalType": "address",
          "name": "owner",
          "type": "address"
        }
      ],
      "name": "balanceOf",
      "outputs": [
        {
          "internalType": "uint256",
          "name": "",
          "type": "uint256"
        }
      ],
      "stateMutability": "view",
      "type": "function"
    },
    {
      "inputs": [
        {
          "internalType": "uint256",
          "name": "tokenId",
          "type": "uint256"
        }
      ],
      "name": "getApproved",
      "outputs": [
        {
          "internalType": "address",
          "name": "",
          "type": "address"
        }
      ],
      "stateMutability": "view",
      "type": "function"
    },
    {
      "inputs": [
        {
          "internalType": "uint256",
          "name": "",
          "type": "uint256"
        }
      ],
      "name": "idToTokenItem",
      "outputs": [
        {
          "internalType": "uint256",
          "name": "_tokenId",
          "type": "uint256"
        },
        {
          "internalType": "address",
          "name": "_owner",
          "type": "address"
        },
        {
          "internalType": "uint256",
          "name": "_createdAt",
          "type": "uint256"
        }
      ],
      "stateMutability": "view",
      "type": "function"
    },
    {
      "inputs": [
        {
          "internalType": "address",
          "name": "owner",
          "type": "address"
        },
        {
          "internalType": "address",
          "name": "operator",
          "type": "address"
        }
      ],
      "name": "isApprovedForAll",
      "outputs": [
        {
          "internalType": "bool",
          "name": "",
          "type": "bool"
        }
      ],
      "stateMutability": "view",
      "type": "function"
    },
    {
      "inputs": [
        {
          "internalType": "address",
          "name": "to",
          "type": "address"
        },
        {
          "internalType": "string",
          "name": "_tokenURI",
          "type": "string"
        },
        {
          "internalType": "uint256",
          "name": "createdAt",
          "type": "uint256"
        }
      ],
      "name": "mint",
      "outputs": [],
      "stateMutability": "nonpayable",
      "type": "function"
    },
    {
      "inputs": [],
      "name": "name",
      "outputs": [
        {
          "internalType": "string",
          "name": "",
          "type": "string"
        }
      ],
      "stateMutability": "view",
      "type": "function"
    },
    {
      "inputs": [
        {
          "internalType": "uint256",
          "name": "tokenId",
          "type": "uint256"
        }
      ],
      "name": "ownerOf",
      "outputs": [
        {
          "internalType": "address",
          "name": "",
          "type": "address"
        }
      ],
      "stateMutability": "view",
      "type": "function"
    },
    {
      "inputs": [
        {
          "internalType": "address",
          "name": "from",
          "type": "address"
        },
        {
          "internalType": "address",
          "name": "to",
          "type": "address"
        },
        {
          "internalType": "uint256",
          "name": "tokenId",
          "type": "uint256"
        }
      ],
      "name": "safeTransferFrom",
      "outputs": [],
      "stateMutability": "nonpayable",
      "type": "function"
    },
    {
      "inputs": [
        {
          "internalType": "address",
          "name": "from",
          "type": "address"
        },
        {
          "internalType": "address",
          "name": "to",
          "type": "address"
        },
        {
          "internalType": "uint256",
          "name": "tokenId",
          "type": "uint256"
        },
        {
          "internalType": "bytes",
          "name": "_data",
          "type": "bytes"
        }
      ],
      "name": "safeTransferFrom",
      "outputs": [],
      "stateMutability": "nonpayable",
      "type": "function"
    },
    {
      "inputs": [
        {
          "internalType": "address",
          "name": "operator",
          "type": "address"
        },
        {
          "internalType": "bool",
          "name": "approved",
          "type": "bool"
        }
      ],
      "name": "setApprovalForAll",
      "outputs": [],
      "stateMutability": "nonpayable",
      "type": "function"
    },
    {
      "inputs": [
        {
          "internalType": "bytes4",
          "name": "interfaceId",
          "type": "bytes4"
        }
      ],
      "name": "supportsInterface",
      "outputs": [
        {
          "internalType": "bool",
          "name": "",
          "type": "bool"
        }
      ],
      "stateMutability": "view",
      "type": "function"
    },
    {
      "inputs": [],
      "name": "symbol",
      "outputs": [
        {
          "internalType": "string",
          "name": "",
          "type": "string"
        }
      ],
      "stateMutability": "view",
      "type": "function"
    },
    {
      "inputs": [
        {
          "internalType": "uint256",
          "name": "tokenId",
          "type": "uint256"
        }
      ],
      "name": "tokenURI",
      "outputs": [
        {
          "internalType": "string",
          "name": "",
          "type": "string"
        }
      ],
      "stateMutability": "view",
      "type": "function"
    },
    {
      "inputs": [
        {
          "internalType": "address",
          "name": "from",
          "type": "address"
        },
        {
          "internalType": "address",
          "name": "to",
          "type": "address"
        },
        {
          "internalType": "uint256",
          "name": "tokenId",
          "type": "uint256"
        }
      ],
      "name": "transferFrom",
      "outputs": [],
      "stateMutability": "nonpayable",
      "type": "function"
    },
    {
      "inputs": [
        {
          "internalType": "address",
          "name": "to",
          "type": "address"
        },
        {
          "internalType": "uint256",
          "name": "tokenId",
          "type": "uint256"
        }
      ],
      "name": "transferNFT",
      "outputs": [],
      "stateMutability": "nonpayable",
      "type": "function"
    },
    {
      "inputs": [
        {
          "internalType": "address",
          "name": "_newOwner",
          "type": "address"
        }
      ],
      "name": "transferOwnership",
      "outputs": [],
      "stateMutability": "nonpayable",
      "type": "function"
    }
  ],
  "bytecode": "0x60806040523480156200001157600080fd5b50604051620034e7380380620034e78339818101604052810190620000379190620002ca565b81818160009080519060200190620000519291906200007d565b5080600190805190602001906200006a9291906200007d565b50505060016007819055505050620003b4565b8280546200008b906200037e565b90600052602060002090601f016020900481019282620000af5760008555620000fb565b82601f10620000ca57805160ff1916838001178555620000fb565b82800160010185558215620000fb579182015b82811115620000fa578251825591602001919060010190620000dd565b5b5090506200010a91906200010e565b5090565b5b80821115620001295760008160009055506001016200010f565b5090565b6000604051905090565b600080fd5b600080fd5b600080fd5b600080fd5b6000601f19601f8301169050919050565b7f4e487b7100000000000000000000000000000000000000000000000000000000600052604160045260246000fd5b62000196826200014b565b810181811067ffffffffffffffff82111715620001b857620001b76200015c565b5b80604052505050565b6000620001cd6200012d565b9050620001db82826200018b565b919050565b600067ffffffffffffffff821115620001fe57620001fd6200015c565b5b62000209826200014b565b9050602081019050919050565b60005b838110156200023657808201518184015260208101905062000219565b8381111562000246576000848401525b50505050565b6000620002636200025d84620001e0565b620001c1565b90508281526020810184848401111562000282576200028162000146565b5b6200028f84828562000216565b509392505050565b600082601f830112620002af57620002ae62000141565b5b8151620002c18482602086016200024c565b91505092915050565b60008060408385031215620002e457620002e362000137565b5b600083015167ffffffffffffffff8111156200030557620003046200013c565b5b620003138582860162000297565b925050602083015167ffffffffffffffff8111156200033757620003366200013c565b5b620003458582860162000297565b9150509250929050565b7f4e487b7100000000000000000000000000000000000000000000000000000000600052602260045260246000fd5b600060028204905060018216806200039757607f821691505b60208210811415620003ae57620003ad6200034f565b5b50919050565b61312380620003c46000396000f3fe608060405234801561001057600080fd5b50600436106101165760003560e01c806394ab67fe116100a2578063b88d4fde11610071578063b88d4fde146102f3578063ba7aef431461030f578063c87b56dd1461032b578063e985e9c51461035b578063f2fde38b1461038b57610116565b806394ab67fe1461027f57806395d89b411461029b578063a22cb465146102b9578063aa46a400146102d557610116565b806323b872dd116100e957806323b872dd146101b5578063386750a2146101d157806342842e0e146102035780636352211e1461021f57806370a082311461024f57610116565b806301ffc9a71461011b57806306fdde031461014b578063081812fc14610169578063095ea7b314610199575b600080fd5b61013560048036038101906101309190611d80565b6103a7565b6040516101429190611dc8565b60405180910390f35b610153610489565b6040516101609190611e7c565b60405180910390f35b610183600480360381019061017e9190611ed4565b61051b565b6040516101909190611f42565b60405180910390f35b6101b360048036038101906101ae9190611f89565b6105a0565b005b6101cf60048036038101906101ca9190611fc9565b6106b8565b005b6101eb60048036038101906101e69190611ed4565b610718565b6040516101fa9392919061202b565b60405180910390f35b61021d60048036038101906102189190611fc9565b610762565b005b61023960048036038101906102349190611ed4565b610782565b6040516102469190611f42565b60405180910390f35b61026960048036038101906102649190612062565b610834565b604051610276919061208f565b60405180910390f35b61029960048036038101906102949190611f89565b6108ec565b005b6102a361099f565b6040516102b09190611e7c565b60405180910390f35b6102d360048036038101906102ce91906120d6565b610a31565b005b6102dd610a47565b6040516102ea919061208f565b60405180910390f35b61030d6004803603810190610308919061224b565b610a53565b005b6103296004803603810190610324919061236f565b610ab5565b005b61034560048036038101906103409190611ed4565b610bc1565b6040516103529190611e7c565b60405180910390f35b610375600480360381019061037091906123de565b610d13565b6040516103829190611dc8565b60405180910390f35b6103a560048036038101906103a09190612062565b610da7565b005b60007f80ac58cd000000000000000000000000000000000000000000000000000000007bffffffffffffffffffffffffffffffffffffffffffffffffffffffff1916827bffffffffffffffffffffffffffffffffffffffffffffffffffffffff1916148061047257507f5b5e139f000000000000000000000000000000000000000000000000000000007bffffffffffffffffffffffffffffffffffffffffffffffffffffffff1916827bffffffffffffffffffffffffffffffffffffffffffffffffffffffff1916145b80610482575061048182610ed7565b5b9050919050565b6060600080546104989061244d565b80601f01602080910402602001604051908101604052809291908181526020018280546104c49061244d565b80156105115780601f106104e657610100808354040283529160200191610511565b820191906000526020600020905b8154815290600101906020018083116104f457829003601f168201915b5050505050905090565b600061052682610f41565b610565576040517f08c379a000000000000000000000000000000000000000000000000000000000815260040161055c906124f1565b60405180910390fd5b6004600083815260200190815260200160002060009054906101000a900473ffffffffffffffffffffffffffffffffffffffff169050919050565b60006105ab82610782565b90508073ffffffffffffffffffffffffffffffffffffffff168373ffffffffffffffffffffffffffffffffffffffff16141561061c576040517f08c379a000000000000000000000000000000000000000000000000000000000815260040161061390612583565b60405180910390fd5b8073ffffffffffffffffffffffffffffffffffffffff1661063b610fad565b73ffffffffffffffffffffffffffffffffffffffff16148061066a575061066981610664610fad565b610d13565b5b6106a9576040517f08c379a00000000000000000000000000000000000000000000000000000000081526004016106a090612615565b60405180910390fd5b6106b38383610fb5565b505050565b6106c96106c3610fad565b8261106e565b610708576040517f08c379a00000000000000000000000000000000000000000000000000000000081526004016106ff906126a7565b60405180910390fd5b61071383838361114c565b505050565b60096020528060005260406000206000915090508060000154908060010160009054906101000a900473ffffffffffffffffffffffffffffffffffffffff16908060020154905083565b61077d83838360405180602001604052806000815250610a53565b505050565b6000806002600084815260200190815260200160002060009054906101000a900473ffffffffffffffffffffffffffffffffffffffff169050600073ffffffffffffffffffffffffffffffffffffffff168173ffffffffffffffffffffffffffffffffffffffff16141561082b576040517f08c379a000000000000000000000000000000000000000000000000000000000815260040161082290612739565b60405180910390fd5b80915050919050565b60008073ffffffffffffffffffffffffffffffffffffffff168273ffffffffffffffffffffffffffffffffffffffff1614156108a5576040517f08c379a000000000000000000000000000000000000000000000000000000000815260040161089c906127cb565b60405180910390fd5b600360008373ffffffffffffffffffffffffffffffffffffffff1673ffffffffffffffffffffffffffffffffffffffff168152602001908152602001600020549050919050565b3373ffffffffffffffffffffffffffffffffffffffff166009600083815260200190815260200160002060010160009054906101000a900473ffffffffffffffffffffffffffffffffffffffff1673ffffffffffffffffffffffffffffffffffffffff1614610990576040517f08c379a00000000000000000000000000000000000000000000000000000000081526004016109879061285d565b60405180910390fd5b61099b33838361114c565b5050565b6060600180546109ae9061244d565b80601f01602080910402602001604051908101604052809291908181526020018280546109da9061244d565b8015610a275780601f106109fc57610100808354040283529160200191610a27565b820191906000526020600020905b815481529060010190602001808311610a0a57829003601f168201915b5050505050905090565b610a43610a3c610fad565b83836113b3565b5050565b60088060000154905081565b610a64610a5e610fad565b8361106e565b610aa3576040517f08c379a0000000000000000000000000000000000000000000000000000000008152600401610a9a906126a7565b60405180910390fd5b610aaf84848484611520565b50505050565b610abf600861157c565b6000610acb6008611592565b9050806009600083815260200190815260200160002060000181905550836009600083815260200190815260200160002060010160006101000a81548173ffffffffffffffffffffffffffffffffffffffff021916908373ffffffffffffffffffffffffffffffffffffffff160217905550816009600083815260200190815260200160002060020181905550610b6284826115a0565b610b6c81846115be565b7f5f7666687319b40936f33c188908d86aea154abd3f4127b4fa0a3f04f303c7da816009600084815260200190815260200160002060020154604051610bb392919061287d565b60405180910390a150505050565b6060610bcc82610f41565b610c0b576040517f08c379a0000000000000000000000000000000000000000000000000000000008152600401610c0290612918565b60405180910390fd5b6000600660008481526020019081526020016000208054610c2b9061244d565b80601f0160208091040260200160405190810160405280929190818152602001828054610c579061244d565b8015610ca45780601f10610c7957610100808354040283529160200191610ca4565b820191906000526020600020905b815481529060010190602001808311610c8757829003601f168201915b505050505090506000610cb5611632565b9050600081511415610ccb578192505050610d0e565b600082511115610d00578082604051602001610ce8929190612974565b60405160208183030381529060405292505050610d0e565b610d098461166f565b925050505b919050565b6000600560008473ffffffffffffffffffffffffffffffffffffffff1673ffffffffffffffffffffffffffffffffffffffff16815260200190815260200160002060008373ffffffffffffffffffffffffffffffffffffffff1673ffffffffffffffffffffffffffffffffffffffff16815260200190815260200160002060009054906101000a900460ff16905092915050565b6000610db36008611592565b905060005b81811015610ed2573373ffffffffffffffffffffffffffffffffffffffff1660096000600184610de891906129c7565b815260200190815260200160002060010160009054906101000a900473ffffffffffffffffffffffffffffffffffffffff1673ffffffffffffffffffffffffffffffffffffffff161415610ebf57600060096000600184610e4991906129c7565b8152602001908152602001600020600001549050836009600083815260200190815260200160002060010160006101000a81548173ffffffffffffffffffffffffffffffffffffffff021916908373ffffffffffffffffffffffffffffffffffffffff160217905550610ebd33858361114c565b505b8080610eca90612a1d565b915050610db8565b505050565b60007f01ffc9a7000000000000000000000000000000000000000000000000000000007bffffffffffffffffffffffffffffffffffffffffffffffffffffffff1916827bffffffffffffffffffffffffffffffffffffffffffffffffffffffff1916149050919050565b60008073ffffffffffffffffffffffffffffffffffffffff166002600084815260200190815260200160002060009054906101000a900473ffffffffffffffffffffffffffffffffffffffff1673ffffffffffffffffffffffffffffffffffffffff1614159050919050565b600033905090565b816004600083815260200190815260200160002060006101000a81548173ffffffffffffffffffffffffffffffffffffffff021916908373ffffffffffffffffffffffffffffffffffffffff160217905550808273ffffffffffffffffffffffffffffffffffffffff1661102883610782565b73ffffffffffffffffffffffffffffffffffffffff167f8c5be1e5ebec7d5bd14f71427d1e84f3dd0314c0f7b2291e5b200ac8c7c3b92560405160405180910390a45050565b600061107982610f41565b6110b8576040517f08c379a00000000000000000000000000000000000000000000000000000000081526004016110af90612ad8565b60405180910390fd5b60006110c383610782565b90508073ffffffffffffffffffffffffffffffffffffffff168473ffffffffffffffffffffffffffffffffffffffff16148061113257508373ffffffffffffffffffffffffffffffffffffffff1661111a8461051b565b73ffffffffffffffffffffffffffffffffffffffff16145b8061114357506111428185610d13565b5b91505092915050565b8273ffffffffffffffffffffffffffffffffffffffff1661116c82610782565b73ffffffffffffffffffffffffffffffffffffffff16146111c2576040517f08c379a00000000000000000000000000000000000000000000000000000000081526004016111b990612b6a565b60405180910390fd5b600073ffffffffffffffffffffffffffffffffffffffff168273ffffffffffffffffffffffffffffffffffffffff161415611232576040517f08c379a000000000000000000000000000000000000000000000000000000000815260040161122990612bfc565b60405180910390fd5b61123d838383611716565b611248600082610fb5565b6001600360008573ffffffffffffffffffffffffffffffffffffffff1673ffffffffffffffffffffffffffffffffffffffff16815260200190815260200160002060008282546112989190612c1c565b925050819055506001600360008473ffffffffffffffffffffffffffffffffffffffff1673ffffffffffffffffffffffffffffffffffffffff16815260200190815260200160002060008282546112ef91906129c7565b92505081905550816002600083815260200190815260200160002060006101000a81548173ffffffffffffffffffffffffffffffffffffffff021916908373ffffffffffffffffffffffffffffffffffffffff160217905550808273ffffffffffffffffffffffffffffffffffffffff168473ffffffffffffffffffffffffffffffffffffffff167fddf252ad1be2c89b69c2b068fc378daa952ba7f163c4a11628f55a4df523b3ef60405160405180910390a46113ae838383611726565b505050565b8173ffffffffffffffffffffffffffffffffffffffff168373ffffffffffffffffffffffffffffffffffffffff161415611422576040517f08c379a000000000000000000000000000000000000000000000000000000000815260040161141990612c9c565b60405180910390fd5b80600560008573ffffffffffffffffffffffffffffffffffffffff1673ffffffffffffffffffffffffffffffffffffffff16815260200190815260200160002060008473ffffffffffffffffffffffffffffffffffffffff1673ffffffffffffffffffffffffffffffffffffffff16815260200190815260200160002060006101000a81548160ff0219169083151502179055508173ffffffffffffffffffffffffffffffffffffffff168373ffffffffffffffffffffffffffffffffffffffff167f17307eab39ab6107e8899845ad3d59bd9653f200f220920489ca2b5937696c31836040516115139190611dc8565b60405180910390a3505050565b61152b84848461114c565b6115378484848461172b565b611576576040517f08c379a000000000000000000000000000000000000000000000000000000000815260040161156d90612d2e565b60405180910390fd5b50505050565b6001816000016000828254019250508190555050565b600081600001549050919050565b6115ba8282604051806020016040528060008152506118b3565b5050565b6115c782610f41565b611606576040517f08c379a00000000000000000000000000000000000000000000000000000000081526004016115fd90612dc0565b60405180910390fd5b8060066000848152602001908152602001600020908051906020019061162d929190611c71565b505050565b60606040518060400160405280601a81526020017f687474703a2f2f697066732e666c65656b2e636f2f697066732f000000000000815250905090565b606061167a82610f41565b6116b9576040517f08c379a00000000000000000000000000000000000000000000000000000000081526004016116b090612e52565b60405180910390fd5b60006116c3611632565b905060008151116116e3576040518060200160405280600081525061170e565b806116ed8461190e565b6040516020016116fe929190612974565b6040516020818303038152906040525b915050919050565b611721838383611a6f565b505050565b505050565b600061174c8473ffffffffffffffffffffffffffffffffffffffff16611a74565b156118a6578373ffffffffffffffffffffffffffffffffffffffff1663150b7a02611775610fad565b8786866040518563ffffffff1660e01b81526004016117979493929190612ec7565b6020604051808303816000875af19250505080156117d357506040513d601f19601f820116820180604052508101906117d09190612f28565b60015b611856573d8060008114611803576040519150601f19603f3d011682016040523d82523d6000602084013e611808565b606091505b5060008151141561184e576040517f08c379a000000000000000000000000000000000000000000000000000000000815260040161184590612d2e565b60405180910390fd5b805181602001fd5b63150b7a0260e01b7bffffffffffffffffffffffffffffffffffffffffffffffffffffffff1916817bffffffffffffffffffffffffffffffffffffffffffffffffffffffff1916149150506118ab565b600190505b949350505050565b6118bd8383611a97565b6118ca600084848461172b565b611909576040517f08c379a000000000000000000000000000000000000000000000000000000000815260040161190090612d2e565b60405180910390fd5b505050565b60606000821415611956576040518060400160405280600181526020017f30000000000000000000000000000000000000000000000000000000000000008152509050611a6a565b600082905060005b6000821461198857808061197190612a1d565b915050600a826119819190612f84565b915061195e565b60008167ffffffffffffffff8111156119a4576119a3612120565b5b6040519080825280601f01601f1916602001820160405280156119d65781602001600182028036833780820191505090505b5090505b60008514611a63576001826119ef9190612c1c565b9150600a856119fe9190612fb5565b6030611a0a91906129c7565b60f81b818381518110611a2057611a1f612fe6565b5b60200101907effffffffffffffffffffffffffffffffffffffffffffffffffffffffffffff1916908160001a905350600a85611a5c9190612f84565b94506119da565b8093505050505b919050565b505050565b6000808273ffffffffffffffffffffffffffffffffffffffff163b119050919050565b600073ffffffffffffffffffffffffffffffffffffffff168273ffffffffffffffffffffffffffffffffffffffff161415611b07576040517f08c379a0000000000000000000000000000000000000000000000000000000008152600401611afe90613061565b60405180910390fd5b611b1081610f41565b15611b50576040517f08c379a0000000000000000000000000000000000000000000000000000000008152600401611b47906130cd565b60405180910390fd5b611b5c60008383611716565b6001600360008473ffffffffffffffffffffffffffffffffffffffff1673ffffffffffffffffffffffffffffffffffffffff1681526020019081526020016000206000828254611bac91906129c7565b92505081905550816002600083815260200190815260200160002060006101000a81548173ffffffffffffffffffffffffffffffffffffffff021916908373ffffffffffffffffffffffffffffffffffffffff160217905550808273ffffffffffffffffffffffffffffffffffffffff16600073ffffffffffffffffffffffffffffffffffffffff167fddf252ad1be2c89b69c2b068fc378daa952ba7f163c4a11628f55a4df523b3ef60405160405180910390a4611c6d60008383611726565b5050565b828054611c7d9061244d565b90600052602060002090601f016020900481019282611c9f5760008555611ce6565b82601f10611cb857805160ff1916838001178555611ce6565b82800160010185558215611ce6579182015b82811115611ce5578251825591602001919060010190611cca565b5b509050611cf39190611cf7565b5090565b5b80821115611d10576000816000905550600101611cf8565b5090565b6000604051905090565b600080fd5b600080fd5b60007fffffffff0000000000000000000000000000000000000000000000000000000082169050919050565b611d5d81611d28565b8114611d6857600080fd5b50565b600081359050611d7a81611d54565b92915050565b600060208284031215611d9657611d95611d1e565b5b6000611da484828501611d6b565b91505092915050565b60008115159050919050565b611dc281611dad565b82525050565b6000602082019050611ddd6000830184611db9565b92915050565b600081519050919050565b600082825260208201905092915050565b60005b83811015611e1d578082015181840152602081019050611e02565b83811115611e2c576000848401525b50505050565b6000601f19601f8301169050919050565b6000611e4e82611de3565b611e588185611dee565b9350611e68818560208601611dff565b611e7181611e32565b840191505092915050565b60006020820190508181036000830152611e968184611e43565b905092915050565b6000819050919050565b611eb181611e9e565b8114611ebc57600080fd5b50565b600081359050611ece81611ea8565b92915050565b600060208284031215611eea57611ee9611d1e565b5b6000611ef884828501611ebf565b91505092915050565b600073ffffffffffffffffffffffffffffffffffffffff82169050919050565b6000611f2c82611f01565b9050919050565b611f3c81611f21565b82525050565b6000602082019050611f576000830184611f33565b92915050565b611f6681611f21565b8114611f7157600080fd5b50565b600081359050611f8381611f5d565b92915050565b60008060408385031215611fa057611f9f611d1e565b5b6000611fae85828601611f74565b9250506020611fbf85828601611ebf565b9150509250929050565b600080600060608486031215611fe257611fe1611d1e565b5b6000611ff086828701611f74565b935050602061200186828701611f74565b925050604061201286828701611ebf565b9150509250925092565b61202581611e9e565b82525050565b6000606082019050612040600083018661201c565b61204d6020830185611f33565b61205a604083018461201c565b949350505050565b60006020828403121561207857612077611d1e565b5b600061208684828501611f74565b91505092915050565b60006020820190506120a4600083018461201c565b92915050565b6120b381611dad565b81146120be57600080fd5b50565b6000813590506120d0816120aa565b92915050565b600080604083850312156120ed576120ec611d1e565b5b60006120fb85828601611f74565b925050602061210c858286016120c1565b9150509250929050565b600080fd5b600080fd5b7f4e487b7100000000000000000000000000000000000000000000000000000000600052604160045260246000fd5b61215882611e32565b810181811067ffffffffffffffff8211171561217757612176612120565b5b80604052505050565b600061218a611d14565b9050612196828261214f565b919050565b600067ffffffffffffffff8211156121b6576121b5612120565b5b6121bf82611e32565b9050602081019050919050565b82818337600083830152505050565b60006121ee6121e98461219b565b612180565b90508281526020810184848401111561220a5761220961211b565b5b6122158482856121cc565b509392505050565b600082601f83011261223257612231612116565b5b81356122428482602086016121db565b91505092915050565b6000806000806080858703121561226557612264611d1e565b5b600061227387828801611f74565b945050602061228487828801611f74565b935050604061229587828801611ebf565b925050606085013567ffffffffffffffff8111156122b6576122b5611d23565b5b6122c28782880161221d565b91505092959194509250565b600067ffffffffffffffff8211156122e9576122e8612120565b5b6122f282611e32565b9050602081019050919050565b600061231261230d846122ce565b612180565b90508281526020810184848401111561232e5761232d61211b565b5b6123398482856121cc565b509392505050565b600082601f83011261235657612355612116565b5b81356123668482602086016122ff565b91505092915050565b60008060006060848603121561238857612387611d1e565b5b600061239686828701611f74565b935050602084013567ffffffffffffffff8111156123b7576123b6611d23565b5b6123c386828701612341565b92505060406123d486828701611ebf565b9150509250925092565b600080604083850312156123f5576123f4611d1e565b5b600061240385828601611f74565b925050602061241485828601611f74565b9150509250929050565b7f4e487b7100000000000000000000000000000000000000000000000000000000600052602260045260246000fd5b6000600282049050600182168061246557607f821691505b602082108114156124795761247861241e565b5b50919050565b7f4552433732313a20617070726f76656420717565727920666f72206e6f6e657860008201527f697374656e7420746f6b656e0000000000000000000000000000000000000000602082015250565b60006124db602c83611dee565b91506124e68261247f565b604082019050919050565b6000602082019050818103600083015261250a816124ce565b9050919050565b7f4552433732313a20617070726f76616c20746f2063757272656e74206f776e6560008201527f7200000000000000000000000000000000000000000000000000000000000000602082015250565b600061256d602183611dee565b915061257882612511565b604082019050919050565b6000602082019050818103600083015261259c81612560565b9050919050565b7f4552433732313a20617070726f76652063616c6c6572206973206e6f74206f7760008201527f6e6572206e6f7220617070726f76656420666f7220616c6c0000000000000000602082015250565b60006125ff603883611dee565b915061260a826125a3565b604082019050919050565b6000602082019050818103600083015261262e816125f2565b9050919050565b7f4552433732313a207472616e736665722063616c6c6572206973206e6f74206f60008201527f776e6572206e6f7220617070726f766564000000000000000000000000000000602082015250565b6000612691603183611dee565b915061269c82612635565b604082019050919050565b600060208201905081810360008301526126c081612684565b9050919050565b7f4552433732313a206f776e657220717565727920666f72206e6f6e657869737460008201527f656e7420746f6b656e0000000000000000000000000000000000000000000000602082015250565b6000612723602983611dee565b915061272e826126c7565b604082019050919050565b6000602082019050818103600083015261275281612716565b9050919050565b7f4552433732313a2062616c616e636520717565727920666f7220746865207a6560008201527f726f206164647265737300000000000000000000000000000000000000000000602082015250565b60006127b5602a83611dee565b91506127c082612759565b604082019050919050565b600060208201905081810360008301526127e4816127a8565b9050919050565b7f596f75206861766520746f206f776e2074686520746f6b656e20746f2074726160008201527f6e73666572206974000000000000000000000000000000000000000000000000602082015250565b6000612847602883611dee565b9150612852826127eb565b604082019050919050565b600060208201905081810360008301526128768161283a565b9050919050565b6000604082019050612892600083018561201c565b61289f602083018461201c565b9392505050565b7f45524337323155524953746f726167653a2055524920717565727920666f722060008201527f6e6f6e6578697374656e7420746f6b656e000000000000000000000000000000602082015250565b6000612902603183611dee565b915061290d826128a6565b604082019050919050565b60006020820190508181036000830152612931816128f5565b9050919050565b600081905092915050565b600061294e82611de3565b6129588185612938565b9350612968818560208601611dff565b80840191505092915050565b60006129808285612943565b915061298c8284612943565b91508190509392505050565b7f4e487b7100000000000000000000000000000000000000000000000000000000600052601160045260246000fd5b60006129d282611e9e565b91506129dd83611e9e565b9250827fffffffffffffffffffffffffffffffffffffffffffffffffffffffffffffffff03821115612a1257612a11612998565b5b828201905092915050565b6000612a2882611e9e565b91507fffffffffffffffffffffffffffffffffffffffffffffffffffffffffffffffff821415612a5b57612a5a612998565b5b600182019050919050565b7f4552433732313a206f70657261746f7220717565727920666f72206e6f6e657860008201527f697374656e7420746f6b656e0000000000000000000000000000000000000000602082015250565b6000612ac2602c83611dee565b9150612acd82612a66565b604082019050919050565b60006020820190508181036000830152612af181612ab5565b9050919050565b7f4552433732313a207472616e736665722066726f6d20696e636f72726563742060008201527f6f776e6572000000000000000000000000000000000000000000000000000000602082015250565b6000612b54602583611dee565b9150612b5f82612af8565b604082019050919050565b60006020820190508181036000830152612b8381612b47565b9050919050565b7f4552433732313a207472616e7366657220746f20746865207a65726f2061646460008201527f7265737300000000000000000000000000000000000000000000000000000000602082015250565b6000612be6602483611dee565b9150612bf182612b8a565b604082019050919050565b60006020820190508181036000830152612c1581612bd9565b9050919050565b6000612c2782611e9e565b9150612c3283611e9e565b925082821015612c4557612c44612998565b5b828203905092915050565b7f4552433732313a20617070726f766520746f2063616c6c657200000000000000600082015250565b6000612c86601983611dee565b9150612c9182612c50565b602082019050919050565b60006020820190508181036000830152612cb581612c79565b9050919050565b7f4552433732313a207472616e7366657220746f206e6f6e20455243373231526560008201527f63656976657220696d706c656d656e7465720000000000000000000000000000602082015250565b6000612d18603283611dee565b9150612d2382612cbc565b604082019050919050565b60006020820190508181036000830152612d4781612d0b565b9050919050565b7f45524337323155524953746f726167653a2055524920736574206f66206e6f6e60008201527f6578697374656e7420746f6b656e000000000000000000000000000000000000602082015250565b6000612daa602e83611dee565b9150612db582612d4e565b604082019050919050565b60006020820190508181036000830152612dd981612d9d565b9050919050565b7f4552433732314d657461646174613a2055524920717565727920666f72206e6f60008201527f6e6578697374656e7420746f6b656e0000000000000000000000000000000000602082015250565b6000612e3c602f83611dee565b9150612e4782612de0565b604082019050919050565b60006020820190508181036000830152612e6b81612e2f565b9050919050565b600081519050919050565b600082825260208201905092915050565b6000612e9982612e72565b612ea38185612e7d565b9350612eb3818560208601611dff565b612ebc81611e32565b840191505092915050565b6000608082019050612edc6000830187611f33565b612ee96020830186611f33565b612ef6604083018561201c565b8181036060830152612f088184612e8e565b905095945050505050565b600081519050612f2281611d54565b92915050565b600060208284031215612f3e57612f3d611d1e565b5b6000612f4c84828501612f13565b91505092915050565b7f4e487b7100000000000000000000000000000000000000000000000000000000600052601260045260246000fd5b6000612f8f82611e9e565b9150612f9a83611e9e565b925082612faa57612fa9612f55565b5b828204905092915050565b6000612fc082611e9e565b9150612fcb83611e9e565b925082612fdb57612fda612f55565b5b828206905092915050565b7f4e487b7100000000000000000000000000000000000000000000000000000000600052603260045260246000fd5b7f4552433732313a206d696e7420746f20746865207a65726f2061646472657373600082015250565b600061304b602083611dee565b915061305682613015565b602082019050919050565b6000602082019050818103600083015261307a8161303e565b9050919050565b7f4552433732313a20746f6b656e20616c7265616479206d696e74656400000000600082015250565b60006130b7601c83611dee565b91506130c282613081565b602082019050919050565b600060208201905081810360008301526130e6816130aa565b905091905056fea26469706673582212208d38b9f3afa5ceb81bc286783bffc9b8aa132033a5975e11a49f019ba220460f64736f6c634300080b0033",
  "linkReferences": {},
  "deployedLinkReferences": {}
}