{
  "_format": "hh-sol-artifact-1",
  "contractName": "ERC721NFT",
  "sourceName": "contracts/ERC721NFT.sol",
  "abi": [
    {
      "inputs": [
        {
          "internalType": "string",
          "name": "_tokenName",
          "type": "string"
        },
        {
          "internalType": "string",
          "name": "_tokenSymbol",
          "type": "string"
        }
      ],
      "stateMutability": "nonpayable",
      "type": "constructor"
    },
    {
      "anonymous": false,
      "inputs": [
        {
          "indexed": true,
          "internalType": "address",
          "name": "owner",
          "type": "address"
        },
        {
          "indexed": true,
          "internalType": "address",
          "name": "approved",
          "type": "address"
        },
        {
          "indexed": true,
          "internalType": "uint256",
          "name": "tokenId",
          "type": "uint256"
        }
      ],
      "name": "Approval",
      "type": "event"
    },
    {
      "anonymous": false,
      "inputs": [
        {
          "indexed": true,
          "internalType": "address",
          "name": "owner",
          "type": "address"
        },
        {
          "indexed": true,
          "internalType": "address",
          "name": "operator",
          "type": "address"
        },
        {
          "indexed": false,
          "internalType": "bool",
          "name": "approved",
          "type": "bool"
        }
      ],
      "name": "ApprovalForAll",
      "type": "event"
    },
    {
      "anonymous": false,
      "inputs": [
        {
          "indexed": false,
          "internalType": "uint256",
          "name": "id",
          "type": "uint256"
        },
        {
          "indexed": false,
          "internalType": "uint256",
          "name": "timestamp",
          "type": "uint256"
        }
      ],
      "name": "TokenMinted",
      "type": "event"
    },
    {
      "anonymous": false,
      "inputs": [
        {
          "indexed": true,
          "internalType": "address",
          "name": "from",
          "type": "address"
        },
        {
          "indexed": true,
          "internalType": "address",
          "name": "to",
          "type": "address"
        },
        {
          "indexed": true,
          "internalType": "uint256",
          "name": "tokenId",
          "type": "uint256"
        }
      ],
      "name": "Transfer",
      "type": "event"
    },
    {
      "inputs": [],
      "name": "_tokenIds",
      "outputs": [
        {
          "internalType": "uint256",
          "name": "_value",
          "type": "uint256"
        }
      ],
      "stateMutability": "view",
      "type": "function"
    },
    {
      "inputs": [
        {
          "internalType": "address",
          "name": "to",
          "type": "address"
        },
        {
          "internalType": "uint256",
          "name": "tokenId",
          "type": "uint256"
        }
      ],
      "name": "approve",
      "outputs": [],
      "stateMutability": "nonpayable",
      "type": "function"
    },
    {
      "inputs": [
        {
          "internalType": "address",
          "name": "owner",
          "type": "address"
        }
      ],
      "name": "balanceOf",
      "outputs": [
        {
          "internalType": "uint256",
          "name": "",
          "type": "uint256"
        }
      ],
      "stateMutability": "view",
      "type": "function"
    },
    {
      "inputs": [
        {
          "internalType": "uint256",
          "name": "tokenId",
          "type": "uint256"
        }
      ],
      "name": "getApproved",
      "outputs": [
        {
          "internalType": "address",
          "name": "",
          "type": "address"
        }
      ],
      "stateMutability": "view",
      "type": "function"
    },
    {
      "inputs": [
        {
          "internalType": "uint256",
          "name": "",
          "type": "uint256"
        }
      ],
      "name": "idToTokenItem",
      "outputs": [
        {
          "internalType": "uint256",
          "name": "_tokenId",
          "type": "uint256"
        },
        {
          "internalType": "address",
          "name": "_owner",
          "type": "address"
        },
        {
          "internalType": "uint256",
          "name": "_createdAt",
          "type": "uint256"
        }
      ],
      "stateMutability": "view",
      "type": "function"
    },
    {
      "inputs": [
        {
          "internalType": "address",
          "name": "owner",
          "type": "address"
        },
        {
          "internalType": "address",
          "name": "operator",
          "type": "address"
        }
      ],
      "name": "isApprovedForAll",
      "outputs": [
        {
          "internalType": "bool",
          "name": "",
          "type": "bool"
        }
      ],
      "stateMutability": "view",
      "type": "function"
    },
    {
      "inputs": [
        {
          "internalType": "address",
          "name": "to",
          "type": "address"
        },
        {
          "internalType": "string",
          "name": "_tokenURI",
          "type": "string"
        },
        {
          "internalType": "uint256",
          "name": "createdAt",
          "type": "uint256"
        }
      ],
      "name": "mint",
      "outputs": [],
      "stateMutability": "nonpayable",
      "type": "function"
    },
    {
      "inputs": [],
      "name": "name",
      "outputs": [
        {
          "internalType": "string",
          "name": "",
          "type": "string"
        }
      ],
      "stateMutability": "view",
      "type": "function"
    },
    {
      "inputs": [
        {
          "internalType": "uint256",
          "name": "tokenId",
          "type": "uint256"
        }
      ],
      "name": "ownerOf",
      "outputs": [
        {
          "internalType": "address",
          "name": "",
          "type": "address"
        }
      ],
      "stateMutability": "view",
      "type": "function"
    },
    {
      "inputs": [],
      "name": "revealed",
      "outputs": [
        {
          "internalType": "bool",
          "name": "",
          "type": "bool"
        }
      ],
      "stateMutability": "view",
      "type": "function"
    },
    {
      "inputs": [
        {
          "internalType": "address",
          "name": "from",
          "type": "address"
        },
        {
          "internalType": "address",
          "name": "to",
          "type": "address"
        },
        {
          "internalType": "uint256",
          "name": "tokenId",
          "type": "uint256"
        }
      ],
      "name": "safeTransferFrom",
      "outputs": [],
      "stateMutability": "nonpayable",
      "type": "function"
    },
    {
      "inputs": [
        {
          "internalType": "address",
          "name": "from",
          "type": "address"
        },
        {
          "internalType": "address",
          "name": "to",
          "type": "address"
        },
        {
          "internalType": "uint256",
          "name": "tokenId",
          "type": "uint256"
        },
        {
          "internalType": "bytes",
          "name": "_data",
          "type": "bytes"
        }
      ],
      "name": "safeTransferFrom",
      "outputs": [],
      "stateMutability": "nonpayable",
      "type": "function"
    },
    {
      "inputs": [
        {
          "internalType": "address",
          "name": "operator",
          "type": "address"
        },
        {
          "internalType": "bool",
          "name": "approved",
          "type": "bool"
        }
      ],
      "name": "setApprovalForAll",
      "outputs": [],
      "stateMutability": "nonpayable",
      "type": "function"
    },
    {
      "inputs": [
        {
          "internalType": "bytes4",
          "name": "interfaceId",
          "type": "bytes4"
        }
      ],
      "name": "supportsInterface",
      "outputs": [
        {
          "internalType": "bool",
          "name": "",
          "type": "bool"
        }
      ],
      "stateMutability": "view",
      "type": "function"
    },
    {
      "inputs": [],
      "name": "symbol",
      "outputs": [
        {
          "internalType": "string",
          "name": "",
          "type": "string"
        }
      ],
      "stateMutability": "view",
      "type": "function"
    },
    {
      "inputs": [
        {
          "internalType": "uint256",
          "name": "tokenId",
          "type": "uint256"
        }
      ],
      "name": "tokenURI",
      "outputs": [
        {
          "internalType": "string",
          "name": "",
          "type": "string"
        }
      ],
      "stateMutability": "view",
      "type": "function"
    },
    {
      "inputs": [
        {
          "internalType": "address",
          "name": "from",
          "type": "address"
        },
        {
          "internalType": "address",
          "name": "to",
          "type": "address"
        },
        {
          "internalType": "uint256",
          "name": "tokenId",
          "type": "uint256"
        }
      ],
      "name": "transferFrom",
      "outputs": [],
      "stateMutability": "nonpayable",
      "type": "function"
    },
    {
      "inputs": [
        {
          "internalType": "address",
          "name": "to",
          "type": "address"
        },
        {
          "internalType": "uint256",
          "name": "tokenId",
          "type": "uint256"
        }
      ],
      "name": "transferNFT",
      "outputs": [],
      "stateMutability": "nonpayable",
      "type": "function"
    },
    {
      "inputs": [
        {
          "internalType": "address",
          "name": "_newOwner",
          "type": "address"
        }
      ],
      "name": "transferOwnership",
      "outputs": [],
      "stateMutability": "nonpayable",
      "type": "function"
    }
  ],
  "bytecode": "0x60806040526000600960006101000a81548160ff0219169083151502179055503480156200002c57600080fd5b506040516200353e3803806200353e8339818101604052810190620000529190620002e5565b818181600090805190602001906200006c92919062000098565b5080600190805190602001906200008592919062000098565b50505060016007819055505050620003cf565b828054620000a69062000399565b90600052602060002090601f016020900481019282620000ca576000855562000116565b82601f10620000e557805160ff191683800117855562000116565b8280016001018555821562000116579182015b8281111562000115578251825591602001919060010190620000f8565b5b50905062000125919062000129565b5090565b5b80821115620001445760008160009055506001016200012a565b5090565b6000604051905090565b600080fd5b600080fd5b600080fd5b600080fd5b6000601f19601f8301169050919050565b7f4e487b7100000000000000000000000000000000000000000000000000000000600052604160045260246000fd5b620001b18262000166565b810181811067ffffffffffffffff82111715620001d357620001d262000177565b5b80604052505050565b6000620001e862000148565b9050620001f68282620001a6565b919050565b600067ffffffffffffffff82111562000219576200021862000177565b5b620002248262000166565b9050602081019050919050565b60005b838110156200025157808201518184015260208101905062000234565b8381111562000261576000848401525b50505050565b60006200027e6200027884620001fb565b620001dc565b9050828152602081018484840111156200029d576200029c62000161565b5b620002aa84828562000231565b509392505050565b600082601f830112620002ca57620002c96200015c565b5b8151620002dc84826020860162000267565b91505092915050565b60008060408385031215620002ff57620002fe62000152565b5b600083015167ffffffffffffffff81111562000320576200031f62000157565b5b6200032e85828601620002b2565b925050602083015167ffffffffffffffff81111562000352576200035162000157565b5b6200036085828601620002b2565b9150509250929050565b7f4e487b7100000000000000000000000000000000000000000000000000000000600052602260045260246000fd5b60006002820490506001821680620003b257607f821691505b60208210811415620003c957620003c86200036a565b5b50919050565b61315f80620003df6000396000f3fe608060405234801561001057600080fd5b50600436106101215760003560e01c806370a08231116100ad578063b88d4fde11610071578063b88d4fde1461031c578063ba7aef4314610338578063c87b56dd14610354578063e985e9c514610384578063f2fde38b146103b457610121565b806370a082311461027857806394ab67fe146102a857806395d89b41146102c4578063a22cb465146102e2578063aa46a400146102fe57610121565b806323b872dd116100f457806323b872dd146101c0578063386750a2146101dc57806342842e0e1461020e578063518302271461022a5780636352211e1461024857610121565b806301ffc9a71461012657806306fdde0314610156578063081812fc14610174578063095ea7b3146101a4575b600080fd5b610140600480360381019061013b9190611dbc565b6103d0565b60405161014d9190611e04565b60405180910390f35b61015e6104b2565b60405161016b9190611eb8565b60405180910390f35b61018e60048036038101906101899190611f10565b610544565b60405161019b9190611f7e565b60405180910390f35b6101be60048036038101906101b99190611fc5565b6105c9565b005b6101da60048036038101906101d59190612005565b6106e1565b005b6101f660048036038101906101f19190611f10565b610741565b60405161020593929190612067565b60405180910390f35b61022860048036038101906102239190612005565b61078b565b005b6102326107ab565b60405161023f9190611e04565b60405180910390f35b610262600480360381019061025d9190611f10565b6107be565b60405161026f9190611f7e565b60405180910390f35b610292600480360381019061028d919061209e565b610870565b60405161029f91906120cb565b60405180910390f35b6102c260048036038101906102bd9190611fc5565b610928565b005b6102cc6109db565b6040516102d99190611eb8565b60405180910390f35b6102fc60048036038101906102f79190612112565b610a6d565b005b610306610a83565b60405161031391906120cb565b60405180910390f35b61033660048036038101906103319190612287565b610a8f565b005b610352600480360381019061034d91906123ab565b610af1565b005b61036e60048036038101906103699190611f10565b610bfd565b60405161037b9190611eb8565b60405180910390f35b61039e6004803603810190610399919061241a565b610d4f565b6040516103ab9190611e04565b60405180910390f35b6103ce60048036038101906103c9919061209e565b610de3565b005b60007f80ac58cd000000000000000000000000000000000000000000000000000000007bffffffffffffffffffffffffffffffffffffffffffffffffffffffff1916827bffffffffffffffffffffffffffffffffffffffffffffffffffffffff1916148061049b57507f5b5e139f000000000000000000000000000000000000000000000000000000007bffffffffffffffffffffffffffffffffffffffffffffffffffffffff1916827bffffffffffffffffffffffffffffffffffffffffffffffffffffffff1916145b806104ab57506104aa82610f13565b5b9050919050565b6060600080546104c190612489565b80601f01602080910402602001604051908101604052809291908181526020018280546104ed90612489565b801561053a5780601f1061050f5761010080835404028352916020019161053a565b820191906000526020600020905b81548152906001019060200180831161051d57829003601f168201915b5050505050905090565b600061054f82610f7d565b61058e576040517f08c379a00000000000000000000000000000000000000000000000000000000081526004016105859061252d565b60405180910390fd5b6004600083815260200190815260200160002060009054906101000a900473ffffffffffffffffffffffffffffffffffffffff169050919050565b60006105d4826107be565b90508073ffffffffffffffffffffffffffffffffffffffff168373ffffffffffffffffffffffffffffffffffffffff161415610645576040517f08c379a000000000000000000000000000000000000000000000000000000000815260040161063c906125bf565b60405180910390fd5b8073ffffffffffffffffffffffffffffffffffffffff16610664610fe9565b73ffffffffffffffffffffffffffffffffffffffff16148061069357506106928161068d610fe9565b610d4f565b5b6106d2576040517f08c379a00000000000000000000000000000000000000000000000000000000081526004016106c990612651565b60405180910390fd5b6106dc8383610ff1565b505050565b6106f26106ec610fe9565b826110aa565b610731576040517f08c379a0000000000000000000000000000000000000000000000000000000008152600401610728906126e3565b60405180910390fd5b61073c838383611188565b505050565b600a6020528060005260406000206000915090508060000154908060010160009054906101000a900473ffffffffffffffffffffffffffffffffffffffff16908060020154905083565b6107a683838360405180602001604052806000815250610a8f565b505050565b600960009054906101000a900460ff1681565b6000806002600084815260200190815260200160002060009054906101000a900473ffffffffffffffffffffffffffffffffffffffff169050600073ffffffffffffffffffffffffffffffffffffffff168173ffffffffffffffffffffffffffffffffffffffff161415610867576040517f08c379a000000000000000000000000000000000000000000000000000000000815260040161085e90612775565b60405180910390fd5b80915050919050565b60008073ffffffffffffffffffffffffffffffffffffffff168273ffffffffffffffffffffffffffffffffffffffff1614156108e1576040517f08c379a00000000000000000000000000000000000000000000000000000000081526004016108d890612807565b60405180910390fd5b600360008373ffffffffffffffffffffffffffffffffffffffff1673ffffffffffffffffffffffffffffffffffffffff168152602001908152602001600020549050919050565b3373ffffffffffffffffffffffffffffffffffffffff16600a600083815260200190815260200160002060010160009054906101000a900473ffffffffffffffffffffffffffffffffffffffff1673ffffffffffffffffffffffffffffffffffffffff16146109cc576040517f08c379a00000000000000000000000000000000000000000000000000000000081526004016109c390612899565b60405180910390fd5b6109d7338383611188565b5050565b6060600180546109ea90612489565b80601f0160208091040260200160405190810160405280929190818152602001828054610a1690612489565b8015610a635780601f10610a3857610100808354040283529160200191610a63565b820191906000526020600020905b815481529060010190602001808311610a4657829003601f168201915b5050505050905090565b610a7f610a78610fe9565b83836113ef565b5050565b60088060000154905081565b610aa0610a9a610fe9565b836110aa565b610adf576040517f08c379a0000000000000000000000000000000000000000000000000000000008152600401610ad6906126e3565b60405180910390fd5b610aeb8484848461155c565b50505050565b610afb60086115b8565b6000610b0760086115ce565b905080600a60008381526020019081526020016000206000018190555083600a600083815260200190815260200160002060010160006101000a81548173ffffffffffffffffffffffffffffffffffffffff021916908373ffffffffffffffffffffffffffffffffffffffff16021790555081600a600083815260200190815260200160002060020181905550610b9e84826115dc565b610ba881846115fa565b7f5f7666687319b40936f33c188908d86aea154abd3f4127b4fa0a3f04f303c7da81600a600084815260200190815260200160002060020154604051610bef9291906128b9565b60405180910390a150505050565b6060610c0882610f7d565b610c47576040517f08c379a0000000000000000000000000000000000000000000000000000000008152600401610c3e90612954565b60405180910390fd5b6000600660008481526020019081526020016000208054610c6790612489565b80601f0160208091040260200160405190810160405280929190818152602001828054610c9390612489565b8015610ce05780601f10610cb557610100808354040283529160200191610ce0565b820191906000526020600020905b815481529060010190602001808311610cc357829003601f168201915b505050505090506000610cf161166e565b9050600081511415610d07578192505050610d4a565b600082511115610d3c578082604051602001610d249291906129b0565b60405160208183030381529060405292505050610d4a565b610d45846116ab565b925050505b919050565b6000600560008473ffffffffffffffffffffffffffffffffffffffff1673ffffffffffffffffffffffffffffffffffffffff16815260200190815260200160002060008373ffffffffffffffffffffffffffffffffffffffff1673ffffffffffffffffffffffffffffffffffffffff16815260200190815260200160002060009054906101000a900460ff16905092915050565b6000610def60086115ce565b905060005b81811015610f0e573373ffffffffffffffffffffffffffffffffffffffff16600a6000600184610e249190612a03565b815260200190815260200160002060010160009054906101000a900473ffffffffffffffffffffffffffffffffffffffff1673ffffffffffffffffffffffffffffffffffffffff161415610efb576000600a6000600184610e859190612a03565b815260200190815260200160002060000154905083600a600083815260200190815260200160002060010160006101000a81548173ffffffffffffffffffffffffffffffffffffffff021916908373ffffffffffffffffffffffffffffffffffffffff160217905550610ef9338583611188565b505b8080610f0690612a59565b915050610df4565b505050565b60007f01ffc9a7000000000000000000000000000000000000000000000000000000007bffffffffffffffffffffffffffffffffffffffffffffffffffffffff1916827bffffffffffffffffffffffffffffffffffffffffffffffffffffffff1916149050919050565b60008073ffffffffffffffffffffffffffffffffffffffff166002600084815260200190815260200160002060009054906101000a900473ffffffffffffffffffffffffffffffffffffffff1673ffffffffffffffffffffffffffffffffffffffff1614159050919050565b600033905090565b816004600083815260200190815260200160002060006101000a81548173ffffffffffffffffffffffffffffffffffffffff021916908373ffffffffffffffffffffffffffffffffffffffff160217905550808273ffffffffffffffffffffffffffffffffffffffff16611064836107be565b73ffffffffffffffffffffffffffffffffffffffff167f8c5be1e5ebec7d5bd14f71427d1e84f3dd0314c0f7b2291e5b200ac8c7c3b92560405160405180910390a45050565b60006110b582610f7d565b6110f4576040517f08c379a00000000000000000000000000000000000000000000000000000000081526004016110eb90612b14565b60405180910390fd5b60006110ff836107be565b90508073ffffffffffffffffffffffffffffffffffffffff168473ffffffffffffffffffffffffffffffffffffffff16148061116e57508373ffffffffffffffffffffffffffffffffffffffff1661115684610544565b73ffffffffffffffffffffffffffffffffffffffff16145b8061117f575061117e8185610d4f565b5b91505092915050565b8273ffffffffffffffffffffffffffffffffffffffff166111a8826107be565b73ffffffffffffffffffffffffffffffffffffffff16146111fe576040517f08c379a00000000000000000000000000000000000000000000000000000000081526004016111f590612ba6565b60405180910390fd5b600073ffffffffffffffffffffffffffffffffffffffff168273ffffffffffffffffffffffffffffffffffffffff16141561126e576040517f08c379a000000000000000000000000000000000000000000000000000000000815260040161126590612c38565b60405180910390fd5b611279838383611752565b611284600082610ff1565b6001600360008573ffffffffffffffffffffffffffffffffffffffff1673ffffffffffffffffffffffffffffffffffffffff16815260200190815260200160002060008282546112d49190612c58565b925050819055506001600360008473ffffffffffffffffffffffffffffffffffffffff1673ffffffffffffffffffffffffffffffffffffffff168152602001908152602001600020600082825461132b9190612a03565b92505081905550816002600083815260200190815260200160002060006101000a81548173ffffffffffffffffffffffffffffffffffffffff021916908373ffffffffffffffffffffffffffffffffffffffff160217905550808273ffffffffffffffffffffffffffffffffffffffff168473ffffffffffffffffffffffffffffffffffffffff167fddf252ad1be2c89b69c2b068fc378daa952ba7f163c4a11628f55a4df523b3ef60405160405180910390a46113ea838383611762565b505050565b8173ffffffffffffffffffffffffffffffffffffffff168373ffffffffffffffffffffffffffffffffffffffff16141561145e576040517f08c379a000000000000000000000000000000000000000000000000000000000815260040161145590612cd8565b60405180910390fd5b80600560008573ffffffffffffffffffffffffffffffffffffffff1673ffffffffffffffffffffffffffffffffffffffff16815260200190815260200160002060008473ffffffffffffffffffffffffffffffffffffffff1673ffffffffffffffffffffffffffffffffffffffff16815260200190815260200160002060006101000a81548160ff0219169083151502179055508173ffffffffffffffffffffffffffffffffffffffff168373ffffffffffffffffffffffffffffffffffffffff167f17307eab39ab6107e8899845ad3d59bd9653f200f220920489ca2b5937696c318360405161154f9190611e04565b60405180910390a3505050565b611567848484611188565b61157384848484611767565b6115b2576040517f08c379a00000000000000000000000000000000000000000000000000000000081526004016115a990612d6a565b60405180910390fd5b50505050565b6001816000016000828254019250508190555050565b600081600001549050919050565b6115f68282604051806020016040528060008152506118ef565b5050565b61160382610f7d565b611642576040517f08c379a000000000000000000000000000000000000000000000000000000000815260040161163990612dfc565b60405180910390fd5b80600660008481526020019081526020016000209080519060200190611669929190611cad565b505050565b60606040518060400160405280601c81526020017f68747470733a2f2f697066732e696e667572612e696f2f697066732f00000000815250905090565b60606116b682610f7d565b6116f5576040517f08c379a00000000000000000000000000000000000000000000000000000000081526004016116ec90612e8e565b60405180910390fd5b60006116ff61166e565b9050600081511161171f576040518060200160405280600081525061174a565b806117298461194a565b60405160200161173a9291906129b0565b6040516020818303038152906040525b915050919050565b61175d838383611aab565b505050565b505050565b60006117888473ffffffffffffffffffffffffffffffffffffffff16611ab0565b156118e2578373ffffffffffffffffffffffffffffffffffffffff1663150b7a026117b1610fe9565b8786866040518563ffffffff1660e01b81526004016117d39493929190612f03565b6020604051808303816000875af192505050801561180f57506040513d601f19601f8201168201806040525081019061180c9190612f64565b60015b611892573d806000811461183f576040519150601f19603f3d011682016040523d82523d6000602084013e611844565b606091505b5060008151141561188a576040517f08c379a000000000000000000000000000000000000000000000000000000000815260040161188190612d6a565b60405180910390fd5b805181602001fd5b63150b7a0260e01b7bffffffffffffffffffffffffffffffffffffffffffffffffffffffff1916817bffffffffffffffffffffffffffffffffffffffffffffffffffffffff1916149150506118e7565b600190505b949350505050565b6118f98383611ad3565b6119066000848484611767565b611945576040517f08c379a000000000000000000000000000000000000000000000000000000000815260040161193c90612d6a565b60405180910390fd5b505050565b60606000821415611992576040518060400160405280600181526020017f30000000000000000000000000000000000000000000000000000000000000008152509050611aa6565b600082905060005b600082146119c45780806119ad90612a59565b915050600a826119bd9190612fc0565b915061199a565b60008167ffffffffffffffff8111156119e0576119df61215c565b5b6040519080825280601f01601f191660200182016040528015611a125781602001600182028036833780820191505090505b5090505b60008514611a9f57600182611a2b9190612c58565b9150600a85611a3a9190612ff1565b6030611a469190612a03565b60f81b818381518110611a5c57611a5b613022565b5b60200101907effffffffffffffffffffffffffffffffffffffffffffffffffffffffffffff1916908160001a905350600a85611a989190612fc0565b9450611a16565b8093505050505b919050565b505050565b6000808273ffffffffffffffffffffffffffffffffffffffff163b119050919050565b600073ffffffffffffffffffffffffffffffffffffffff168273ffffffffffffffffffffffffffffffffffffffff161415611b43576040517f08c379a0000000000000000000000000000000000000000000000000000000008152600401611b3a9061309d565b60405180910390fd5b611b4c81610f7d565b15611b8c576040517f08c379a0000000000000000000000000000000000000000000000000000000008152600401611b8390613109565b60405180910390fd5b611b9860008383611752565b6001600360008473ffffffffffffffffffffffffffffffffffffffff1673ffffffffffffffffffffffffffffffffffffffff1681526020019081526020016000206000828254611be89190612a03565b92505081905550816002600083815260200190815260200160002060006101000a81548173ffffffffffffffffffffffffffffffffffffffff021916908373ffffffffffffffffffffffffffffffffffffffff160217905550808273ffffffffffffffffffffffffffffffffffffffff16600073ffffffffffffffffffffffffffffffffffffffff167fddf252ad1be2c89b69c2b068fc378daa952ba7f163c4a11628f55a4df523b3ef60405160405180910390a4611ca960008383611762565b5050565b828054611cb990612489565b90600052602060002090601f016020900481019282611cdb5760008555611d22565b82601f10611cf457805160ff1916838001178555611d22565b82800160010185558215611d22579182015b82811115611d21578251825591602001919060010190611d06565b5b509050611d2f9190611d33565b5090565b5b80821115611d4c576000816000905550600101611d34565b5090565b6000604051905090565b600080fd5b600080fd5b60007fffffffff0000000000000000000000000000000000000000000000000000000082169050919050565b611d9981611d64565b8114611da457600080fd5b50565b600081359050611db681611d90565b92915050565b600060208284031215611dd257611dd1611d5a565b5b6000611de084828501611da7565b91505092915050565b60008115159050919050565b611dfe81611de9565b82525050565b6000602082019050611e196000830184611df5565b92915050565b600081519050919050565b600082825260208201905092915050565b60005b83811015611e59578082015181840152602081019050611e3e565b83811115611e68576000848401525b50505050565b6000601f19601f8301169050919050565b6000611e8a82611e1f565b611e948185611e2a565b9350611ea4818560208601611e3b565b611ead81611e6e565b840191505092915050565b60006020820190508181036000830152611ed28184611e7f565b905092915050565b6000819050919050565b611eed81611eda565b8114611ef857600080fd5b50565b600081359050611f0a81611ee4565b92915050565b600060208284031215611f2657611f25611d5a565b5b6000611f3484828501611efb565b91505092915050565b600073ffffffffffffffffffffffffffffffffffffffff82169050919050565b6000611f6882611f3d565b9050919050565b611f7881611f5d565b82525050565b6000602082019050611f936000830184611f6f565b92915050565b611fa281611f5d565b8114611fad57600080fd5b50565b600081359050611fbf81611f99565b92915050565b60008060408385031215611fdc57611fdb611d5a565b5b6000611fea85828601611fb0565b9250506020611ffb85828601611efb565b9150509250929050565b60008060006060848603121561201e5761201d611d5a565b5b600061202c86828701611fb0565b935050602061203d86828701611fb0565b925050604061204e86828701611efb565b9150509250925092565b61206181611eda565b82525050565b600060608201905061207c6000830186612058565b6120896020830185611f6f565b6120966040830184612058565b949350505050565b6000602082840312156120b4576120b3611d5a565b5b60006120c284828501611fb0565b91505092915050565b60006020820190506120e06000830184612058565b92915050565b6120ef81611de9565b81146120fa57600080fd5b50565b60008135905061210c816120e6565b92915050565b6000806040838503121561212957612128611d5a565b5b600061213785828601611fb0565b9250506020612148858286016120fd565b9150509250929050565b600080fd5b600080fd5b7f4e487b7100000000000000000000000000000000000000000000000000000000600052604160045260246000fd5b61219482611e6e565b810181811067ffffffffffffffff821117156121b3576121b261215c565b5b80604052505050565b60006121c6611d50565b90506121d2828261218b565b919050565b600067ffffffffffffffff8211156121f2576121f161215c565b5b6121fb82611e6e565b9050602081019050919050565b82818337600083830152505050565b600061222a612225846121d7565b6121bc565b90508281526020810184848401111561224657612245612157565b5b612251848285612208565b509392505050565b600082601f83011261226e5761226d612152565b5b813561227e848260208601612217565b91505092915050565b600080600080608085870312156122a1576122a0611d5a565b5b60006122af87828801611fb0565b94505060206122c087828801611fb0565b93505060406122d187828801611efb565b925050606085013567ffffffffffffffff8111156122f2576122f1611d5f565b5b6122fe87828801612259565b91505092959194509250565b600067ffffffffffffffff8211156123255761232461215c565b5b61232e82611e6e565b9050602081019050919050565b600061234e6123498461230a565b6121bc565b90508281526020810184848401111561236a57612369612157565b5b612375848285612208565b509392505050565b600082601f83011261239257612391612152565b5b81356123a284826020860161233b565b91505092915050565b6000806000606084860312156123c4576123c3611d5a565b5b60006123d286828701611fb0565b935050602084013567ffffffffffffffff8111156123f3576123f2611d5f565b5b6123ff8682870161237d565b925050604061241086828701611efb565b9150509250925092565b6000806040838503121561243157612430611d5a565b5b600061243f85828601611fb0565b925050602061245085828601611fb0565b9150509250929050565b7f4e487b7100000000000000000000000000000000000000000000000000000000600052602260045260246000fd5b600060028204905060018216806124a157607f821691505b602082108114156124b5576124b461245a565b5b50919050565b7f4552433732313a20617070726f76656420717565727920666f72206e6f6e657860008201527f697374656e7420746f6b656e0000000000000000000000000000000000000000602082015250565b6000612517602c83611e2a565b9150612522826124bb565b604082019050919050565b600060208201905081810360008301526125468161250a565b9050919050565b7f4552433732313a20617070726f76616c20746f2063757272656e74206f776e6560008201527f7200000000000000000000000000000000000000000000000000000000000000602082015250565b60006125a9602183611e2a565b91506125b48261254d565b604082019050919050565b600060208201905081810360008301526125d88161259c565b9050919050565b7f4552433732313a20617070726f76652063616c6c6572206973206e6f74206f7760008201527f6e6572206e6f7220617070726f76656420666f7220616c6c0000000000000000602082015250565b600061263b603883611e2a565b9150612646826125df565b604082019050919050565b6000602082019050818103600083015261266a8161262e565b9050919050565b7f4552433732313a207472616e736665722063616c6c6572206973206e6f74206f60008201527f776e6572206e6f7220617070726f766564000000000000000000000000000000602082015250565b60006126cd603183611e2a565b91506126d882612671565b604082019050919050565b600060208201905081810360008301526126fc816126c0565b9050919050565b7f4552433732313a206f776e657220717565727920666f72206e6f6e657869737460008201527f656e7420746f6b656e0000000000000000000000000000000000000000000000602082015250565b600061275f602983611e2a565b915061276a82612703565b604082019050919050565b6000602082019050818103600083015261278e81612752565b9050919050565b7f4552433732313a2062616c616e636520717565727920666f7220746865207a6560008201527f726f206164647265737300000000000000000000000000000000000000000000602082015250565b60006127f1602a83611e2a565b91506127fc82612795565b604082019050919050565b60006020820190508181036000830152612820816127e4565b9050919050565b7f596f75206861766520746f206f776e2074686520746f6b656e20746f2074726160008201527f6e73666572206974000000000000000000000000000000000000000000000000602082015250565b6000612883602883611e2a565b915061288e82612827565b604082019050919050565b600060208201905081810360008301526128b281612876565b9050919050565b60006040820190506128ce6000830185612058565b6128db6020830184612058565b9392505050565b7f45524337323155524953746f726167653a2055524920717565727920666f722060008201527f6e6f6e6578697374656e7420746f6b656e000000000000000000000000000000602082015250565b600061293e603183611e2a565b9150612949826128e2565b604082019050919050565b6000602082019050818103600083015261296d81612931565b9050919050565b600081905092915050565b600061298a82611e1f565b6129948185612974565b93506129a4818560208601611e3b565b80840191505092915050565b60006129bc828561297f565b91506129c8828461297f565b91508190509392505050565b7f4e487b7100000000000000000000000000000000000000000000000000000000600052601160045260246000fd5b6000612a0e82611eda565b9150612a1983611eda565b9250827fffffffffffffffffffffffffffffffffffffffffffffffffffffffffffffffff03821115612a4e57612a4d6129d4565b5b828201905092915050565b6000612a6482611eda565b91507fffffffffffffffffffffffffffffffffffffffffffffffffffffffffffffffff821415612a9757612a966129d4565b5b600182019050919050565b7f4552433732313a206f70657261746f7220717565727920666f72206e6f6e657860008201527f697374656e7420746f6b656e0000000000000000000000000000000000000000602082015250565b6000612afe602c83611e2a565b9150612b0982612aa2565b604082019050919050565b60006020820190508181036000830152612b2d81612af1565b9050919050565b7f4552433732313a207472616e736665722066726f6d20696e636f72726563742060008201527f6f776e6572000000000000000000000000000000000000000000000000000000602082015250565b6000612b90602583611e2a565b9150612b9b82612b34565b604082019050919050565b60006020820190508181036000830152612bbf81612b83565b9050919050565b7f4552433732313a207472616e7366657220746f20746865207a65726f2061646460008201527f7265737300000000000000000000000000000000000000000000000000000000602082015250565b6000612c22602483611e2a565b9150612c2d82612bc6565b604082019050919050565b60006020820190508181036000830152612c5181612c15565b9050919050565b6000612c6382611eda565b9150612c6e83611eda565b925082821015612c8157612c806129d4565b5b828203905092915050565b7f4552433732313a20617070726f766520746f2063616c6c657200000000000000600082015250565b6000612cc2601983611e2a565b9150612ccd82612c8c565b602082019050919050565b60006020820190508181036000830152612cf181612cb5565b9050919050565b7f4552433732313a207472616e7366657220746f206e6f6e20455243373231526560008201527f63656976657220696d706c656d656e7465720000000000000000000000000000602082015250565b6000612d54603283611e2a565b9150612d5f82612cf8565b604082019050919050565b60006020820190508181036000830152612d8381612d47565b9050919050565b7f45524337323155524953746f726167653a2055524920736574206f66206e6f6e60008201527f6578697374656e7420746f6b656e000000000000000000000000000000000000602082015250565b6000612de6602e83611e2a565b9150612df182612d8a565b604082019050919050565b60006020820190508181036000830152612e1581612dd9565b9050919050565b7f4552433732314d657461646174613a2055524920717565727920666f72206e6f60008201527f6e6578697374656e7420746f6b656e0000000000000000000000000000000000602082015250565b6000612e78602f83611e2a565b9150612e8382612e1c565b604082019050919050565b60006020820190508181036000830152612ea781612e6b565b9050919050565b600081519050919050565b600082825260208201905092915050565b6000612ed582612eae565b612edf8185612eb9565b9350612eef818560208601611e3b565b612ef881611e6e565b840191505092915050565b6000608082019050612f186000830187611f6f565b612f256020830186611f6f565b612f326040830185612058565b8181036060830152612f448184612eca565b905095945050505050565b600081519050612f5e81611d90565b92915050565b600060208284031215612f7a57612f79611d5a565b5b6000612f8884828501612f4f565b91505092915050565b7f4e487b7100000000000000000000000000000000000000000000000000000000600052601260045260246000fd5b6000612fcb82611eda565b9150612fd683611eda565b925082612fe657612fe5612f91565b5b828204905092915050565b6000612ffc82611eda565b915061300783611eda565b92508261301757613016612f91565b5b828206905092915050565b7f4e487b7100000000000000000000000000000000000000000000000000000000600052603260045260246000fd5b7f4552433732313a206d696e7420746f20746865207a65726f2061646472657373600082015250565b6000613087602083611e2a565b915061309282613051565b602082019050919050565b600060208201905081810360008301526130b68161307a565b9050919050565b7f4552433732313a20746f6b656e20616c7265616479206d696e74656400000000600082015250565b60006130f3601c83611e2a565b91506130fe826130bd565b602082019050919050565b60006020820190508181036000830152613122816130e6565b905091905056fea264697066735822122063bcf7d6b22aa81097a02800ad54d1d4d44a40821e52bccd589bc56560545e0e64736f6c634300080b0033",
  "linkReferences": {},
  "deployedLinkReferences": {}
}